{
	"contracts/KipuBankV2.sol": {
		"KipuBankV2": {
			"abi": [
				{
					"inputs": [
						{
							"internalType": "address",
							"name": "initialOwner",
							"type": "address"
						},
						{
							"internalType": "address",
							"name": "_ethFeed",
							"type": "address"
						},
						{
							"internalType": "address",
							"name": "_btcFeed",
							"type": "address"
						},
						{
							"internalType": "address",
							"name": "_btc",
							"type": "address"
						},
						{
							"internalType": "address",
							"name": "_usdc",
							"type": "address"
						},
						{
							"internalType": "uint256",
							"name": "_bankCap",
							"type": "uint256"
						},
						{
							"internalType": "uint256",
							"name": "_maxWithdrawal",
							"type": "uint256"
						}
					],
					"stateMutability": "nonpayable",
					"type": "constructor"
				},
				{
					"inputs": [],
					"name": "KipuBank_DeniedContract",
					"type": "error"
				},
				{
					"inputs": [
						{
							"internalType": "bytes",
							"name": "error",
							"type": "bytes"
						}
					],
					"name": "KipuBank_FailedDeposit",
					"type": "error"
				},
				{
					"inputs": [
						{
							"internalType": "bytes",
							"name": "error",
							"type": "bytes"
						}
					],
					"name": "KipuBank_FailedOperation",
					"type": "error"
				},
				{
					"inputs": [
						{
							"internalType": "bytes",
							"name": "error",
							"type": "bytes"
						}
					],
					"name": "KipuBank_FailedWithdrawal",
					"type": "error"
				},
				{
					"inputs": [
						{
							"internalType": "bytes",
							"name": "error",
							"type": "bytes"
						}
					],
					"name": "KipuBank_InsufficientFounds",
					"type": "error"
				},
				{
					"inputs": [
						{
							"internalType": "address",
							"name": "token",
							"type": "address"
						}
					],
					"name": "KipuBank_NotSupportedToken",
					"type": "error"
				},
				{
					"inputs": [],
					"name": "KipuBank_OracleCompromised",
					"type": "error"
				},
				{
					"inputs": [],
					"name": "KipuBank_StalePrice",
					"type": "error"
				},
				{
					"inputs": [
						{
							"internalType": "address",
							"name": "owner",
							"type": "address"
						}
					],
					"name": "OwnableInvalidOwner",
					"type": "error"
				},
				{
					"inputs": [
						{
							"internalType": "address",
							"name": "account",
							"type": "address"
						}
					],
					"name": "OwnableUnauthorizedAccount",
					"type": "error"
				},
				{
					"inputs": [],
					"name": "ReentrancyGuardReentrantCall",
					"type": "error"
				},
				{
					"anonymous": false,
					"inputs": [
						{
							"indexed": false,
							"internalType": "address",
							"name": "feed",
							"type": "address"
						}
					],
					"name": "KipuBank_ChainlinkFeedUpdated",
					"type": "event"
				},
				{
					"anonymous": false,
					"inputs": [
						{
							"indexed": false,
							"internalType": "address",
							"name": "receiver",
							"type": "address"
						},
						{
							"indexed": false,
							"internalType": "uint256",
							"name": "amount",
							"type": "uint256"
						}
					],
					"name": "KipuBank_SuccessfulDeposit",
					"type": "event"
				},
				{
					"anonymous": false,
					"inputs": [
						{
							"indexed": false,
							"internalType": "address",
							"name": "receiver",
							"type": "address"
						},
						{
							"indexed": false,
							"internalType": "uint256",
							"name": "amount",
							"type": "uint256"
						}
					],
					"name": "KipuBank_SuccessfulWithdrawal",
					"type": "event"
				},
				{
					"anonymous": false,
					"inputs": [
						{
							"indexed": true,
							"internalType": "address",
							"name": "previousOwner",
							"type": "address"
						},
						{
							"indexed": true,
							"internalType": "address",
							"name": "newOwner",
							"type": "address"
						}
					],
					"name": "OwnershipTransferred",
					"type": "event"
				},
				{
					"stateMutability": "nonpayable",
					"type": "fallback"
				},
				{
					"inputs": [],
					"name": "consultKipuBankFounds",
					"outputs": [
						{
							"internalType": "uint256",
							"name": "amount_",
							"type": "uint256"
						}
					],
					"stateMutability": "view",
					"type": "function"
				},
				{
					"inputs": [],
					"name": "deposit",
					"outputs": [],
					"stateMutability": "payable",
					"type": "function"
				},
				{
					"inputs": [
						{
							"internalType": "uint256",
							"name": "amount",
							"type": "uint256"
						}
					],
					"name": "depositBTC",
					"outputs": [],
					"stateMutability": "nonpayable",
					"type": "function"
				},
				{
					"inputs": [
						{
							"internalType": "uint256",
							"name": "amount",
							"type": "uint256"
						}
					],
					"name": "depositUSDC",
					"outputs": [],
					"stateMutability": "nonpayable",
					"type": "function"
				},
				{
					"inputs": [
						{
							"internalType": "address",
							"name": "token",
							"type": "address"
						},
						{
							"internalType": "uint256",
							"name": "amount",
							"type": "uint256"
						},
						{
							"internalType": "address",
							"name": "recipient",
							"type": "address"
						}
					],
					"name": "emergencyWithdrawal",
					"outputs": [],
					"stateMutability": "nonpayable",
					"type": "function"
				},
				{
					"inputs": [],
					"name": "i_bankCap",
					"outputs": [
						{
							"internalType": "uint256",
							"name": "",
							"type": "uint256"
						}
					],
					"stateMutability": "view",
					"type": "function"
				},
				{
					"inputs": [],
					"name": "i_btc",
					"outputs": [
						{
							"internalType": "contract IERC20",
							"name": "",
							"type": "address"
						}
					],
					"stateMutability": "view",
					"type": "function"
				},
				{
					"inputs": [],
					"name": "i_maxWithdrawal",
					"outputs": [
						{
							"internalType": "uint256",
							"name": "",
							"type": "uint256"
						}
					],
					"stateMutability": "view",
					"type": "function"
				},
				{
					"inputs": [],
					"name": "i_usdc",
					"outputs": [
						{
							"internalType": "contract IERC20",
							"name": "",
							"type": "address"
						}
					],
					"stateMutability": "view",
					"type": "function"
				},
				{
					"inputs": [],
					"name": "owner",
					"outputs": [
						{
							"internalType": "address",
							"name": "",
							"type": "address"
						}
					],
					"stateMutability": "view",
					"type": "function"
				},
				{
					"inputs": [],
					"name": "renounceOwnership",
					"outputs": [],
					"stateMutability": "nonpayable",
					"type": "function"
				},
				{
					"inputs": [],
					"name": "s_btcFeed",
					"outputs": [
						{
							"internalType": "contract AggregatorV3Interface",
							"name": "",
							"type": "address"
						}
					],
					"stateMutability": "view",
					"type": "function"
				},
				{
					"inputs": [],
					"name": "s_ethFeed",
					"outputs": [
						{
							"internalType": "contract AggregatorV3Interface",
							"name": "",
							"type": "address"
						}
					],
					"stateMutability": "view",
					"type": "function"
				},
				{
					"inputs": [
						{
							"internalType": "address",
							"name": "token",
							"type": "address"
						}
					],
					"name": "s_supportedTokens",
					"outputs": [
						{
							"internalType": "bool",
							"name": "isSupported",
							"type": "bool"
						}
					],
					"stateMutability": "view",
					"type": "function"
				},
				{
					"inputs": [
						{
							"internalType": "address",
							"name": "",
							"type": "address"
						}
					],
					"name": "s_totalDepositsByToken",
					"outputs": [
						{
							"internalType": "uint256",
							"name": "",
							"type": "uint256"
						}
					],
					"stateMutability": "view",
					"type": "function"
				},
				{
					"inputs": [
						{
							"internalType": "address",
							"name": "",
							"type": "address"
						}
					],
					"name": "s_totalWithdrawalsByToken",
					"outputs": [
						{
							"internalType": "uint256",
							"name": "",
							"type": "uint256"
						}
					],
					"stateMutability": "view",
					"type": "function"
				},
				{
					"inputs": [
						{
							"internalType": "address",
							"name": "_btcFeed",
							"type": "address"
						},
						{
							"internalType": "address",
							"name": "_ethFeed",
							"type": "address"
						}
					],
					"name": "setFeeds",
					"outputs": [],
					"stateMutability": "nonpayable",
					"type": "function"
				},
				{
					"inputs": [
						{
							"internalType": "address",
							"name": "newOwner",
							"type": "address"
						}
					],
					"name": "transferOwnership",
					"outputs": [],
					"stateMutability": "nonpayable",
					"type": "function"
				},
				{
					"inputs": [
						{
							"internalType": "uint256",
							"name": "amount",
							"type": "uint256"
						}
					],
					"name": "withdraw",
					"outputs": [],
					"stateMutability": "nonpayable",
					"type": "function"
				},
				{
					"inputs": [
						{
							"internalType": "uint256",
							"name": "amount",
							"type": "uint256"
						}
					],
					"name": "withdrawBTC",
					"outputs": [],
					"stateMutability": "nonpayable",
					"type": "function"
				},
				{
					"inputs": [
						{
							"internalType": "uint256",
							"name": "amount",
							"type": "uint256"
						}
					],
					"name": "withdrawUSDC",
					"outputs": [],
					"stateMutability": "nonpayable",
					"type": "function"
				},
				{
					"stateMutability": "payable",
					"type": "receive"
				}
			],
			"devdoc": {
				"errors": {
					"OwnableInvalidOwner(address)": [
						{
							"details": "The owner is not a valid owner account. (eg. `address(0)`)"
						}
					],
					"OwnableUnauthorizedAccount(address)": [
						{
							"details": "The caller account is not authorized to perform an operation."
						}
					],
					"ReentrancyGuardReentrantCall()": [
						{
							"details": "Unauthorized reentrant call."
						}
					]
				},
				"kind": "dev",
				"methods": {
					"owner()": {
						"details": "Returns the address of the current owner."
					},
					"renounceOwnership()": {
						"details": "Leaves the contract without owner. It will not be possible to call `onlyOwner` functions. Can only be called by the current owner. NOTE: Renouncing ownership will leave the contract without an owner, thereby disabling any functionality that is only available to the owner."
					},
					"transferOwnership(address)": {
						"details": "Transfers ownership of the contract to a new account (`newOwner`). Can only be called by the current owner."
					}
				},
				"version": 1
			},
			"evm": {
				"assembly": "    /* \"contracts/KipuBankV2.sol\":687:13498  contract KipuBankV2 is Ownable, ReentrancyGuard{... */\n  mstore(0x40, 0x0100)\n    /* \"contracts/KipuBankV2.sol\":4968:5688  constructor(... */\n  callvalue\n  dup1\n  iszero\n  tag_1\n  jumpi\n  0x00\n  dup1\n  revert\ntag_1:\n  pop\n  mload(0x40)\n  sub(codesize, bytecodeSize)\n  dup1\n  bytecodeSize\n  dup4\n  codecopy\n  dup2\n  dup2\n  add\n  0x40\n  mstore\n  dup2\n  add\n  swap1\n  tag_2\n  swap2\n  swap1\n  tag_3\n  jump\t// in\ntag_2:\n    /* \"contracts/KipuBankV2.sol\":5167:5179  initialOwner */\n  dup7\n    /* \"@openzeppelin/contracts/access/Ownable.sol\":1297:1298  0 */\n  0x00\n    /* \"@openzeppelin/contracts/access/Ownable.sol\":1273:1299  initialOwner == address(0) */\n  0xffffffffffffffffffffffffffffffffffffffff\n  and\n    /* \"@openzeppelin/contracts/access/Ownable.sol\":1273:1285  initialOwner */\n  dup2\n    /* \"@openzeppelin/contracts/access/Ownable.sol\":1273:1299  initialOwner == address(0) */\n  0xffffffffffffffffffffffffffffffffffffffff\n  and\n  sub\n    /* \"@openzeppelin/contracts/access/Ownable.sol\":1269:1364  if (initialOwner == address(0)) {... */\n  tag_8\n  jumpi\n    /* \"@openzeppelin/contracts/access/Ownable.sol\":1350:1351  0 */\n  0x00\n    /* \"@openzeppelin/contracts/access/Ownable.sol\":1322:1353  OwnableInvalidOwner(address(0)) */\n  mload(0x40)\n  0x1e4fbdf700000000000000000000000000000000000000000000000000000000\n  dup2\n  mstore\n  0x04\n  add\n  tag_9\n  swap2\n  swap1\n  tag_10\n  jump\t// in\ntag_9:\n  mload(0x40)\n  dup1\n  swap2\n  sub\n  swap1\n  revert\n    /* \"@openzeppelin/contracts/access/Ownable.sol\":1269:1364  if (initialOwner == address(0)) {... */\ntag_8:\n    /* \"@openzeppelin/contracts/access/Ownable.sol\":1373:1405  _transferOwnership(initialOwner) */\n  tag_11\n    /* \"@openzeppelin/contracts/access/Ownable.sol\":1392:1404  initialOwner */\n  dup2\n    /* \"@openzeppelin/contracts/access/Ownable.sol\":1373:1391  _transferOwnership */\n  shl(0x20, tag_12)\n    /* \"@openzeppelin/contracts/access/Ownable.sol\":1373:1405  _transferOwnership(initialOwner) */\n  0x20\n  shr\n  jump\t// in\ntag_11:\n    /* \"@openzeppelin/contracts/access/Ownable.sol\":1225:1412  constructor(address initialOwner) {... */\n  pop\n    /* \"@openzeppelin/contracts/utils/ReentrancyGuard.sol\":1857:1858  1 */\n  0x01\n    /* \"@openzeppelin/contracts/utils/ReentrancyGuard.sol\":2061:2068  _status */\n  dup1\n    /* \"@openzeppelin/contracts/utils/ReentrancyGuard.sol\":2061:2082  _status = NOT_ENTERED */\n  dup2\n  swap1\n  sstore\n  pop\n    /* \"contracts/KipuBankV2.sol\":5216:5218  10 */\n  0x0a\n    /* \"contracts/KipuBankV2.sol\":5205:5213  _bankCap */\n  dup3\n    /* \"contracts/KipuBankV2.sol\":5205:5218  _bankCap < 10 */\n  lt\n    /* \"contracts/KipuBankV2.sol\":5205:5240  _bankCap < 10 || _maxWithdrawal < 1 */\n  dup1\n  tag_15\n  jumpi\n  pop\n    /* \"contracts/KipuBankV2.sol\":5239:5240  1 */\n  0x01\n    /* \"contracts/KipuBankV2.sol\":5222:5236  _maxWithdrawal */\n  dup2\n    /* \"contracts/KipuBankV2.sol\":5222:5240  _maxWithdrawal < 1 */\n  lt\n    /* \"contracts/KipuBankV2.sol\":5205:5240  _bankCap < 10 || _maxWithdrawal < 1 */\ntag_15:\n    /* \"contracts/KipuBankV2.sol\":5201:5274  if (_bankCap < 10 || _maxWithdrawal < 1) revert KipuBank_DeniedContract() */\n  iszero\n  tag_16\n  jumpi\n    /* \"contracts/KipuBankV2.sol\":5249:5274  KipuBank_DeniedContract() */\n  mload(0x40)\n  0x01d65100000000000000000000000000000000000000000000000000000000\n  dup2\n  mstore\n  0x04\n  add\n  mload(0x40)\n  dup1\n  swap2\n  sub\n  swap1\n  revert\n    /* \"contracts/KipuBankV2.sol\":5201:5274  if (_bankCap < 10 || _maxWithdrawal < 1) revert KipuBank_DeniedContract() */\ntag_16:\n    /* \"contracts/KipuBankV2.sol\":5318:5323  10**8 */\n  0x05f5e100\n    /* \"contracts/KipuBankV2.sol\":5307:5315  _bankCap */\n  dup3\n    /* \"contracts/KipuBankV2.sol\":5307:5323  _bankCap * 10**8 */\n  tag_17\n  swap2\n  swap1\n  tag_18\n  jump\t// in\ntag_17:\n    /* \"contracts/KipuBankV2.sol\":5295:5323  i_bankCap = _bankCap * 10**8 */\n  0x80\n  dup2\n  dup2\n  mstore\n  pop\n  pop\n    /* \"contracts/KipuBankV2.sol\":5369:5374  10**8 */\n  0x05f5e100\n    /* \"contracts/KipuBankV2.sol\":5353:5367  _maxWithdrawal */\n  dup2\n    /* \"contracts/KipuBankV2.sol\":5353:5374  _maxWithdrawal* 10**8 */\n  tag_19\n  swap2\n  swap1\n  tag_18\n  jump\t// in\ntag_19:\n    /* \"contracts/KipuBankV2.sol\":5334:5374  i_maxWithdrawal  = _maxWithdrawal* 10**8 */\n  0xa0\n  dup2\n  dup2\n  mstore\n  pop\n  pop\n    /* \"contracts/KipuBankV2.sol\":5419:5423  true */\n  0x01\n    /* \"contracts/KipuBankV2.sol\":5387:5404  s_supportedTokens */\n  0x03\n    /* \"contracts/KipuBankV2.sol\":5387:5416  s_supportedTokens[address(0)] */\n  0x00\n    /* \"contracts/KipuBankV2.sol\":5413:5414  0 */\n  dup1\n    /* \"contracts/KipuBankV2.sol\":5387:5416  s_supportedTokens[address(0)] */\n  0xffffffffffffffffffffffffffffffffffffffff\n  and\n  0xffffffffffffffffffffffffffffffffffffffff\n  and\n  dup2\n  mstore\n  0x20\n  add\n  swap1\n  dup2\n  mstore\n  0x20\n  add\n  0x00\n  keccak256\n  0x00\n    /* \"contracts/KipuBankV2.sol\":5387:5423  s_supportedTokens[address(0)] = true */\n  0x0100\n  exp\n  dup2\n  sload\n  dup2\n  0xff\n  mul\n  not\n  and\n  swap1\n  dup4\n  iszero\n  iszero\n  mul\n  or\n  swap1\n  sstore\n  pop\n    /* \"contracts/KipuBankV2.sol\":5461:5465  true */\n  0x01\n    /* \"contracts/KipuBankV2.sol\":5434:5451  s_supportedTokens */\n  0x03\n    /* \"contracts/KipuBankV2.sol\":5434:5458  s_supportedTokens[_usdc] */\n  0x00\n    /* \"contracts/KipuBankV2.sol\":5452:5457  _usdc */\n  dup6\n    /* \"contracts/KipuBankV2.sol\":5434:5458  s_supportedTokens[_usdc] */\n  0xffffffffffffffffffffffffffffffffffffffff\n  and\n  0xffffffffffffffffffffffffffffffffffffffff\n  and\n  dup2\n  mstore\n  0x20\n  add\n  swap1\n  dup2\n  mstore\n  0x20\n  add\n  0x00\n  keccak256\n  0x00\n    /* \"contracts/KipuBankV2.sol\":5434:5465  s_supportedTokens[_usdc] = true */\n  0x0100\n  exp\n  dup2\n  sload\n  dup2\n  0xff\n  mul\n  not\n  and\n  swap1\n  dup4\n  iszero\n  iszero\n  mul\n  or\n  swap1\n  sstore\n  pop\n    /* \"contracts/KipuBankV2.sol\":5492:5497  _usdc */\n  dup3\n    /* \"contracts/KipuBankV2.sol\":5476:5498  i_usdc = IERC20(_usdc) */\n  0xffffffffffffffffffffffffffffffffffffffff\n  and\n  0xc0\n  dup2\n  0xffffffffffffffffffffffffffffffffffffffff\n  and\n  dup2\n  mstore\n  pop\n  pop\n    /* \"contracts/KipuBankV2.sol\":5535:5539  true */\n  0x01\n    /* \"contracts/KipuBankV2.sol\":5509:5526  s_supportedTokens */\n  0x03\n    /* \"contracts/KipuBankV2.sol\":5509:5532  s_supportedTokens[_btc] */\n  0x00\n    /* \"contracts/KipuBankV2.sol\":5527:5531  _btc */\n  dup7\n    /* \"contracts/KipuBankV2.sol\":5509:5532  s_supportedTokens[_btc] */\n  0xffffffffffffffffffffffffffffffffffffffff\n  and\n  0xffffffffffffffffffffffffffffffffffffffff\n  and\n  dup2\n  mstore\n  0x20\n  add\n  swap1\n  dup2\n  mstore\n  0x20\n  add\n  0x00\n  keccak256\n  0x00\n    /* \"contracts/KipuBankV2.sol\":5509:5539  s_supportedTokens[_btc] = true */\n  0x0100\n  exp\n  dup2\n  sload\n  dup2\n  0xff\n  mul\n  not\n  and\n  swap1\n  dup4\n  iszero\n  iszero\n  mul\n  or\n  swap1\n  sstore\n  pop\n    /* \"contracts/KipuBankV2.sol\":5565:5569  _btc */\n  dup4\n    /* \"contracts/KipuBankV2.sol\":5550:5570  i_btc = IERC20(_btc) */\n  0xffffffffffffffffffffffffffffffffffffffff\n  and\n  0xe0\n  dup2\n  0xffffffffffffffffffffffffffffffffffffffff\n  and\n  dup2\n  mstore\n  pop\n  pop\n    /* \"contracts/KipuBankV2.sol\":5617:5625  _btcFeed */\n  dup5\n    /* \"contracts/KipuBankV2.sol\":5583:5592  s_btcFeed */\n  0x06\n  0x00\n    /* \"contracts/KipuBankV2.sol\":5583:5626  s_btcFeed = AggregatorV3Interface(_btcFeed) */\n  0x0100\n  exp\n  dup2\n  sload\n  dup2\n  0xffffffffffffffffffffffffffffffffffffffff\n  mul\n  not\n  and\n  swap1\n  dup4\n  0xffffffffffffffffffffffffffffffffffffffff\n  and\n  mul\n  or\n  swap1\n  sstore\n  pop\n    /* \"contracts/KipuBankV2.sol\":5671:5679  _ethFeed */\n  dup6\n    /* \"contracts/KipuBankV2.sol\":5637:5646  s_ethFeed */\n  0x07\n  0x00\n    /* \"contracts/KipuBankV2.sol\":5637:5680  s_ethFeed = AggregatorV3Interface(_ethFeed) */\n  0x0100\n  exp\n  dup2\n  sload\n  dup2\n  0xffffffffffffffffffffffffffffffffffffffff\n  mul\n  not\n  and\n  swap1\n  dup4\n  0xffffffffffffffffffffffffffffffffffffffff\n  and\n  mul\n  or\n  swap1\n  sstore\n  pop\n    /* \"contracts/KipuBankV2.sol\":4968:5688  constructor(... */\n  pop\n  pop\n  pop\n  pop\n  pop\n  pop\n  pop\n    /* \"contracts/KipuBankV2.sol\":687:13498  contract KipuBankV2 is Ownable, ReentrancyGuard{... */\n  jump(tag_20)\n    /* \"@openzeppelin/contracts/access/Ownable.sol\":2912:3099  function _transferOwnership(address newOwner) internal virtual {... */\ntag_12:\n    /* \"@openzeppelin/contracts/access/Ownable.sol\":2985:3001  address oldOwner */\n  0x00\n    /* \"@openzeppelin/contracts/access/Ownable.sol\":3004:3010  _owner */\n  dup1\n  0x00\n  swap1\n  sload\n  swap1\n  0x0100\n  exp\n  swap1\n  div\n  0xffffffffffffffffffffffffffffffffffffffff\n  and\n    /* \"@openzeppelin/contracts/access/Ownable.sol\":2985:3010  address oldOwner = _owner */\n  swap1\n  pop\n    /* \"@openzeppelin/contracts/access/Ownable.sol\":3029:3037  newOwner */\n  dup2\n    /* \"@openzeppelin/contracts/access/Ownable.sol\":3020:3026  _owner */\n  0x00\n  dup1\n    /* \"@openzeppelin/contracts/access/Ownable.sol\":3020:3037  _owner = newOwner */\n  0x0100\n  exp\n  dup2\n  sload\n  dup2\n  0xffffffffffffffffffffffffffffffffffffffff\n  mul\n  not\n  and\n  swap1\n  dup4\n  0xffffffffffffffffffffffffffffffffffffffff\n  and\n  mul\n  or\n  swap1\n  sstore\n  pop\n    /* \"@openzeppelin/contracts/access/Ownable.sol\":3083:3091  newOwner */\n  dup2\n    /* \"@openzeppelin/contracts/access/Ownable.sol\":3052:3092  OwnershipTransferred(oldOwner, newOwner) */\n  0xffffffffffffffffffffffffffffffffffffffff\n  and\n    /* \"@openzeppelin/contracts/access/Ownable.sol\":3073:3081  oldOwner */\n  dup2\n    /* \"@openzeppelin/contracts/access/Ownable.sol\":3052:3092  OwnershipTransferred(oldOwner, newOwner) */\n  0xffffffffffffffffffffffffffffffffffffffff\n  and\n  0x8be0079c531659141344cd1fd0a4f28419497f9722a3daafe3b4186f6b6457e0\n  mload(0x40)\n  mload(0x40)\n  dup1\n  swap2\n  sub\n  swap1\n  log3\n    /* \"@openzeppelin/contracts/access/Ownable.sol\":2975:3099  {... */\n  pop\n    /* \"@openzeppelin/contracts/access/Ownable.sol\":2912:3099  function _transferOwnership(address newOwner) internal virtual {... */\n  pop\n  jump\t// out\n    /* \"#utility.yul\":88:205   */\ntag_23:\n    /* \"#utility.yul\":197:198   */\n  0x00\n    /* \"#utility.yul\":194:195   */\n  dup1\n    /* \"#utility.yul\":187:199   */\n  revert\n    /* \"#utility.yul\":334:460   */\ntag_25:\n    /* \"#utility.yul\":371:378   */\n  0x00\n    /* \"#utility.yul\":411:453   */\n  0xffffffffffffffffffffffffffffffffffffffff\n    /* \"#utility.yul\":404:409   */\n  dup3\n    /* \"#utility.yul\":400:454   */\n  and\n    /* \"#utility.yul\":389:454   */\n  swap1\n  pop\n    /* \"#utility.yul\":334:460   */\n  swap2\n  swap1\n  pop\n  jump\t// out\n    /* \"#utility.yul\":466:562   */\ntag_26:\n    /* \"#utility.yul\":503:510   */\n  0x00\n    /* \"#utility.yul\":532:556   */\n  tag_40\n    /* \"#utility.yul\":550:555   */\n  dup3\n    /* \"#utility.yul\":532:556   */\n  tag_25\n  jump\t// in\ntag_40:\n    /* \"#utility.yul\":521:556   */\n  swap1\n  pop\n    /* \"#utility.yul\":466:562   */\n  swap2\n  swap1\n  pop\n  jump\t// out\n    /* \"#utility.yul\":568:690   */\ntag_27:\n    /* \"#utility.yul\":641:665   */\n  tag_42\n    /* \"#utility.yul\":659:664   */\n  dup2\n    /* \"#utility.yul\":641:665   */\n  tag_26\n  jump\t// in\ntag_42:\n    /* \"#utility.yul\":634:639   */\n  dup2\n    /* \"#utility.yul\":631:666   */\n  eq\n    /* \"#utility.yul\":621:684   */\n  tag_43\n  jumpi\n    /* \"#utility.yul\":680:681   */\n  0x00\n    /* \"#utility.yul\":677:678   */\n  dup1\n    /* \"#utility.yul\":670:682   */\n  revert\n    /* \"#utility.yul\":621:684   */\ntag_43:\n    /* \"#utility.yul\":568:690   */\n  pop\n  jump\t// out\n    /* \"#utility.yul\":696:839   */\ntag_28:\n    /* \"#utility.yul\":753:758   */\n  0x00\n    /* \"#utility.yul\":784:790   */\n  dup2\n    /* \"#utility.yul\":778:791   */\n  mload\n    /* \"#utility.yul\":769:791   */\n  swap1\n  pop\n    /* \"#utility.yul\":800:833   */\n  tag_45\n    /* \"#utility.yul\":827:832   */\n  dup2\n    /* \"#utility.yul\":800:833   */\n  tag_27\n  jump\t// in\ntag_45:\n    /* \"#utility.yul\":696:839   */\n  swap3\n  swap2\n  pop\n  pop\n  jump\t// out\n    /* \"#utility.yul\":845:922   */\ntag_29:\n    /* \"#utility.yul\":882:889   */\n  0x00\n    /* \"#utility.yul\":911:916   */\n  dup2\n    /* \"#utility.yul\":900:916   */\n  swap1\n  pop\n    /* \"#utility.yul\":845:922   */\n  swap2\n  swap1\n  pop\n  jump\t// out\n    /* \"#utility.yul\":928:1050   */\ntag_30:\n    /* \"#utility.yul\":1001:1025   */\n  tag_48\n    /* \"#utility.yul\":1019:1024   */\n  dup2\n    /* \"#utility.yul\":1001:1025   */\n  tag_29\n  jump\t// in\ntag_48:\n    /* \"#utility.yul\":994:999   */\n  dup2\n    /* \"#utility.yul\":991:1026   */\n  eq\n    /* \"#utility.yul\":981:1044   */\n  tag_49\n  jumpi\n    /* \"#utility.yul\":1040:1041   */\n  0x00\n    /* \"#utility.yul\":1037:1038   */\n  dup1\n    /* \"#utility.yul\":1030:1042   */\n  revert\n    /* \"#utility.yul\":981:1044   */\ntag_49:\n    /* \"#utility.yul\":928:1050   */\n  pop\n  jump\t// out\n    /* \"#utility.yul\":1056:1199   */\ntag_31:\n    /* \"#utility.yul\":1113:1118   */\n  0x00\n    /* \"#utility.yul\":1144:1150   */\n  dup2\n    /* \"#utility.yul\":1138:1151   */\n  mload\n    /* \"#utility.yul\":1129:1151   */\n  swap1\n  pop\n    /* \"#utility.yul\":1160:1193   */\n  tag_51\n    /* \"#utility.yul\":1187:1192   */\n  dup2\n    /* \"#utility.yul\":1160:1193   */\n  tag_30\n  jump\t// in\ntag_51:\n    /* \"#utility.yul\":1056:1199   */\n  swap3\n  swap2\n  pop\n  pop\n  jump\t// out\n    /* \"#utility.yul\":1205:2496   */\ntag_3:\n    /* \"#utility.yul\":1329:1335   */\n  0x00\n    /* \"#utility.yul\":1337:1343   */\n  dup1\n    /* \"#utility.yul\":1345:1351   */\n  0x00\n    /* \"#utility.yul\":1353:1359   */\n  dup1\n    /* \"#utility.yul\":1361:1367   */\n  0x00\n    /* \"#utility.yul\":1369:1375   */\n  dup1\n    /* \"#utility.yul\":1377:1383   */\n  0x00\n    /* \"#utility.yul\":1426:1429   */\n  0xe0\n    /* \"#utility.yul\":1414:1423   */\n  dup9\n    /* \"#utility.yul\":1405:1412   */\n  dup11\n    /* \"#utility.yul\":1401:1424   */\n  sub\n    /* \"#utility.yul\":1397:1430   */\n  slt\n    /* \"#utility.yul\":1394:1514   */\n  iszero\n  tag_53\n  jumpi\n    /* \"#utility.yul\":1433:1512   */\n  tag_54\n  tag_23\n  jump\t// in\ntag_54:\n    /* \"#utility.yul\":1394:1514   */\ntag_53:\n    /* \"#utility.yul\":1553:1554   */\n  0x00\n    /* \"#utility.yul\":1578:1642   */\n  tag_55\n    /* \"#utility.yul\":1634:1641   */\n  dup11\n    /* \"#utility.yul\":1625:1631   */\n  dup3\n    /* \"#utility.yul\":1614:1623   */\n  dup12\n    /* \"#utility.yul\":1610:1632   */\n  add\n    /* \"#utility.yul\":1578:1642   */\n  tag_28\n  jump\t// in\ntag_55:\n    /* \"#utility.yul\":1568:1642   */\n  swap8\n  pop\n    /* \"#utility.yul\":1524:1652   */\n  pop\n    /* \"#utility.yul\":1691:1693   */\n  0x20\n    /* \"#utility.yul\":1717:1781   */\n  tag_56\n    /* \"#utility.yul\":1773:1780   */\n  dup11\n    /* \"#utility.yul\":1764:1770   */\n  dup3\n    /* \"#utility.yul\":1753:1762   */\n  dup12\n    /* \"#utility.yul\":1749:1771   */\n  add\n    /* \"#utility.yul\":1717:1781   */\n  tag_28\n  jump\t// in\ntag_56:\n    /* \"#utility.yul\":1707:1781   */\n  swap7\n  pop\n    /* \"#utility.yul\":1662:1791   */\n  pop\n    /* \"#utility.yul\":1830:1832   */\n  0x40\n    /* \"#utility.yul\":1856:1920   */\n  tag_57\n    /* \"#utility.yul\":1912:1919   */\n  dup11\n    /* \"#utility.yul\":1903:1909   */\n  dup3\n    /* \"#utility.yul\":1892:1901   */\n  dup12\n    /* \"#utility.yul\":1888:1910   */\n  add\n    /* \"#utility.yul\":1856:1920   */\n  tag_28\n  jump\t// in\ntag_57:\n    /* \"#utility.yul\":1846:1920   */\n  swap6\n  pop\n    /* \"#utility.yul\":1801:1930   */\n  pop\n    /* \"#utility.yul\":1969:1971   */\n  0x60\n    /* \"#utility.yul\":1995:2059   */\n  tag_58\n    /* \"#utility.yul\":2051:2058   */\n  dup11\n    /* \"#utility.yul\":2042:2048   */\n  dup3\n    /* \"#utility.yul\":2031:2040   */\n  dup12\n    /* \"#utility.yul\":2027:2049   */\n  add\n    /* \"#utility.yul\":1995:2059   */\n  tag_28\n  jump\t// in\ntag_58:\n    /* \"#utility.yul\":1985:2059   */\n  swap5\n  pop\n    /* \"#utility.yul\":1940:2069   */\n  pop\n    /* \"#utility.yul\":2108:2111   */\n  0x80\n    /* \"#utility.yul\":2135:2199   */\n  tag_59\n    /* \"#utility.yul\":2191:2198   */\n  dup11\n    /* \"#utility.yul\":2182:2188   */\n  dup3\n    /* \"#utility.yul\":2171:2180   */\n  dup12\n    /* \"#utility.yul\":2167:2189   */\n  add\n    /* \"#utility.yul\":2135:2199   */\n  tag_28\n  jump\t// in\ntag_59:\n    /* \"#utility.yul\":2125:2199   */\n  swap4\n  pop\n    /* \"#utility.yul\":2079:2209   */\n  pop\n    /* \"#utility.yul\":2248:2251   */\n  0xa0\n    /* \"#utility.yul\":2275:2339   */\n  tag_60\n    /* \"#utility.yul\":2331:2338   */\n  dup11\n    /* \"#utility.yul\":2322:2328   */\n  dup3\n    /* \"#utility.yul\":2311:2320   */\n  dup12\n    /* \"#utility.yul\":2307:2329   */\n  add\n    /* \"#utility.yul\":2275:2339   */\n  tag_31\n  jump\t// in\ntag_60:\n    /* \"#utility.yul\":2265:2339   */\n  swap3\n  pop\n    /* \"#utility.yul\":2219:2349   */\n  pop\n    /* \"#utility.yul\":2388:2391   */\n  0xc0\n    /* \"#utility.yul\":2415:2479   */\n  tag_61\n    /* \"#utility.yul\":2471:2478   */\n  dup11\n    /* \"#utility.yul\":2462:2468   */\n  dup3\n    /* \"#utility.yul\":2451:2460   */\n  dup12\n    /* \"#utility.yul\":2447:2469   */\n  add\n    /* \"#utility.yul\":2415:2479   */\n  tag_31\n  jump\t// in\ntag_61:\n    /* \"#utility.yul\":2405:2479   */\n  swap2\n  pop\n    /* \"#utility.yul\":2359:2489   */\n  pop\n    /* \"#utility.yul\":1205:2496   */\n  swap3\n  swap6\n  swap9\n  swap2\n  swap5\n  swap8\n  pop\n  swap3\n  swap6\n  pop\n  jump\t// out\n    /* \"#utility.yul\":2502:2620   */\ntag_32:\n    /* \"#utility.yul\":2589:2613   */\n  tag_63\n    /* \"#utility.yul\":2607:2612   */\n  dup2\n    /* \"#utility.yul\":2589:2613   */\n  tag_26\n  jump\t// in\ntag_63:\n    /* \"#utility.yul\":2584:2587   */\n  dup3\n    /* \"#utility.yul\":2577:2614   */\n  mstore\n    /* \"#utility.yul\":2502:2620   */\n  pop\n  pop\n  jump\t// out\n    /* \"#utility.yul\":2626:2848   */\ntag_10:\n    /* \"#utility.yul\":2719:2723   */\n  0x00\n    /* \"#utility.yul\":2757:2759   */\n  0x20\n    /* \"#utility.yul\":2746:2755   */\n  dup3\n    /* \"#utility.yul\":2742:2760   */\n  add\n    /* \"#utility.yul\":2734:2760   */\n  swap1\n  pop\n    /* \"#utility.yul\":2770:2841   */\n  tag_65\n    /* \"#utility.yul\":2838:2839   */\n  0x00\n    /* \"#utility.yul\":2827:2836   */\n  dup4\n    /* \"#utility.yul\":2823:2840   */\n  add\n    /* \"#utility.yul\":2814:2820   */\n  dup5\n    /* \"#utility.yul\":2770:2841   */\n  tag_32\n  jump\t// in\ntag_65:\n    /* \"#utility.yul\":2626:2848   */\n  swap3\n  swap2\n  pop\n  pop\n  jump\t// out\n    /* \"#utility.yul\":2854:3034   */\ntag_33:\n    /* \"#utility.yul\":2902:2979   */\n  0x4e487b7100000000000000000000000000000000000000000000000000000000\n    /* \"#utility.yul\":2899:2900   */\n  0x00\n    /* \"#utility.yul\":2892:2980   */\n  mstore\n    /* \"#utility.yul\":2999:3003   */\n  0x11\n    /* \"#utility.yul\":2996:2997   */\n  0x04\n    /* \"#utility.yul\":2989:3004   */\n  mstore\n    /* \"#utility.yul\":3023:3027   */\n  0x24\n    /* \"#utility.yul\":3020:3021   */\n  0x00\n    /* \"#utility.yul\":3013:3028   */\n  revert\n    /* \"#utility.yul\":3040:3450   */\ntag_18:\n    /* \"#utility.yul\":3080:3087   */\n  0x00\n    /* \"#utility.yul\":3103:3123   */\n  tag_68\n    /* \"#utility.yul\":3121:3122   */\n  dup3\n    /* \"#utility.yul\":3103:3123   */\n  tag_29\n  jump\t// in\ntag_68:\n    /* \"#utility.yul\":3098:3123   */\n  swap2\n  pop\n    /* \"#utility.yul\":3137:3157   */\n  tag_69\n    /* \"#utility.yul\":3155:3156   */\n  dup4\n    /* \"#utility.yul\":3137:3157   */\n  tag_29\n  jump\t// in\ntag_69:\n    /* \"#utility.yul\":3132:3157   */\n  swap3\n  pop\n    /* \"#utility.yul\":3192:3193   */\n  dup3\n    /* \"#utility.yul\":3189:3190   */\n  dup3\n    /* \"#utility.yul\":3185:3194   */\n  mul\n    /* \"#utility.yul\":3214:3244   */\n  tag_70\n    /* \"#utility.yul\":3232:3243   */\n  dup2\n    /* \"#utility.yul\":3214:3244   */\n  tag_29\n  jump\t// in\ntag_70:\n    /* \"#utility.yul\":3203:3244   */\n  swap2\n  pop\n    /* \"#utility.yul\":3393:3394   */\n  dup3\n    /* \"#utility.yul\":3384:3391   */\n  dup3\n    /* \"#utility.yul\":3380:3395   */\n  div\n    /* \"#utility.yul\":3377:3378   */\n  dup5\n    /* \"#utility.yul\":3374:3396   */\n  eq\n    /* \"#utility.yul\":3354:3355   */\n  dup4\n    /* \"#utility.yul\":3347:3356   */\n  iszero\n    /* \"#utility.yul\":3327:3410   */\n  or\n    /* \"#utility.yul\":3304:3443   */\n  tag_71\n  jumpi\n    /* \"#utility.yul\":3423:3441   */\n  tag_72\n  tag_33\n  jump\t// in\ntag_72:\n    /* \"#utility.yul\":3304:3443   */\ntag_71:\n    /* \"#utility.yul\":3088:3450   */\n  pop\n    /* \"#utility.yul\":3040:3450   */\n  swap3\n  swap2\n  pop\n  pop\n  jump\t// out\n    /* \"contracts/KipuBankV2.sol\":687:13498  contract KipuBankV2 is Ownable, ReentrancyGuard{... */\ntag_20:\n  mload(0x80)\n  mload(0xa0)\n  mload(0xc0)\n  mload(0xe0)\n  codecopy(0x00, dataOffset(sub_0), dataSize(sub_0))\n  0x00\n  assignImmutable(\"0x53299669aa66e7aadfe0f05282b649689dd20b5ff82664cc58d2bd79a8d69809\")\n  0x00\n  assignImmutable(\"0xd1731c384d2c8ba1eafa1dee7436362fec5c2705b14e910ce09d6ba0a10fd695\")\n  0x00\n  assignImmutable(\"0xd0b8e84548400be0a7baefd874f72abf40b76a06d00b093a5320484d2f141b49\")\n  0x00\n  assignImmutable(\"0x28bbb0207f31d945816623d3302c5bf67e35f3d933c3b03a2cbc30cfa7ce31d8\")\n  return(0x00, dataSize(sub_0))\nstop\n\nsub_0: assembly {\n        /* \"contracts/KipuBankV2.sol\":687:13498  contract KipuBankV2 is Ownable, ReentrancyGuard{... */\n      mstore(0x40, 0x80)\n      jumpi(tag_1, lt(calldatasize, 0x04))\n      shr(0xe0, calldataload(0x00))\n      dup1\n      0x715018a6\n      gt\n      tag_24\n      jumpi\n      dup1\n      0xd0e30db0\n      gt\n      tag_25\n      jumpi\n      dup1\n      0xd0e30db0\n      eq\n      tag_18\n      jumpi\n      dup1\n      0xdb81f99b\n      eq\n      tag_19\n      jumpi\n      dup1\n      0xf2fde38b\n      eq\n      tag_20\n      jumpi\n      dup1\n      0xf6687af7\n      eq\n      tag_21\n      jumpi\n      dup1\n      0xf688bcfb\n      eq\n      tag_22\n      jumpi\n      dup1\n      0xff40e1d0\n      eq\n      tag_23\n      jumpi\n      jump(tag_2)\n    tag_25:\n      dup1\n      0x715018a6\n      eq\n      tag_13\n      jumpi\n      dup1\n      0x8da5cb5b\n      eq\n      tag_14\n      jumpi\n      dup1\n      0x90b4588b\n      eq\n      tag_15\n      jumpi\n      dup1\n      0xa6b6d798\n      eq\n      tag_16\n      jumpi\n      dup1\n      0xbcc1760f\n      eq\n      tag_17\n      jumpi\n      jump(tag_2)\n    tag_24:\n      dup1\n      0x260ad389\n      gt\n      tag_26\n      jumpi\n      dup1\n      0x260ad389\n      eq\n      tag_8\n      jumpi\n      dup1\n      0x2e1a7d4d\n      eq\n      tag_9\n      jumpi\n      dup1\n      0x535f2d0d\n      eq\n      tag_10\n      jumpi\n      dup1\n      0x56b33537\n      eq\n      tag_11\n      jumpi\n      dup1\n      0x66be4362\n      eq\n      tag_12\n      jumpi\n      jump(tag_2)\n    tag_26:\n      dup1\n      0x029751be\n      eq\n      tag_3\n      jumpi\n      dup1\n      0x02d75efc\n      eq\n      tag_4\n      jumpi\n      dup1\n      0x06f69acc\n      eq\n      tag_5\n      jumpi\n      dup1\n      0x089781a9\n      eq\n      tag_6\n      jumpi\n      dup1\n      0x20409250\n      eq\n      tag_7\n      jumpi\n      jump(tag_2)\n    tag_1:\n      jumpi(tag_2, calldatasize)\n        /* \"contracts/KipuBankV2.sol\":5888:5924  _depositEther(msg.sender, msg.value) */\n      tag_29\n        /* \"contracts/KipuBankV2.sol\":5902:5912  msg.sender */\n      caller\n        /* \"contracts/KipuBankV2.sol\":5914:5923  msg.value */\n      callvalue\n        /* \"contracts/KipuBankV2.sol\":5888:5901  _depositEther */\n      tag_30\n        /* \"contracts/KipuBankV2.sol\":5888:5924  _depositEther(msg.sender, msg.value) */\n      jump\t// in\n    tag_29:\n        /* \"contracts/KipuBankV2.sol\":687:13498  contract KipuBankV2 is Ownable, ReentrancyGuard{... */\n      stop\n    tag_2:\n      callvalue\n      dup1\n      iszero\n      tag_31\n      jumpi\n      0x00\n      dup1\n      revert\n    tag_31:\n      pop\n        /* \"contracts/KipuBankV2.sol\":6095:6170  KipuBank_FailedOperation(\"Operation does not exists or data was incorrect\") */\n      mload(0x40)\n      0x336ea14200000000000000000000000000000000000000000000000000000000\n      dup2\n      mstore\n      0x04\n      add\n      tag_34\n      swap1\n      tag_35\n      jump\t// in\n    tag_34:\n      mload(0x40)\n      dup1\n      swap2\n      sub\n      swap1\n      revert\n        /* \"contracts/KipuBankV2.sol\":929:997  mapping (address token => bool isSupported) public s_supportedTokens */\n    tag_3:\n      callvalue\n      dup1\n      iszero\n      tag_36\n      jumpi\n      0x00\n      dup1\n      revert\n    tag_36:\n      pop\n      tag_37\n      0x04\n      dup1\n      calldatasize\n      sub\n      dup2\n      add\n      swap1\n      tag_38\n      swap2\n      swap1\n      tag_39\n      jump\t// in\n    tag_38:\n      tag_40\n      jump\t// in\n    tag_37:\n      mload(0x40)\n      tag_41\n      swap2\n      swap1\n      tag_42\n      jump\t// in\n    tag_41:\n      mload(0x40)\n      dup1\n      swap2\n      sub\n      swap1\n      return\n        /* \"contracts/KipuBankV2.sol\":1325:1363  AggregatorV3Interface public s_ethFeed */\n    tag_4:\n      callvalue\n      dup1\n      iszero\n      tag_43\n      jumpi\n      0x00\n      dup1\n      revert\n    tag_43:\n      pop\n      tag_44\n      tag_45\n      jump\t// in\n    tag_44:\n      mload(0x40)\n      tag_46\n      swap2\n      swap1\n      tag_47\n      jump\t// in\n    tag_46:\n      mload(0x40)\n      dup1\n      swap2\n      sub\n      swap1\n      return\n        /* \"contracts/KipuBankV2.sol\":6334:6456  function consultKipuBankFounds() external view returns (uint256 amount_){... */\n    tag_5:\n      callvalue\n      dup1\n      iszero\n      tag_48\n      jumpi\n      0x00\n      dup1\n      revert\n    tag_48:\n      pop\n      tag_49\n      tag_50\n      jump\t// in\n    tag_49:\n      mload(0x40)\n      tag_51\n      swap2\n      swap1\n      tag_52\n      jump\t// in\n    tag_51:\n      mload(0x40)\n      dup1\n      swap2\n      sub\n      swap1\n      return\n        /* \"contracts/KipuBankV2.sol\":1545:1585  uint256 public immutable i_maxWithdrawal */\n    tag_6:\n      callvalue\n      dup1\n      iszero\n      tag_53\n      jumpi\n      0x00\n      dup1\n      revert\n    tag_53:\n      pop\n      tag_54\n      tag_55\n      jump\t// in\n    tag_54:\n      mload(0x40)\n      tag_56\n      swap2\n      swap1\n      tag_52\n      jump\t// in\n    tag_56:\n      mload(0x40)\n      dup1\n      swap2\n      sub\n      swap1\n      return\n        /* \"contracts/KipuBankV2.sol\":9819:10206  function emergencyWithdrawal(address token, uint256 amount, address recipient) external onlyOwner {... */\n    tag_7:\n      callvalue\n      dup1\n      iszero\n      tag_57\n      jumpi\n      0x00\n      dup1\n      revert\n    tag_57:\n      pop\n      tag_58\n      0x04\n      dup1\n      calldatasize\n      sub\n      dup2\n      add\n      swap1\n      tag_59\n      swap2\n      swap1\n      tag_60\n      jump\t// in\n    tag_59:\n      tag_61\n      jump\t// in\n    tag_58:\n      stop\n        /* \"contracts/KipuBankV2.sol\":1081:1138  mapping(address => uint256) public s_totalDepositsByToken */\n    tag_8:\n      callvalue\n      dup1\n      iszero\n      tag_62\n      jumpi\n      0x00\n      dup1\n      revert\n    tag_62:\n      pop\n      tag_63\n      0x04\n      dup1\n      calldatasize\n      sub\n      dup2\n      add\n      swap1\n      tag_64\n      swap2\n      swap1\n      tag_39\n      jump\t// in\n    tag_64:\n      tag_65\n      jump\t// in\n    tag_63:\n      mload(0x40)\n      tag_66\n      swap2\n      swap1\n      tag_52\n      jump\t// in\n    tag_66:\n      mload(0x40)\n      dup1\n      swap2\n      sub\n      swap1\n      return\n        /* \"contracts/KipuBankV2.sol\":6903:7441  function withdraw(uint256 amount) external nonReentrant amountAvailable(amount, address(0)){... */\n    tag_9:\n      callvalue\n      dup1\n      iszero\n      tag_67\n      jumpi\n      0x00\n      dup1\n      revert\n    tag_67:\n      pop\n      tag_68\n      0x04\n      dup1\n      calldatasize\n      sub\n      dup2\n      add\n      swap1\n      tag_69\n      swap2\n      swap1\n      tag_70\n      jump\t// in\n    tag_69:\n      tag_71\n      jump\t// in\n    tag_68:\n      stop\n        /* \"contracts/KipuBankV2.sol\":1278:1316  AggregatorV3Interface public s_btcFeed */\n    tag_10:\n      callvalue\n      dup1\n      iszero\n      tag_72\n      jumpi\n      0x00\n      dup1\n      revert\n    tag_72:\n      pop\n      tag_73\n      tag_74\n      jump\t// in\n    tag_73:\n      mload(0x40)\n      tag_75\n      swap2\n      swap1\n      tag_47\n      jump\t// in\n    tag_75:\n      mload(0x40)\n      dup1\n      swap2\n      sub\n      swap1\n      return\n        /* \"contracts/KipuBankV2.sol\":9513:9811  function setFeeds(address _btcFeed, address _ethFeed) external onlyOwner{... */\n    tag_11:\n      callvalue\n      dup1\n      iszero\n      tag_76\n      jumpi\n      0x00\n      dup1\n      revert\n    tag_76:\n      pop\n      tag_77\n      0x04\n      dup1\n      calldatasize\n      sub\n      dup2\n      add\n      swap1\n      tag_78\n      swap2\n      swap1\n      tag_79\n      jump\t// in\n    tag_78:\n      tag_80\n      jump\t// in\n    tag_77:\n      stop\n        /* \"contracts/KipuBankV2.sol\":1633:1662  IERC20 public immutable i_btc */\n    tag_12:\n      callvalue\n      dup1\n      iszero\n      tag_81\n      jumpi\n      0x00\n      dup1\n      revert\n    tag_81:\n      pop\n      tag_82\n      tag_83\n      jump\t// in\n    tag_82:\n      mload(0x40)\n      tag_84\n      swap2\n      swap1\n      tag_85\n      jump\t// in\n    tag_84:\n      mload(0x40)\n      dup1\n      swap2\n      sub\n      swap1\n      return\n        /* \"@openzeppelin/contracts/access/Ownable.sol\":2293:2394  function renounceOwnership() public virtual onlyOwner {... */\n    tag_13:\n      callvalue\n      dup1\n      iszero\n      tag_86\n      jumpi\n      0x00\n      dup1\n      revert\n    tag_86:\n      pop\n      tag_87\n      tag_88\n      jump\t// in\n    tag_87:\n      stop\n        /* \"@openzeppelin/contracts/access/Ownable.sol\":1638:1723  function owner() public view virtual returns (address) {... */\n    tag_14:\n      callvalue\n      dup1\n      iszero\n      tag_89\n      jumpi\n      0x00\n      dup1\n      revert\n    tag_89:\n      pop\n      tag_90\n      tag_91\n      jump\t// in\n    tag_90:\n      mload(0x40)\n      tag_92\n      swap2\n      swap1\n      tag_93\n      jump\t// in\n    tag_92:\n      mload(0x40)\n      dup1\n      swap2\n      sub\n      swap1\n      return\n        /* \"contracts/KipuBankV2.sol\":9028:9505  function withdrawBTC(uint256 amount) external nonReentrant _onlySupportedToken(address(i_btc)) amountAvailable(amount, address(i_btc)){... */\n    tag_15:\n      callvalue\n      dup1\n      iszero\n      tag_94\n      jumpi\n      0x00\n      dup1\n      revert\n    tag_94:\n      pop\n      tag_95\n      0x04\n      dup1\n      calldatasize\n      sub\n      dup2\n      add\n      swap1\n      tag_96\n      swap2\n      swap1\n      tag_70\n      jump\t// in\n    tag_96:\n      tag_97\n      jump\t// in\n    tag_95:\n      stop\n        /* \"contracts/KipuBankV2.sol\":8488:9019  function depositBTC(uint256 amount) external nonReentrant  _onlySupportedToken(address(i_btc)) _isTokenTransferAllowed(address(i_btc), amount) _areFundsExceeded(amount, address(i_btc)){... */\n    tag_16:\n      callvalue\n      dup1\n      iszero\n      tag_98\n      jumpi\n      0x00\n      dup1\n      revert\n    tag_98:\n      pop\n      tag_99\n      0x04\n      dup1\n      calldatasize\n      sub\n      dup2\n      add\n      swap1\n      tag_100\n      swap2\n      swap1\n      tag_70\n      jump\t// in\n    tag_100:\n      tag_101\n      jump\t// in\n    tag_99:\n      stop\n        /* \"contracts/KipuBankV2.sol\":1209:1269  mapping(address => uint256) public s_totalWithdrawalsByToken */\n    tag_17:\n      callvalue\n      dup1\n      iszero\n      tag_102\n      jumpi\n      0x00\n      dup1\n      revert\n    tag_102:\n      pop\n      tag_103\n      0x04\n      dup1\n      calldatasize\n      sub\n      dup2\n      add\n      swap1\n      tag_104\n      swap2\n      swap1\n      tag_39\n      jump\t// in\n    tag_104:\n      tag_105\n      jump\t// in\n    tag_103:\n      mload(0x40)\n      tag_106\n      swap2\n      swap1\n      tag_52\n      jump\t// in\n    tag_106:\n      mload(0x40)\n      dup1\n      swap2\n      sub\n      swap1\n      return\n        /* \"contracts/KipuBankV2.sol\":6584:6687  function deposit() external payable nonReentrant{... */\n    tag_18:\n      tag_107\n      tag_108\n      jump\t// in\n    tag_107:\n      stop\n        /* \"contracts/KipuBankV2.sol\":7997:8480  function withdrawUSDC(uint256 amount) external nonReentrant _onlySupportedToken(address(i_usdc)) amountAvailable(amount, address(i_usdc)){... */\n    tag_19:\n      callvalue\n      dup1\n      iszero\n      tag_109\n      jumpi\n      0x00\n      dup1\n      revert\n    tag_109:\n      pop\n      tag_110\n      0x04\n      dup1\n      calldatasize\n      sub\n      dup2\n      add\n      swap1\n      tag_111\n      swap2\n      swap1\n      tag_70\n      jump\t// in\n    tag_111:\n      tag_112\n      jump\t// in\n    tag_110:\n      stop\n        /* \"@openzeppelin/contracts/access/Ownable.sol\":2543:2758  function transferOwnership(address newOwner) public virtual onlyOwner {... */\n    tag_20:\n      callvalue\n      dup1\n      iszero\n      tag_113\n      jumpi\n      0x00\n      dup1\n      revert\n    tag_113:\n      pop\n      tag_114\n      0x04\n      dup1\n      calldatasize\n      sub\n      dup2\n      add\n      swap1\n      tag_115\n      swap2\n      swap1\n      tag_39\n      jump\t// in\n    tag_115:\n      tag_116\n      jump\t// in\n    tag_114:\n      stop\n        /* \"contracts/KipuBankV2.sol\":1435:1469  uint256 public immutable i_bankCap */\n    tag_21:\n      callvalue\n      dup1\n      iszero\n      tag_117\n      jumpi\n      0x00\n      dup1\n      revert\n    tag_117:\n      pop\n      tag_118\n      tag_119\n      jump\t// in\n    tag_118:\n      mload(0x40)\n      tag_120\n      swap2\n      swap1\n      tag_52\n      jump\t// in\n    tag_120:\n      mload(0x40)\n      dup1\n      swap2\n      sub\n      swap1\n      return\n        /* \"contracts/KipuBankV2.sol\":7451:7988  function depositUSDC(uint256 amount) external nonReentrant _onlySupportedToken(address(i_usdc)) _isTokenTransferAllowed(address(i_usdc), amount) _areFundsExceeded(amount, address(i_usdc)){... */\n    tag_22:\n      callvalue\n      dup1\n      iszero\n      tag_121\n      jumpi\n      0x00\n      dup1\n      revert\n    tag_121:\n      pop\n      tag_122\n      0x04\n      dup1\n      calldatasize\n      sub\n      dup2\n      add\n      swap1\n      tag_123\n      swap2\n      swap1\n      tag_70\n      jump\t// in\n    tag_123:\n      tag_124\n      jump\t// in\n    tag_122:\n      stop\n        /* \"contracts/KipuBankV2.sol\":1594:1624  IERC20 public immutable i_usdc */\n    tag_23:\n      callvalue\n      dup1\n      iszero\n      tag_125\n      jumpi\n      0x00\n      dup1\n      revert\n    tag_125:\n      pop\n      tag_126\n      tag_127\n      jump\t// in\n    tag_126:\n      mload(0x40)\n      tag_128\n      swap2\n      swap1\n      tag_85\n      jump\t// in\n    tag_128:\n      mload(0x40)\n      dup1\n      swap2\n      sub\n      swap1\n      return\n        /* \"contracts/KipuBankV2.sol\":10383:10645  function _depositEther(address addr, uint256 amount) private _areFundsExceeded(amount, address(0)){... */\n    tag_30:\n        /* \"contracts/KipuBankV2.sol\":10462:10468  amount */\n      dup1\n        /* \"contracts/KipuBankV2.sol\":10478:10479  0 */\n      0x00\n        /* \"contracts/KipuBankV2.sol\":3998:4012  uint256 founds */\n      dup1\n        /* \"contracts/KipuBankV2.sol\":4015:4031  _consultFounds() */\n      tag_130\n        /* \"contracts/KipuBankV2.sol\":4015:4029  _consultFounds */\n      tag_131\n        /* \"contracts/KipuBankV2.sol\":4015:4031  _consultFounds() */\n      jump\t// in\n    tag_130:\n        /* \"contracts/KipuBankV2.sol\":3998:4031  uint256 founds = _consultFounds() */\n      swap1\n      pop\n        /* \"contracts/KipuBankV2.sol\":4042:4059  uint256 newAmount */\n      0x00\n        /* \"contracts/KipuBankV2.sol\":4062:4090  _convertToUSD(amount, token) */\n      tag_132\n        /* \"contracts/KipuBankV2.sol\":4076:4082  amount */\n      dup5\n        /* \"contracts/KipuBankV2.sol\":4084:4089  token */\n      dup5\n        /* \"contracts/KipuBankV2.sol\":4062:4075  _convertToUSD */\n      tag_133\n        /* \"contracts/KipuBankV2.sol\":4062:4090  _convertToUSD(amount, token) */\n      jump\t// in\n    tag_132:\n        /* \"contracts/KipuBankV2.sol\":4042:4090  uint256 newAmount = _convertToUSD(amount, token) */\n      swap1\n      pop\n        /* \"contracts/KipuBankV2.sol\":4125:4134  i_bankCap */\n      immutable(\"0x28bbb0207f31d945816623d3302c5bf67e35f3d933c3b03a2cbc30cfa7ce31d8\")\n        /* \"contracts/KipuBankV2.sol\":4113:4122  newAmount */\n      dup2\n        /* \"contracts/KipuBankV2.sol\":4104:4110  founds */\n      dup4\n        /* \"contracts/KipuBankV2.sol\":4104:4122  founds + newAmount */\n      tag_134\n      swap2\n      swap1\n      tag_135\n      jump\t// in\n    tag_134:\n        /* \"contracts/KipuBankV2.sol\":4104:4134  founds + newAmount > i_bankCap */\n      gt\n        /* \"contracts/KipuBankV2.sol\":4101:4214  if(founds + newAmount > i_bankCap)... */\n      iszero\n      tag_136\n      jumpi\n        /* \"contracts/KipuBankV2.sol\":4156:4214  KipuBank_FailedDeposit(\"Total KipuBank's founds exceeded\") */\n      mload(0x40)\n      0xa2d2e1b200000000000000000000000000000000000000000000000000000000\n      dup2\n      mstore\n      0x04\n      add\n      tag_137\n      swap1\n      tag_138\n      jump\t// in\n    tag_137:\n      mload(0x40)\n      dup1\n      swap2\n      sub\n      swap1\n      revert\n        /* \"contracts/KipuBankV2.sol\":4101:4214  if(founds + newAmount > i_bankCap)... */\n    tag_136:\n        /* \"contracts/KipuBankV2.sol\":10524:10530  amount */\n      dup5\n        /* \"contracts/KipuBankV2.sol\":10492:10502  s_balances */\n      0x02\n        /* \"contracts/KipuBankV2.sol\":10492:10514  s_balances[address(0)] */\n      0x00\n        /* \"contracts/KipuBankV2.sol\":10511:10512  0 */\n      dup1\n        /* \"contracts/KipuBankV2.sol\":10492:10514  s_balances[address(0)] */\n      0xffffffffffffffffffffffffffffffffffffffff\n      and\n      0xffffffffffffffffffffffffffffffffffffffff\n      and\n      dup2\n      mstore\n      0x20\n      add\n      swap1\n      dup2\n      mstore\n      0x20\n      add\n      0x00\n      keccak256\n        /* \"contracts/KipuBankV2.sol\":10492:10520  s_balances[address(0)][addr] */\n      0x00\n        /* \"contracts/KipuBankV2.sol\":10515:10519  addr */\n      dup9\n        /* \"contracts/KipuBankV2.sol\":10492:10520  s_balances[address(0)][addr] */\n      0xffffffffffffffffffffffffffffffffffffffff\n      and\n      0xffffffffffffffffffffffffffffffffffffffff\n      and\n      dup2\n      mstore\n      0x20\n      add\n      swap1\n      dup2\n      mstore\n      0x20\n      add\n      0x00\n      keccak256\n      0x00\n        /* \"contracts/KipuBankV2.sol\":10492:10530  s_balances[address(0)][addr] += amount */\n      dup3\n      dup3\n      sload\n      tag_140\n      swap2\n      swap1\n      tag_135\n      jump\t// in\n    tag_140:\n      swap3\n      pop\n      pop\n      dup2\n      swap1\n      sstore\n      pop\n        /* \"contracts/KipuBankV2.sol\":10541:10579  _actualizeOperations(true, address(0)) */\n      tag_141\n        /* \"contracts/KipuBankV2.sol\":10562:10566  true */\n      0x01\n        /* \"contracts/KipuBankV2.sol\":10576:10577  0 */\n      0x00\n        /* \"contracts/KipuBankV2.sol\":10541:10561  _actualizeOperations */\n      tag_142\n        /* \"contracts/KipuBankV2.sol\":10541:10579  _actualizeOperations(true, address(0)) */\n      jump\t// in\n    tag_141:\n        /* \"contracts/KipuBankV2.sol\":10597:10637  KipuBank_SuccessfulDeposit(addr, amount) */\n      0x7b7cd0ddbbea241880e825e1eb51c30752cb96dd7efeb4be691ec55dfa4d8963\n        /* \"contracts/KipuBankV2.sol\":10624:10628  addr */\n      dup7\n        /* \"contracts/KipuBankV2.sol\":10630:10636  amount */\n      dup7\n        /* \"contracts/KipuBankV2.sol\":10597:10637  KipuBank_SuccessfulDeposit(addr, amount) */\n      mload(0x40)\n      tag_143\n      swap3\n      swap2\n      swap1\n      tag_144\n      jump\t// in\n    tag_143:\n      mload(0x40)\n      dup1\n      swap2\n      sub\n      swap1\n      log1\n        /* \"contracts/KipuBankV2.sol\":3987:4234  {... */\n      pop\n      pop\n        /* \"contracts/KipuBankV2.sol\":10383:10645  function _depositEther(address addr, uint256 amount) private _areFundsExceeded(amount, address(0)){... */\n      pop\n      pop\n      pop\n      pop\n      jump\t// out\n        /* \"contracts/KipuBankV2.sol\":929:997  mapping (address token => bool isSupported) public s_supportedTokens */\n    tag_40:\n      mstore(0x20, 0x03)\n      dup1\n      0x00\n      mstore\n      keccak256(0x00, 0x40)\n      0x00\n      swap2\n      pop\n      sload\n      swap1\n      0x0100\n      exp\n      swap1\n      div\n      0xff\n      and\n      dup2\n      jump\t// out\n        /* \"contracts/KipuBankV2.sol\":1325:1363  AggregatorV3Interface public s_ethFeed */\n    tag_45:\n      0x07\n      0x00\n      swap1\n      sload\n      swap1\n      0x0100\n      exp\n      swap1\n      div\n      0xffffffffffffffffffffffffffffffffffffffff\n      and\n      dup2\n      jump\t// out\n        /* \"contracts/KipuBankV2.sol\":6334:6456  function consultKipuBankFounds() external view returns (uint256 amount_){... */\n    tag_50:\n        /* \"contracts/KipuBankV2.sol\":6390:6405  uint256 amount_ */\n      0x00\n        /* \"contracts/KipuBankV2.sol\":6443:6448  10**8 */\n      0x05f5e100\n        /* \"contracts/KipuBankV2.sol\":6424:6440  _consultFounds() */\n      tag_146\n        /* \"contracts/KipuBankV2.sol\":6424:6438  _consultFounds */\n      tag_131\n        /* \"contracts/KipuBankV2.sol\":6424:6440  _consultFounds() */\n      jump\t// in\n    tag_146:\n        /* \"contracts/KipuBankV2.sol\":6424:6448  _consultFounds() / 10**8 */\n      tag_147\n      swap2\n      swap1\n      tag_148\n      jump\t// in\n    tag_147:\n        /* \"contracts/KipuBankV2.sol\":6417:6448  return _consultFounds() / 10**8 */\n      swap1\n      pop\n        /* \"contracts/KipuBankV2.sol\":6334:6456  function consultKipuBankFounds() external view returns (uint256 amount_){... */\n      swap1\n      jump\t// out\n        /* \"contracts/KipuBankV2.sol\":1545:1585  uint256 public immutable i_maxWithdrawal */\n    tag_55:\n      immutable(\"0xd0b8e84548400be0a7baefd874f72abf40b76a06d00b093a5320484d2f141b49\")\n      dup2\n      jump\t// out\n        /* \"contracts/KipuBankV2.sol\":9819:10206  function emergencyWithdrawal(address token, uint256 amount, address recipient) external onlyOwner {... */\n    tag_61:\n        /* \"@openzeppelin/contracts/access/Ownable.sol\":1531:1544  _checkOwner() */\n      tag_150\n        /* \"@openzeppelin/contracts/access/Ownable.sol\":1531:1542  _checkOwner */\n      tag_151\n        /* \"@openzeppelin/contracts/access/Ownable.sol\":1531:1544  _checkOwner() */\n      jump\t// in\n    tag_150:\n        /* \"contracts/KipuBankV2.sol\":9949:9950  0 */\n      0x00\n        /* \"contracts/KipuBankV2.sol\":9932:9951  token == address(0) */\n      0xffffffffffffffffffffffffffffffffffffffff\n      and\n        /* \"contracts/KipuBankV2.sol\":9932:9937  token */\n      dup4\n        /* \"contracts/KipuBankV2.sol\":9932:9951  token == address(0) */\n      0xffffffffffffffffffffffffffffffffffffffff\n      and\n      sub\n        /* \"contracts/KipuBankV2.sol\":9928:10199  if (token == address(0)) {... */\n      tag_153\n      jumpi\n        /* \"contracts/KipuBankV2.sol\":9969:9981  bool success */\n      0x00\n        /* \"contracts/KipuBankV2.sol\":9995:10004  recipient */\n      dup2\n        /* \"contracts/KipuBankV2.sol\":9987:10010  payable(recipient).call */\n      0xffffffffffffffffffffffffffffffffffffffff\n      and\n        /* \"contracts/KipuBankV2.sol\":10018:10024  amount */\n      dup4\n        /* \"contracts/KipuBankV2.sol\":9987:10029  payable(recipient).call{value: amount}(\"\") */\n      mload(0x40)\n      tag_154\n      swap1\n      tag_155\n      jump\t// in\n    tag_154:\n      0x00\n      mload(0x40)\n      dup1\n      dup4\n      sub\n      dup2\n      dup6\n      dup8\n      gas\n      call\n      swap3\n      pop\n      pop\n      pop\n      returndatasize\n      dup1\n      0x00\n      dup2\n      eq\n      tag_158\n      jumpi\n      mload(0x40)\n      swap2\n      pop\n      and(add(returndatasize, 0x3f), not(0x1f))\n      dup3\n      add\n      0x40\n      mstore\n      returndatasize\n      dup3\n      mstore\n      returndatasize\n      0x00\n      0x20\n      dup5\n      add\n      returndatacopy\n      jump(tag_157)\n    tag_158:\n      0x60\n      swap2\n      pop\n    tag_157:\n      pop\n        /* \"contracts/KipuBankV2.sol\":9968:10029  (bool success, ) = payable(recipient).call{value: amount}(\"\") */\n      pop\n      swap1\n      pop\n        /* \"contracts/KipuBankV2.sol\":10049:10056  success */\n      dup1\n        /* \"contracts/KipuBankV2.sol\":10044:10113  if (!success) revert KipuBank_FailedWithdrawal(\"ETH transfer failed\") */\n      tag_159\n      jumpi\n        /* \"contracts/KipuBankV2.sol\":10065:10113  KipuBank_FailedWithdrawal(\"ETH transfer failed\") */\n      mload(0x40)\n      0x0fc0517400000000000000000000000000000000000000000000000000000000\n      dup2\n      mstore\n      0x04\n      add\n      tag_160\n      swap1\n      tag_161\n      jump\t// in\n    tag_160:\n      mload(0x40)\n      dup1\n      swap2\n      sub\n      swap1\n      revert\n        /* \"contracts/KipuBankV2.sol\":10044:10113  if (!success) revert KipuBank_FailedWithdrawal(\"ETH transfer failed\") */\n    tag_159:\n        /* \"contracts/KipuBankV2.sol\":9953:10125  {... */\n      pop\n        /* \"contracts/KipuBankV2.sol\":9928:10199  if (token == address(0)) {... */\n      jump(tag_162)\n    tag_153:\n        /* \"contracts/KipuBankV2.sol\":10153:10158  token */\n      dup3\n        /* \"contracts/KipuBankV2.sol\":10146:10168  IERC20(token).transfer */\n      0xffffffffffffffffffffffffffffffffffffffff\n      and\n      0xa9059cbb\n        /* \"contracts/KipuBankV2.sol\":10169:10178  recipient */\n      dup3\n        /* \"contracts/KipuBankV2.sol\":10180:10186  amount */\n      dup5\n        /* \"contracts/KipuBankV2.sol\":10146:10187  IERC20(token).transfer(recipient, amount) */\n      mload(0x40)\n      dup4\n      0xffffffff\n      and\n      0xe0\n      shl\n      dup2\n      mstore\n      0x04\n      add\n      tag_163\n      swap3\n      swap2\n      swap1\n      tag_144\n      jump\t// in\n    tag_163:\n      0x20\n      mload(0x40)\n      dup1\n      dup4\n      sub\n      dup2\n      0x00\n      dup8\n      gas\n      call\n      iszero\n      dup1\n      iszero\n      tag_165\n      jumpi\n      returndatasize\n      0x00\n      dup1\n      returndatacopy\n      revert(0x00, returndatasize)\n    tag_165:\n      pop\n      pop\n      pop\n      pop\n      mload(0x40)\n      returndatasize\n      not(0x1f)\n      0x1f\n      dup3\n      add\n      and\n      dup3\n      add\n      dup1\n      0x40\n      mstore\n      pop\n      dup2\n      add\n      swap1\n      tag_166\n      swap2\n      swap1\n      tag_167\n      jump\t// in\n    tag_166:\n      pop\n        /* \"contracts/KipuBankV2.sol\":9928:10199  if (token == address(0)) {... */\n    tag_162:\n        /* \"contracts/KipuBankV2.sol\":9819:10206  function emergencyWithdrawal(address token, uint256 amount, address recipient) external onlyOwner {... */\n      pop\n      pop\n      pop\n      jump\t// out\n        /* \"contracts/KipuBankV2.sol\":1081:1138  mapping(address => uint256) public s_totalDepositsByToken */\n    tag_65:\n      mstore(0x20, 0x04)\n      dup1\n      0x00\n      mstore\n      keccak256(0x00, 0x40)\n      0x00\n      swap2\n      pop\n      swap1\n      pop\n      sload\n      dup2\n      jump\t// out\n        /* \"contracts/KipuBankV2.sol\":6903:7441  function withdraw(uint256 amount) external nonReentrant amountAvailable(amount, address(0)){... */\n    tag_71:\n        /* \"@openzeppelin/contracts/utils/ReentrancyGuard.sol\":2500:2521  _nonReentrantBefore() */\n      tag_169\n        /* \"@openzeppelin/contracts/utils/ReentrancyGuard.sol\":2500:2519  _nonReentrantBefore */\n      tag_170\n        /* \"@openzeppelin/contracts/utils/ReentrancyGuard.sol\":2500:2521  _nonReentrantBefore() */\n      jump\t// in\n    tag_169:\n        /* \"contracts/KipuBankV2.sol\":6975:6981  amount */\n      dup1\n        /* \"contracts/KipuBankV2.sol\":6991:6992  0 */\n      0x00\n        /* \"contracts/KipuBankV2.sol\":3712:3718  amount */\n      dup2\n        /* \"contracts/KipuBankV2.sol\":3694:3709  i_maxWithdrawal */\n      immutable(\"0xd0b8e84548400be0a7baefd874f72abf40b76a06d00b093a5320484d2f141b49\")\n        /* \"contracts/KipuBankV2.sol\":3694:3718  i_maxWithdrawal < amount */\n      lt\n        /* \"contracts/KipuBankV2.sol\":3691:3793  if(i_maxWithdrawal < amount) revert KipuBank_FailedWithdrawal(\"Amount exceeds the maximum withdrawal\") */\n      iszero\n      tag_172\n      jumpi\n        /* \"contracts/KipuBankV2.sol\":3727:3793  KipuBank_FailedWithdrawal(\"Amount exceeds the maximum withdrawal\") */\n      mload(0x40)\n      0x0fc0517400000000000000000000000000000000000000000000000000000000\n      dup2\n      mstore\n      0x04\n      add\n      tag_173\n      swap1\n      tag_174\n      jump\t// in\n    tag_173:\n      mload(0x40)\n      dup1\n      swap2\n      sub\n      swap1\n      revert\n        /* \"contracts/KipuBankV2.sol\":3691:3793  if(i_maxWithdrawal < amount) revert KipuBank_FailedWithdrawal(\"Amount exceeds the maximum withdrawal\") */\n    tag_172:\n        /* \"contracts/KipuBankV2.sol\":3839:3845  amount */\n      dup2\n        /* \"contracts/KipuBankV2.sol\":3807:3817  s_balances */\n      0x02\n        /* \"contracts/KipuBankV2.sol\":3807:3824  s_balances[token] */\n      0x00\n        /* \"contracts/KipuBankV2.sol\":3818:3823  token */\n      dup4\n        /* \"contracts/KipuBankV2.sol\":3807:3824  s_balances[token] */\n      0xffffffffffffffffffffffffffffffffffffffff\n      and\n      0xffffffffffffffffffffffffffffffffffffffff\n      and\n      dup2\n      mstore\n      0x20\n      add\n      swap1\n      dup2\n      mstore\n      0x20\n      add\n      0x00\n      keccak256\n        /* \"contracts/KipuBankV2.sol\":3807:3836  s_balances[token][msg.sender] */\n      0x00\n        /* \"contracts/KipuBankV2.sol\":3825:3835  msg.sender */\n      caller\n        /* \"contracts/KipuBankV2.sol\":3807:3836  s_balances[token][msg.sender] */\n      0xffffffffffffffffffffffffffffffffffffffff\n      and\n      0xffffffffffffffffffffffffffffffffffffffff\n      and\n      dup2\n      mstore\n      0x20\n      add\n      swap1\n      dup2\n      mstore\n      0x20\n      add\n      0x00\n      keccak256\n      sload\n        /* \"contracts/KipuBankV2.sol\":3807:3845  s_balances[token][msg.sender] < amount */\n      lt\n        /* \"contracts/KipuBankV2.sol\":3804:3902  if(s_balances[token][msg.sender] < amount) revert KipuBank_InsufficientFounds(\"Not enough founds\") */\n      iszero\n      tag_175\n      jumpi\n        /* \"contracts/KipuBankV2.sol\":3854:3902  KipuBank_InsufficientFounds(\"Not enough founds\") */\n      mload(0x40)\n      0xe7fe37fb00000000000000000000000000000000000000000000000000000000\n      dup2\n      mstore\n      0x04\n      add\n      tag_176\n      swap1\n      tag_177\n      jump\t// in\n    tag_176:\n      mload(0x40)\n      dup1\n      swap2\n      sub\n      swap1\n      revert\n        /* \"contracts/KipuBankV2.sol\":3804:3902  if(s_balances[token][msg.sender] < amount) revert KipuBank_InsufficientFounds(\"Not enough founds\") */\n    tag_175:\n        /* \"contracts/KipuBankV2.sol\":7109:7115  amount */\n      dup3\n        /* \"contracts/KipuBankV2.sol\":7071:7081  s_balances */\n      0x02\n        /* \"contracts/KipuBankV2.sol\":7071:7093  s_balances[address(0)] */\n      0x00\n        /* \"contracts/KipuBankV2.sol\":7090:7091  0 */\n      dup1\n        /* \"contracts/KipuBankV2.sol\":7071:7093  s_balances[address(0)] */\n      0xffffffffffffffffffffffffffffffffffffffff\n      and\n      0xffffffffffffffffffffffffffffffffffffffff\n      and\n      dup2\n      mstore\n      0x20\n      add\n      swap1\n      dup2\n      mstore\n      0x20\n      add\n      0x00\n      keccak256\n        /* \"contracts/KipuBankV2.sol\":7071:7105  s_balances[address(0)][msg.sender] */\n      0x00\n        /* \"contracts/KipuBankV2.sol\":7094:7104  msg.sender */\n      caller\n        /* \"contracts/KipuBankV2.sol\":7071:7105  s_balances[address(0)][msg.sender] */\n      0xffffffffffffffffffffffffffffffffffffffff\n      and\n      0xffffffffffffffffffffffffffffffffffffffff\n      and\n      dup2\n      mstore\n      0x20\n      add\n      swap1\n      dup2\n      mstore\n      0x20\n      add\n      0x00\n      keccak256\n      0x00\n        /* \"contracts/KipuBankV2.sol\":7071:7115  s_balances[address(0)][msg.sender] -= amount */\n      dup3\n      dup3\n      sload\n      tag_179\n      swap2\n      swap1\n      tag_180\n      jump\t// in\n    tag_179:\n      swap3\n      pop\n      pop\n      dup2\n      swap1\n      sstore\n      pop\n        /* \"contracts/KipuBankV2.sol\":7126:7165  _actualizeOperations(false, address(0)) */\n      tag_181\n        /* \"contracts/KipuBankV2.sol\":7147:7152  false */\n      0x00\n        /* \"contracts/KipuBankV2.sol\":7162:7163  0 */\n      dup1\n        /* \"contracts/KipuBankV2.sol\":7126:7146  _actualizeOperations */\n      tag_142\n        /* \"contracts/KipuBankV2.sol\":7126:7165  _actualizeOperations(false, address(0)) */\n      jump\t// in\n    tag_181:\n        /* \"contracts/KipuBankV2.sol\":7177:7189  bool success */\n      0x00\n        /* \"contracts/KipuBankV2.sol\":7191:7209  bytes memory error */\n      dup1\n        /* \"contracts/KipuBankV2.sol\":7221:7231  msg.sender */\n      caller\n        /* \"contracts/KipuBankV2.sol\":7213:7237  payable(msg.sender).call */\n      0xffffffffffffffffffffffffffffffffffffffff\n      and\n        /* \"contracts/KipuBankV2.sol\":7245:7251  amount */\n      dup6\n        /* \"contracts/KipuBankV2.sol\":7213:7256  payable(msg.sender).call{value: amount}(\"\") */\n      mload(0x40)\n      tag_182\n      swap1\n      tag_155\n      jump\t// in\n    tag_182:\n      0x00\n      mload(0x40)\n      dup1\n      dup4\n      sub\n      dup2\n      dup6\n      dup8\n      gas\n      call\n      swap3\n      pop\n      pop\n      pop\n      returndatasize\n      dup1\n      0x00\n      dup2\n      eq\n      tag_185\n      jumpi\n      mload(0x40)\n      swap2\n      pop\n      and(add(returndatasize, 0x3f), not(0x1f))\n      dup3\n      add\n      0x40\n      mstore\n      returndatasize\n      dup3\n      mstore\n      returndatasize\n      0x00\n      0x20\n      dup5\n      add\n      returndatacopy\n      jump(tag_184)\n    tag_185:\n      0x60\n      swap2\n      pop\n    tag_184:\n      pop\n        /* \"contracts/KipuBankV2.sol\":7176:7256  (bool success, bytes memory error) = payable(msg.sender).call{value: amount}(\"\") */\n      swap2\n      pop\n      swap2\n      pop\n        /* \"contracts/KipuBankV2.sol\":7306:7313  success */\n      dup2\n        /* \"contracts/KipuBankV2.sol\":7301:7368  if (!success) ... */\n      tag_186\n      jumpi\n        /* \"contracts/KipuBankV2.sol\":7362:7367  error */\n      dup1\n        /* \"contracts/KipuBankV2.sol\":7336:7368  KipuBank_FailedWithdrawal(error) */\n      mload(0x40)\n      0x0fc0517400000000000000000000000000000000000000000000000000000000\n      dup2\n      mstore\n      0x04\n      add\n      tag_187\n      swap2\n      swap1\n      tag_188\n      jump\t// in\n    tag_187:\n      mload(0x40)\n      dup1\n      swap2\n      sub\n      swap1\n      revert\n        /* \"contracts/KipuBankV2.sol\":7301:7368  if (!success) ... */\n    tag_186:\n        /* \"contracts/KipuBankV2.sol\":7384:7433  KipuBank_SuccessfulWithdrawal(msg.sender, amount) */\n      0x1ff21e81cff87fccbac096ad565f52cb1b358db04a736a6a137cceb4a287a702\n        /* \"contracts/KipuBankV2.sol\":7414:7424  msg.sender */\n      caller\n        /* \"contracts/KipuBankV2.sol\":7426:7432  amount */\n      dup7\n        /* \"contracts/KipuBankV2.sol\":7384:7433  KipuBank_SuccessfulWithdrawal(msg.sender, amount) */\n      mload(0x40)\n      tag_189\n      swap3\n      swap2\n      swap1\n      tag_144\n      jump\t// in\n    tag_189:\n      mload(0x40)\n      dup1\n      swap2\n      sub\n      swap1\n      log1\n        /* \"contracts/KipuBankV2.sol\":6994:7441  {... */\n      pop\n      pop\n        /* \"@openzeppelin/contracts/utils/ReentrancyGuard.sol\":2531:2532  _ */\n      pop\n      pop\n        /* \"@openzeppelin/contracts/utils/ReentrancyGuard.sol\":2542:2562  _nonReentrantAfter() */\n      tag_190\n        /* \"@openzeppelin/contracts/utils/ReentrancyGuard.sol\":2542:2560  _nonReentrantAfter */\n      tag_191\n        /* \"@openzeppelin/contracts/utils/ReentrancyGuard.sol\":2542:2562  _nonReentrantAfter() */\n      jump\t// in\n    tag_190:\n        /* \"contracts/KipuBankV2.sol\":6903:7441  function withdraw(uint256 amount) external nonReentrant amountAvailable(amount, address(0)){... */\n      pop\n      jump\t// out\n        /* \"contracts/KipuBankV2.sol\":1278:1316  AggregatorV3Interface public s_btcFeed */\n    tag_74:\n      0x06\n      0x00\n      swap1\n      sload\n      swap1\n      0x0100\n      exp\n      swap1\n      div\n      0xffffffffffffffffffffffffffffffffffffffff\n      and\n      dup2\n      jump\t// out\n        /* \"contracts/KipuBankV2.sol\":9513:9811  function setFeeds(address _btcFeed, address _ethFeed) external onlyOwner{... */\n    tag_80:\n        /* \"@openzeppelin/contracts/access/Ownable.sol\":1531:1544  _checkOwner() */\n      tag_193\n        /* \"@openzeppelin/contracts/access/Ownable.sol\":1531:1542  _checkOwner */\n      tag_151\n        /* \"@openzeppelin/contracts/access/Ownable.sol\":1531:1544  _checkOwner() */\n      jump\t// in\n    tag_193:\n        /* \"contracts/KipuBankV2.sol\":9630:9638  _btcFeed */\n      dup2\n        /* \"contracts/KipuBankV2.sol\":9596:9605  s_btcFeed */\n      0x06\n      0x00\n        /* \"contracts/KipuBankV2.sol\":9596:9639  s_btcFeed = AggregatorV3Interface(_btcFeed) */\n      0x0100\n      exp\n      dup2\n      sload\n      dup2\n      0xffffffffffffffffffffffffffffffffffffffff\n      mul\n      not\n      and\n      swap1\n      dup4\n      0xffffffffffffffffffffffffffffffffffffffff\n      and\n      mul\n      or\n      swap1\n      sstore\n      pop\n        /* \"contracts/KipuBankV2.sol\":9655:9694  KipuBank_ChainlinkFeedUpdated(_btcFeed) */\n      0x9cfb764bdd6bf50d8528794e705bc04b200f852af31f00601d8c249e66b386a1\n        /* \"contracts/KipuBankV2.sol\":9685:9693  _btcFeed */\n      dup3\n        /* \"contracts/KipuBankV2.sol\":9655:9694  KipuBank_ChainlinkFeedUpdated(_btcFeed) */\n      mload(0x40)\n      tag_195\n      swap2\n      swap1\n      tag_93\n      jump\t// in\n    tag_195:\n      mload(0x40)\n      dup1\n      swap2\n      sub\n      swap1\n      log1\n        /* \"contracts/KipuBankV2.sol\":9739:9747  _ethFeed */\n      dup1\n        /* \"contracts/KipuBankV2.sol\":9705:9714  s_ethFeed */\n      0x07\n      0x00\n        /* \"contracts/KipuBankV2.sol\":9705:9748  s_ethFeed = AggregatorV3Interface(_ethFeed) */\n      0x0100\n      exp\n      dup2\n      sload\n      dup2\n      0xffffffffffffffffffffffffffffffffffffffff\n      mul\n      not\n      and\n      swap1\n      dup4\n      0xffffffffffffffffffffffffffffffffffffffff\n      and\n      mul\n      or\n      swap1\n      sstore\n      pop\n        /* \"contracts/KipuBankV2.sol\":9764:9803  KipuBank_ChainlinkFeedUpdated(_ethFeed) */\n      0x9cfb764bdd6bf50d8528794e705bc04b200f852af31f00601d8c249e66b386a1\n        /* \"contracts/KipuBankV2.sol\":9794:9802  _ethFeed */\n      dup2\n        /* \"contracts/KipuBankV2.sol\":9764:9803  KipuBank_ChainlinkFeedUpdated(_ethFeed) */\n      mload(0x40)\n      tag_196\n      swap2\n      swap1\n      tag_93\n      jump\t// in\n    tag_196:\n      mload(0x40)\n      dup1\n      swap2\n      sub\n      swap1\n      log1\n        /* \"contracts/KipuBankV2.sol\":9513:9811  function setFeeds(address _btcFeed, address _ethFeed) external onlyOwner{... */\n      pop\n      pop\n      jump\t// out\n        /* \"contracts/KipuBankV2.sol\":1633:1662  IERC20 public immutable i_btc */\n    tag_83:\n      immutable(\"0x53299669aa66e7aadfe0f05282b649689dd20b5ff82664cc58d2bd79a8d69809\")\n      dup2\n      jump\t// out\n        /* \"@openzeppelin/contracts/access/Ownable.sol\":2293:2394  function renounceOwnership() public virtual onlyOwner {... */\n    tag_88:\n        /* \"@openzeppelin/contracts/access/Ownable.sol\":1531:1544  _checkOwner() */\n      tag_198\n        /* \"@openzeppelin/contracts/access/Ownable.sol\":1531:1542  _checkOwner */\n      tag_151\n        /* \"@openzeppelin/contracts/access/Ownable.sol\":1531:1544  _checkOwner() */\n      jump\t// in\n    tag_198:\n        /* \"@openzeppelin/contracts/access/Ownable.sol\":2357:2387  _transferOwnership(address(0)) */\n      tag_200\n        /* \"@openzeppelin/contracts/access/Ownable.sol\":2384:2385  0 */\n      0x00\n        /* \"@openzeppelin/contracts/access/Ownable.sol\":2357:2375  _transferOwnership */\n      tag_201\n        /* \"@openzeppelin/contracts/access/Ownable.sol\":2357:2387  _transferOwnership(address(0)) */\n      jump\t// in\n    tag_200:\n        /* \"@openzeppelin/contracts/access/Ownable.sol\":2293:2394  function renounceOwnership() public virtual onlyOwner {... */\n      jump\t// out\n        /* \"@openzeppelin/contracts/access/Ownable.sol\":1638:1723  function owner() public view virtual returns (address) {... */\n    tag_91:\n        /* \"@openzeppelin/contracts/access/Ownable.sol\":1684:1691  address */\n      0x00\n        /* \"@openzeppelin/contracts/access/Ownable.sol\":1710:1716  _owner */\n      dup1\n      0x00\n      swap1\n      sload\n      swap1\n      0x0100\n      exp\n      swap1\n      div\n      0xffffffffffffffffffffffffffffffffffffffff\n      and\n        /* \"@openzeppelin/contracts/access/Ownable.sol\":1703:1716  return _owner */\n      swap1\n      pop\n        /* \"@openzeppelin/contracts/access/Ownable.sol\":1638:1723  function owner() public view virtual returns (address) {... */\n      swap1\n      jump\t// out\n        /* \"contracts/KipuBankV2.sol\":9028:9505  function withdrawBTC(uint256 amount) external nonReentrant _onlySupportedToken(address(i_btc)) amountAvailable(amount, address(i_btc)){... */\n    tag_97:\n        /* \"@openzeppelin/contracts/utils/ReentrancyGuard.sol\":2500:2521  _nonReentrantBefore() */\n      tag_204\n        /* \"@openzeppelin/contracts/utils/ReentrancyGuard.sol\":2500:2519  _nonReentrantBefore */\n      tag_170\n        /* \"@openzeppelin/contracts/utils/ReentrancyGuard.sol\":2500:2521  _nonReentrantBefore() */\n      jump\t// in\n    tag_204:\n        /* \"contracts/KipuBankV2.sol\":9115:9120  i_btc */\n      immutable(\"0x53299669aa66e7aadfe0f05282b649689dd20b5ff82664cc58d2bd79a8d69809\")\n        /* \"contracts/KipuBankV2.sol\":4300:4317  s_supportedTokens */\n      0x03\n        /* \"contracts/KipuBankV2.sol\":4300:4324  s_supportedTokens[token] */\n      0x00\n        /* \"contracts/KipuBankV2.sol\":4318:4323  token */\n      dup3\n        /* \"contracts/KipuBankV2.sol\":4300:4324  s_supportedTokens[token] */\n      0xffffffffffffffffffffffffffffffffffffffff\n      and\n      0xffffffffffffffffffffffffffffffffffffffff\n      and\n      dup2\n      mstore\n      0x20\n      add\n      swap1\n      dup2\n      mstore\n      0x20\n      add\n      0x00\n      keccak256\n      0x00\n      swap1\n      sload\n      swap1\n      0x0100\n      exp\n      swap1\n      div\n      0xff\n      and\n        /* \"contracts/KipuBankV2.sol\":4296:4379  if(!s_supportedTokens[token])... */\n      tag_206\n      jumpi\n        /* \"contracts/KipuBankV2.sol\":4373:4378  token */\n      dup1\n        /* \"contracts/KipuBankV2.sol\":4346:4379  KipuBank_NotSupportedToken(token) */\n      mload(0x40)\n      0xe584a63f00000000000000000000000000000000000000000000000000000000\n      dup2\n      mstore\n      0x04\n      add\n      tag_207\n      swap2\n      swap1\n      tag_93\n      jump\t// in\n    tag_207:\n      mload(0x40)\n      dup1\n      swap2\n      sub\n      swap1\n      revert\n        /* \"contracts/KipuBankV2.sol\":4296:4379  if(!s_supportedTokens[token])... */\n    tag_206:\n        /* \"contracts/KipuBankV2.sol\":9139:9145  amount */\n      dup2\n        /* \"contracts/KipuBankV2.sol\":9155:9160  i_btc */\n      immutable(\"0x53299669aa66e7aadfe0f05282b649689dd20b5ff82664cc58d2bd79a8d69809\")\n        /* \"contracts/KipuBankV2.sol\":3712:3718  amount */\n      dup2\n        /* \"contracts/KipuBankV2.sol\":3694:3709  i_maxWithdrawal */\n      immutable(\"0xd0b8e84548400be0a7baefd874f72abf40b76a06d00b093a5320484d2f141b49\")\n        /* \"contracts/KipuBankV2.sol\":3694:3718  i_maxWithdrawal < amount */\n      lt\n        /* \"contracts/KipuBankV2.sol\":3691:3793  if(i_maxWithdrawal < amount) revert KipuBank_FailedWithdrawal(\"Amount exceeds the maximum withdrawal\") */\n      iszero\n      tag_209\n      jumpi\n        /* \"contracts/KipuBankV2.sol\":3727:3793  KipuBank_FailedWithdrawal(\"Amount exceeds the maximum withdrawal\") */\n      mload(0x40)\n      0x0fc0517400000000000000000000000000000000000000000000000000000000\n      dup2\n      mstore\n      0x04\n      add\n      tag_210\n      swap1\n      tag_174\n      jump\t// in\n    tag_210:\n      mload(0x40)\n      dup1\n      swap2\n      sub\n      swap1\n      revert\n        /* \"contracts/KipuBankV2.sol\":3691:3793  if(i_maxWithdrawal < amount) revert KipuBank_FailedWithdrawal(\"Amount exceeds the maximum withdrawal\") */\n    tag_209:\n        /* \"contracts/KipuBankV2.sol\":3839:3845  amount */\n      dup2\n        /* \"contracts/KipuBankV2.sol\":3807:3817  s_balances */\n      0x02\n        /* \"contracts/KipuBankV2.sol\":3807:3824  s_balances[token] */\n      0x00\n        /* \"contracts/KipuBankV2.sol\":3818:3823  token */\n      dup4\n        /* \"contracts/KipuBankV2.sol\":3807:3824  s_balances[token] */\n      0xffffffffffffffffffffffffffffffffffffffff\n      and\n      0xffffffffffffffffffffffffffffffffffffffff\n      and\n      dup2\n      mstore\n      0x20\n      add\n      swap1\n      dup2\n      mstore\n      0x20\n      add\n      0x00\n      keccak256\n        /* \"contracts/KipuBankV2.sol\":3807:3836  s_balances[token][msg.sender] */\n      0x00\n        /* \"contracts/KipuBankV2.sol\":3825:3835  msg.sender */\n      caller\n        /* \"contracts/KipuBankV2.sol\":3807:3836  s_balances[token][msg.sender] */\n      0xffffffffffffffffffffffffffffffffffffffff\n      and\n      0xffffffffffffffffffffffffffffffffffffffff\n      and\n      dup2\n      mstore\n      0x20\n      add\n      swap1\n      dup2\n      mstore\n      0x20\n      add\n      0x00\n      keccak256\n      sload\n        /* \"contracts/KipuBankV2.sol\":3807:3845  s_balances[token][msg.sender] < amount */\n      lt\n        /* \"contracts/KipuBankV2.sol\":3804:3902  if(s_balances[token][msg.sender] < amount) revert KipuBank_InsufficientFounds(\"Not enough founds\") */\n      iszero\n      tag_211\n      jumpi\n        /* \"contracts/KipuBankV2.sol\":3854:3902  KipuBank_InsufficientFounds(\"Not enough founds\") */\n      mload(0x40)\n      0xe7fe37fb00000000000000000000000000000000000000000000000000000000\n      dup2\n      mstore\n      0x04\n      add\n      tag_212\n      swap1\n      tag_177\n      jump\t// in\n    tag_212:\n      mload(0x40)\n      dup1\n      swap2\n      sub\n      swap1\n      revert\n        /* \"contracts/KipuBankV2.sol\":3804:3902  if(s_balances[token][msg.sender] < amount) revert KipuBank_InsufficientFounds(\"Not enough founds\") */\n    tag_211:\n        /* \"contracts/KipuBankV2.sol\":9303:9309  amount */\n      dup4\n        /* \"contracts/KipuBankV2.sol\":9261:9271  s_balances */\n      0x02\n        /* \"contracts/KipuBankV2.sol\":9261:9287  s_balances[address(i_btc)] */\n      0x00\n        /* \"contracts/KipuBankV2.sol\":9280:9285  i_btc */\n      immutable(\"0x53299669aa66e7aadfe0f05282b649689dd20b5ff82664cc58d2bd79a8d69809\")\n        /* \"contracts/KipuBankV2.sol\":9261:9287  s_balances[address(i_btc)] */\n      0xffffffffffffffffffffffffffffffffffffffff\n      and\n      0xffffffffffffffffffffffffffffffffffffffff\n      and\n      dup2\n      mstore\n      0x20\n      add\n      swap1\n      dup2\n      mstore\n      0x20\n      add\n      0x00\n      keccak256\n        /* \"contracts/KipuBankV2.sol\":9261:9299  s_balances[address(i_btc)][msg.sender] */\n      0x00\n        /* \"contracts/KipuBankV2.sol\":9288:9298  msg.sender */\n      caller\n        /* \"contracts/KipuBankV2.sol\":9261:9299  s_balances[address(i_btc)][msg.sender] */\n      0xffffffffffffffffffffffffffffffffffffffff\n      and\n      0xffffffffffffffffffffffffffffffffffffffff\n      and\n      dup2\n      mstore\n      0x20\n      add\n      swap1\n      dup2\n      mstore\n      0x20\n      add\n      0x00\n      keccak256\n      0x00\n        /* \"contracts/KipuBankV2.sol\":9261:9309  s_balances[address(i_btc)][msg.sender] -= amount */\n      dup3\n      dup3\n      sload\n      tag_214\n      swap2\n      swap1\n      tag_180\n      jump\t// in\n    tag_214:\n      swap3\n      pop\n      pop\n      dup2\n      swap1\n      sstore\n      pop\n        /* \"contracts/KipuBankV2.sol\":9320:9363  _actualizeOperations(false, address(i_btc)) */\n      tag_215\n        /* \"contracts/KipuBankV2.sol\":9341:9346  false */\n      0x00\n        /* \"contracts/KipuBankV2.sol\":9356:9361  i_btc */\n      immutable(\"0x53299669aa66e7aadfe0f05282b649689dd20b5ff82664cc58d2bd79a8d69809\")\n        /* \"contracts/KipuBankV2.sol\":9320:9340  _actualizeOperations */\n      tag_142\n        /* \"contracts/KipuBankV2.sol\":9320:9363  _actualizeOperations(false, address(i_btc)) */\n      jump\t// in\n    tag_215:\n        /* \"contracts/KipuBankV2.sol\":9403:9452  KipuBank_SuccessfulWithdrawal(msg.sender, amount) */\n      0x1ff21e81cff87fccbac096ad565f52cb1b358db04a736a6a137cceb4a287a702\n        /* \"contracts/KipuBankV2.sol\":9433:9443  msg.sender */\n      caller\n        /* \"contracts/KipuBankV2.sol\":9445:9451  amount */\n      dup6\n        /* \"contracts/KipuBankV2.sol\":9403:9452  KipuBank_SuccessfulWithdrawal(msg.sender, amount) */\n      mload(0x40)\n      tag_216\n      swap3\n      swap2\n      swap1\n      tag_144\n      jump\t// in\n    tag_216:\n      mload(0x40)\n      dup1\n      swap2\n      sub\n      swap1\n      log1\n        /* \"contracts/KipuBankV2.sol\":9463:9468  i_btc */\n      immutable(\"0x53299669aa66e7aadfe0f05282b649689dd20b5ff82664cc58d2bd79a8d69809\")\n        /* \"contracts/KipuBankV2.sol\":9463:9477  i_btc.transfer */\n      0xffffffffffffffffffffffffffffffffffffffff\n      and\n      0xa9059cbb\n        /* \"contracts/KipuBankV2.sol\":9478:9488  msg.sender */\n      caller\n        /* \"contracts/KipuBankV2.sol\":9490:9496  amount */\n      dup7\n        /* \"contracts/KipuBankV2.sol\":9463:9497  i_btc.transfer(msg.sender, amount) */\n      mload(0x40)\n      dup4\n      0xffffffff\n      and\n      0xe0\n      shl\n      dup2\n      mstore\n      0x04\n      add\n      tag_217\n      swap3\n      swap2\n      swap1\n      tag_144\n      jump\t// in\n    tag_217:\n      0x20\n      mload(0x40)\n      dup1\n      dup4\n      sub\n      dup2\n      0x00\n      dup8\n      gas\n      call\n      iszero\n      dup1\n      iszero\n      tag_219\n      jumpi\n      returndatasize\n      0x00\n      dup1\n      returndatacopy\n      revert(0x00, returndatasize)\n    tag_219:\n      pop\n      pop\n      pop\n      pop\n      mload(0x40)\n      returndatasize\n      not(0x1f)\n      0x1f\n      dup3\n      add\n      and\n      dup3\n      add\n      dup1\n      0x40\n      mstore\n      pop\n      dup2\n      add\n      swap1\n      tag_220\n      swap2\n      swap1\n      tag_167\n      jump\t// in\n    tag_220:\n      pop\n        /* \"contracts/KipuBankV2.sol\":4390:4391  _ */\n      pop\n      pop\n        /* \"@openzeppelin/contracts/utils/ReentrancyGuard.sol\":2531:2532  _ */\n      pop\n        /* \"@openzeppelin/contracts/utils/ReentrancyGuard.sol\":2542:2562  _nonReentrantAfter() */\n      tag_221\n        /* \"@openzeppelin/contracts/utils/ReentrancyGuard.sol\":2542:2560  _nonReentrantAfter */\n      tag_191\n        /* \"@openzeppelin/contracts/utils/ReentrancyGuard.sol\":2542:2562  _nonReentrantAfter() */\n      jump\t// in\n    tag_221:\n        /* \"contracts/KipuBankV2.sol\":9028:9505  function withdrawBTC(uint256 amount) external nonReentrant _onlySupportedToken(address(i_btc)) amountAvailable(amount, address(i_btc)){... */\n      pop\n      jump\t// out\n        /* \"contracts/KipuBankV2.sol\":8488:9019  function depositBTC(uint256 amount) external nonReentrant  _onlySupportedToken(address(i_btc)) _isTokenTransferAllowed(address(i_btc), amount) _areFundsExceeded(amount, address(i_btc)){... */\n    tag_101:\n        /* \"@openzeppelin/contracts/utils/ReentrancyGuard.sol\":2500:2521  _nonReentrantBefore() */\n      tag_223\n        /* \"@openzeppelin/contracts/utils/ReentrancyGuard.sol\":2500:2519  _nonReentrantBefore */\n      tag_170\n        /* \"@openzeppelin/contracts/utils/ReentrancyGuard.sol\":2500:2521  _nonReentrantBefore() */\n      jump\t// in\n    tag_223:\n        /* \"contracts/KipuBankV2.sol\":8575:8580  i_btc */\n      immutable(\"0x53299669aa66e7aadfe0f05282b649689dd20b5ff82664cc58d2bd79a8d69809\")\n        /* \"contracts/KipuBankV2.sol\":4300:4317  s_supportedTokens */\n      0x03\n        /* \"contracts/KipuBankV2.sol\":4300:4324  s_supportedTokens[token] */\n      0x00\n        /* \"contracts/KipuBankV2.sol\":4318:4323  token */\n      dup3\n        /* \"contracts/KipuBankV2.sol\":4300:4324  s_supportedTokens[token] */\n      0xffffffffffffffffffffffffffffffffffffffff\n      and\n      0xffffffffffffffffffffffffffffffffffffffff\n      and\n      dup2\n      mstore\n      0x20\n      add\n      swap1\n      dup2\n      mstore\n      0x20\n      add\n      0x00\n      keccak256\n      0x00\n      swap1\n      sload\n      swap1\n      0x0100\n      exp\n      swap1\n      div\n      0xff\n      and\n        /* \"contracts/KipuBankV2.sol\":4296:4379  if(!s_supportedTokens[token])... */\n      tag_225\n      jumpi\n        /* \"contracts/KipuBankV2.sol\":4373:4378  token */\n      dup1\n        /* \"contracts/KipuBankV2.sol\":4346:4379  KipuBank_NotSupportedToken(token) */\n      mload(0x40)\n      0xe584a63f00000000000000000000000000000000000000000000000000000000\n      dup2\n      mstore\n      0x04\n      add\n      tag_226\n      swap2\n      swap1\n      tag_93\n      jump\t// in\n    tag_226:\n      mload(0x40)\n      dup1\n      swap2\n      sub\n      swap1\n      revert\n        /* \"contracts/KipuBankV2.sol\":4296:4379  if(!s_supportedTokens[token])... */\n    tag_225:\n        /* \"contracts/KipuBankV2.sol\":8615:8620  i_btc */\n      immutable(\"0x53299669aa66e7aadfe0f05282b649689dd20b5ff82664cc58d2bd79a8d69809\")\n        /* \"contracts/KipuBankV2.sol\":8623:8629  amount */\n      dup3\n        /* \"contracts/KipuBankV2.sol\":4502:4503  0 */\n      0x00\n        /* \"contracts/KipuBankV2.sol\":4484:4504  _token != address(0) */\n      0xffffffffffffffffffffffffffffffffffffffff\n      and\n        /* \"contracts/KipuBankV2.sol\":4484:4490  _token */\n      dup3\n        /* \"contracts/KipuBankV2.sol\":4484:4504  _token != address(0) */\n      0xffffffffffffffffffffffffffffffffffffffff\n      and\n      eq\n        /* \"contracts/KipuBankV2.sol\":4480:4730  if (_token != address(0)) {... */\n      tag_228\n      jumpi\n        /* \"contracts/KipuBankV2.sol\":4517:4529  IERC20 token */\n      0x00\n        /* \"contracts/KipuBankV2.sol\":4539:4545  _token */\n      dup3\n        /* \"contracts/KipuBankV2.sol\":4517:4546  IERC20 token = IERC20(_token) */\n      swap1\n      pop\n        /* \"contracts/KipuBankV2.sol\":4606:4613  _amount */\n      dup2\n        /* \"contracts/KipuBankV2.sol\":4561:4566  token */\n      dup2\n        /* \"contracts/KipuBankV2.sol\":4561:4576  token.allowance */\n      0xffffffffffffffffffffffffffffffffffffffff\n      and\n      0xdd62ed3e\n        /* \"contracts/KipuBankV2.sol\":4577:4587  msg.sender */\n      caller\n        /* \"contracts/KipuBankV2.sol\":4597:4601  this */\n      address\n        /* \"contracts/KipuBankV2.sol\":4561:4603  token.allowance(msg.sender, address(this)) */\n      mload(0x40)\n      dup4\n      0xffffffff\n      and\n      0xe0\n      shl\n      dup2\n      mstore\n      0x04\n      add\n      tag_229\n      swap3\n      swap2\n      swap1\n      tag_230\n      jump\t// in\n    tag_229:\n      0x20\n      mload(0x40)\n      dup1\n      dup4\n      sub\n      dup2\n      dup7\n      gas\n      staticcall\n      iszero\n      dup1\n      iszero\n      tag_232\n      jumpi\n      returndatasize\n      0x00\n      dup1\n      returndatacopy\n      revert(0x00, returndatasize)\n    tag_232:\n      pop\n      pop\n      pop\n      pop\n      mload(0x40)\n      returndatasize\n      not(0x1f)\n      0x1f\n      dup3\n      add\n      and\n      dup3\n      add\n      dup1\n      0x40\n      mstore\n      pop\n      dup2\n      add\n      swap1\n      tag_233\n      swap2\n      swap1\n      tag_234\n      jump\t// in\n    tag_233:\n        /* \"contracts/KipuBankV2.sol\":4561:4613  token.allowance(msg.sender, address(this)) < _amount */\n      lt\n        /* \"contracts/KipuBankV2.sol\":4557:4723  if (token.allowance(msg.sender, address(this)) < _amount) {... */\n      iszero\n      tag_235\n      jumpi\n        /* \"contracts/KipuBankV2.sol\":4637:4711  KipuBank_FailedOperation(\"ERC20: Insufficient allowance for transferFrom\") */\n      mload(0x40)\n      0x336ea14200000000000000000000000000000000000000000000000000000000\n      dup2\n      mstore\n      0x04\n      add\n      tag_236\n      swap1\n      tag_237\n      jump\t// in\n    tag_236:\n      mload(0x40)\n      dup1\n      swap2\n      sub\n      swap1\n      revert\n        /* \"contracts/KipuBankV2.sol\":4557:4723  if (token.allowance(msg.sender, address(this)) < _amount) {... */\n    tag_235:\n        /* \"contracts/KipuBankV2.sol\":4506:4730  {... */\n      pop\n        /* \"contracts/KipuBankV2.sol\":4480:4730  if (_token != address(0)) {... */\n    tag_228:\n        /* \"contracts/KipuBankV2.sol\":8649:8655  amount */\n      dup4\n        /* \"contracts/KipuBankV2.sol\":8665:8670  i_btc */\n      immutable(\"0x53299669aa66e7aadfe0f05282b649689dd20b5ff82664cc58d2bd79a8d69809\")\n        /* \"contracts/KipuBankV2.sol\":3998:4012  uint256 founds */\n      0x00\n        /* \"contracts/KipuBankV2.sol\":4015:4031  _consultFounds() */\n      tag_239\n        /* \"contracts/KipuBankV2.sol\":4015:4029  _consultFounds */\n      tag_131\n        /* \"contracts/KipuBankV2.sol\":4015:4031  _consultFounds() */\n      jump\t// in\n    tag_239:\n        /* \"contracts/KipuBankV2.sol\":3998:4031  uint256 founds = _consultFounds() */\n      swap1\n      pop\n        /* \"contracts/KipuBankV2.sol\":4042:4059  uint256 newAmount */\n      0x00\n        /* \"contracts/KipuBankV2.sol\":4062:4090  _convertToUSD(amount, token) */\n      tag_240\n        /* \"contracts/KipuBankV2.sol\":4076:4082  amount */\n      dup5\n        /* \"contracts/KipuBankV2.sol\":4084:4089  token */\n      dup5\n        /* \"contracts/KipuBankV2.sol\":4062:4075  _convertToUSD */\n      tag_133\n        /* \"contracts/KipuBankV2.sol\":4062:4090  _convertToUSD(amount, token) */\n      jump\t// in\n    tag_240:\n        /* \"contracts/KipuBankV2.sol\":4042:4090  uint256 newAmount = _convertToUSD(amount, token) */\n      swap1\n      pop\n        /* \"contracts/KipuBankV2.sol\":4125:4134  i_bankCap */\n      immutable(\"0x28bbb0207f31d945816623d3302c5bf67e35f3d933c3b03a2cbc30cfa7ce31d8\")\n        /* \"contracts/KipuBankV2.sol\":4113:4122  newAmount */\n      dup2\n        /* \"contracts/KipuBankV2.sol\":4104:4110  founds */\n      dup4\n        /* \"contracts/KipuBankV2.sol\":4104:4122  founds + newAmount */\n      tag_241\n      swap2\n      swap1\n      tag_135\n      jump\t// in\n    tag_241:\n        /* \"contracts/KipuBankV2.sol\":4104:4134  founds + newAmount > i_bankCap */\n      gt\n        /* \"contracts/KipuBankV2.sol\":4101:4214  if(founds + newAmount > i_bankCap)... */\n      iszero\n      tag_242\n      jumpi\n        /* \"contracts/KipuBankV2.sol\":4156:4214  KipuBank_FailedDeposit(\"Total KipuBank's founds exceeded\") */\n      mload(0x40)\n      0xa2d2e1b200000000000000000000000000000000000000000000000000000000\n      dup2\n      mstore\n      0x04\n      add\n      tag_243\n      swap1\n      tag_138\n      jump\t// in\n    tag_243:\n      mload(0x40)\n      dup1\n      swap2\n      sub\n      swap1\n      revert\n        /* \"contracts/KipuBankV2.sol\":4101:4214  if(founds + newAmount > i_bankCap)... */\n    tag_242:\n        /* \"contracts/KipuBankV2.sol\":8760:8765  i_btc */\n      immutable(\"0x53299669aa66e7aadfe0f05282b649689dd20b5ff82664cc58d2bd79a8d69809\")\n        /* \"contracts/KipuBankV2.sol\":8760:8778  i_btc.transferFrom */\n      0xffffffffffffffffffffffffffffffffffffffff\n      and\n      0x23b872dd\n        /* \"contracts/KipuBankV2.sol\":8779:8789  msg.sender */\n      caller\n        /* \"contracts/KipuBankV2.sol\":8799:8803  this */\n      address\n        /* \"contracts/KipuBankV2.sol\":8806:8812  amount */\n      dup12\n        /* \"contracts/KipuBankV2.sol\":8760:8813  i_btc.transferFrom(msg.sender, address(this), amount) */\n      mload(0x40)\n      dup5\n      0xffffffff\n      and\n      0xe0\n      shl\n      dup2\n      mstore\n      0x04\n      add\n      tag_245\n      swap4\n      swap3\n      swap2\n      swap1\n      tag_246\n      jump\t// in\n    tag_245:\n      0x20\n      mload(0x40)\n      dup1\n      dup4\n      sub\n      dup2\n      0x00\n      dup8\n      gas\n      call\n      iszero\n      dup1\n      iszero\n      tag_248\n      jumpi\n      returndatasize\n      0x00\n      dup1\n      returndatacopy\n      revert(0x00, returndatasize)\n    tag_248:\n      pop\n      pop\n      pop\n      pop\n      mload(0x40)\n      returndatasize\n      not(0x1f)\n      0x1f\n      dup3\n      add\n      and\n      dup3\n      add\n      dup1\n      0x40\n      mstore\n      pop\n      dup2\n      add\n      swap1\n      tag_249\n      swap2\n      swap1\n      tag_167\n      jump\t// in\n    tag_249:\n      pop\n        /* \"contracts/KipuBankV2.sol\":8866:8872  amount */\n      dup8\n        /* \"contracts/KipuBankV2.sol\":8824:8834  s_balances */\n      0x02\n        /* \"contracts/KipuBankV2.sol\":8824:8850  s_balances[address(i_btc)] */\n      0x00\n        /* \"contracts/KipuBankV2.sol\":8843:8848  i_btc */\n      immutable(\"0x53299669aa66e7aadfe0f05282b649689dd20b5ff82664cc58d2bd79a8d69809\")\n        /* \"contracts/KipuBankV2.sol\":8824:8850  s_balances[address(i_btc)] */\n      0xffffffffffffffffffffffffffffffffffffffff\n      and\n      0xffffffffffffffffffffffffffffffffffffffff\n      and\n      dup2\n      mstore\n      0x20\n      add\n      swap1\n      dup2\n      mstore\n      0x20\n      add\n      0x00\n      keccak256\n        /* \"contracts/KipuBankV2.sol\":8824:8862  s_balances[address(i_btc)][msg.sender] */\n      0x00\n        /* \"contracts/KipuBankV2.sol\":8851:8861  msg.sender */\n      caller\n        /* \"contracts/KipuBankV2.sol\":8824:8862  s_balances[address(i_btc)][msg.sender] */\n      0xffffffffffffffffffffffffffffffffffffffff\n      and\n      0xffffffffffffffffffffffffffffffffffffffff\n      and\n      dup2\n      mstore\n      0x20\n      add\n      swap1\n      dup2\n      mstore\n      0x20\n      add\n      0x00\n      keccak256\n      0x00\n        /* \"contracts/KipuBankV2.sol\":8824:8872  s_balances[address(i_btc)][msg.sender] += amount */\n      dup3\n      dup3\n      sload\n      tag_250\n      swap2\n      swap1\n      tag_135\n      jump\t// in\n    tag_250:\n      swap3\n      pop\n      pop\n      dup2\n      swap1\n      sstore\n      pop\n        /* \"contracts/KipuBankV2.sol\":8883:8925  _actualizeOperations(true, address(i_btc)) */\n      tag_251\n        /* \"contracts/KipuBankV2.sol\":8904:8908  true */\n      0x01\n        /* \"contracts/KipuBankV2.sol\":8918:8923  i_btc */\n      immutable(\"0x53299669aa66e7aadfe0f05282b649689dd20b5ff82664cc58d2bd79a8d69809\")\n        /* \"contracts/KipuBankV2.sol\":8883:8903  _actualizeOperations */\n      tag_142\n        /* \"contracts/KipuBankV2.sol\":8883:8925  _actualizeOperations(true, address(i_btc)) */\n      jump\t// in\n    tag_251:\n        /* \"contracts/KipuBankV2.sol\":8965:9011  KipuBank_SuccessfulDeposit(msg.sender, amount) */\n      0x7b7cd0ddbbea241880e825e1eb51c30752cb96dd7efeb4be691ec55dfa4d8963\n        /* \"contracts/KipuBankV2.sol\":8992:9002  msg.sender */\n      caller\n        /* \"contracts/KipuBankV2.sol\":9004:9010  amount */\n      dup10\n        /* \"contracts/KipuBankV2.sol\":8965:9011  KipuBank_SuccessfulDeposit(msg.sender, amount) */\n      mload(0x40)\n      tag_252\n      swap3\n      swap2\n      swap1\n      tag_144\n      jump\t// in\n    tag_252:\n      mload(0x40)\n      dup1\n      swap2\n      sub\n      swap1\n      log1\n        /* \"contracts/KipuBankV2.sol\":3987:4234  {... */\n      pop\n      pop\n        /* \"contracts/KipuBankV2.sol\":4736:4737  _ */\n      pop\n      pop\n        /* \"contracts/KipuBankV2.sol\":4390:4391  _ */\n      pop\n      pop\n        /* \"@openzeppelin/contracts/utils/ReentrancyGuard.sol\":2531:2532  _ */\n      pop\n        /* \"@openzeppelin/contracts/utils/ReentrancyGuard.sol\":2542:2562  _nonReentrantAfter() */\n      tag_253\n        /* \"@openzeppelin/contracts/utils/ReentrancyGuard.sol\":2542:2560  _nonReentrantAfter */\n      tag_191\n        /* \"@openzeppelin/contracts/utils/ReentrancyGuard.sol\":2542:2562  _nonReentrantAfter() */\n      jump\t// in\n    tag_253:\n        /* \"contracts/KipuBankV2.sol\":8488:9019  function depositBTC(uint256 amount) external nonReentrant  _onlySupportedToken(address(i_btc)) _isTokenTransferAllowed(address(i_btc), amount) _areFundsExceeded(amount, address(i_btc)){... */\n      pop\n      jump\t// out\n        /* \"contracts/KipuBankV2.sol\":1209:1269  mapping(address => uint256) public s_totalWithdrawalsByToken */\n    tag_105:\n      mstore(0x20, 0x05)\n      dup1\n      0x00\n      mstore\n      keccak256(0x00, 0x40)\n      0x00\n      swap2\n      pop\n      swap1\n      pop\n      sload\n      dup2\n      jump\t// out\n        /* \"contracts/KipuBankV2.sol\":6584:6687  function deposit() external payable nonReentrant{... */\n    tag_108:\n        /* \"@openzeppelin/contracts/utils/ReentrancyGuard.sol\":2500:2521  _nonReentrantBefore() */\n      tag_255\n        /* \"@openzeppelin/contracts/utils/ReentrancyGuard.sol\":2500:2519  _nonReentrantBefore */\n      tag_170\n        /* \"@openzeppelin/contracts/utils/ReentrancyGuard.sol\":2500:2521  _nonReentrantBefore() */\n      jump\t// in\n    tag_255:\n        /* \"contracts/KipuBankV2.sol\":6643:6679  _depositEther(msg.sender, msg.value) */\n      tag_257\n        /* \"contracts/KipuBankV2.sol\":6657:6667  msg.sender */\n      caller\n        /* \"contracts/KipuBankV2.sol\":6669:6678  msg.value */\n      callvalue\n        /* \"contracts/KipuBankV2.sol\":6643:6656  _depositEther */\n      tag_30\n        /* \"contracts/KipuBankV2.sol\":6643:6679  _depositEther(msg.sender, msg.value) */\n      jump\t// in\n    tag_257:\n        /* \"@openzeppelin/contracts/utils/ReentrancyGuard.sol\":2542:2562  _nonReentrantAfter() */\n      tag_258\n        /* \"@openzeppelin/contracts/utils/ReentrancyGuard.sol\":2542:2560  _nonReentrantAfter */\n      tag_191\n        /* \"@openzeppelin/contracts/utils/ReentrancyGuard.sol\":2542:2562  _nonReentrantAfter() */\n      jump\t// in\n    tag_258:\n        /* \"contracts/KipuBankV2.sol\":6584:6687  function deposit() external payable nonReentrant{... */\n      jump\t// out\n        /* \"contracts/KipuBankV2.sol\":7997:8480  function withdrawUSDC(uint256 amount) external nonReentrant _onlySupportedToken(address(i_usdc)) amountAvailable(amount, address(i_usdc)){... */\n    tag_112:\n        /* \"@openzeppelin/contracts/utils/ReentrancyGuard.sol\":2500:2521  _nonReentrantBefore() */\n      tag_260\n        /* \"@openzeppelin/contracts/utils/ReentrancyGuard.sol\":2500:2519  _nonReentrantBefore */\n      tag_170\n        /* \"@openzeppelin/contracts/utils/ReentrancyGuard.sol\":2500:2521  _nonReentrantBefore() */\n      jump\t// in\n    tag_260:\n        /* \"contracts/KipuBankV2.sol\":8085:8091  i_usdc */\n      immutable(\"0xd1731c384d2c8ba1eafa1dee7436362fec5c2705b14e910ce09d6ba0a10fd695\")\n        /* \"contracts/KipuBankV2.sol\":4300:4317  s_supportedTokens */\n      0x03\n        /* \"contracts/KipuBankV2.sol\":4300:4324  s_supportedTokens[token] */\n      0x00\n        /* \"contracts/KipuBankV2.sol\":4318:4323  token */\n      dup3\n        /* \"contracts/KipuBankV2.sol\":4300:4324  s_supportedTokens[token] */\n      0xffffffffffffffffffffffffffffffffffffffff\n      and\n      0xffffffffffffffffffffffffffffffffffffffff\n      and\n      dup2\n      mstore\n      0x20\n      add\n      swap1\n      dup2\n      mstore\n      0x20\n      add\n      0x00\n      keccak256\n      0x00\n      swap1\n      sload\n      swap1\n      0x0100\n      exp\n      swap1\n      div\n      0xff\n      and\n        /* \"contracts/KipuBankV2.sol\":4296:4379  if(!s_supportedTokens[token])... */\n      tag_262\n      jumpi\n        /* \"contracts/KipuBankV2.sol\":4373:4378  token */\n      dup1\n        /* \"contracts/KipuBankV2.sol\":4346:4379  KipuBank_NotSupportedToken(token) */\n      mload(0x40)\n      0xe584a63f00000000000000000000000000000000000000000000000000000000\n      dup2\n      mstore\n      0x04\n      add\n      tag_263\n      swap2\n      swap1\n      tag_93\n      jump\t// in\n    tag_263:\n      mload(0x40)\n      dup1\n      swap2\n      sub\n      swap1\n      revert\n        /* \"contracts/KipuBankV2.sol\":4296:4379  if(!s_supportedTokens[token])... */\n    tag_262:\n        /* \"contracts/KipuBankV2.sol\":8110:8116  amount */\n      dup2\n        /* \"contracts/KipuBankV2.sol\":8126:8132  i_usdc */\n      immutable(\"0xd1731c384d2c8ba1eafa1dee7436362fec5c2705b14e910ce09d6ba0a10fd695\")\n        /* \"contracts/KipuBankV2.sol\":3712:3718  amount */\n      dup2\n        /* \"contracts/KipuBankV2.sol\":3694:3709  i_maxWithdrawal */\n      immutable(\"0xd0b8e84548400be0a7baefd874f72abf40b76a06d00b093a5320484d2f141b49\")\n        /* \"contracts/KipuBankV2.sol\":3694:3718  i_maxWithdrawal < amount */\n      lt\n        /* \"contracts/KipuBankV2.sol\":3691:3793  if(i_maxWithdrawal < amount) revert KipuBank_FailedWithdrawal(\"Amount exceeds the maximum withdrawal\") */\n      iszero\n      tag_265\n      jumpi\n        /* \"contracts/KipuBankV2.sol\":3727:3793  KipuBank_FailedWithdrawal(\"Amount exceeds the maximum withdrawal\") */\n      mload(0x40)\n      0x0fc0517400000000000000000000000000000000000000000000000000000000\n      dup2\n      mstore\n      0x04\n      add\n      tag_266\n      swap1\n      tag_174\n      jump\t// in\n    tag_266:\n      mload(0x40)\n      dup1\n      swap2\n      sub\n      swap1\n      revert\n        /* \"contracts/KipuBankV2.sol\":3691:3793  if(i_maxWithdrawal < amount) revert KipuBank_FailedWithdrawal(\"Amount exceeds the maximum withdrawal\") */\n    tag_265:\n        /* \"contracts/KipuBankV2.sol\":3839:3845  amount */\n      dup2\n        /* \"contracts/KipuBankV2.sol\":3807:3817  s_balances */\n      0x02\n        /* \"contracts/KipuBankV2.sol\":3807:3824  s_balances[token] */\n      0x00\n        /* \"contracts/KipuBankV2.sol\":3818:3823  token */\n      dup4\n        /* \"contracts/KipuBankV2.sol\":3807:3824  s_balances[token] */\n      0xffffffffffffffffffffffffffffffffffffffff\n      and\n      0xffffffffffffffffffffffffffffffffffffffff\n      and\n      dup2\n      mstore\n      0x20\n      add\n      swap1\n      dup2\n      mstore\n      0x20\n      add\n      0x00\n      keccak256\n        /* \"contracts/KipuBankV2.sol\":3807:3836  s_balances[token][msg.sender] */\n      0x00\n        /* \"contracts/KipuBankV2.sol\":3825:3835  msg.sender */\n      caller\n        /* \"contracts/KipuBankV2.sol\":3807:3836  s_balances[token][msg.sender] */\n      0xffffffffffffffffffffffffffffffffffffffff\n      and\n      0xffffffffffffffffffffffffffffffffffffffff\n      and\n      dup2\n      mstore\n      0x20\n      add\n      swap1\n      dup2\n      mstore\n      0x20\n      add\n      0x00\n      keccak256\n      sload\n        /* \"contracts/KipuBankV2.sol\":3807:3845  s_balances[token][msg.sender] < amount */\n      lt\n        /* \"contracts/KipuBankV2.sol\":3804:3902  if(s_balances[token][msg.sender] < amount) revert KipuBank_InsufficientFounds(\"Not enough founds\") */\n      iszero\n      tag_267\n      jumpi\n        /* \"contracts/KipuBankV2.sol\":3854:3902  KipuBank_InsufficientFounds(\"Not enough founds\") */\n      mload(0x40)\n      0xe7fe37fb00000000000000000000000000000000000000000000000000000000\n      dup2\n      mstore\n      0x04\n      add\n      tag_268\n      swap1\n      tag_177\n      jump\t// in\n    tag_268:\n      mload(0x40)\n      dup1\n      swap2\n      sub\n      swap1\n      revert\n        /* \"contracts/KipuBankV2.sol\":3804:3902  if(s_balances[token][msg.sender] < amount) revert KipuBank_InsufficientFounds(\"Not enough founds\") */\n    tag_267:\n        /* \"contracts/KipuBankV2.sol\":8276:8282  amount */\n      dup4\n        /* \"contracts/KipuBankV2.sol\":8233:8243  s_balances */\n      0x02\n        /* \"contracts/KipuBankV2.sol\":8233:8260  s_balances[address(i_usdc)] */\n      0x00\n        /* \"contracts/KipuBankV2.sol\":8252:8258  i_usdc */\n      immutable(\"0xd1731c384d2c8ba1eafa1dee7436362fec5c2705b14e910ce09d6ba0a10fd695\")\n        /* \"contracts/KipuBankV2.sol\":8233:8260  s_balances[address(i_usdc)] */\n      0xffffffffffffffffffffffffffffffffffffffff\n      and\n      0xffffffffffffffffffffffffffffffffffffffff\n      and\n      dup2\n      mstore\n      0x20\n      add\n      swap1\n      dup2\n      mstore\n      0x20\n      add\n      0x00\n      keccak256\n        /* \"contracts/KipuBankV2.sol\":8233:8272  s_balances[address(i_usdc)][msg.sender] */\n      0x00\n        /* \"contracts/KipuBankV2.sol\":8261:8271  msg.sender */\n      caller\n        /* \"contracts/KipuBankV2.sol\":8233:8272  s_balances[address(i_usdc)][msg.sender] */\n      0xffffffffffffffffffffffffffffffffffffffff\n      and\n      0xffffffffffffffffffffffffffffffffffffffff\n      and\n      dup2\n      mstore\n      0x20\n      add\n      swap1\n      dup2\n      mstore\n      0x20\n      add\n      0x00\n      keccak256\n      0x00\n        /* \"contracts/KipuBankV2.sol\":8233:8282  s_balances[address(i_usdc)][msg.sender] -= amount */\n      dup3\n      dup3\n      sload\n      tag_270\n      swap2\n      swap1\n      tag_180\n      jump\t// in\n    tag_270:\n      swap3\n      pop\n      pop\n      dup2\n      swap1\n      sstore\n      pop\n        /* \"contracts/KipuBankV2.sol\":8293:8337  _actualizeOperations(false, address(i_usdc)) */\n      tag_271\n        /* \"contracts/KipuBankV2.sol\":8314:8319  false */\n      0x00\n        /* \"contracts/KipuBankV2.sol\":8329:8335  i_usdc */\n      immutable(\"0xd1731c384d2c8ba1eafa1dee7436362fec5c2705b14e910ce09d6ba0a10fd695\")\n        /* \"contracts/KipuBankV2.sol\":8293:8313  _actualizeOperations */\n      tag_142\n        /* \"contracts/KipuBankV2.sol\":8293:8337  _actualizeOperations(false, address(i_usdc)) */\n      jump\t// in\n    tag_271:\n        /* \"contracts/KipuBankV2.sol\":8377:8426  KipuBank_SuccessfulWithdrawal(msg.sender, amount) */\n      0x1ff21e81cff87fccbac096ad565f52cb1b358db04a736a6a137cceb4a287a702\n        /* \"contracts/KipuBankV2.sol\":8407:8417  msg.sender */\n      caller\n        /* \"contracts/KipuBankV2.sol\":8419:8425  amount */\n      dup6\n        /* \"contracts/KipuBankV2.sol\":8377:8426  KipuBank_SuccessfulWithdrawal(msg.sender, amount) */\n      mload(0x40)\n      tag_272\n      swap3\n      swap2\n      swap1\n      tag_144\n      jump\t// in\n    tag_272:\n      mload(0x40)\n      dup1\n      swap2\n      sub\n      swap1\n      log1\n        /* \"contracts/KipuBankV2.sol\":8437:8443  i_usdc */\n      immutable(\"0xd1731c384d2c8ba1eafa1dee7436362fec5c2705b14e910ce09d6ba0a10fd695\")\n        /* \"contracts/KipuBankV2.sol\":8437:8452  i_usdc.transfer */\n      0xffffffffffffffffffffffffffffffffffffffff\n      and\n      0xa9059cbb\n        /* \"contracts/KipuBankV2.sol\":8453:8463  msg.sender */\n      caller\n        /* \"contracts/KipuBankV2.sol\":8465:8471  amount */\n      dup7\n        /* \"contracts/KipuBankV2.sol\":8437:8472  i_usdc.transfer(msg.sender, amount) */\n      mload(0x40)\n      dup4\n      0xffffffff\n      and\n      0xe0\n      shl\n      dup2\n      mstore\n      0x04\n      add\n      tag_273\n      swap3\n      swap2\n      swap1\n      tag_144\n      jump\t// in\n    tag_273:\n      0x20\n      mload(0x40)\n      dup1\n      dup4\n      sub\n      dup2\n      0x00\n      dup8\n      gas\n      call\n      iszero\n      dup1\n      iszero\n      tag_275\n      jumpi\n      returndatasize\n      0x00\n      dup1\n      returndatacopy\n      revert(0x00, returndatasize)\n    tag_275:\n      pop\n      pop\n      pop\n      pop\n      mload(0x40)\n      returndatasize\n      not(0x1f)\n      0x1f\n      dup3\n      add\n      and\n      dup3\n      add\n      dup1\n      0x40\n      mstore\n      pop\n      dup2\n      add\n      swap1\n      tag_276\n      swap2\n      swap1\n      tag_167\n      jump\t// in\n    tag_276:\n      pop\n        /* \"contracts/KipuBankV2.sol\":4390:4391  _ */\n      pop\n      pop\n        /* \"@openzeppelin/contracts/utils/ReentrancyGuard.sol\":2531:2532  _ */\n      pop\n        /* \"@openzeppelin/contracts/utils/ReentrancyGuard.sol\":2542:2562  _nonReentrantAfter() */\n      tag_277\n        /* \"@openzeppelin/contracts/utils/ReentrancyGuard.sol\":2542:2560  _nonReentrantAfter */\n      tag_191\n        /* \"@openzeppelin/contracts/utils/ReentrancyGuard.sol\":2542:2562  _nonReentrantAfter() */\n      jump\t// in\n    tag_277:\n        /* \"contracts/KipuBankV2.sol\":7997:8480  function withdrawUSDC(uint256 amount) external nonReentrant _onlySupportedToken(address(i_usdc)) amountAvailable(amount, address(i_usdc)){... */\n      pop\n      jump\t// out\n        /* \"@openzeppelin/contracts/access/Ownable.sol\":2543:2758  function transferOwnership(address newOwner) public virtual onlyOwner {... */\n    tag_116:\n        /* \"@openzeppelin/contracts/access/Ownable.sol\":1531:1544  _checkOwner() */\n      tag_279\n        /* \"@openzeppelin/contracts/access/Ownable.sol\":1531:1542  _checkOwner */\n      tag_151\n        /* \"@openzeppelin/contracts/access/Ownable.sol\":1531:1544  _checkOwner() */\n      jump\t// in\n    tag_279:\n        /* \"@openzeppelin/contracts/access/Ownable.sol\":2647:2648  0 */\n      0x00\n        /* \"@openzeppelin/contracts/access/Ownable.sol\":2627:2649  newOwner == address(0) */\n      0xffffffffffffffffffffffffffffffffffffffff\n      and\n        /* \"@openzeppelin/contracts/access/Ownable.sol\":2627:2635  newOwner */\n      dup2\n        /* \"@openzeppelin/contracts/access/Ownable.sol\":2627:2649  newOwner == address(0) */\n      0xffffffffffffffffffffffffffffffffffffffff\n      and\n      sub\n        /* \"@openzeppelin/contracts/access/Ownable.sol\":2623:2714  if (newOwner == address(0)) {... */\n      tag_281\n      jumpi\n        /* \"@openzeppelin/contracts/access/Ownable.sol\":2700:2701  0 */\n      0x00\n        /* \"@openzeppelin/contracts/access/Ownable.sol\":2672:2703  OwnableInvalidOwner(address(0)) */\n      mload(0x40)\n      0x1e4fbdf700000000000000000000000000000000000000000000000000000000\n      dup2\n      mstore\n      0x04\n      add\n      tag_282\n      swap2\n      swap1\n      tag_93\n      jump\t// in\n    tag_282:\n      mload(0x40)\n      dup1\n      swap2\n      sub\n      swap1\n      revert\n        /* \"@openzeppelin/contracts/access/Ownable.sol\":2623:2714  if (newOwner == address(0)) {... */\n    tag_281:\n        /* \"@openzeppelin/contracts/access/Ownable.sol\":2723:2751  _transferOwnership(newOwner) */\n      tag_283\n        /* \"@openzeppelin/contracts/access/Ownable.sol\":2742:2750  newOwner */\n      dup2\n        /* \"@openzeppelin/contracts/access/Ownable.sol\":2723:2741  _transferOwnership */\n      tag_201\n        /* \"@openzeppelin/contracts/access/Ownable.sol\":2723:2751  _transferOwnership(newOwner) */\n      jump\t// in\n    tag_283:\n        /* \"@openzeppelin/contracts/access/Ownable.sol\":2543:2758  function transferOwnership(address newOwner) public virtual onlyOwner {... */\n      pop\n      jump\t// out\n        /* \"contracts/KipuBankV2.sol\":1435:1469  uint256 public immutable i_bankCap */\n    tag_119:\n      immutable(\"0x28bbb0207f31d945816623d3302c5bf67e35f3d933c3b03a2cbc30cfa7ce31d8\")\n      dup2\n      jump\t// out\n        /* \"contracts/KipuBankV2.sol\":7451:7988  function depositUSDC(uint256 amount) external nonReentrant _onlySupportedToken(address(i_usdc)) _isTokenTransferAllowed(address(i_usdc), amount) _areFundsExceeded(amount, address(i_usdc)){... */\n    tag_124:\n        /* \"@openzeppelin/contracts/utils/ReentrancyGuard.sol\":2500:2521  _nonReentrantBefore() */\n      tag_285\n        /* \"@openzeppelin/contracts/utils/ReentrancyGuard.sol\":2500:2519  _nonReentrantBefore */\n      tag_170\n        /* \"@openzeppelin/contracts/utils/ReentrancyGuard.sol\":2500:2521  _nonReentrantBefore() */\n      jump\t// in\n    tag_285:\n        /* \"contracts/KipuBankV2.sol\":7538:7544  i_usdc */\n      immutable(\"0xd1731c384d2c8ba1eafa1dee7436362fec5c2705b14e910ce09d6ba0a10fd695\")\n        /* \"contracts/KipuBankV2.sol\":4300:4317  s_supportedTokens */\n      0x03\n        /* \"contracts/KipuBankV2.sol\":4300:4324  s_supportedTokens[token] */\n      0x00\n        /* \"contracts/KipuBankV2.sol\":4318:4323  token */\n      dup3\n        /* \"contracts/KipuBankV2.sol\":4300:4324  s_supportedTokens[token] */\n      0xffffffffffffffffffffffffffffffffffffffff\n      and\n      0xffffffffffffffffffffffffffffffffffffffff\n      and\n      dup2\n      mstore\n      0x20\n      add\n      swap1\n      dup2\n      mstore\n      0x20\n      add\n      0x00\n      keccak256\n      0x00\n      swap1\n      sload\n      swap1\n      0x0100\n      exp\n      swap1\n      div\n      0xff\n      and\n        /* \"contracts/KipuBankV2.sol\":4296:4379  if(!s_supportedTokens[token])... */\n      tag_287\n      jumpi\n        /* \"contracts/KipuBankV2.sol\":4373:4378  token */\n      dup1\n        /* \"contracts/KipuBankV2.sol\":4346:4379  KipuBank_NotSupportedToken(token) */\n      mload(0x40)\n      0xe584a63f00000000000000000000000000000000000000000000000000000000\n      dup2\n      mstore\n      0x04\n      add\n      tag_288\n      swap2\n      swap1\n      tag_93\n      jump\t// in\n    tag_288:\n      mload(0x40)\n      dup1\n      swap2\n      sub\n      swap1\n      revert\n        /* \"contracts/KipuBankV2.sol\":4296:4379  if(!s_supportedTokens[token])... */\n    tag_287:\n        /* \"contracts/KipuBankV2.sol\":7579:7585  i_usdc */\n      immutable(\"0xd1731c384d2c8ba1eafa1dee7436362fec5c2705b14e910ce09d6ba0a10fd695\")\n        /* \"contracts/KipuBankV2.sol\":7588:7594  amount */\n      dup3\n        /* \"contracts/KipuBankV2.sol\":4502:4503  0 */\n      0x00\n        /* \"contracts/KipuBankV2.sol\":4484:4504  _token != address(0) */\n      0xffffffffffffffffffffffffffffffffffffffff\n      and\n        /* \"contracts/KipuBankV2.sol\":4484:4490  _token */\n      dup3\n        /* \"contracts/KipuBankV2.sol\":4484:4504  _token != address(0) */\n      0xffffffffffffffffffffffffffffffffffffffff\n      and\n      eq\n        /* \"contracts/KipuBankV2.sol\":4480:4730  if (_token != address(0)) {... */\n      tag_290\n      jumpi\n        /* \"contracts/KipuBankV2.sol\":4517:4529  IERC20 token */\n      0x00\n        /* \"contracts/KipuBankV2.sol\":4539:4545  _token */\n      dup3\n        /* \"contracts/KipuBankV2.sol\":4517:4546  IERC20 token = IERC20(_token) */\n      swap1\n      pop\n        /* \"contracts/KipuBankV2.sol\":4606:4613  _amount */\n      dup2\n        /* \"contracts/KipuBankV2.sol\":4561:4566  token */\n      dup2\n        /* \"contracts/KipuBankV2.sol\":4561:4576  token.allowance */\n      0xffffffffffffffffffffffffffffffffffffffff\n      and\n      0xdd62ed3e\n        /* \"contracts/KipuBankV2.sol\":4577:4587  msg.sender */\n      caller\n        /* \"contracts/KipuBankV2.sol\":4597:4601  this */\n      address\n        /* \"contracts/KipuBankV2.sol\":4561:4603  token.allowance(msg.sender, address(this)) */\n      mload(0x40)\n      dup4\n      0xffffffff\n      and\n      0xe0\n      shl\n      dup2\n      mstore\n      0x04\n      add\n      tag_291\n      swap3\n      swap2\n      swap1\n      tag_230\n      jump\t// in\n    tag_291:\n      0x20\n      mload(0x40)\n      dup1\n      dup4\n      sub\n      dup2\n      dup7\n      gas\n      staticcall\n      iszero\n      dup1\n      iszero\n      tag_293\n      jumpi\n      returndatasize\n      0x00\n      dup1\n      returndatacopy\n      revert(0x00, returndatasize)\n    tag_293:\n      pop\n      pop\n      pop\n      pop\n      mload(0x40)\n      returndatasize\n      not(0x1f)\n      0x1f\n      dup3\n      add\n      and\n      dup3\n      add\n      dup1\n      0x40\n      mstore\n      pop\n      dup2\n      add\n      swap1\n      tag_294\n      swap2\n      swap1\n      tag_234\n      jump\t// in\n    tag_294:\n        /* \"contracts/KipuBankV2.sol\":4561:4613  token.allowance(msg.sender, address(this)) < _amount */\n      lt\n        /* \"contracts/KipuBankV2.sol\":4557:4723  if (token.allowance(msg.sender, address(this)) < _amount) {... */\n      iszero\n      tag_295\n      jumpi\n        /* \"contracts/KipuBankV2.sol\":4637:4711  KipuBank_FailedOperation(\"ERC20: Insufficient allowance for transferFrom\") */\n      mload(0x40)\n      0x336ea14200000000000000000000000000000000000000000000000000000000\n      dup2\n      mstore\n      0x04\n      add\n      tag_296\n      swap1\n      tag_237\n      jump\t// in\n    tag_296:\n      mload(0x40)\n      dup1\n      swap2\n      sub\n      swap1\n      revert\n        /* \"contracts/KipuBankV2.sol\":4557:4723  if (token.allowance(msg.sender, address(this)) < _amount) {... */\n    tag_295:\n        /* \"contracts/KipuBankV2.sol\":4506:4730  {... */\n      pop\n        /* \"contracts/KipuBankV2.sol\":4480:4730  if (_token != address(0)) {... */\n    tag_290:\n        /* \"contracts/KipuBankV2.sol\":7614:7620  amount */\n      dup4\n        /* \"contracts/KipuBankV2.sol\":7630:7636  i_usdc */\n      immutable(\"0xd1731c384d2c8ba1eafa1dee7436362fec5c2705b14e910ce09d6ba0a10fd695\")\n        /* \"contracts/KipuBankV2.sol\":3998:4012  uint256 founds */\n      0x00\n        /* \"contracts/KipuBankV2.sol\":4015:4031  _consultFounds() */\n      tag_298\n        /* \"contracts/KipuBankV2.sol\":4015:4029  _consultFounds */\n      tag_131\n        /* \"contracts/KipuBankV2.sol\":4015:4031  _consultFounds() */\n      jump\t// in\n    tag_298:\n        /* \"contracts/KipuBankV2.sol\":3998:4031  uint256 founds = _consultFounds() */\n      swap1\n      pop\n        /* \"contracts/KipuBankV2.sol\":4042:4059  uint256 newAmount */\n      0x00\n        /* \"contracts/KipuBankV2.sol\":4062:4090  _convertToUSD(amount, token) */\n      tag_299\n        /* \"contracts/KipuBankV2.sol\":4076:4082  amount */\n      dup5\n        /* \"contracts/KipuBankV2.sol\":4084:4089  token */\n      dup5\n        /* \"contracts/KipuBankV2.sol\":4062:4075  _convertToUSD */\n      tag_133\n        /* \"contracts/KipuBankV2.sol\":4062:4090  _convertToUSD(amount, token) */\n      jump\t// in\n    tag_299:\n        /* \"contracts/KipuBankV2.sol\":4042:4090  uint256 newAmount = _convertToUSD(amount, token) */\n      swap1\n      pop\n        /* \"contracts/KipuBankV2.sol\":4125:4134  i_bankCap */\n      immutable(\"0x28bbb0207f31d945816623d3302c5bf67e35f3d933c3b03a2cbc30cfa7ce31d8\")\n        /* \"contracts/KipuBankV2.sol\":4113:4122  newAmount */\n      dup2\n        /* \"contracts/KipuBankV2.sol\":4104:4110  founds */\n      dup4\n        /* \"contracts/KipuBankV2.sol\":4104:4122  founds + newAmount */\n      tag_300\n      swap2\n      swap1\n      tag_135\n      jump\t// in\n    tag_300:\n        /* \"contracts/KipuBankV2.sol\":4104:4134  founds + newAmount > i_bankCap */\n      gt\n        /* \"contracts/KipuBankV2.sol\":4101:4214  if(founds + newAmount > i_bankCap)... */\n      iszero\n      tag_301\n      jumpi\n        /* \"contracts/KipuBankV2.sol\":4156:4214  KipuBank_FailedDeposit(\"Total KipuBank's founds exceeded\") */\n      mload(0x40)\n      0xa2d2e1b200000000000000000000000000000000000000000000000000000000\n      dup2\n      mstore\n      0x04\n      add\n      tag_302\n      swap1\n      tag_138\n      jump\t// in\n    tag_302:\n      mload(0x40)\n      dup1\n      swap2\n      sub\n      swap1\n      revert\n        /* \"contracts/KipuBankV2.sol\":4101:4214  if(founds + newAmount > i_bankCap)... */\n    tag_301:\n        /* \"contracts/KipuBankV2.sol\":7726:7732  i_usdc */\n      immutable(\"0xd1731c384d2c8ba1eafa1dee7436362fec5c2705b14e910ce09d6ba0a10fd695\")\n        /* \"contracts/KipuBankV2.sol\":7726:7745  i_usdc.transferFrom */\n      0xffffffffffffffffffffffffffffffffffffffff\n      and\n      0x23b872dd\n        /* \"contracts/KipuBankV2.sol\":7746:7756  msg.sender */\n      caller\n        /* \"contracts/KipuBankV2.sol\":7766:7770  this */\n      address\n        /* \"contracts/KipuBankV2.sol\":7773:7779  amount */\n      dup12\n        /* \"contracts/KipuBankV2.sol\":7726:7780  i_usdc.transferFrom(msg.sender, address(this), amount) */\n      mload(0x40)\n      dup5\n      0xffffffff\n      and\n      0xe0\n      shl\n      dup2\n      mstore\n      0x04\n      add\n      tag_304\n      swap4\n      swap3\n      swap2\n      swap1\n      tag_246\n      jump\t// in\n    tag_304:\n      0x20\n      mload(0x40)\n      dup1\n      dup4\n      sub\n      dup2\n      0x00\n      dup8\n      gas\n      call\n      iszero\n      dup1\n      iszero\n      tag_306\n      jumpi\n      returndatasize\n      0x00\n      dup1\n      returndatacopy\n      revert(0x00, returndatasize)\n    tag_306:\n      pop\n      pop\n      pop\n      pop\n      mload(0x40)\n      returndatasize\n      not(0x1f)\n      0x1f\n      dup3\n      add\n      and\n      dup3\n      add\n      dup1\n      0x40\n      mstore\n      pop\n      dup2\n      add\n      swap1\n      tag_307\n      swap2\n      swap1\n      tag_167\n      jump\t// in\n    tag_307:\n      pop\n        /* \"contracts/KipuBankV2.sol\":7834:7840  amount */\n      dup8\n        /* \"contracts/KipuBankV2.sol\":7791:7801  s_balances */\n      0x02\n        /* \"contracts/KipuBankV2.sol\":7791:7818  s_balances[address(i_usdc)] */\n      0x00\n        /* \"contracts/KipuBankV2.sol\":7810:7816  i_usdc */\n      immutable(\"0xd1731c384d2c8ba1eafa1dee7436362fec5c2705b14e910ce09d6ba0a10fd695\")\n        /* \"contracts/KipuBankV2.sol\":7791:7818  s_balances[address(i_usdc)] */\n      0xffffffffffffffffffffffffffffffffffffffff\n      and\n      0xffffffffffffffffffffffffffffffffffffffff\n      and\n      dup2\n      mstore\n      0x20\n      add\n      swap1\n      dup2\n      mstore\n      0x20\n      add\n      0x00\n      keccak256\n        /* \"contracts/KipuBankV2.sol\":7791:7830  s_balances[address(i_usdc)][msg.sender] */\n      0x00\n        /* \"contracts/KipuBankV2.sol\":7819:7829  msg.sender */\n      caller\n        /* \"contracts/KipuBankV2.sol\":7791:7830  s_balances[address(i_usdc)][msg.sender] */\n      0xffffffffffffffffffffffffffffffffffffffff\n      and\n      0xffffffffffffffffffffffffffffffffffffffff\n      and\n      dup2\n      mstore\n      0x20\n      add\n      swap1\n      dup2\n      mstore\n      0x20\n      add\n      0x00\n      keccak256\n      0x00\n        /* \"contracts/KipuBankV2.sol\":7791:7840  s_balances[address(i_usdc)][msg.sender] += amount */\n      dup3\n      dup3\n      sload\n      tag_308\n      swap2\n      swap1\n      tag_135\n      jump\t// in\n    tag_308:\n      swap3\n      pop\n      pop\n      dup2\n      swap1\n      sstore\n      pop\n        /* \"contracts/KipuBankV2.sol\":7851:7894  _actualizeOperations(true, address(i_usdc)) */\n      tag_309\n        /* \"contracts/KipuBankV2.sol\":7872:7876  true */\n      0x01\n        /* \"contracts/KipuBankV2.sol\":7886:7892  i_usdc */\n      immutable(\"0xd1731c384d2c8ba1eafa1dee7436362fec5c2705b14e910ce09d6ba0a10fd695\")\n        /* \"contracts/KipuBankV2.sol\":7851:7871  _actualizeOperations */\n      tag_142\n        /* \"contracts/KipuBankV2.sol\":7851:7894  _actualizeOperations(true, address(i_usdc)) */\n      jump\t// in\n    tag_309:\n        /* \"contracts/KipuBankV2.sol\":7934:7980  KipuBank_SuccessfulDeposit(msg.sender, amount) */\n      0x7b7cd0ddbbea241880e825e1eb51c30752cb96dd7efeb4be691ec55dfa4d8963\n        /* \"contracts/KipuBankV2.sol\":7961:7971  msg.sender */\n      caller\n        /* \"contracts/KipuBankV2.sol\":7973:7979  amount */\n      dup10\n        /* \"contracts/KipuBankV2.sol\":7934:7980  KipuBank_SuccessfulDeposit(msg.sender, amount) */\n      mload(0x40)\n      tag_310\n      swap3\n      swap2\n      swap1\n      tag_144\n      jump\t// in\n    tag_310:\n      mload(0x40)\n      dup1\n      swap2\n      sub\n      swap1\n      log1\n        /* \"contracts/KipuBankV2.sol\":3987:4234  {... */\n      pop\n      pop\n        /* \"contracts/KipuBankV2.sol\":4736:4737  _ */\n      pop\n      pop\n        /* \"contracts/KipuBankV2.sol\":4390:4391  _ */\n      pop\n      pop\n        /* \"@openzeppelin/contracts/utils/ReentrancyGuard.sol\":2531:2532  _ */\n      pop\n        /* \"@openzeppelin/contracts/utils/ReentrancyGuard.sol\":2542:2562  _nonReentrantAfter() */\n      tag_311\n        /* \"@openzeppelin/contracts/utils/ReentrancyGuard.sol\":2542:2560  _nonReentrantAfter */\n      tag_191\n        /* \"@openzeppelin/contracts/utils/ReentrancyGuard.sol\":2542:2562  _nonReentrantAfter() */\n      jump\t// in\n    tag_311:\n        /* \"contracts/KipuBankV2.sol\":7451:7988  function depositUSDC(uint256 amount) external nonReentrant _onlySupportedToken(address(i_usdc)) _isTokenTransferAllowed(address(i_usdc), amount) _areFundsExceeded(amount, address(i_usdc)){... */\n      pop\n      jump\t// out\n        /* \"contracts/KipuBankV2.sol\":1594:1624  IERC20 public immutable i_usdc */\n    tag_127:\n      immutable(\"0xd1731c384d2c8ba1eafa1dee7436362fec5c2705b14e910ce09d6ba0a10fd695\")\n      dup2\n      jump\t// out\n        /* \"contracts/KipuBankV2.sol\":11125:11615  function _consultFounds() internal view returns (uint256 amount_){... */\n    tag_131:\n        /* \"contracts/KipuBankV2.sol\":11174:11189  uint256 amount_ */\n      0x00\n        /* \"contracts/KipuBankV2.sol\":11201:11219  uint256 ethBalance */\n      dup1\n        /* \"contracts/KipuBankV2.sol\":11222:11243  address(this).balance */\n      selfbalance\n        /* \"contracts/KipuBankV2.sol\":11201:11243  uint256 ethBalance = address(this).balance */\n      swap1\n      pop\n        /* \"contracts/KipuBankV2.sol\":11254:11273  uint256 usdcBalance */\n      0x00\n        /* \"contracts/KipuBankV2.sol\":11276:11282  i_usdc */\n      immutable(\"0xd1731c384d2c8ba1eafa1dee7436362fec5c2705b14e910ce09d6ba0a10fd695\")\n        /* \"contracts/KipuBankV2.sol\":11276:11292  i_usdc.balanceOf */\n      0xffffffffffffffffffffffffffffffffffffffff\n      and\n      0x70a08231\n        /* \"contracts/KipuBankV2.sol\":11301:11305  this */\n      address\n        /* \"contracts/KipuBankV2.sol\":11276:11307  i_usdc.balanceOf(address(this)) */\n      mload(0x40)\n      dup3\n      0xffffffff\n      and\n      0xe0\n      shl\n      dup2\n      mstore\n      0x04\n      add\n      tag_313\n      swap2\n      swap1\n      tag_93\n      jump\t// in\n    tag_313:\n      0x20\n      mload(0x40)\n      dup1\n      dup4\n      sub\n      dup2\n      dup7\n      gas\n      staticcall\n      iszero\n      dup1\n      iszero\n      tag_315\n      jumpi\n      returndatasize\n      0x00\n      dup1\n      returndatacopy\n      revert(0x00, returndatasize)\n    tag_315:\n      pop\n      pop\n      pop\n      pop\n      mload(0x40)\n      returndatasize\n      not(0x1f)\n      0x1f\n      dup3\n      add\n      and\n      dup3\n      add\n      dup1\n      0x40\n      mstore\n      pop\n      dup2\n      add\n      swap1\n      tag_316\n      swap2\n      swap1\n      tag_234\n      jump\t// in\n    tag_316:\n        /* \"contracts/KipuBankV2.sol\":11254:11307  uint256 usdcBalance = i_usdc.balanceOf(address(this)) */\n      swap1\n      pop\n        /* \"contracts/KipuBankV2.sol\":11318:11336  uint256 btcBalance */\n      0x00\n        /* \"contracts/KipuBankV2.sol\":11339:11344  i_btc */\n      immutable(\"0x53299669aa66e7aadfe0f05282b649689dd20b5ff82664cc58d2bd79a8d69809\")\n        /* \"contracts/KipuBankV2.sol\":11339:11354  i_btc.balanceOf */\n      0xffffffffffffffffffffffffffffffffffffffff\n      and\n      0x70a08231\n        /* \"contracts/KipuBankV2.sol\":11363:11367  this */\n      address\n        /* \"contracts/KipuBankV2.sol\":11339:11369  i_btc.balanceOf(address(this)) */\n      mload(0x40)\n      dup3\n      0xffffffff\n      and\n      0xe0\n      shl\n      dup2\n      mstore\n      0x04\n      add\n      tag_317\n      swap2\n      swap1\n      tag_93\n      jump\t// in\n    tag_317:\n      0x20\n      mload(0x40)\n      dup1\n      dup4\n      sub\n      dup2\n      dup7\n      gas\n      staticcall\n      iszero\n      dup1\n      iszero\n      tag_319\n      jumpi\n      returndatasize\n      0x00\n      dup1\n      returndatacopy\n      revert(0x00, returndatasize)\n    tag_319:\n      pop\n      pop\n      pop\n      pop\n      mload(0x40)\n      returndatasize\n      not(0x1f)\n      0x1f\n      dup3\n      add\n      and\n      dup3\n      add\n      dup1\n      0x40\n      mstore\n      pop\n      dup2\n      add\n      swap1\n      tag_320\n      swap2\n      swap1\n      tag_234\n      jump\t// in\n    tag_320:\n        /* \"contracts/KipuBankV2.sol\":11318:11369  uint256 btcBalance = i_btc.balanceOf(address(this)) */\n      swap1\n      pop\n        /* \"contracts/KipuBankV2.sol\":11382:11398  uint256 ethToUSD */\n      0x00\n        /* \"contracts/KipuBankV2.sol\":11401:11429  _convertEthToUSD(ethBalance) */\n      tag_321\n        /* \"contracts/KipuBankV2.sol\":11418:11428  ethBalance */\n      dup5\n        /* \"contracts/KipuBankV2.sol\":11401:11417  _convertEthToUSD */\n      tag_322\n        /* \"contracts/KipuBankV2.sol\":11401:11429  _convertEthToUSD(ethBalance) */\n      jump\t// in\n    tag_321:\n        /* \"contracts/KipuBankV2.sol\":11382:11429  uint256 ethToUSD = _convertEthToUSD(ethBalance) */\n      swap1\n      pop\n        /* \"contracts/KipuBankV2.sol\":11444:11461  uint256 usdcToUSD */\n      0x00\n        /* \"contracts/KipuBankV2.sol\":11464:11494  _convertUsdcToUSD(usdcBalance) */\n      tag_323\n        /* \"contracts/KipuBankV2.sol\":11482:11493  usdcBalance */\n      dup5\n        /* \"contracts/KipuBankV2.sol\":11464:11481  _convertUsdcToUSD */\n      tag_324\n        /* \"contracts/KipuBankV2.sol\":11464:11494  _convertUsdcToUSD(usdcBalance) */\n      jump\t// in\n    tag_323:\n        /* \"contracts/KipuBankV2.sol\":11444:11494  uint256 usdcToUSD = _convertUsdcToUSD(usdcBalance) */\n      swap1\n      pop\n        /* \"contracts/KipuBankV2.sol\":11508:11524  uint256 btcToUSD */\n      0x00\n        /* \"contracts/KipuBankV2.sol\":11528:11556  _convertBtcToUSD(btcBalance) */\n      tag_325\n        /* \"contracts/KipuBankV2.sol\":11545:11555  btcBalance */\n      dup5\n        /* \"contracts/KipuBankV2.sol\":11528:11544  _convertBtcToUSD */\n      tag_326\n        /* \"contracts/KipuBankV2.sol\":11528:11556  _convertBtcToUSD(btcBalance) */\n      jump\t// in\n    tag_325:\n        /* \"contracts/KipuBankV2.sol\":11508:11556  uint256 btcToUSD =  _convertBtcToUSD(btcBalance) */\n      swap1\n      pop\n        /* \"contracts/KipuBankV2.sol\":11599:11607  btcToUSD */\n      dup1\n        /* \"contracts/KipuBankV2.sol\":11587:11596  usdcToUSD */\n      dup3\n        /* \"contracts/KipuBankV2.sol\":11576:11584  ethToUSD */\n      dup5\n        /* \"contracts/KipuBankV2.sol\":11576:11596  ethToUSD + usdcToUSD */\n      tag_327\n      swap2\n      swap1\n      tag_135\n      jump\t// in\n    tag_327:\n        /* \"contracts/KipuBankV2.sol\":11576:11607  ethToUSD + usdcToUSD + btcToUSD */\n      tag_328\n      swap2\n      swap1\n      tag_135\n      jump\t// in\n    tag_328:\n        /* \"contracts/KipuBankV2.sol\":11569:11607  return ethToUSD + usdcToUSD + btcToUSD */\n      swap7\n      pop\n      pop\n      pop\n      pop\n      pop\n      pop\n      pop\n        /* \"contracts/KipuBankV2.sol\":11125:11615  function _consultFounds() internal view returns (uint256 amount_){... */\n      swap1\n      jump\t// out\n        /* \"contracts/KipuBankV2.sol\":12949:13495  function _convertToUSD(uint256 _amount, address _token) internal view returns (uint256 convertedAmount_) ... */\n    tag_133:\n        /* \"contracts/KipuBankV2.sol\":13028:13052  uint256 convertedAmount_ */\n      0x00\n        /* \"contracts/KipuBankV2.sol\":13093:13094  0 */\n      dup1\n        /* \"contracts/KipuBankV2.sol\":13075:13095  _token == address(0) */\n      0xffffffffffffffffffffffffffffffffffffffff\n      and\n        /* \"contracts/KipuBankV2.sol\":13075:13081  _token */\n      dup3\n        /* \"contracts/KipuBankV2.sol\":13075:13095  _token == address(0) */\n      0xffffffffffffffffffffffffffffffffffffffff\n      and\n      sub\n        /* \"contracts/KipuBankV2.sol\":13071:13454  if (_token == address(0)) {... */\n      tag_330\n      jumpi\n        /* \"contracts/KipuBankV2.sol\":13131:13156  _convertEthToUSD(_amount) */\n      tag_331\n        /* \"contracts/KipuBankV2.sol\":13148:13155  _amount */\n      dup4\n        /* \"contracts/KipuBankV2.sol\":13131:13147  _convertEthToUSD */\n      tag_322\n        /* \"contracts/KipuBankV2.sol\":13131:13156  _convertEthToUSD(_amount) */\n      jump\t// in\n    tag_331:\n        /* \"contracts/KipuBankV2.sol\":13112:13156  convertedAmount_ = _convertEthToUSD(_amount) */\n      swap1\n      pop\n        /* \"contracts/KipuBankV2.sol\":13071:13454  if (_token == address(0)) {... */\n      jump(tag_332)\n    tag_330:\n        /* \"contracts/KipuBankV2.sol\":13196:13202  i_usdc */\n      immutable(\"0xd1731c384d2c8ba1eafa1dee7436362fec5c2705b14e910ce09d6ba0a10fd695\")\n        /* \"contracts/KipuBankV2.sol\":13178:13203  _token == address(i_usdc) */\n      0xffffffffffffffffffffffffffffffffffffffff\n      and\n        /* \"contracts/KipuBankV2.sol\":13178:13184  _token */\n      dup3\n        /* \"contracts/KipuBankV2.sol\":13178:13203  _token == address(i_usdc) */\n      0xffffffffffffffffffffffffffffffffffffffff\n      and\n      sub\n        /* \"contracts/KipuBankV2.sol\":13174:13454  if (_token == address(i_usdc)) {... */\n      tag_333\n      jumpi\n        /* \"contracts/KipuBankV2.sol\":13239:13265  _convertUsdcToUSD(_amount) */\n      tag_334\n        /* \"contracts/KipuBankV2.sol\":13257:13264  _amount */\n      dup4\n        /* \"contracts/KipuBankV2.sol\":13239:13256  _convertUsdcToUSD */\n      tag_324\n        /* \"contracts/KipuBankV2.sol\":13239:13265  _convertUsdcToUSD(_amount) */\n      jump\t// in\n    tag_334:\n        /* \"contracts/KipuBankV2.sol\":13220:13265  convertedAmount_ = _convertUsdcToUSD(_amount) */\n      swap1\n      pop\n        /* \"contracts/KipuBankV2.sol\":13174:13454  if (_token == address(i_usdc)) {... */\n      jump(tag_335)\n    tag_333:\n        /* \"contracts/KipuBankV2.sol\":13305:13310  i_btc */\n      immutable(\"0x53299669aa66e7aadfe0f05282b649689dd20b5ff82664cc58d2bd79a8d69809\")\n        /* \"contracts/KipuBankV2.sol\":13287:13311  _token == address(i_btc) */\n      0xffffffffffffffffffffffffffffffffffffffff\n      and\n        /* \"contracts/KipuBankV2.sol\":13287:13293  _token */\n      dup3\n        /* \"contracts/KipuBankV2.sol\":13287:13311  _token == address(i_btc) */\n      0xffffffffffffffffffffffffffffffffffffffff\n      and\n      sub\n        /* \"contracts/KipuBankV2.sol\":13283:13454  if (_token == address(i_btc)) {... */\n      tag_336\n      jumpi\n        /* \"contracts/KipuBankV2.sol\":13347:13372  _convertBtcToUSD(_amount) */\n      tag_337\n        /* \"contracts/KipuBankV2.sol\":13364:13371  _amount */\n      dup4\n        /* \"contracts/KipuBankV2.sol\":13347:13363  _convertBtcToUSD */\n      tag_326\n        /* \"contracts/KipuBankV2.sol\":13347:13372  _convertBtcToUSD(_amount) */\n      jump\t// in\n    tag_337:\n        /* \"contracts/KipuBankV2.sol\":13328:13372  convertedAmount_ = _convertBtcToUSD(_amount) */\n      swap1\n      pop\n        /* \"contracts/KipuBankV2.sol\":13283:13454  if (_token == address(i_btc)) {... */\n      jump(tag_338)\n    tag_336:\n        /* \"contracts/KipuBankV2.sol\":13438:13444  _token */\n      dup2\n        /* \"contracts/KipuBankV2.sol\":13411:13445  KipuBank_NotSupportedToken(_token) */\n      mload(0x40)\n      0xe584a63f00000000000000000000000000000000000000000000000000000000\n      dup2\n      mstore\n      0x04\n      add\n      tag_339\n      swap2\n      swap1\n      tag_93\n      jump\t// in\n    tag_339:\n      mload(0x40)\n      dup1\n      swap2\n      sub\n      swap1\n      revert\n        /* \"contracts/KipuBankV2.sol\":13283:13454  if (_token == address(i_btc)) {... */\n    tag_338:\n        /* \"contracts/KipuBankV2.sol\":13174:13454  if (_token == address(i_usdc)) {... */\n    tag_335:\n        /* \"contracts/KipuBankV2.sol\":13071:13454  if (_token == address(0)) {... */\n    tag_332:\n        /* \"contracts/KipuBankV2.sol\":12949:13495  function _convertToUSD(uint256 _amount, address _token) internal view returns (uint256 convertedAmount_) ... */\n      swap3\n      swap2\n      pop\n      pop\n      jump\t// out\n        /* \"contracts/KipuBankV2.sol\":10871:11099  function _actualizeOperations(bool isDeposit, address token) private{... */\n    tag_142:\n        /* \"contracts/KipuBankV2.sol\":10953:10962  isDeposit */\n      dup2\n        /* \"contracts/KipuBankV2.sol\":10950:11092  if(isDeposit){... */\n      iszero\n      tag_341\n      jumpi\n        /* \"contracts/KipuBankV2.sol\":11011:11012  1 */\n      0x01\n        /* \"contracts/KipuBankV2.sol\":10978:11000  s_totalDepositsByToken */\n      0x04\n        /* \"contracts/KipuBankV2.sol\":10978:11007  s_totalDepositsByToken[token] */\n      0x00\n        /* \"contracts/KipuBankV2.sol\":11001:11006  token */\n      dup4\n        /* \"contracts/KipuBankV2.sol\":10978:11007  s_totalDepositsByToken[token] */\n      0xffffffffffffffffffffffffffffffffffffffff\n      and\n      0xffffffffffffffffffffffffffffffffffffffff\n      and\n      dup2\n      mstore\n      0x20\n      add\n      swap1\n      dup2\n      mstore\n      0x20\n      add\n      0x00\n      keccak256\n      0x00\n        /* \"contracts/KipuBankV2.sol\":10978:11012  s_totalDepositsByToken[token] += 1 */\n      dup3\n      dup3\n      sload\n      tag_342\n      swap2\n      swap1\n      tag_135\n      jump\t// in\n    tag_342:\n      swap3\n      pop\n      pop\n      dup2\n      swap1\n      sstore\n      pop\n        /* \"contracts/KipuBankV2.sol\":10950:11092  if(isDeposit){... */\n      jump(tag_343)\n    tag_341:\n        /* \"contracts/KipuBankV2.sol\":11079:11080  1 */\n      0x01\n        /* \"contracts/KipuBankV2.sol\":11043:11068  s_totalWithdrawalsByToken */\n      0x05\n        /* \"contracts/KipuBankV2.sol\":11043:11075  s_totalWithdrawalsByToken[token] */\n      0x00\n        /* \"contracts/KipuBankV2.sol\":11069:11074  token */\n      dup4\n        /* \"contracts/KipuBankV2.sol\":11043:11075  s_totalWithdrawalsByToken[token] */\n      0xffffffffffffffffffffffffffffffffffffffff\n      and\n      0xffffffffffffffffffffffffffffffffffffffff\n      and\n      dup2\n      mstore\n      0x20\n      add\n      swap1\n      dup2\n      mstore\n      0x20\n      add\n      0x00\n      keccak256\n      0x00\n        /* \"contracts/KipuBankV2.sol\":11043:11080  s_totalWithdrawalsByToken[token] += 1 */\n      dup3\n      dup3\n      sload\n      tag_344\n      swap2\n      swap1\n      tag_135\n      jump\t// in\n    tag_344:\n      swap3\n      pop\n      pop\n      dup2\n      swap1\n      sstore\n      pop\n        /* \"contracts/KipuBankV2.sol\":10950:11092  if(isDeposit){... */\n    tag_343:\n        /* \"contracts/KipuBankV2.sol\":10871:11099  function _actualizeOperations(bool isDeposit, address token) private{... */\n      pop\n      pop\n      jump\t// out\n        /* \"@openzeppelin/contracts/access/Ownable.sol\":1796:1958  function _checkOwner() internal view virtual {... */\n    tag_151:\n        /* \"@openzeppelin/contracts/access/Ownable.sol\":1866:1878  _msgSender() */\n      tag_346\n        /* \"@openzeppelin/contracts/access/Ownable.sol\":1866:1876  _msgSender */\n      tag_347\n        /* \"@openzeppelin/contracts/access/Ownable.sol\":1866:1878  _msgSender() */\n      jump\t// in\n    tag_346:\n        /* \"@openzeppelin/contracts/access/Ownable.sol\":1855:1878  owner() != _msgSender() */\n      0xffffffffffffffffffffffffffffffffffffffff\n      and\n        /* \"@openzeppelin/contracts/access/Ownable.sol\":1855:1862  owner() */\n      tag_348\n        /* \"@openzeppelin/contracts/access/Ownable.sol\":1855:1860  owner */\n      tag_91\n        /* \"@openzeppelin/contracts/access/Ownable.sol\":1855:1862  owner() */\n      jump\t// in\n    tag_348:\n        /* \"@openzeppelin/contracts/access/Ownable.sol\":1855:1878  owner() != _msgSender() */\n      0xffffffffffffffffffffffffffffffffffffffff\n      and\n      eq\n        /* \"@openzeppelin/contracts/access/Ownable.sol\":1851:1952  if (owner() != _msgSender()) {... */\n      tag_349\n      jumpi\n        /* \"@openzeppelin/contracts/access/Ownable.sol\":1928:1940  _msgSender() */\n      tag_350\n        /* \"@openzeppelin/contracts/access/Ownable.sol\":1928:1938  _msgSender */\n      tag_347\n        /* \"@openzeppelin/contracts/access/Ownable.sol\":1928:1940  _msgSender() */\n      jump\t// in\n    tag_350:\n        /* \"@openzeppelin/contracts/access/Ownable.sol\":1901:1941  OwnableUnauthorizedAccount(_msgSender()) */\n      mload(0x40)\n      0x118cdaa700000000000000000000000000000000000000000000000000000000\n      dup2\n      mstore\n      0x04\n      add\n      tag_351\n      swap2\n      swap1\n      tag_93\n      jump\t// in\n    tag_351:\n      mload(0x40)\n      dup1\n      swap2\n      sub\n      swap1\n      revert\n        /* \"@openzeppelin/contracts/access/Ownable.sol\":1851:1952  if (owner() != _msgSender()) {... */\n    tag_349:\n        /* \"@openzeppelin/contracts/access/Ownable.sol\":1796:1958  function _checkOwner() internal view virtual {... */\n      jump\t// out\n        /* \"@openzeppelin/contracts/utils/ReentrancyGuard.sol\":2575:2882  function _nonReentrantBefore() private {... */\n    tag_170:\n        /* \"@openzeppelin/contracts/utils/ReentrancyGuard.sol\":1899:1900  2 */\n      0x02\n        /* \"@openzeppelin/contracts/utils/ReentrancyGuard.sol\":2702:2709  _status */\n      sload(0x01)\n        /* \"@openzeppelin/contracts/utils/ReentrancyGuard.sol\":2702:2720  _status == ENTERED */\n      sub\n        /* \"@openzeppelin/contracts/utils/ReentrancyGuard.sol\":2698:2784  if (_status == ENTERED) {... */\n      tag_353\n      jumpi\n        /* \"@openzeppelin/contracts/utils/ReentrancyGuard.sol\":2743:2773  ReentrancyGuardReentrantCall() */\n      mload(0x40)\n      0x3ee5aeb500000000000000000000000000000000000000000000000000000000\n      dup2\n      mstore\n      0x04\n      add\n      mload(0x40)\n      dup1\n      swap2\n      sub\n      swap1\n      revert\n        /* \"@openzeppelin/contracts/utils/ReentrancyGuard.sol\":2698:2784  if (_status == ENTERED) {... */\n    tag_353:\n        /* \"@openzeppelin/contracts/utils/ReentrancyGuard.sol\":1899:1900  2 */\n      0x02\n        /* \"@openzeppelin/contracts/utils/ReentrancyGuard.sol\":2858:2865  _status */\n      0x01\n        /* \"@openzeppelin/contracts/utils/ReentrancyGuard.sol\":2858:2875  _status = ENTERED */\n      dup2\n      swap1\n      sstore\n      pop\n        /* \"@openzeppelin/contracts/utils/ReentrancyGuard.sol\":2575:2882  function _nonReentrantBefore() private {... */\n      jump\t// out\n        /* \"@openzeppelin/contracts/utils/ReentrancyGuard.sol\":2888:3096  function _nonReentrantAfter() private {... */\n    tag_191:\n        /* \"@openzeppelin/contracts/utils/ReentrancyGuard.sol\":1857:1858  1 */\n      0x01\n        /* \"@openzeppelin/contracts/utils/ReentrancyGuard.sol\":3068:3075  _status */\n      dup1\n        /* \"@openzeppelin/contracts/utils/ReentrancyGuard.sol\":3068:3089  _status = NOT_ENTERED */\n      dup2\n      swap1\n      sstore\n      pop\n        /* \"@openzeppelin/contracts/utils/ReentrancyGuard.sol\":2888:3096  function _nonReentrantAfter() private {... */\n      jump\t// out\n        /* \"@openzeppelin/contracts/access/Ownable.sol\":2912:3099  function _transferOwnership(address newOwner) internal virtual {... */\n    tag_201:\n        /* \"@openzeppelin/contracts/access/Ownable.sol\":2985:3001  address oldOwner */\n      0x00\n        /* \"@openzeppelin/contracts/access/Ownable.sol\":3004:3010  _owner */\n      dup1\n      0x00\n      swap1\n      sload\n      swap1\n      0x0100\n      exp\n      swap1\n      div\n      0xffffffffffffffffffffffffffffffffffffffff\n      and\n        /* \"@openzeppelin/contracts/access/Ownable.sol\":2985:3010  address oldOwner = _owner */\n      swap1\n      pop\n        /* \"@openzeppelin/contracts/access/Ownable.sol\":3029:3037  newOwner */\n      dup2\n        /* \"@openzeppelin/contracts/access/Ownable.sol\":3020:3026  _owner */\n      0x00\n      dup1\n        /* \"@openzeppelin/contracts/access/Ownable.sol\":3020:3037  _owner = newOwner */\n      0x0100\n      exp\n      dup2\n      sload\n      dup2\n      0xffffffffffffffffffffffffffffffffffffffff\n      mul\n      not\n      and\n      swap1\n      dup4\n      0xffffffffffffffffffffffffffffffffffffffff\n      and\n      mul\n      or\n      swap1\n      sstore\n      pop\n        /* \"@openzeppelin/contracts/access/Ownable.sol\":3083:3091  newOwner */\n      dup2\n        /* \"@openzeppelin/contracts/access/Ownable.sol\":3052:3092  OwnershipTransferred(oldOwner, newOwner) */\n      0xffffffffffffffffffffffffffffffffffffffff\n      and\n        /* \"@openzeppelin/contracts/access/Ownable.sol\":3073:3081  oldOwner */\n      dup2\n        /* \"@openzeppelin/contracts/access/Ownable.sol\":3052:3092  OwnershipTransferred(oldOwner, newOwner) */\n      0xffffffffffffffffffffffffffffffffffffffff\n      and\n      0x8be0079c531659141344cd1fd0a4f28419497f9722a3daafe3b4186f6b6457e0\n      mload(0x40)\n      mload(0x40)\n      dup1\n      swap2\n      sub\n      swap1\n      log3\n        /* \"@openzeppelin/contracts/access/Ownable.sol\":2975:3099  {... */\n      pop\n        /* \"@openzeppelin/contracts/access/Ownable.sol\":2912:3099  function _transferOwnership(address newOwner) internal virtual {... */\n      pop\n      jump\t// out\n        /* \"contracts/KipuBankV2.sol\":12002:12190  function _convertEthToUSD(uint256 _ethAmount) internal view returns (uint256 convertedAmount_) {... */\n    tag_322:\n        /* \"contracts/KipuBankV2.sol\":12071:12095  uint256 convertedAmount_ */\n      0x00\n        /* \"contracts/KipuBankV2.sol\":1776:1788  1 * 10 ** 18 */\n      0x0de0b6b3a7640000\n        /* \"contracts/KipuBankV2.sol\":12141:12160  _chainlinkFeedETH() */\n      tag_357\n        /* \"contracts/KipuBankV2.sol\":12141:12158  _chainlinkFeedETH */\n      tag_358\n        /* \"contracts/KipuBankV2.sol\":12141:12160  _chainlinkFeedETH() */\n      jump\t// in\n    tag_357:\n        /* \"contracts/KipuBankV2.sol\":12128:12138  _ethAmount */\n      dup4\n        /* \"contracts/KipuBankV2.sol\":12128:12160  _ethAmount * _chainlinkFeedETH() */\n      tag_359\n      swap2\n      swap1\n      tag_360\n      jump\t// in\n    tag_359:\n        /* \"contracts/KipuBankV2.sol\":12127:12182  (_ethAmount * _chainlinkFeedETH()) / DECIMAL_FACTOR_ETH */\n      tag_361\n      swap2\n      swap1\n      tag_148\n      jump\t// in\n    tag_361:\n        /* \"contracts/KipuBankV2.sol\":12108:12182  convertedAmount_ = (_ethAmount * _chainlinkFeedETH()) / DECIMAL_FACTOR_ETH */\n      swap1\n      pop\n        /* \"contracts/KipuBankV2.sol\":12002:12190  function _convertEthToUSD(uint256 _ethAmount) internal view returns (uint256 convertedAmount_) {... */\n      swap2\n      swap1\n      pop\n      jump\t// out\n        /* \"contracts/KipuBankV2.sol\":12198:12366  function _convertUsdcToUSD(uint256 _usdcAmount) internal pure returns (uint256 convertedAmount_) {... */\n    tag_324:\n        /* \"contracts/KipuBankV2.sol\":12269:12293  uint256 convertedAmount_ */\n      0x00\n        /* \"contracts/KipuBankV2.sol\":1836:1847  1 * 10 ** 2 */\n      0x64\n        /* \"contracts/KipuBankV2.sol\":12325:12336  _usdcAmount */\n      dup3\n        /* \"contracts/KipuBankV2.sol\":12325:12358  _usdcAmount * DECIMAL_FACTOR_USDC */\n      tag_363\n      swap2\n      swap1\n      tag_360\n      jump\t// in\n    tag_363:\n        /* \"contracts/KipuBankV2.sol\":12306:12358  convertedAmount_ = _usdcAmount * DECIMAL_FACTOR_USDC */\n      swap1\n      pop\n        /* \"contracts/KipuBankV2.sol\":12198:12366  function _convertUsdcToUSD(uint256 _usdcAmount) internal pure returns (uint256 convertedAmount_) {... */\n      swap2\n      swap1\n      pop\n      jump\t// out\n        /* \"contracts/KipuBankV2.sol\":12753:12941  function _convertBtcToUSD(uint256 _btcAmount) internal view returns (uint256 convertedAmount_) {... */\n    tag_326:\n        /* \"contracts/KipuBankV2.sol\":12822:12846  uint256 convertedAmount_ */\n      0x00\n        /* \"contracts/KipuBankV2.sol\":1894:1905  1 * 10 ** 8 */\n      0x05f5e100\n        /* \"contracts/KipuBankV2.sol\":12892:12911  _chainlinkFeedBTC() */\n      tag_365\n        /* \"contracts/KipuBankV2.sol\":12892:12909  _chainlinkFeedBTC */\n      tag_366\n        /* \"contracts/KipuBankV2.sol\":12892:12911  _chainlinkFeedBTC() */\n      jump\t// in\n    tag_365:\n        /* \"contracts/KipuBankV2.sol\":12879:12889  _btcAmount */\n      dup4\n        /* \"contracts/KipuBankV2.sol\":12879:12911  _btcAmount * _chainlinkFeedBTC() */\n      tag_367\n      swap2\n      swap1\n      tag_360\n      jump\t// in\n    tag_367:\n        /* \"contracts/KipuBankV2.sol\":12878:12933  (_btcAmount * _chainlinkFeedBTC()) / DECIMAL_FACTOR_BTC */\n      tag_368\n      swap2\n      swap1\n      tag_148\n      jump\t// in\n    tag_368:\n        /* \"contracts/KipuBankV2.sol\":12859:12933  convertedAmount_ = (_btcAmount * _chainlinkFeedBTC()) / DECIMAL_FACTOR_BTC */\n      swap1\n      pop\n        /* \"contracts/KipuBankV2.sol\":12753:12941  function _convertBtcToUSD(uint256 _btcAmount) internal view returns (uint256 convertedAmount_) {... */\n      swap2\n      swap1\n      pop\n      jump\t// out\n        /* \"@openzeppelin/contracts/utils/Context.sol\":656:752  function _msgSender() internal view virtual returns (address) {... */\n    tag_347:\n        /* \"@openzeppelin/contracts/utils/Context.sol\":709:716  address */\n      0x00\n        /* \"@openzeppelin/contracts/utils/Context.sol\":735:745  msg.sender */\n      caller\n        /* \"@openzeppelin/contracts/utils/Context.sol\":728:745  return msg.sender */\n      swap1\n      pop\n        /* \"@openzeppelin/contracts/utils/Context.sol\":656:752  function _msgSender() internal view virtual returns (address) {... */\n      swap1\n      jump\t// out\n        /* \"contracts/KipuBankV2.sol\":11623:11994  function _chainlinkFeedETH() internal view returns (uint256 ethUSDPrice_) {... */\n    tag_358:\n        /* \"contracts/KipuBankV2.sol\":11675:11695  uint256 ethUSDPrice_ */\n      0x00\n        /* \"contracts/KipuBankV2.sol\":11711:11729  int256 ethUSDPrice */\n      dup1\n        /* \"contracts/KipuBankV2.sol\":11732:11749  uint256 updatedAt */\n      0x00\n        /* \"contracts/KipuBankV2.sol\":11754:11763  s_ethFeed */\n      0x07\n      0x00\n      swap1\n      sload\n      swap1\n      0x0100\n      exp\n      swap1\n      div\n      0xffffffffffffffffffffffffffffffffffffffff\n      and\n        /* \"contracts/KipuBankV2.sol\":11754:11779  s_ethFeed.latestRoundData */\n      0xffffffffffffffffffffffffffffffffffffffff\n      and\n      0xfeaf968c\n        /* \"contracts/KipuBankV2.sol\":11754:11781  s_ethFeed.latestRoundData() */\n      mload(0x40)\n      dup2\n      0xffffffff\n      and\n      0xe0\n      shl\n      dup2\n      mstore\n      0x04\n      add\n      0xa0\n      mload(0x40)\n      dup1\n      dup4\n      sub\n      dup2\n      dup7\n      gas\n      staticcall\n      iszero\n      dup1\n      iszero\n      tag_372\n      jumpi\n      returndatasize\n      0x00\n      dup1\n      returndatacopy\n      revert(0x00, returndatasize)\n    tag_372:\n      pop\n      pop\n      pop\n      pop\n      mload(0x40)\n      returndatasize\n      not(0x1f)\n      0x1f\n      dup3\n      add\n      and\n      dup3\n      add\n      dup1\n      0x40\n      mstore\n      pop\n      dup2\n      add\n      swap1\n      tag_373\n      swap2\n      swap1\n      tag_374\n      jump\t// in\n    tag_373:\n        /* \"contracts/KipuBankV2.sol\":11708:11781  (, int256 ethUSDPrice,, uint256 updatedAt,) = s_ethFeed.latestRoundData() */\n      pop\n      swap4\n      pop\n      pop\n      swap3\n      pop\n      pop\n        /* \"contracts/KipuBankV2.sol\":11811:11812  0 */\n      0x00\n        /* \"contracts/KipuBankV2.sol\":11796:11807  ethUSDPrice */\n      dup3\n        /* \"contracts/KipuBankV2.sol\":11796:11812  ethUSDPrice == 0 */\n      sub\n        /* \"contracts/KipuBankV2.sol\":11792:11849  if (ethUSDPrice == 0) revert KipuBank_OracleCompromised() */\n      tag_375\n      jumpi\n        /* \"contracts/KipuBankV2.sol\":11821:11849  KipuBank_OracleCompromised() */\n      mload(0x40)\n      0x155a843000000000000000000000000000000000000000000000000000000000\n      dup2\n      mstore\n      0x04\n      add\n      mload(0x40)\n      dup1\n      swap2\n      sub\n      swap1\n      revert\n        /* \"contracts/KipuBankV2.sol\":11792:11849  if (ethUSDPrice == 0) revert KipuBank_OracleCompromised() */\n    tag_375:\n        /* \"contracts/KipuBankV2.sol\":1721:1725  3600 */\n      0x0e10\n        /* \"contracts/KipuBankV2.sol\":11864:11910  block.timestamp - updatedAt > ORACLE_HEARTBEAT */\n      0xffff\n      and\n        /* \"contracts/KipuBankV2.sol\":11882:11891  updatedAt */\n      dup2\n        /* \"contracts/KipuBankV2.sol\":11864:11879  block.timestamp */\n      timestamp\n        /* \"contracts/KipuBankV2.sol\":11864:11891  block.timestamp - updatedAt */\n      tag_376\n      swap2\n      swap1\n      tag_180\n      jump\t// in\n    tag_376:\n        /* \"contracts/KipuBankV2.sol\":11864:11910  block.timestamp - updatedAt > ORACLE_HEARTBEAT */\n      gt\n        /* \"contracts/KipuBankV2.sol\":11860:11940  if (block.timestamp - updatedAt > ORACLE_HEARTBEAT) revert KipuBank_StalePrice() */\n      iszero\n      tag_377\n      jumpi\n        /* \"contracts/KipuBankV2.sol\":11919:11940  KipuBank_StalePrice() */\n      mload(0x40)\n      0x65d4644700000000000000000000000000000000000000000000000000000000\n      dup2\n      mstore\n      0x04\n      add\n      mload(0x40)\n      dup1\n      swap2\n      sub\n      swap1\n      revert\n        /* \"contracts/KipuBankV2.sol\":11860:11940  if (block.timestamp - updatedAt > ORACLE_HEARTBEAT) revert KipuBank_StalePrice() */\n    tag_377:\n        /* \"contracts/KipuBankV2.sol\":11974:11985  ethUSDPrice */\n      dup2\n        /* \"contracts/KipuBankV2.sol\":11951:11986  ethUSDPrice_ = uint256(ethUSDPrice) */\n      swap3\n      pop\n        /* \"contracts/KipuBankV2.sol\":11697:11994  {... */\n      pop\n      pop\n        /* \"contracts/KipuBankV2.sol\":11623:11994  function _chainlinkFeedETH() internal view returns (uint256 ethUSDPrice_) {... */\n      swap1\n      jump\t// out\n        /* \"contracts/KipuBankV2.sol\":12374:12745  function _chainlinkFeedBTC() internal view returns (uint256 btcUSDPrice_) {... */\n    tag_366:\n        /* \"contracts/KipuBankV2.sol\":12426:12446  uint256 btcUSDPrice_ */\n      0x00\n        /* \"contracts/KipuBankV2.sol\":12462:12480  int256 btcUSDPrice */\n      dup1\n        /* \"contracts/KipuBankV2.sol\":12483:12500  uint256 updatedAt */\n      0x00\n        /* \"contracts/KipuBankV2.sol\":12505:12514  s_btcFeed */\n      0x06\n      0x00\n      swap1\n      sload\n      swap1\n      0x0100\n      exp\n      swap1\n      div\n      0xffffffffffffffffffffffffffffffffffffffff\n      and\n        /* \"contracts/KipuBankV2.sol\":12505:12530  s_btcFeed.latestRoundData */\n      0xffffffffffffffffffffffffffffffffffffffff\n      and\n      0xfeaf968c\n        /* \"contracts/KipuBankV2.sol\":12505:12532  s_btcFeed.latestRoundData() */\n      mload(0x40)\n      dup2\n      0xffffffff\n      and\n      0xe0\n      shl\n      dup2\n      mstore\n      0x04\n      add\n      0xa0\n      mload(0x40)\n      dup1\n      dup4\n      sub\n      dup2\n      dup7\n      gas\n      staticcall\n      iszero\n      dup1\n      iszero\n      tag_380\n      jumpi\n      returndatasize\n      0x00\n      dup1\n      returndatacopy\n      revert(0x00, returndatasize)\n    tag_380:\n      pop\n      pop\n      pop\n      pop\n      mload(0x40)\n      returndatasize\n      not(0x1f)\n      0x1f\n      dup3\n      add\n      and\n      dup3\n      add\n      dup1\n      0x40\n      mstore\n      pop\n      dup2\n      add\n      swap1\n      tag_381\n      swap2\n      swap1\n      tag_374\n      jump\t// in\n    tag_381:\n        /* \"contracts/KipuBankV2.sol\":12459:12532  (, int256 btcUSDPrice,, uint256 updatedAt,) = s_btcFeed.latestRoundData() */\n      pop\n      swap4\n      pop\n      pop\n      swap3\n      pop\n      pop\n        /* \"contracts/KipuBankV2.sol\":12562:12563  0 */\n      0x00\n        /* \"contracts/KipuBankV2.sol\":12547:12558  btcUSDPrice */\n      dup3\n        /* \"contracts/KipuBankV2.sol\":12547:12563  btcUSDPrice == 0 */\n      sub\n        /* \"contracts/KipuBankV2.sol\":12543:12600  if (btcUSDPrice == 0) revert KipuBank_OracleCompromised() */\n      tag_382\n      jumpi\n        /* \"contracts/KipuBankV2.sol\":12572:12600  KipuBank_OracleCompromised() */\n      mload(0x40)\n      0x155a843000000000000000000000000000000000000000000000000000000000\n      dup2\n      mstore\n      0x04\n      add\n      mload(0x40)\n      dup1\n      swap2\n      sub\n      swap1\n      revert\n        /* \"contracts/KipuBankV2.sol\":12543:12600  if (btcUSDPrice == 0) revert KipuBank_OracleCompromised() */\n    tag_382:\n        /* \"contracts/KipuBankV2.sol\":1721:1725  3600 */\n      0x0e10\n        /* \"contracts/KipuBankV2.sol\":12615:12661  block.timestamp - updatedAt > ORACLE_HEARTBEAT */\n      0xffff\n      and\n        /* \"contracts/KipuBankV2.sol\":12633:12642  updatedAt */\n      dup2\n        /* \"contracts/KipuBankV2.sol\":12615:12630  block.timestamp */\n      timestamp\n        /* \"contracts/KipuBankV2.sol\":12615:12642  block.timestamp - updatedAt */\n      tag_383\n      swap2\n      swap1\n      tag_180\n      jump\t// in\n    tag_383:\n        /* \"contracts/KipuBankV2.sol\":12615:12661  block.timestamp - updatedAt > ORACLE_HEARTBEAT */\n      gt\n        /* \"contracts/KipuBankV2.sol\":12611:12691  if (block.timestamp - updatedAt > ORACLE_HEARTBEAT) revert KipuBank_StalePrice() */\n      iszero\n      tag_384\n      jumpi\n        /* \"contracts/KipuBankV2.sol\":12670:12691  KipuBank_StalePrice() */\n      mload(0x40)\n      0x65d4644700000000000000000000000000000000000000000000000000000000\n      dup2\n      mstore\n      0x04\n      add\n      mload(0x40)\n      dup1\n      swap2\n      sub\n      swap1\n      revert\n        /* \"contracts/KipuBankV2.sol\":12611:12691  if (block.timestamp - updatedAt > ORACLE_HEARTBEAT) revert KipuBank_StalePrice() */\n    tag_384:\n        /* \"contracts/KipuBankV2.sol\":12725:12736  btcUSDPrice */\n      dup2\n        /* \"contracts/KipuBankV2.sol\":12702:12737  btcUSDPrice_ = uint256(btcUSDPrice) */\n      swap3\n      pop\n        /* \"contracts/KipuBankV2.sol\":12448:12745  {... */\n      pop\n      pop\n        /* \"contracts/KipuBankV2.sol\":12374:12745  function _chainlinkFeedBTC() internal view returns (uint256 btcUSDPrice_) {... */\n      swap1\n      jump\t// out\n        /* \"#utility.yul\":7:175   */\n    tag_385:\n        /* \"#utility.yul\":90:101   */\n      0x00\n        /* \"#utility.yul\":124:130   */\n      dup3\n        /* \"#utility.yul\":119:122   */\n      dup3\n        /* \"#utility.yul\":112:131   */\n      mstore\n        /* \"#utility.yul\":164:168   */\n      0x20\n        /* \"#utility.yul\":159:162   */\n      dup3\n        /* \"#utility.yul\":155:169   */\n      add\n        /* \"#utility.yul\":140:169   */\n      swap1\n      pop\n        /* \"#utility.yul\":7:175   */\n      swap3\n      swap2\n      pop\n      pop\n      jump\t// out\n        /* \"#utility.yul\":181:415   */\n    tag_386:\n        /* \"#utility.yul\":321:355   */\n      0x4f7065726174696f6e20646f6573206e6f7420657869737473206f7220646174\n        /* \"#utility.yul\":317:318   */\n      0x00\n        /* \"#utility.yul\":309:315   */\n      dup3\n        /* \"#utility.yul\":305:319   */\n      add\n        /* \"#utility.yul\":298:356   */\n      mstore\n        /* \"#utility.yul\":390:407   */\n      0x612077617320696e636f72726563740000000000000000000000000000000000\n        /* \"#utility.yul\":385:387   */\n      0x20\n        /* \"#utility.yul\":377:383   */\n      dup3\n        /* \"#utility.yul\":373:388   */\n      add\n        /* \"#utility.yul\":366:408   */\n      mstore\n        /* \"#utility.yul\":181:415   */\n      pop\n      jump\t// out\n        /* \"#utility.yul\":421:785   */\n    tag_387:\n        /* \"#utility.yul\":562:565   */\n      0x00\n        /* \"#utility.yul\":583:649   */\n      tag_441\n        /* \"#utility.yul\":646:648   */\n      0x2f\n        /* \"#utility.yul\":641:644   */\n      dup4\n        /* \"#utility.yul\":583:649   */\n      tag_385\n      jump\t// in\n    tag_441:\n        /* \"#utility.yul\":576:649   */\n      swap2\n      pop\n        /* \"#utility.yul\":658:751   */\n      tag_442\n        /* \"#utility.yul\":747:750   */\n      dup3\n        /* \"#utility.yul\":658:751   */\n      tag_386\n      jump\t// in\n    tag_442:\n        /* \"#utility.yul\":776:778   */\n      0x40\n        /* \"#utility.yul\":771:774   */\n      dup3\n        /* \"#utility.yul\":767:779   */\n      add\n        /* \"#utility.yul\":760:779   */\n      swap1\n      pop\n        /* \"#utility.yul\":421:785   */\n      swap2\n      swap1\n      pop\n      jump\t// out\n        /* \"#utility.yul\":791:1208   */\n    tag_35:\n        /* \"#utility.yul\":956:960   */\n      0x00\n        /* \"#utility.yul\":994:996   */\n      0x20\n        /* \"#utility.yul\":983:992   */\n      dup3\n        /* \"#utility.yul\":979:997   */\n      add\n        /* \"#utility.yul\":971:997   */\n      swap1\n      pop\n        /* \"#utility.yul\":1043:1052   */\n      dup2\n        /* \"#utility.yul\":1037:1041   */\n      dup2\n        /* \"#utility.yul\":1033:1053   */\n      sub\n        /* \"#utility.yul\":1029:1030   */\n      0x00\n        /* \"#utility.yul\":1018:1027   */\n      dup4\n        /* \"#utility.yul\":1014:1031   */\n      add\n        /* \"#utility.yul\":1007:1054   */\n      mstore\n        /* \"#utility.yul\":1071:1201   */\n      tag_444\n        /* \"#utility.yul\":1196:1200   */\n      dup2\n        /* \"#utility.yul\":1071:1201   */\n      tag_387\n      jump\t// in\n    tag_444:\n        /* \"#utility.yul\":1063:1201   */\n      swap1\n      pop\n        /* \"#utility.yul\":791:1208   */\n      swap2\n      swap1\n      pop\n      jump\t// out\n        /* \"#utility.yul\":1295:1412   */\n    tag_389:\n        /* \"#utility.yul\":1404:1405   */\n      0x00\n        /* \"#utility.yul\":1401:1402   */\n      dup1\n        /* \"#utility.yul\":1394:1406   */\n      revert\n        /* \"#utility.yul\":1541:1667   */\n    tag_391:\n        /* \"#utility.yul\":1578:1585   */\n      0x00\n        /* \"#utility.yul\":1618:1660   */\n      0xffffffffffffffffffffffffffffffffffffffff\n        /* \"#utility.yul\":1611:1616   */\n      dup3\n        /* \"#utility.yul\":1607:1661   */\n      and\n        /* \"#utility.yul\":1596:1661   */\n      swap1\n      pop\n        /* \"#utility.yul\":1541:1667   */\n      swap2\n      swap1\n      pop\n      jump\t// out\n        /* \"#utility.yul\":1673:1769   */\n    tag_392:\n        /* \"#utility.yul\":1710:1717   */\n      0x00\n        /* \"#utility.yul\":1739:1763   */\n      tag_450\n        /* \"#utility.yul\":1757:1762   */\n      dup3\n        /* \"#utility.yul\":1739:1763   */\n      tag_391\n      jump\t// in\n    tag_450:\n        /* \"#utility.yul\":1728:1763   */\n      swap1\n      pop\n        /* \"#utility.yul\":1673:1769   */\n      swap2\n      swap1\n      pop\n      jump\t// out\n        /* \"#utility.yul\":1775:1897   */\n    tag_393:\n        /* \"#utility.yul\":1848:1872   */\n      tag_452\n        /* \"#utility.yul\":1866:1871   */\n      dup2\n        /* \"#utility.yul\":1848:1872   */\n      tag_392\n      jump\t// in\n    tag_452:\n        /* \"#utility.yul\":1841:1846   */\n      dup2\n        /* \"#utility.yul\":1838:1873   */\n      eq\n        /* \"#utility.yul\":1828:1891   */\n      tag_453\n      jumpi\n        /* \"#utility.yul\":1887:1888   */\n      0x00\n        /* \"#utility.yul\":1884:1885   */\n      dup1\n        /* \"#utility.yul\":1877:1889   */\n      revert\n        /* \"#utility.yul\":1828:1891   */\n    tag_453:\n        /* \"#utility.yul\":1775:1897   */\n      pop\n      jump\t// out\n        /* \"#utility.yul\":1903:2042   */\n    tag_394:\n        /* \"#utility.yul\":1949:1954   */\n      0x00\n        /* \"#utility.yul\":1987:1993   */\n      dup2\n        /* \"#utility.yul\":1974:1994   */\n      calldataload\n        /* \"#utility.yul\":1965:1994   */\n      swap1\n      pop\n        /* \"#utility.yul\":2003:2036   */\n      tag_455\n        /* \"#utility.yul\":2030:2035   */\n      dup2\n        /* \"#utility.yul\":2003:2036   */\n      tag_393\n      jump\t// in\n    tag_455:\n        /* \"#utility.yul\":1903:2042   */\n      swap3\n      swap2\n      pop\n      pop\n      jump\t// out\n        /* \"#utility.yul\":2048:2377   */\n    tag_39:\n        /* \"#utility.yul\":2107:2113   */\n      0x00\n        /* \"#utility.yul\":2156:2158   */\n      0x20\n        /* \"#utility.yul\":2144:2153   */\n      dup3\n        /* \"#utility.yul\":2135:2142   */\n      dup5\n        /* \"#utility.yul\":2131:2154   */\n      sub\n        /* \"#utility.yul\":2127:2159   */\n      slt\n        /* \"#utility.yul\":2124:2243   */\n      iszero\n      tag_457\n      jumpi\n        /* \"#utility.yul\":2162:2241   */\n      tag_458\n      tag_389\n      jump\t// in\n    tag_458:\n        /* \"#utility.yul\":2124:2243   */\n    tag_457:\n        /* \"#utility.yul\":2282:2283   */\n      0x00\n        /* \"#utility.yul\":2307:2360   */\n      tag_459\n        /* \"#utility.yul\":2352:2359   */\n      dup5\n        /* \"#utility.yul\":2343:2349   */\n      dup3\n        /* \"#utility.yul\":2332:2341   */\n      dup6\n        /* \"#utility.yul\":2328:2350   */\n      add\n        /* \"#utility.yul\":2307:2360   */\n      tag_394\n      jump\t// in\n    tag_459:\n        /* \"#utility.yul\":2297:2360   */\n      swap2\n      pop\n        /* \"#utility.yul\":2253:2370   */\n      pop\n        /* \"#utility.yul\":2048:2377   */\n      swap3\n      swap2\n      pop\n      pop\n      jump\t// out\n        /* \"#utility.yul\":2383:2473   */\n    tag_395:\n        /* \"#utility.yul\":2417:2424   */\n      0x00\n        /* \"#utility.yul\":2460:2465   */\n      dup2\n        /* \"#utility.yul\":2453:2466   */\n      iszero\n        /* \"#utility.yul\":2446:2467   */\n      iszero\n        /* \"#utility.yul\":2435:2467   */\n      swap1\n      pop\n        /* \"#utility.yul\":2383:2473   */\n      swap2\n      swap1\n      pop\n      jump\t// out\n        /* \"#utility.yul\":2479:2588   */\n    tag_396:\n        /* \"#utility.yul\":2560:2581   */\n      tag_462\n        /* \"#utility.yul\":2575:2580   */\n      dup2\n        /* \"#utility.yul\":2560:2581   */\n      tag_395\n      jump\t// in\n    tag_462:\n        /* \"#utility.yul\":2555:2558   */\n      dup3\n        /* \"#utility.yul\":2548:2582   */\n      mstore\n        /* \"#utility.yul\":2479:2588   */\n      pop\n      pop\n      jump\t// out\n        /* \"#utility.yul\":2594:2804   */\n    tag_42:\n        /* \"#utility.yul\":2681:2685   */\n      0x00\n        /* \"#utility.yul\":2719:2721   */\n      0x20\n        /* \"#utility.yul\":2708:2717   */\n      dup3\n        /* \"#utility.yul\":2704:2722   */\n      add\n        /* \"#utility.yul\":2696:2722   */\n      swap1\n      pop\n        /* \"#utility.yul\":2732:2797   */\n      tag_464\n        /* \"#utility.yul\":2794:2795   */\n      0x00\n        /* \"#utility.yul\":2783:2792   */\n      dup4\n        /* \"#utility.yul\":2779:2796   */\n      add\n        /* \"#utility.yul\":2770:2776   */\n      dup5\n        /* \"#utility.yul\":2732:2797   */\n      tag_396\n      jump\t// in\n    tag_464:\n        /* \"#utility.yul\":2594:2804   */\n      swap3\n      swap2\n      pop\n      pop\n      jump\t// out\n        /* \"#utility.yul\":2810:2870   */\n    tag_397:\n        /* \"#utility.yul\":2838:2841   */\n      0x00\n        /* \"#utility.yul\":2859:2864   */\n      dup2\n        /* \"#utility.yul\":2852:2864   */\n      swap1\n      pop\n        /* \"#utility.yul\":2810:2870   */\n      swap2\n      swap1\n      pop\n      jump\t// out\n        /* \"#utility.yul\":2876:3018   */\n    tag_398:\n        /* \"#utility.yul\":2926:2935   */\n      0x00\n        /* \"#utility.yul\":2959:3012   */\n      tag_467\n        /* \"#utility.yul\":2977:3011   */\n      tag_468\n        /* \"#utility.yul\":2986:3010   */\n      tag_469\n        /* \"#utility.yul\":3004:3009   */\n      dup5\n        /* \"#utility.yul\":2986:3010   */\n      tag_391\n      jump\t// in\n    tag_469:\n        /* \"#utility.yul\":2977:3011   */\n      tag_397\n      jump\t// in\n    tag_468:\n        /* \"#utility.yul\":2959:3012   */\n      tag_391\n      jump\t// in\n    tag_467:\n        /* \"#utility.yul\":2946:3012   */\n      swap1\n      pop\n        /* \"#utility.yul\":2876:3018   */\n      swap2\n      swap1\n      pop\n      jump\t// out\n        /* \"#utility.yul\":3024:3150   */\n    tag_399:\n        /* \"#utility.yul\":3074:3083   */\n      0x00\n        /* \"#utility.yul\":3107:3144   */\n      tag_471\n        /* \"#utility.yul\":3138:3143   */\n      dup3\n        /* \"#utility.yul\":3107:3144   */\n      tag_398\n      jump\t// in\n    tag_471:\n        /* \"#utility.yul\":3094:3144   */\n      swap1\n      pop\n        /* \"#utility.yul\":3024:3150   */\n      swap2\n      swap1\n      pop\n      jump\t// out\n        /* \"#utility.yul\":3156:3310   */\n    tag_400:\n        /* \"#utility.yul\":3234:3243   */\n      0x00\n        /* \"#utility.yul\":3267:3304   */\n      tag_473\n        /* \"#utility.yul\":3298:3303   */\n      dup3\n        /* \"#utility.yul\":3267:3304   */\n      tag_399\n      jump\t// in\n    tag_473:\n        /* \"#utility.yul\":3254:3304   */\n      swap1\n      pop\n        /* \"#utility.yul\":3156:3310   */\n      swap2\n      swap1\n      pop\n      jump\t// out\n        /* \"#utility.yul\":3316:3503   */\n    tag_401:\n        /* \"#utility.yul\":3431:3496   */\n      tag_475\n        /* \"#utility.yul\":3490:3495   */\n      dup2\n        /* \"#utility.yul\":3431:3496   */\n      tag_400\n      jump\t// in\n    tag_475:\n        /* \"#utility.yul\":3426:3429   */\n      dup3\n        /* \"#utility.yul\":3419:3497   */\n      mstore\n        /* \"#utility.yul\":3316:3503   */\n      pop\n      pop\n      jump\t// out\n        /* \"#utility.yul\":3509:3787   */\n    tag_47:\n        /* \"#utility.yul\":3630:3634   */\n      0x00\n        /* \"#utility.yul\":3668:3670   */\n      0x20\n        /* \"#utility.yul\":3657:3666   */\n      dup3\n        /* \"#utility.yul\":3653:3671   */\n      add\n        /* \"#utility.yul\":3645:3671   */\n      swap1\n      pop\n        /* \"#utility.yul\":3681:3780   */\n      tag_477\n        /* \"#utility.yul\":3777:3778   */\n      0x00\n        /* \"#utility.yul\":3766:3775   */\n      dup4\n        /* \"#utility.yul\":3762:3779   */\n      add\n        /* \"#utility.yul\":3753:3759   */\n      dup5\n        /* \"#utility.yul\":3681:3780   */\n      tag_401\n      jump\t// in\n    tag_477:\n        /* \"#utility.yul\":3509:3787   */\n      swap3\n      swap2\n      pop\n      pop\n      jump\t// out\n        /* \"#utility.yul\":3793:3870   */\n    tag_402:\n        /* \"#utility.yul\":3830:3837   */\n      0x00\n        /* \"#utility.yul\":3859:3864   */\n      dup2\n        /* \"#utility.yul\":3848:3864   */\n      swap1\n      pop\n        /* \"#utility.yul\":3793:3870   */\n      swap2\n      swap1\n      pop\n      jump\t// out\n        /* \"#utility.yul\":3876:3994   */\n    tag_403:\n        /* \"#utility.yul\":3963:3987   */\n      tag_480\n        /* \"#utility.yul\":3981:3986   */\n      dup2\n        /* \"#utility.yul\":3963:3987   */\n      tag_402\n      jump\t// in\n    tag_480:\n        /* \"#utility.yul\":3958:3961   */\n      dup3\n        /* \"#utility.yul\":3951:3988   */\n      mstore\n        /* \"#utility.yul\":3876:3994   */\n      pop\n      pop\n      jump\t// out\n        /* \"#utility.yul\":4000:4222   */\n    tag_52:\n        /* \"#utility.yul\":4093:4097   */\n      0x00\n        /* \"#utility.yul\":4131:4133   */\n      0x20\n        /* \"#utility.yul\":4120:4129   */\n      dup3\n        /* \"#utility.yul\":4116:4134   */\n      add\n        /* \"#utility.yul\":4108:4134   */\n      swap1\n      pop\n        /* \"#utility.yul\":4144:4215   */\n      tag_482\n        /* \"#utility.yul\":4212:4213   */\n      0x00\n        /* \"#utility.yul\":4201:4210   */\n      dup4\n        /* \"#utility.yul\":4197:4214   */\n      add\n        /* \"#utility.yul\":4188:4194   */\n      dup5\n        /* \"#utility.yul\":4144:4215   */\n      tag_403\n      jump\t// in\n    tag_482:\n        /* \"#utility.yul\":4000:4222   */\n      swap3\n      swap2\n      pop\n      pop\n      jump\t// out\n        /* \"#utility.yul\":4228:4350   */\n    tag_404:\n        /* \"#utility.yul\":4301:4325   */\n      tag_484\n        /* \"#utility.yul\":4319:4324   */\n      dup2\n        /* \"#utility.yul\":4301:4325   */\n      tag_402\n      jump\t// in\n    tag_484:\n        /* \"#utility.yul\":4294:4299   */\n      dup2\n        /* \"#utility.yul\":4291:4326   */\n      eq\n        /* \"#utility.yul\":4281:4344   */\n      tag_485\n      jumpi\n        /* \"#utility.yul\":4340:4341   */\n      0x00\n        /* \"#utility.yul\":4337:4338   */\n      dup1\n        /* \"#utility.yul\":4330:4342   */\n      revert\n        /* \"#utility.yul\":4281:4344   */\n    tag_485:\n        /* \"#utility.yul\":4228:4350   */\n      pop\n      jump\t// out\n        /* \"#utility.yul\":4356:4495   */\n    tag_405:\n        /* \"#utility.yul\":4402:4407   */\n      0x00\n        /* \"#utility.yul\":4440:4446   */\n      dup2\n        /* \"#utility.yul\":4427:4447   */\n      calldataload\n        /* \"#utility.yul\":4418:4447   */\n      swap1\n      pop\n        /* \"#utility.yul\":4456:4489   */\n      tag_487\n        /* \"#utility.yul\":4483:4488   */\n      dup2\n        /* \"#utility.yul\":4456:4489   */\n      tag_404\n      jump\t// in\n    tag_487:\n        /* \"#utility.yul\":4356:4495   */\n      swap3\n      swap2\n      pop\n      pop\n      jump\t// out\n        /* \"#utility.yul\":4501:5120   */\n    tag_60:\n        /* \"#utility.yul\":4578:4584   */\n      0x00\n        /* \"#utility.yul\":4586:4592   */\n      dup1\n        /* \"#utility.yul\":4594:4600   */\n      0x00\n        /* \"#utility.yul\":4643:4645   */\n      0x60\n        /* \"#utility.yul\":4631:4640   */\n      dup5\n        /* \"#utility.yul\":4622:4629   */\n      dup7\n        /* \"#utility.yul\":4618:4641   */\n      sub\n        /* \"#utility.yul\":4614:4646   */\n      slt\n        /* \"#utility.yul\":4611:4730   */\n      iszero\n      tag_489\n      jumpi\n        /* \"#utility.yul\":4649:4728   */\n      tag_490\n      tag_389\n      jump\t// in\n    tag_490:\n        /* \"#utility.yul\":4611:4730   */\n    tag_489:\n        /* \"#utility.yul\":4769:4770   */\n      0x00\n        /* \"#utility.yul\":4794:4847   */\n      tag_491\n        /* \"#utility.yul\":4839:4846   */\n      dup7\n        /* \"#utility.yul\":4830:4836   */\n      dup3\n        /* \"#utility.yul\":4819:4828   */\n      dup8\n        /* \"#utility.yul\":4815:4837   */\n      add\n        /* \"#utility.yul\":4794:4847   */\n      tag_394\n      jump\t// in\n    tag_491:\n        /* \"#utility.yul\":4784:4847   */\n      swap4\n      pop\n        /* \"#utility.yul\":4740:4857   */\n      pop\n        /* \"#utility.yul\":4896:4898   */\n      0x20\n        /* \"#utility.yul\":4922:4975   */\n      tag_492\n        /* \"#utility.yul\":4967:4974   */\n      dup7\n        /* \"#utility.yul\":4958:4964   */\n      dup3\n        /* \"#utility.yul\":4947:4956   */\n      dup8\n        /* \"#utility.yul\":4943:4965   */\n      add\n        /* \"#utility.yul\":4922:4975   */\n      tag_405\n      jump\t// in\n    tag_492:\n        /* \"#utility.yul\":4912:4975   */\n      swap3\n      pop\n        /* \"#utility.yul\":4867:4985   */\n      pop\n        /* \"#utility.yul\":5024:5026   */\n      0x40\n        /* \"#utility.yul\":5050:5103   */\n      tag_493\n        /* \"#utility.yul\":5095:5102   */\n      dup7\n        /* \"#utility.yul\":5086:5092   */\n      dup3\n        /* \"#utility.yul\":5075:5084   */\n      dup8\n        /* \"#utility.yul\":5071:5093   */\n      add\n        /* \"#utility.yul\":5050:5103   */\n      tag_394\n      jump\t// in\n    tag_493:\n        /* \"#utility.yul\":5040:5103   */\n      swap2\n      pop\n        /* \"#utility.yul\":4995:5113   */\n      pop\n        /* \"#utility.yul\":4501:5120   */\n      swap3\n      pop\n      swap3\n      pop\n      swap3\n      jump\t// out\n        /* \"#utility.yul\":5126:5455   */\n    tag_70:\n        /* \"#utility.yul\":5185:5191   */\n      0x00\n        /* \"#utility.yul\":5234:5236   */\n      0x20\n        /* \"#utility.yul\":5222:5231   */\n      dup3\n        /* \"#utility.yul\":5213:5220   */\n      dup5\n        /* \"#utility.yul\":5209:5232   */\n      sub\n        /* \"#utility.yul\":5205:5237   */\n      slt\n        /* \"#utility.yul\":5202:5321   */\n      iszero\n      tag_495\n      jumpi\n        /* \"#utility.yul\":5240:5319   */\n      tag_496\n      tag_389\n      jump\t// in\n    tag_496:\n        /* \"#utility.yul\":5202:5321   */\n    tag_495:\n        /* \"#utility.yul\":5360:5361   */\n      0x00\n        /* \"#utility.yul\":5385:5438   */\n      tag_497\n        /* \"#utility.yul\":5430:5437   */\n      dup5\n        /* \"#utility.yul\":5421:5427   */\n      dup3\n        /* \"#utility.yul\":5410:5419   */\n      dup6\n        /* \"#utility.yul\":5406:5428   */\n      add\n        /* \"#utility.yul\":5385:5438   */\n      tag_405\n      jump\t// in\n    tag_497:\n        /* \"#utility.yul\":5375:5438   */\n      swap2\n      pop\n        /* \"#utility.yul\":5331:5448   */\n      pop\n        /* \"#utility.yul\":5126:5455   */\n      swap3\n      swap2\n      pop\n      pop\n      jump\t// out\n        /* \"#utility.yul\":5461:5935   */\n    tag_79:\n        /* \"#utility.yul\":5529:5535   */\n      0x00\n        /* \"#utility.yul\":5537:5543   */\n      dup1\n        /* \"#utility.yul\":5586:5588   */\n      0x40\n        /* \"#utility.yul\":5574:5583   */\n      dup4\n        /* \"#utility.yul\":5565:5572   */\n      dup6\n        /* \"#utility.yul\":5561:5584   */\n      sub\n        /* \"#utility.yul\":5557:5589   */\n      slt\n        /* \"#utility.yul\":5554:5673   */\n      iszero\n      tag_499\n      jumpi\n        /* \"#utility.yul\":5592:5671   */\n      tag_500\n      tag_389\n      jump\t// in\n    tag_500:\n        /* \"#utility.yul\":5554:5673   */\n    tag_499:\n        /* \"#utility.yul\":5712:5713   */\n      0x00\n        /* \"#utility.yul\":5737:5790   */\n      tag_501\n        /* \"#utility.yul\":5782:5789   */\n      dup6\n        /* \"#utility.yul\":5773:5779   */\n      dup3\n        /* \"#utility.yul\":5762:5771   */\n      dup7\n        /* \"#utility.yul\":5758:5780   */\n      add\n        /* \"#utility.yul\":5737:5790   */\n      tag_394\n      jump\t// in\n    tag_501:\n        /* \"#utility.yul\":5727:5790   */\n      swap3\n      pop\n        /* \"#utility.yul\":5683:5800   */\n      pop\n        /* \"#utility.yul\":5839:5841   */\n      0x20\n        /* \"#utility.yul\":5865:5918   */\n      tag_502\n        /* \"#utility.yul\":5910:5917   */\n      dup6\n        /* \"#utility.yul\":5901:5907   */\n      dup3\n        /* \"#utility.yul\":5890:5899   */\n      dup7\n        /* \"#utility.yul\":5886:5908   */\n      add\n        /* \"#utility.yul\":5865:5918   */\n      tag_394\n      jump\t// in\n    tag_502:\n        /* \"#utility.yul\":5855:5918   */\n      swap2\n      pop\n        /* \"#utility.yul\":5810:5928   */\n      pop\n        /* \"#utility.yul\":5461:5935   */\n      swap3\n      pop\n      swap3\n      swap1\n      pop\n      jump\t// out\n        /* \"#utility.yul\":5941:6081   */\n    tag_406:\n        /* \"#utility.yul\":6005:6014   */\n      0x00\n        /* \"#utility.yul\":6038:6075   */\n      tag_504\n        /* \"#utility.yul\":6069:6074   */\n      dup3\n        /* \"#utility.yul\":6038:6075   */\n      tag_399\n      jump\t// in\n    tag_504:\n        /* \"#utility.yul\":6025:6075   */\n      swap1\n      pop\n        /* \"#utility.yul\":5941:6081   */\n      swap2\n      swap1\n      pop\n      jump\t// out\n        /* \"#utility.yul\":6087:6246   */\n    tag_407:\n        /* \"#utility.yul\":6188:6239   */\n      tag_506\n        /* \"#utility.yul\":6233:6238   */\n      dup2\n        /* \"#utility.yul\":6188:6239   */\n      tag_406\n      jump\t// in\n    tag_506:\n        /* \"#utility.yul\":6183:6186   */\n      dup3\n        /* \"#utility.yul\":6176:6240   */\n      mstore\n        /* \"#utility.yul\":6087:6246   */\n      pop\n      pop\n      jump\t// out\n        /* \"#utility.yul\":6252:6502   */\n    tag_85:\n        /* \"#utility.yul\":6359:6363   */\n      0x00\n        /* \"#utility.yul\":6397:6399   */\n      0x20\n        /* \"#utility.yul\":6386:6395   */\n      dup3\n        /* \"#utility.yul\":6382:6400   */\n      add\n        /* \"#utility.yul\":6374:6400   */\n      swap1\n      pop\n        /* \"#utility.yul\":6410:6495   */\n      tag_508\n        /* \"#utility.yul\":6492:6493   */\n      0x00\n        /* \"#utility.yul\":6481:6490   */\n      dup4\n        /* \"#utility.yul\":6477:6494   */\n      add\n        /* \"#utility.yul\":6468:6474   */\n      dup5\n        /* \"#utility.yul\":6410:6495   */\n      tag_407\n      jump\t// in\n    tag_508:\n        /* \"#utility.yul\":6252:6502   */\n      swap3\n      swap2\n      pop\n      pop\n      jump\t// out\n        /* \"#utility.yul\":6508:6626   */\n    tag_408:\n        /* \"#utility.yul\":6595:6619   */\n      tag_510\n        /* \"#utility.yul\":6613:6618   */\n      dup2\n        /* \"#utility.yul\":6595:6619   */\n      tag_392\n      jump\t// in\n    tag_510:\n        /* \"#utility.yul\":6590:6593   */\n      dup3\n        /* \"#utility.yul\":6583:6620   */\n      mstore\n        /* \"#utility.yul\":6508:6626   */\n      pop\n      pop\n      jump\t// out\n        /* \"#utility.yul\":6632:6854   */\n    tag_93:\n        /* \"#utility.yul\":6725:6729   */\n      0x00\n        /* \"#utility.yul\":6763:6765   */\n      0x20\n        /* \"#utility.yul\":6752:6761   */\n      dup3\n        /* \"#utility.yul\":6748:6766   */\n      add\n        /* \"#utility.yul\":6740:6766   */\n      swap1\n      pop\n        /* \"#utility.yul\":6776:6847   */\n      tag_512\n        /* \"#utility.yul\":6844:6845   */\n      0x00\n        /* \"#utility.yul\":6833:6842   */\n      dup4\n        /* \"#utility.yul\":6829:6846   */\n      add\n        /* \"#utility.yul\":6820:6826   */\n      dup5\n        /* \"#utility.yul\":6776:6847   */\n      tag_408\n      jump\t// in\n    tag_512:\n        /* \"#utility.yul\":6632:6854   */\n      swap3\n      swap2\n      pop\n      pop\n      jump\t// out\n        /* \"#utility.yul\":6860:7040   */\n    tag_409:\n        /* \"#utility.yul\":6908:6985   */\n      0x4e487b7100000000000000000000000000000000000000000000000000000000\n        /* \"#utility.yul\":6905:6906   */\n      0x00\n        /* \"#utility.yul\":6898:6986   */\n      mstore\n        /* \"#utility.yul\":7005:7009   */\n      0x11\n        /* \"#utility.yul\":7002:7003   */\n      0x04\n        /* \"#utility.yul\":6995:7010   */\n      mstore\n        /* \"#utility.yul\":7029:7033   */\n      0x24\n        /* \"#utility.yul\":7026:7027   */\n      0x00\n        /* \"#utility.yul\":7019:7034   */\n      revert\n        /* \"#utility.yul\":7046:7237   */\n    tag_135:\n        /* \"#utility.yul\":7086:7089   */\n      0x00\n        /* \"#utility.yul\":7105:7125   */\n      tag_515\n        /* \"#utility.yul\":7123:7124   */\n      dup3\n        /* \"#utility.yul\":7105:7125   */\n      tag_402\n      jump\t// in\n    tag_515:\n        /* \"#utility.yul\":7100:7125   */\n      swap2\n      pop\n        /* \"#utility.yul\":7139:7159   */\n      tag_516\n        /* \"#utility.yul\":7157:7158   */\n      dup4\n        /* \"#utility.yul\":7139:7159   */\n      tag_402\n      jump\t// in\n    tag_516:\n        /* \"#utility.yul\":7134:7159   */\n      swap3\n      pop\n        /* \"#utility.yul\":7182:7183   */\n      dup3\n        /* \"#utility.yul\":7179:7180   */\n      dup3\n        /* \"#utility.yul\":7175:7184   */\n      add\n        /* \"#utility.yul\":7168:7184   */\n      swap1\n      pop\n        /* \"#utility.yul\":7203:7206   */\n      dup1\n        /* \"#utility.yul\":7200:7201   */\n      dup3\n        /* \"#utility.yul\":7197:7207   */\n      gt\n        /* \"#utility.yul\":7194:7230   */\n      iszero\n      tag_517\n      jumpi\n        /* \"#utility.yul\":7210:7228   */\n      tag_518\n      tag_409\n      jump\t// in\n    tag_518:\n        /* \"#utility.yul\":7194:7230   */\n    tag_517:\n        /* \"#utility.yul\":7046:7237   */\n      swap3\n      swap2\n      pop\n      pop\n      jump\t// out\n        /* \"#utility.yul\":7243:7425   */\n    tag_410:\n        /* \"#utility.yul\":7383:7417   */\n      0x546f74616c204b69707542616e6b277320666f756e6473206578636565646564\n        /* \"#utility.yul\":7379:7380   */\n      0x00\n        /* \"#utility.yul\":7371:7377   */\n      dup3\n        /* \"#utility.yul\":7367:7381   */\n      add\n        /* \"#utility.yul\":7360:7418   */\n      mstore\n        /* \"#utility.yul\":7243:7425   */\n      pop\n      jump\t// out\n        /* \"#utility.yul\":7431:7795   */\n    tag_411:\n        /* \"#utility.yul\":7572:7575   */\n      0x00\n        /* \"#utility.yul\":7593:7659   */\n      tag_521\n        /* \"#utility.yul\":7656:7658   */\n      0x20\n        /* \"#utility.yul\":7651:7654   */\n      dup4\n        /* \"#utility.yul\":7593:7659   */\n      tag_385\n      jump\t// in\n    tag_521:\n        /* \"#utility.yul\":7586:7659   */\n      swap2\n      pop\n        /* \"#utility.yul\":7668:7761   */\n      tag_522\n        /* \"#utility.yul\":7757:7760   */\n      dup3\n        /* \"#utility.yul\":7668:7761   */\n      tag_410\n      jump\t// in\n    tag_522:\n        /* \"#utility.yul\":7786:7788   */\n      0x20\n        /* \"#utility.yul\":7781:7784   */\n      dup3\n        /* \"#utility.yul\":7777:7789   */\n      add\n        /* \"#utility.yul\":7770:7789   */\n      swap1\n      pop\n        /* \"#utility.yul\":7431:7795   */\n      swap2\n      swap1\n      pop\n      jump\t// out\n        /* \"#utility.yul\":7801:8218   */\n    tag_138:\n        /* \"#utility.yul\":7966:7970   */\n      0x00\n        /* \"#utility.yul\":8004:8006   */\n      0x20\n        /* \"#utility.yul\":7993:8002   */\n      dup3\n        /* \"#utility.yul\":7989:8007   */\n      add\n        /* \"#utility.yul\":7981:8007   */\n      swap1\n      pop\n        /* \"#utility.yul\":8053:8062   */\n      dup2\n        /* \"#utility.yul\":8047:8051   */\n      dup2\n        /* \"#utility.yul\":8043:8063   */\n      sub\n        /* \"#utility.yul\":8039:8040   */\n      0x00\n        /* \"#utility.yul\":8028:8037   */\n      dup4\n        /* \"#utility.yul\":8024:8041   */\n      add\n        /* \"#utility.yul\":8017:8064   */\n      mstore\n        /* \"#utility.yul\":8081:8211   */\n      tag_524\n        /* \"#utility.yul\":8206:8210   */\n      dup2\n        /* \"#utility.yul\":8081:8211   */\n      tag_411\n      jump\t// in\n    tag_524:\n        /* \"#utility.yul\":8073:8211   */\n      swap1\n      pop\n        /* \"#utility.yul\":7801:8218   */\n      swap2\n      swap1\n      pop\n      jump\t// out\n        /* \"#utility.yul\":8224:8556   */\n    tag_144:\n        /* \"#utility.yul\":8345:8349   */\n      0x00\n        /* \"#utility.yul\":8383:8385   */\n      0x40\n        /* \"#utility.yul\":8372:8381   */\n      dup3\n        /* \"#utility.yul\":8368:8386   */\n      add\n        /* \"#utility.yul\":8360:8386   */\n      swap1\n      pop\n        /* \"#utility.yul\":8396:8467   */\n      tag_526\n        /* \"#utility.yul\":8464:8465   */\n      0x00\n        /* \"#utility.yul\":8453:8462   */\n      dup4\n        /* \"#utility.yul\":8449:8466   */\n      add\n        /* \"#utility.yul\":8440:8446   */\n      dup6\n        /* \"#utility.yul\":8396:8467   */\n      tag_408\n      jump\t// in\n    tag_526:\n        /* \"#utility.yul\":8477:8549   */\n      tag_527\n        /* \"#utility.yul\":8545:8547   */\n      0x20\n        /* \"#utility.yul\":8534:8543   */\n      dup4\n        /* \"#utility.yul\":8530:8548   */\n      add\n        /* \"#utility.yul\":8521:8527   */\n      dup5\n        /* \"#utility.yul\":8477:8549   */\n      tag_403\n      jump\t// in\n    tag_527:\n        /* \"#utility.yul\":8224:8556   */\n      swap4\n      swap3\n      pop\n      pop\n      pop\n      jump\t// out\n        /* \"#utility.yul\":8562:8742   */\n    tag_412:\n        /* \"#utility.yul\":8610:8687   */\n      0x4e487b7100000000000000000000000000000000000000000000000000000000\n        /* \"#utility.yul\":8607:8608   */\n      0x00\n        /* \"#utility.yul\":8600:8688   */\n      mstore\n        /* \"#utility.yul\":8707:8711   */\n      0x12\n        /* \"#utility.yul\":8704:8705   */\n      0x04\n        /* \"#utility.yul\":8697:8712   */\n      mstore\n        /* \"#utility.yul\":8731:8735   */\n      0x24\n        /* \"#utility.yul\":8728:8729   */\n      0x00\n        /* \"#utility.yul\":8721:8736   */\n      revert\n        /* \"#utility.yul\":8748:8933   */\n    tag_148:\n        /* \"#utility.yul\":8788:8789   */\n      0x00\n        /* \"#utility.yul\":8805:8825   */\n      tag_530\n        /* \"#utility.yul\":8823:8824   */\n      dup3\n        /* \"#utility.yul\":8805:8825   */\n      tag_402\n      jump\t// in\n    tag_530:\n        /* \"#utility.yul\":8800:8825   */\n      swap2\n      pop\n        /* \"#utility.yul\":8839:8859   */\n      tag_531\n        /* \"#utility.yul\":8857:8858   */\n      dup4\n        /* \"#utility.yul\":8839:8859   */\n      tag_402\n      jump\t// in\n    tag_531:\n        /* \"#utility.yul\":8834:8859   */\n      swap3\n      pop\n        /* \"#utility.yul\":8878:8879   */\n      dup3\n        /* \"#utility.yul\":8868:8903   */\n      tag_532\n      jumpi\n        /* \"#utility.yul\":8883:8901   */\n      tag_533\n      tag_412\n      jump\t// in\n    tag_533:\n        /* \"#utility.yul\":8868:8903   */\n    tag_532:\n        /* \"#utility.yul\":8925:8926   */\n      dup3\n        /* \"#utility.yul\":8922:8923   */\n      dup3\n        /* \"#utility.yul\":8918:8927   */\n      div\n        /* \"#utility.yul\":8913:8927   */\n      swap1\n      pop\n        /* \"#utility.yul\":8748:8933   */\n      swap3\n      swap2\n      pop\n      pop\n      jump\t// out\n        /* \"#utility.yul\":8939:9086   */\n    tag_413:\n        /* \"#utility.yul\":9040:9051   */\n      0x00\n        /* \"#utility.yul\":9077:9080   */\n      dup2\n        /* \"#utility.yul\":9062:9080   */\n      swap1\n      pop\n        /* \"#utility.yul\":8939:9086   */\n      swap3\n      swap2\n      pop\n      pop\n      jump\t// out\n        /* \"#utility.yul\":9092:9206   */\n    tag_414:\n      pop\n      jump\t// out\n        /* \"#utility.yul\":9212:9610   */\n    tag_415:\n        /* \"#utility.yul\":9371:9374   */\n      0x00\n        /* \"#utility.yul\":9392:9475   */\n      tag_537\n        /* \"#utility.yul\":9473:9474   */\n      0x00\n        /* \"#utility.yul\":9468:9471   */\n      dup4\n        /* \"#utility.yul\":9392:9475   */\n      tag_413\n      jump\t// in\n    tag_537:\n        /* \"#utility.yul\":9385:9475   */\n      swap2\n      pop\n        /* \"#utility.yul\":9484:9577   */\n      tag_538\n        /* \"#utility.yul\":9573:9576   */\n      dup3\n        /* \"#utility.yul\":9484:9577   */\n      tag_414\n      jump\t// in\n    tag_538:\n        /* \"#utility.yul\":9602:9603   */\n      0x00\n        /* \"#utility.yul\":9597:9600   */\n      dup3\n        /* \"#utility.yul\":9593:9604   */\n      add\n        /* \"#utility.yul\":9586:9604   */\n      swap1\n      pop\n        /* \"#utility.yul\":9212:9610   */\n      swap2\n      swap1\n      pop\n      jump\t// out\n        /* \"#utility.yul\":9616:9995   */\n    tag_155:\n        /* \"#utility.yul\":9800:9803   */\n      0x00\n        /* \"#utility.yul\":9822:9969   */\n      tag_540\n        /* \"#utility.yul\":9965:9968   */\n      dup3\n        /* \"#utility.yul\":9822:9969   */\n      tag_415\n      jump\t// in\n    tag_540:\n        /* \"#utility.yul\":9815:9969   */\n      swap2\n      pop\n        /* \"#utility.yul\":9986:9989   */\n      dup2\n        /* \"#utility.yul\":9979:9989   */\n      swap1\n      pop\n        /* \"#utility.yul\":9616:9995   */\n      swap2\n      swap1\n      pop\n      jump\t// out\n        /* \"#utility.yul\":10001:10170   */\n    tag_416:\n        /* \"#utility.yul\":10141:10162   */\n      0x455448207472616e73666572206661696c656400000000000000000000000000\n        /* \"#utility.yul\":10137:10138   */\n      0x00\n        /* \"#utility.yul\":10129:10135   */\n      dup3\n        /* \"#utility.yul\":10125:10139   */\n      add\n        /* \"#utility.yul\":10118:10163   */\n      mstore\n        /* \"#utility.yul\":10001:10170   */\n      pop\n      jump\t// out\n        /* \"#utility.yul\":10176:10540   */\n    tag_417:\n        /* \"#utility.yul\":10317:10320   */\n      0x00\n        /* \"#utility.yul\":10338:10404   */\n      tag_543\n        /* \"#utility.yul\":10401:10403   */\n      0x13\n        /* \"#utility.yul\":10396:10399   */\n      dup4\n        /* \"#utility.yul\":10338:10404   */\n      tag_385\n      jump\t// in\n    tag_543:\n        /* \"#utility.yul\":10331:10404   */\n      swap2\n      pop\n        /* \"#utility.yul\":10413:10506   */\n      tag_544\n        /* \"#utility.yul\":10502:10505   */\n      dup3\n        /* \"#utility.yul\":10413:10506   */\n      tag_416\n      jump\t// in\n    tag_544:\n        /* \"#utility.yul\":10531:10533   */\n      0x20\n        /* \"#utility.yul\":10526:10529   */\n      dup3\n        /* \"#utility.yul\":10522:10534   */\n      add\n        /* \"#utility.yul\":10515:10534   */\n      swap1\n      pop\n        /* \"#utility.yul\":10176:10540   */\n      swap2\n      swap1\n      pop\n      jump\t// out\n        /* \"#utility.yul\":10546:10963   */\n    tag_161:\n        /* \"#utility.yul\":10711:10715   */\n      0x00\n        /* \"#utility.yul\":10749:10751   */\n      0x20\n        /* \"#utility.yul\":10738:10747   */\n      dup3\n        /* \"#utility.yul\":10734:10752   */\n      add\n        /* \"#utility.yul\":10726:10752   */\n      swap1\n      pop\n        /* \"#utility.yul\":10798:10807   */\n      dup2\n        /* \"#utility.yul\":10792:10796   */\n      dup2\n        /* \"#utility.yul\":10788:10808   */\n      sub\n        /* \"#utility.yul\":10784:10785   */\n      0x00\n        /* \"#utility.yul\":10773:10782   */\n      dup4\n        /* \"#utility.yul\":10769:10786   */\n      add\n        /* \"#utility.yul\":10762:10809   */\n      mstore\n        /* \"#utility.yul\":10826:10956   */\n      tag_546\n        /* \"#utility.yul\":10951:10955   */\n      dup2\n        /* \"#utility.yul\":10826:10956   */\n      tag_417\n      jump\t// in\n    tag_546:\n        /* \"#utility.yul\":10818:10956   */\n      swap1\n      pop\n        /* \"#utility.yul\":10546:10963   */\n      swap2\n      swap1\n      pop\n      jump\t// out\n        /* \"#utility.yul\":10969:11085   */\n    tag_418:\n        /* \"#utility.yul\":11039:11060   */\n      tag_548\n        /* \"#utility.yul\":11054:11059   */\n      dup2\n        /* \"#utility.yul\":11039:11060   */\n      tag_395\n      jump\t// in\n    tag_548:\n        /* \"#utility.yul\":11032:11037   */\n      dup2\n        /* \"#utility.yul\":11029:11061   */\n      eq\n        /* \"#utility.yul\":11019:11079   */\n      tag_549\n      jumpi\n        /* \"#utility.yul\":11075:11076   */\n      0x00\n        /* \"#utility.yul\":11072:11073   */\n      dup1\n        /* \"#utility.yul\":11065:11077   */\n      revert\n        /* \"#utility.yul\":11019:11079   */\n    tag_549:\n        /* \"#utility.yul\":10969:11085   */\n      pop\n      jump\t// out\n        /* \"#utility.yul\":11091:11228   */\n    tag_419:\n        /* \"#utility.yul\":11145:11150   */\n      0x00\n        /* \"#utility.yul\":11176:11182   */\n      dup2\n        /* \"#utility.yul\":11170:11183   */\n      mload\n        /* \"#utility.yul\":11161:11183   */\n      swap1\n      pop\n        /* \"#utility.yul\":11192:11222   */\n      tag_551\n        /* \"#utility.yul\":11216:11221   */\n      dup2\n        /* \"#utility.yul\":11192:11222   */\n      tag_418\n      jump\t// in\n    tag_551:\n        /* \"#utility.yul\":11091:11228   */\n      swap3\n      swap2\n      pop\n      pop\n      jump\t// out\n        /* \"#utility.yul\":11234:11579   */\n    tag_167:\n        /* \"#utility.yul\":11301:11307   */\n      0x00\n        /* \"#utility.yul\":11350:11352   */\n      0x20\n        /* \"#utility.yul\":11338:11347   */\n      dup3\n        /* \"#utility.yul\":11329:11336   */\n      dup5\n        /* \"#utility.yul\":11325:11348   */\n      sub\n        /* \"#utility.yul\":11321:11353   */\n      slt\n        /* \"#utility.yul\":11318:11437   */\n      iszero\n      tag_553\n      jumpi\n        /* \"#utility.yul\":11356:11435   */\n      tag_554\n      tag_389\n      jump\t// in\n    tag_554:\n        /* \"#utility.yul\":11318:11437   */\n    tag_553:\n        /* \"#utility.yul\":11476:11477   */\n      0x00\n        /* \"#utility.yul\":11501:11562   */\n      tag_555\n        /* \"#utility.yul\":11554:11561   */\n      dup5\n        /* \"#utility.yul\":11545:11551   */\n      dup3\n        /* \"#utility.yul\":11534:11543   */\n      dup6\n        /* \"#utility.yul\":11530:11552   */\n      add\n        /* \"#utility.yul\":11501:11562   */\n      tag_419\n      jump\t// in\n    tag_555:\n        /* \"#utility.yul\":11491:11562   */\n      swap2\n      pop\n        /* \"#utility.yul\":11447:11572   */\n      pop\n        /* \"#utility.yul\":11234:11579   */\n      swap3\n      swap2\n      pop\n      pop\n      jump\t// out\n        /* \"#utility.yul\":11585:11809   */\n    tag_420:\n        /* \"#utility.yul\":11725:11759   */\n      0x416d6f756e74206578636565647320746865206d6178696d756d207769746864\n        /* \"#utility.yul\":11721:11722   */\n      0x00\n        /* \"#utility.yul\":11713:11719   */\n      dup3\n        /* \"#utility.yul\":11709:11723   */\n      add\n        /* \"#utility.yul\":11702:11760   */\n      mstore\n        /* \"#utility.yul\":11794:11801   */\n      0x726177616c000000000000000000000000000000000000000000000000000000\n        /* \"#utility.yul\":11789:11791   */\n      0x20\n        /* \"#utility.yul\":11781:11787   */\n      dup3\n        /* \"#utility.yul\":11777:11792   */\n      add\n        /* \"#utility.yul\":11770:11802   */\n      mstore\n        /* \"#utility.yul\":11585:11809   */\n      pop\n      jump\t// out\n        /* \"#utility.yul\":11815:12179   */\n    tag_421:\n        /* \"#utility.yul\":11956:11959   */\n      0x00\n        /* \"#utility.yul\":11977:12043   */\n      tag_558\n        /* \"#utility.yul\":12040:12042   */\n      0x25\n        /* \"#utility.yul\":12035:12038   */\n      dup4\n        /* \"#utility.yul\":11977:12043   */\n      tag_385\n      jump\t// in\n    tag_558:\n        /* \"#utility.yul\":11970:12043   */\n      swap2\n      pop\n        /* \"#utility.yul\":12052:12145   */\n      tag_559\n        /* \"#utility.yul\":12141:12144   */\n      dup3\n        /* \"#utility.yul\":12052:12145   */\n      tag_420\n      jump\t// in\n    tag_559:\n        /* \"#utility.yul\":12170:12172   */\n      0x40\n        /* \"#utility.yul\":12165:12168   */\n      dup3\n        /* \"#utility.yul\":12161:12173   */\n      add\n        /* \"#utility.yul\":12154:12173   */\n      swap1\n      pop\n        /* \"#utility.yul\":11815:12179   */\n      swap2\n      swap1\n      pop\n      jump\t// out\n        /* \"#utility.yul\":12185:12602   */\n    tag_174:\n        /* \"#utility.yul\":12350:12354   */\n      0x00\n        /* \"#utility.yul\":12388:12390   */\n      0x20\n        /* \"#utility.yul\":12377:12386   */\n      dup3\n        /* \"#utility.yul\":12373:12391   */\n      add\n        /* \"#utility.yul\":12365:12391   */\n      swap1\n      pop\n        /* \"#utility.yul\":12437:12446   */\n      dup2\n        /* \"#utility.yul\":12431:12435   */\n      dup2\n        /* \"#utility.yul\":12427:12447   */\n      sub\n        /* \"#utility.yul\":12423:12424   */\n      0x00\n        /* \"#utility.yul\":12412:12421   */\n      dup4\n        /* \"#utility.yul\":12408:12425   */\n      add\n        /* \"#utility.yul\":12401:12448   */\n      mstore\n        /* \"#utility.yul\":12465:12595   */\n      tag_561\n        /* \"#utility.yul\":12590:12594   */\n      dup2\n        /* \"#utility.yul\":12465:12595   */\n      tag_421\n      jump\t// in\n    tag_561:\n        /* \"#utility.yul\":12457:12595   */\n      swap1\n      pop\n        /* \"#utility.yul\":12185:12602   */\n      swap2\n      swap1\n      pop\n      jump\t// out\n        /* \"#utility.yul\":12608:12775   */\n    tag_422:\n        /* \"#utility.yul\":12748:12767   */\n      0x4e6f7420656e6f75676820666f756e6473000000000000000000000000000000\n        /* \"#utility.yul\":12744:12745   */\n      0x00\n        /* \"#utility.yul\":12736:12742   */\n      dup3\n        /* \"#utility.yul\":12732:12746   */\n      add\n        /* \"#utility.yul\":12725:12768   */\n      mstore\n        /* \"#utility.yul\":12608:12775   */\n      pop\n      jump\t// out\n        /* \"#utility.yul\":12781:13145   */\n    tag_423:\n        /* \"#utility.yul\":12922:12925   */\n      0x00\n        /* \"#utility.yul\":12943:13009   */\n      tag_564\n        /* \"#utility.yul\":13006:13008   */\n      0x11\n        /* \"#utility.yul\":13001:13004   */\n      dup4\n        /* \"#utility.yul\":12943:13009   */\n      tag_385\n      jump\t// in\n    tag_564:\n        /* \"#utility.yul\":12936:13009   */\n      swap2\n      pop\n        /* \"#utility.yul\":13018:13111   */\n      tag_565\n        /* \"#utility.yul\":13107:13110   */\n      dup3\n        /* \"#utility.yul\":13018:13111   */\n      tag_422\n      jump\t// in\n    tag_565:\n        /* \"#utility.yul\":13136:13138   */\n      0x20\n        /* \"#utility.yul\":13131:13134   */\n      dup3\n        /* \"#utility.yul\":13127:13139   */\n      add\n        /* \"#utility.yul\":13120:13139   */\n      swap1\n      pop\n        /* \"#utility.yul\":12781:13145   */\n      swap2\n      swap1\n      pop\n      jump\t// out\n        /* \"#utility.yul\":13151:13568   */\n    tag_177:\n        /* \"#utility.yul\":13316:13320   */\n      0x00\n        /* \"#utility.yul\":13354:13356   */\n      0x20\n        /* \"#utility.yul\":13343:13352   */\n      dup3\n        /* \"#utility.yul\":13339:13357   */\n      add\n        /* \"#utility.yul\":13331:13357   */\n      swap1\n      pop\n        /* \"#utility.yul\":13403:13412   */\n      dup2\n        /* \"#utility.yul\":13397:13401   */\n      dup2\n        /* \"#utility.yul\":13393:13413   */\n      sub\n        /* \"#utility.yul\":13389:13390   */\n      0x00\n        /* \"#utility.yul\":13378:13387   */\n      dup4\n        /* \"#utility.yul\":13374:13391   */\n      add\n        /* \"#utility.yul\":13367:13414   */\n      mstore\n        /* \"#utility.yul\":13431:13561   */\n      tag_567\n        /* \"#utility.yul\":13556:13560   */\n      dup2\n        /* \"#utility.yul\":13431:13561   */\n      tag_423\n      jump\t// in\n    tag_567:\n        /* \"#utility.yul\":13423:13561   */\n      swap1\n      pop\n        /* \"#utility.yul\":13151:13568   */\n      swap2\n      swap1\n      pop\n      jump\t// out\n        /* \"#utility.yul\":13574:13768   */\n    tag_180:\n        /* \"#utility.yul\":13614:13618   */\n      0x00\n        /* \"#utility.yul\":13634:13654   */\n      tag_569\n        /* \"#utility.yul\":13652:13653   */\n      dup3\n        /* \"#utility.yul\":13634:13654   */\n      tag_402\n      jump\t// in\n    tag_569:\n        /* \"#utility.yul\":13629:13654   */\n      swap2\n      pop\n        /* \"#utility.yul\":13668:13688   */\n      tag_570\n        /* \"#utility.yul\":13686:13687   */\n      dup4\n        /* \"#utility.yul\":13668:13688   */\n      tag_402\n      jump\t// in\n    tag_570:\n        /* \"#utility.yul\":13663:13688   */\n      swap3\n      pop\n        /* \"#utility.yul\":13712:13713   */\n      dup3\n        /* \"#utility.yul\":13709:13710   */\n      dup3\n        /* \"#utility.yul\":13705:13714   */\n      sub\n        /* \"#utility.yul\":13697:13714   */\n      swap1\n      pop\n        /* \"#utility.yul\":13736:13737   */\n      dup2\n        /* \"#utility.yul\":13730:13734   */\n      dup2\n        /* \"#utility.yul\":13727:13738   */\n      gt\n        /* \"#utility.yul\":13724:13761   */\n      iszero\n      tag_571\n      jumpi\n        /* \"#utility.yul\":13741:13759   */\n      tag_572\n      tag_409\n      jump\t// in\n    tag_572:\n        /* \"#utility.yul\":13724:13761   */\n    tag_571:\n        /* \"#utility.yul\":13574:13768   */\n      swap3\n      swap2\n      pop\n      pop\n      jump\t// out\n        /* \"#utility.yul\":13774:13872   */\n    tag_424:\n        /* \"#utility.yul\":13825:13831   */\n      0x00\n        /* \"#utility.yul\":13859:13864   */\n      dup2\n        /* \"#utility.yul\":13853:13865   */\n      mload\n        /* \"#utility.yul\":13843:13865   */\n      swap1\n      pop\n        /* \"#utility.yul\":13774:13872   */\n      swap2\n      swap1\n      pop\n      jump\t// out\n        /* \"#utility.yul\":13878:14017   */\n    tag_425:\n        /* \"#utility.yul\":13967:13973   */\n      dup3\n        /* \"#utility.yul\":13962:13965   */\n      dup2\n        /* \"#utility.yul\":13957:13960   */\n      dup4\n        /* \"#utility.yul\":13951:13974   */\n      mcopy\n        /* \"#utility.yul\":14008:14009   */\n      0x00\n        /* \"#utility.yul\":13999:14005   */\n      dup4\n        /* \"#utility.yul\":13994:13997   */\n      dup4\n        /* \"#utility.yul\":13990:14006   */\n      add\n        /* \"#utility.yul\":13983:14010   */\n      mstore\n        /* \"#utility.yul\":13878:14017   */\n      pop\n      pop\n      pop\n      jump\t// out\n        /* \"#utility.yul\":14023:14125   */\n    tag_426:\n        /* \"#utility.yul\":14064:14070   */\n      0x00\n        /* \"#utility.yul\":14115:14117   */\n      0x1f\n        /* \"#utility.yul\":14111:14118   */\n      not\n        /* \"#utility.yul\":14106:14108   */\n      0x1f\n        /* \"#utility.yul\":14099:14104   */\n      dup4\n        /* \"#utility.yul\":14095:14109   */\n      add\n        /* \"#utility.yul\":14091:14119   */\n      and\n        /* \"#utility.yul\":14081:14119   */\n      swap1\n      pop\n        /* \"#utility.yul\":14023:14125   */\n      swap2\n      swap1\n      pop\n      jump\t// out\n        /* \"#utility.yul\":14131:14504   */\n    tag_427:\n        /* \"#utility.yul\":14217:14220   */\n      0x00\n        /* \"#utility.yul\":14245:14283   */\n      tag_577\n        /* \"#utility.yul\":14277:14282   */\n      dup3\n        /* \"#utility.yul\":14245:14283   */\n      tag_424\n      jump\t// in\n    tag_577:\n        /* \"#utility.yul\":14299:14369   */\n      tag_578\n        /* \"#utility.yul\":14362:14368   */\n      dup2\n        /* \"#utility.yul\":14357:14360   */\n      dup6\n        /* \"#utility.yul\":14299:14369   */\n      tag_385\n      jump\t// in\n    tag_578:\n        /* \"#utility.yul\":14292:14369   */\n      swap4\n      pop\n        /* \"#utility.yul\":14378:14443   */\n      tag_579\n        /* \"#utility.yul\":14436:14442   */\n      dup2\n        /* \"#utility.yul\":14431:14434   */\n      dup6\n        /* \"#utility.yul\":14424:14428   */\n      0x20\n        /* \"#utility.yul\":14417:14422   */\n      dup7\n        /* \"#utility.yul\":14413:14429   */\n      add\n        /* \"#utility.yul\":14378:14443   */\n      tag_425\n      jump\t// in\n    tag_579:\n        /* \"#utility.yul\":14468:14497   */\n      tag_580\n        /* \"#utility.yul\":14490:14496   */\n      dup2\n        /* \"#utility.yul\":14468:14497   */\n      tag_426\n      jump\t// in\n    tag_580:\n        /* \"#utility.yul\":14463:14466   */\n      dup5\n        /* \"#utility.yul\":14459:14498   */\n      add\n        /* \"#utility.yul\":14452:14498   */\n      swap2\n      pop\n        /* \"#utility.yul\":14221:14504   */\n      pop\n        /* \"#utility.yul\":14131:14504   */\n      swap3\n      swap2\n      pop\n      pop\n      jump\t// out\n        /* \"#utility.yul\":14510:14819   */\n    tag_188:\n        /* \"#utility.yul\":14621:14625   */\n      0x00\n        /* \"#utility.yul\":14659:14661   */\n      0x20\n        /* \"#utility.yul\":14648:14657   */\n      dup3\n        /* \"#utility.yul\":14644:14662   */\n      add\n        /* \"#utility.yul\":14636:14662   */\n      swap1\n      pop\n        /* \"#utility.yul\":14708:14717   */\n      dup2\n        /* \"#utility.yul\":14702:14706   */\n      dup2\n        /* \"#utility.yul\":14698:14718   */\n      sub\n        /* \"#utility.yul\":14694:14695   */\n      0x00\n        /* \"#utility.yul\":14683:14692   */\n      dup4\n        /* \"#utility.yul\":14679:14696   */\n      add\n        /* \"#utility.yul\":14672:14719   */\n      mstore\n        /* \"#utility.yul\":14736:14812   */\n      tag_582\n        /* \"#utility.yul\":14807:14811   */\n      dup2\n        /* \"#utility.yul\":14798:14804   */\n      dup5\n        /* \"#utility.yul\":14736:14812   */\n      tag_427\n      jump\t// in\n    tag_582:\n        /* \"#utility.yul\":14728:14812   */\n      swap1\n      pop\n        /* \"#utility.yul\":14510:14819   */\n      swap3\n      swap2\n      pop\n      pop\n      jump\t// out\n        /* \"#utility.yul\":14825:15157   */\n    tag_230:\n        /* \"#utility.yul\":14946:14950   */\n      0x00\n        /* \"#utility.yul\":14984:14986   */\n      0x40\n        /* \"#utility.yul\":14973:14982   */\n      dup3\n        /* \"#utility.yul\":14969:14987   */\n      add\n        /* \"#utility.yul\":14961:14987   */\n      swap1\n      pop\n        /* \"#utility.yul\":14997:15068   */\n      tag_584\n        /* \"#utility.yul\":15065:15066   */\n      0x00\n        /* \"#utility.yul\":15054:15063   */\n      dup4\n        /* \"#utility.yul\":15050:15067   */\n      add\n        /* \"#utility.yul\":15041:15047   */\n      dup6\n        /* \"#utility.yul\":14997:15068   */\n      tag_408\n      jump\t// in\n    tag_584:\n        /* \"#utility.yul\":15078:15150   */\n      tag_585\n        /* \"#utility.yul\":15146:15148   */\n      0x20\n        /* \"#utility.yul\":15135:15144   */\n      dup4\n        /* \"#utility.yul\":15131:15149   */\n      add\n        /* \"#utility.yul\":15122:15128   */\n      dup5\n        /* \"#utility.yul\":15078:15150   */\n      tag_408\n      jump\t// in\n    tag_585:\n        /* \"#utility.yul\":14825:15157   */\n      swap4\n      swap3\n      pop\n      pop\n      pop\n      jump\t// out\n        /* \"#utility.yul\":15163:15306   */\n    tag_428:\n        /* \"#utility.yul\":15220:15225   */\n      0x00\n        /* \"#utility.yul\":15251:15257   */\n      dup2\n        /* \"#utility.yul\":15245:15258   */\n      mload\n        /* \"#utility.yul\":15236:15258   */\n      swap1\n      pop\n        /* \"#utility.yul\":15267:15300   */\n      tag_587\n        /* \"#utility.yul\":15294:15299   */\n      dup2\n        /* \"#utility.yul\":15267:15300   */\n      tag_404\n      jump\t// in\n    tag_587:\n        /* \"#utility.yul\":15163:15306   */\n      swap3\n      swap2\n      pop\n      pop\n      jump\t// out\n        /* \"#utility.yul\":15312:15663   */\n    tag_234:\n        /* \"#utility.yul\":15382:15388   */\n      0x00\n        /* \"#utility.yul\":15431:15433   */\n      0x20\n        /* \"#utility.yul\":15419:15428   */\n      dup3\n        /* \"#utility.yul\":15410:15417   */\n      dup5\n        /* \"#utility.yul\":15406:15429   */\n      sub\n        /* \"#utility.yul\":15402:15434   */\n      slt\n        /* \"#utility.yul\":15399:15518   */\n      iszero\n      tag_589\n      jumpi\n        /* \"#utility.yul\":15437:15516   */\n      tag_590\n      tag_389\n      jump\t// in\n    tag_590:\n        /* \"#utility.yul\":15399:15518   */\n    tag_589:\n        /* \"#utility.yul\":15557:15558   */\n      0x00\n        /* \"#utility.yul\":15582:15646   */\n      tag_591\n        /* \"#utility.yul\":15638:15645   */\n      dup5\n        /* \"#utility.yul\":15629:15635   */\n      dup3\n        /* \"#utility.yul\":15618:15627   */\n      dup6\n        /* \"#utility.yul\":15614:15636   */\n      add\n        /* \"#utility.yul\":15582:15646   */\n      tag_428\n      jump\t// in\n    tag_591:\n        /* \"#utility.yul\":15572:15646   */\n      swap2\n      pop\n        /* \"#utility.yul\":15528:15656   */\n      pop\n        /* \"#utility.yul\":15312:15663   */\n      swap3\n      swap2\n      pop\n      pop\n      jump\t// out\n        /* \"#utility.yul\":15669:15902   */\n    tag_429:\n        /* \"#utility.yul\":15809:15843   */\n      0x45524332303a20496e73756666696369656e7420616c6c6f77616e636520666f\n        /* \"#utility.yul\":15805:15806   */\n      0x00\n        /* \"#utility.yul\":15797:15803   */\n      dup3\n        /* \"#utility.yul\":15793:15807   */\n      add\n        /* \"#utility.yul\":15786:15844   */\n      mstore\n        /* \"#utility.yul\":15878:15894   */\n      0x72207472616e7366657246726f6d000000000000000000000000000000000000\n        /* \"#utility.yul\":15873:15875   */\n      0x20\n        /* \"#utility.yul\":15865:15871   */\n      dup3\n        /* \"#utility.yul\":15861:15876   */\n      add\n        /* \"#utility.yul\":15854:15895   */\n      mstore\n        /* \"#utility.yul\":15669:15902   */\n      pop\n      jump\t// out\n        /* \"#utility.yul\":15908:16272   */\n    tag_430:\n        /* \"#utility.yul\":16049:16052   */\n      0x00\n        /* \"#utility.yul\":16070:16136   */\n      tag_594\n        /* \"#utility.yul\":16133:16135   */\n      0x2e\n        /* \"#utility.yul\":16128:16131   */\n      dup4\n        /* \"#utility.yul\":16070:16136   */\n      tag_385\n      jump\t// in\n    tag_594:\n        /* \"#utility.yul\":16063:16136   */\n      swap2\n      pop\n        /* \"#utility.yul\":16145:16238   */\n      tag_595\n        /* \"#utility.yul\":16234:16237   */\n      dup3\n        /* \"#utility.yul\":16145:16238   */\n      tag_429\n      jump\t// in\n    tag_595:\n        /* \"#utility.yul\":16263:16265   */\n      0x40\n        /* \"#utility.yul\":16258:16261   */\n      dup3\n        /* \"#utility.yul\":16254:16266   */\n      add\n        /* \"#utility.yul\":16247:16266   */\n      swap1\n      pop\n        /* \"#utility.yul\":15908:16272   */\n      swap2\n      swap1\n      pop\n      jump\t// out\n        /* \"#utility.yul\":16278:16695   */\n    tag_237:\n        /* \"#utility.yul\":16443:16447   */\n      0x00\n        /* \"#utility.yul\":16481:16483   */\n      0x20\n        /* \"#utility.yul\":16470:16479   */\n      dup3\n        /* \"#utility.yul\":16466:16484   */\n      add\n        /* \"#utility.yul\":16458:16484   */\n      swap1\n      pop\n        /* \"#utility.yul\":16530:16539   */\n      dup2\n        /* \"#utility.yul\":16524:16528   */\n      dup2\n        /* \"#utility.yul\":16520:16540   */\n      sub\n        /* \"#utility.yul\":16516:16517   */\n      0x00\n        /* \"#utility.yul\":16505:16514   */\n      dup4\n        /* \"#utility.yul\":16501:16518   */\n      add\n        /* \"#utility.yul\":16494:16541   */\n      mstore\n        /* \"#utility.yul\":16558:16688   */\n      tag_597\n        /* \"#utility.yul\":16683:16687   */\n      dup2\n        /* \"#utility.yul\":16558:16688   */\n      tag_430\n      jump\t// in\n    tag_597:\n        /* \"#utility.yul\":16550:16688   */\n      swap1\n      pop\n        /* \"#utility.yul\":16278:16695   */\n      swap2\n      swap1\n      pop\n      jump\t// out\n        /* \"#utility.yul\":16701:17143   */\n    tag_246:\n        /* \"#utility.yul\":16850:16854   */\n      0x00\n        /* \"#utility.yul\":16888:16890   */\n      0x60\n        /* \"#utility.yul\":16877:16886   */\n      dup3\n        /* \"#utility.yul\":16873:16891   */\n      add\n        /* \"#utility.yul\":16865:16891   */\n      swap1\n      pop\n        /* \"#utility.yul\":16901:16972   */\n      tag_599\n        /* \"#utility.yul\":16969:16970   */\n      0x00\n        /* \"#utility.yul\":16958:16967   */\n      dup4\n        /* \"#utility.yul\":16954:16971   */\n      add\n        /* \"#utility.yul\":16945:16951   */\n      dup7\n        /* \"#utility.yul\":16901:16972   */\n      tag_408\n      jump\t// in\n    tag_599:\n        /* \"#utility.yul\":16982:17054   */\n      tag_600\n        /* \"#utility.yul\":17050:17052   */\n      0x20\n        /* \"#utility.yul\":17039:17048   */\n      dup4\n        /* \"#utility.yul\":17035:17053   */\n      add\n        /* \"#utility.yul\":17026:17032   */\n      dup6\n        /* \"#utility.yul\":16982:17054   */\n      tag_408\n      jump\t// in\n    tag_600:\n        /* \"#utility.yul\":17064:17136   */\n      tag_601\n        /* \"#utility.yul\":17132:17134   */\n      0x40\n        /* \"#utility.yul\":17121:17130   */\n      dup4\n        /* \"#utility.yul\":17117:17135   */\n      add\n        /* \"#utility.yul\":17108:17114   */\n      dup5\n        /* \"#utility.yul\":17064:17136   */\n      tag_403\n      jump\t// in\n    tag_601:\n        /* \"#utility.yul\":16701:17143   */\n      swap5\n      swap4\n      pop\n      pop\n      pop\n      pop\n      jump\t// out\n        /* \"#utility.yul\":17149:17559   */\n    tag_360:\n        /* \"#utility.yul\":17189:17196   */\n      0x00\n        /* \"#utility.yul\":17212:17232   */\n      tag_603\n        /* \"#utility.yul\":17230:17231   */\n      dup3\n        /* \"#utility.yul\":17212:17232   */\n      tag_402\n      jump\t// in\n    tag_603:\n        /* \"#utility.yul\":17207:17232   */\n      swap2\n      pop\n        /* \"#utility.yul\":17246:17266   */\n      tag_604\n        /* \"#utility.yul\":17264:17265   */\n      dup4\n        /* \"#utility.yul\":17246:17266   */\n      tag_402\n      jump\t// in\n    tag_604:\n        /* \"#utility.yul\":17241:17266   */\n      swap3\n      pop\n        /* \"#utility.yul\":17301:17302   */\n      dup3\n        /* \"#utility.yul\":17298:17299   */\n      dup3\n        /* \"#utility.yul\":17294:17303   */\n      mul\n        /* \"#utility.yul\":17323:17353   */\n      tag_605\n        /* \"#utility.yul\":17341:17352   */\n      dup2\n        /* \"#utility.yul\":17323:17353   */\n      tag_402\n      jump\t// in\n    tag_605:\n        /* \"#utility.yul\":17312:17353   */\n      swap2\n      pop\n        /* \"#utility.yul\":17502:17503   */\n      dup3\n        /* \"#utility.yul\":17493:17500   */\n      dup3\n        /* \"#utility.yul\":17489:17504   */\n      div\n        /* \"#utility.yul\":17486:17487   */\n      dup5\n        /* \"#utility.yul\":17483:17505   */\n      eq\n        /* \"#utility.yul\":17463:17464   */\n      dup4\n        /* \"#utility.yul\":17456:17465   */\n      iszero\n        /* \"#utility.yul\":17436:17519   */\n      or\n        /* \"#utility.yul\":17413:17552   */\n      tag_606\n      jumpi\n        /* \"#utility.yul\":17532:17550   */\n      tag_607\n      tag_409\n      jump\t// in\n    tag_607:\n        /* \"#utility.yul\":17413:17552   */\n    tag_606:\n        /* \"#utility.yul\":17197:17559   */\n      pop\n        /* \"#utility.yul\":17149:17559   */\n      swap3\n      swap2\n      pop\n      pop\n      jump\t// out\n        /* \"#utility.yul\":17565:17670   */\n    tag_431:\n        /* \"#utility.yul\":17601:17608   */\n      0x00\n        /* \"#utility.yul\":17641:17663   */\n      0xffffffffffffffffffff\n        /* \"#utility.yul\":17634:17639   */\n      dup3\n        /* \"#utility.yul\":17630:17664   */\n      and\n        /* \"#utility.yul\":17619:17664   */\n      swap1\n      pop\n        /* \"#utility.yul\":17565:17670   */\n      swap2\n      swap1\n      pop\n      jump\t// out\n        /* \"#utility.yul\":17676:17796   */\n    tag_432:\n        /* \"#utility.yul\":17748:17771   */\n      tag_610\n        /* \"#utility.yul\":17765:17770   */\n      dup2\n        /* \"#utility.yul\":17748:17771   */\n      tag_431\n      jump\t// in\n    tag_610:\n        /* \"#utility.yul\":17741:17746   */\n      dup2\n        /* \"#utility.yul\":17738:17772   */\n      eq\n        /* \"#utility.yul\":17728:17790   */\n      tag_611\n      jumpi\n        /* \"#utility.yul\":17786:17787   */\n      0x00\n        /* \"#utility.yul\":17783:17784   */\n      dup1\n        /* \"#utility.yul\":17776:17788   */\n      revert\n        /* \"#utility.yul\":17728:17790   */\n    tag_611:\n        /* \"#utility.yul\":17676:17796   */\n      pop\n      jump\t// out\n        /* \"#utility.yul\":17802:17943   */\n    tag_433:\n        /* \"#utility.yul\":17858:17863   */\n      0x00\n        /* \"#utility.yul\":17889:17895   */\n      dup2\n        /* \"#utility.yul\":17883:17896   */\n      mload\n        /* \"#utility.yul\":17874:17896   */\n      swap1\n      pop\n        /* \"#utility.yul\":17905:17937   */\n      tag_613\n        /* \"#utility.yul\":17931:17936   */\n      dup2\n        /* \"#utility.yul\":17905:17937   */\n      tag_432\n      jump\t// in\n    tag_613:\n        /* \"#utility.yul\":17802:17943   */\n      swap3\n      swap2\n      pop\n      pop\n      jump\t// out\n        /* \"#utility.yul\":17949:18025   */\n    tag_434:\n        /* \"#utility.yul\":17985:17992   */\n      0x00\n        /* \"#utility.yul\":18014:18019   */\n      dup2\n        /* \"#utility.yul\":18003:18019   */\n      swap1\n      pop\n        /* \"#utility.yul\":17949:18025   */\n      swap2\n      swap1\n      pop\n      jump\t// out\n        /* \"#utility.yul\":18031:18151   */\n    tag_435:\n        /* \"#utility.yul\":18103:18126   */\n      tag_616\n        /* \"#utility.yul\":18120:18125   */\n      dup2\n        /* \"#utility.yul\":18103:18126   */\n      tag_434\n      jump\t// in\n    tag_616:\n        /* \"#utility.yul\":18096:18101   */\n      dup2\n        /* \"#utility.yul\":18093:18127   */\n      eq\n        /* \"#utility.yul\":18083:18145   */\n      tag_617\n      jumpi\n        /* \"#utility.yul\":18141:18142   */\n      0x00\n        /* \"#utility.yul\":18138:18139   */\n      dup1\n        /* \"#utility.yul\":18131:18143   */\n      revert\n        /* \"#utility.yul\":18083:18145   */\n    tag_617:\n        /* \"#utility.yul\":18031:18151   */\n      pop\n      jump\t// out\n        /* \"#utility.yul\":18157:18298   */\n    tag_436:\n        /* \"#utility.yul\":18213:18218   */\n      0x00\n        /* \"#utility.yul\":18244:18250   */\n      dup2\n        /* \"#utility.yul\":18238:18251   */\n      mload\n        /* \"#utility.yul\":18229:18251   */\n      swap1\n      pop\n        /* \"#utility.yul\":18260:18292   */\n      tag_619\n        /* \"#utility.yul\":18286:18291   */\n      dup2\n        /* \"#utility.yul\":18260:18292   */\n      tag_435\n      jump\t// in\n    tag_619:\n        /* \"#utility.yul\":18157:18298   */\n      swap3\n      swap2\n      pop\n      pop\n      jump\t// out\n        /* \"#utility.yul\":18304:19275   */\n    tag_374:\n        /* \"#utility.yul\":18407:18413   */\n      0x00\n        /* \"#utility.yul\":18415:18421   */\n      dup1\n        /* \"#utility.yul\":18423:18429   */\n      0x00\n        /* \"#utility.yul\":18431:18437   */\n      dup1\n        /* \"#utility.yul\":18439:18445   */\n      0x00\n        /* \"#utility.yul\":18488:18491   */\n      0xa0\n        /* \"#utility.yul\":18476:18485   */\n      dup7\n        /* \"#utility.yul\":18467:18474   */\n      dup9\n        /* \"#utility.yul\":18463:18486   */\n      sub\n        /* \"#utility.yul\":18459:18492   */\n      slt\n        /* \"#utility.yul\":18456:18576   */\n      iszero\n      tag_621\n      jumpi\n        /* \"#utility.yul\":18495:18574   */\n      tag_622\n      tag_389\n      jump\t// in\n    tag_622:\n        /* \"#utility.yul\":18456:18576   */\n    tag_621:\n        /* \"#utility.yul\":18615:18616   */\n      0x00\n        /* \"#utility.yul\":18640:18703   */\n      tag_623\n        /* \"#utility.yul\":18695:18702   */\n      dup9\n        /* \"#utility.yul\":18686:18692   */\n      dup3\n        /* \"#utility.yul\":18675:18684   */\n      dup10\n        /* \"#utility.yul\":18671:18693   */\n      add\n        /* \"#utility.yul\":18640:18703   */\n      tag_433\n      jump\t// in\n    tag_623:\n        /* \"#utility.yul\":18630:18703   */\n      swap6\n      pop\n        /* \"#utility.yul\":18586:18713   */\n      pop\n        /* \"#utility.yul\":18752:18754   */\n      0x20\n        /* \"#utility.yul\":18778:18841   */\n      tag_624\n        /* \"#utility.yul\":18833:18840   */\n      dup9\n        /* \"#utility.yul\":18824:18830   */\n      dup3\n        /* \"#utility.yul\":18813:18822   */\n      dup10\n        /* \"#utility.yul\":18809:18831   */\n      add\n        /* \"#utility.yul\":18778:18841   */\n      tag_436\n      jump\t// in\n    tag_624:\n        /* \"#utility.yul\":18768:18841   */\n      swap5\n      pop\n        /* \"#utility.yul\":18723:18851   */\n      pop\n        /* \"#utility.yul\":18890:18892   */\n      0x40\n        /* \"#utility.yul\":18916:18980   */\n      tag_625\n        /* \"#utility.yul\":18972:18979   */\n      dup9\n        /* \"#utility.yul\":18963:18969   */\n      dup3\n        /* \"#utility.yul\":18952:18961   */\n      dup10\n        /* \"#utility.yul\":18948:18970   */\n      add\n        /* \"#utility.yul\":18916:18980   */\n      tag_428\n      jump\t// in\n    tag_625:\n        /* \"#utility.yul\":18906:18980   */\n      swap4\n      pop\n        /* \"#utility.yul\":18861:18990   */\n      pop\n        /* \"#utility.yul\":19029:19031   */\n      0x60\n        /* \"#utility.yul\":19055:19119   */\n      tag_626\n        /* \"#utility.yul\":19111:19118   */\n      dup9\n        /* \"#utility.yul\":19102:19108   */\n      dup3\n        /* \"#utility.yul\":19091:19100   */\n      dup10\n        /* \"#utility.yul\":19087:19109   */\n      add\n        /* \"#utility.yul\":19055:19119   */\n      tag_428\n      jump\t// in\n    tag_626:\n        /* \"#utility.yul\":19045:19119   */\n      swap3\n      pop\n        /* \"#utility.yul\":19000:19129   */\n      pop\n        /* \"#utility.yul\":19168:19171   */\n      0x80\n        /* \"#utility.yul\":19195:19258   */\n      tag_627\n        /* \"#utility.yul\":19250:19257   */\n      dup9\n        /* \"#utility.yul\":19241:19247   */\n      dup3\n        /* \"#utility.yul\":19230:19239   */\n      dup10\n        /* \"#utility.yul\":19226:19248   */\n      add\n        /* \"#utility.yul\":19195:19258   */\n      tag_433\n      jump\t// in\n    tag_627:\n        /* \"#utility.yul\":19185:19258   */\n      swap2\n      pop\n        /* \"#utility.yul\":19139:19268   */\n      pop\n        /* \"#utility.yul\":18304:19275   */\n      swap3\n      swap6\n      pop\n      swap3\n      swap6\n      swap1\n      swap4\n      pop\n      jump\t// out\n\n    auxdata: 0xa26469706673582212204f987c5cbee2075645e358adfe74236432c0cf3257c27ad7fae3be4bcd8a994a64736f6c634300081a0033\n}\n",
				"bytecode": {
					"linkReferences": {},
					"object": "610100604052348015610010575f80fd5b5060405161359638038061359683398181016040528101906100329190610472565b865f73ffffffffffffffffffffffffffffffffffffffff168173ffffffffffffffffffffffffffffffffffffffff16036100a3575f6040517f1e4fbdf700000000000000000000000000000000000000000000000000000000815260040161009a919061051e565b60405180910390fd5b6100b28161032060201b60201c565b5060018081905550600a8210806100c95750600181105b156100ff576040517e01d65100000000000000000000000000000000000000000000000000000000815260040160405180910390fd5b6305f5e1008261010f9190610564565b608081815250506305f5e100816101269190610564565b60a08181525050600160035f8073ffffffffffffffffffffffffffffffffffffffff1673ffffffffffffffffffffffffffffffffffffffff1681526020019081526020015f205f6101000a81548160ff021916908315150217905550600160035f8573ffffffffffffffffffffffffffffffffffffffff1673ffffffffffffffffffffffffffffffffffffffff1681526020019081526020015f205f6101000a81548160ff0219169083151502179055508273ffffffffffffffffffffffffffffffffffffffff1660c08173ffffffffffffffffffffffffffffffffffffffff1681525050600160035f8673ffffffffffffffffffffffffffffffffffffffff1673ffffffffffffffffffffffffffffffffffffffff1681526020019081526020015f205f6101000a81548160ff0219169083151502179055508373ffffffffffffffffffffffffffffffffffffffff1660e08173ffffffffffffffffffffffffffffffffffffffff16815250508460065f6101000a81548173ffffffffffffffffffffffffffffffffffffffff021916908373ffffffffffffffffffffffffffffffffffffffff1602179055508560075f6101000a81548173ffffffffffffffffffffffffffffffffffffffff021916908373ffffffffffffffffffffffffffffffffffffffff160217905550505050505050506105a5565b5f805f9054906101000a900473ffffffffffffffffffffffffffffffffffffffff169050815f806101000a81548173ffffffffffffffffffffffffffffffffffffffff021916908373ffffffffffffffffffffffffffffffffffffffff1602179055508173ffffffffffffffffffffffffffffffffffffffff168173ffffffffffffffffffffffffffffffffffffffff167f8be0079c531659141344cd1fd0a4f28419497f9722a3daafe3b4186f6b6457e060405160405180910390a35050565b5f80fd5b5f73ffffffffffffffffffffffffffffffffffffffff82169050919050565b5f61040e826103e5565b9050919050565b61041e81610404565b8114610428575f80fd5b50565b5f8151905061043981610415565b92915050565b5f819050919050565b6104518161043f565b811461045b575f80fd5b50565b5f8151905061046c81610448565b92915050565b5f805f805f805f60e0888a03121561048d5761048c6103e1565b5b5f61049a8a828b0161042b565b97505060206104ab8a828b0161042b565b96505060406104bc8a828b0161042b565b95505060606104cd8a828b0161042b565b94505060806104de8a828b0161042b565b93505060a06104ef8a828b0161045e565b92505060c06105008a828b0161045e565b91505092959891949750929550565b61051881610404565b82525050565b5f6020820190506105315f83018461050f565b92915050565b7f4e487b71000000000000000000000000000000000000000000000000000000005f52601160045260245ffd5b5f61056e8261043f565b91506105798361043f565b92508282026105878161043f565b9150828204841483151761059e5761059d610537565b5b5092915050565b60805160a05160c05160e051612ede6106b85f395f8181610c2301528181610c8901528181610d3601528181610e7901528181610f2701528181610f8601528181611038015281816110e4015281816111fc015281816112a301528181611345015281816113f401528181611de70152611f6e01525f818161149e0152818161154b0152818161168e0152818161173c0152818161179b015281816118f5015281816119a101528181611ab901528181611b6001528181611c0201528181611cb101528181611d2201528181611d4c0152611f0b01525f81816106ac0152818161085b01528181610d58015261156d01525f818161050501528181611235015281816118c90152611af20152612ede5ff3fe60806040526004361061012d575f3560e01c8063715018a6116100aa578063d0e30db01161006e578063d0e30db014610413578063db81f99b1461041d578063f2fde38b14610445578063f6687af71461046d578063f688bcfb14610497578063ff40e1d0146104bf5761013e565b8063715018a6146103475780638da5cb5b1461035d57806390b4588b14610387578063a6b6d798146103af578063bcc1760f146103d75761013e565b8063260ad389116100f1578063260ad389146102675780632e1a7d4d146102a3578063535f2d0d146102cb57806356b33537146102f557806366be43621461031d5761013e565b8063029751be1461018557806302d75efc146101c157806306f69acc146101eb578063089781a914610215578063204092501461023f5761013e565b3661013e5761013c33346104e9565b005b348015610149575f80fd5b506040517f336ea14200000000000000000000000000000000000000000000000000000000815260040161017c9061259f565b60405180910390fd5b348015610190575f80fd5b506101ab60048036038101906101a6919061261b565b61064b565b6040516101b89190612660565b60405180910390f35b3480156101cc575f80fd5b506101d5610668565b6040516101e291906126d4565b60405180910390f35b3480156101f6575f80fd5b506101ff61068d565b60405161020c9190612705565b60405180910390f35b348015610220575f80fd5b506102296106aa565b6040516102369190612705565b60405180910390f35b34801561024a575f80fd5b5061026560048036038101906102609190612748565b6106ce565b005b348015610272575f80fd5b5061028d6004803603810190610288919061261b565b610839565b60405161029a9190612705565b60405180910390f35b3480156102ae575f80fd5b506102c960048036038101906102c49190612798565b61084e565b005b3480156102d6575f80fd5b506102df610b02565b6040516102ec91906126d4565b60405180910390f35b348015610300575f80fd5b5061031b600480360381019061031691906127c3565b610b27565b005b348015610328575f80fd5b50610331610c21565b60405161033e9190612821565b60405180910390f35b348015610352575f80fd5b5061035b610c45565b005b348015610368575f80fd5b50610371610c58565b60405161037e9190612849565b60405180910390f35b348015610392575f80fd5b506103ad60048036038101906103a89190612798565b610c7f565b005b3480156103ba575f80fd5b506103d560048036038101906103d09190612798565b61102e565b005b3480156103e2575f80fd5b506103fd60048036038101906103f8919061261b565b611463565b60405161040a9190612705565b60405180910390f35b61041b611478565b005b348015610428575f80fd5b50610443600480360381019061043e9190612798565b611494565b005b348015610450575f80fd5b5061046b6004803603810190610466919061261b565b611843565b005b348015610478575f80fd5b506104816118c7565b60405161048e9190612705565b60405180910390f35b3480156104a2575f80fd5b506104bd60048036038101906104b89190612798565b6118eb565b005b3480156104ca575f80fd5b506104d3611d20565b6040516104e09190612821565b60405180910390f35b805f806104f4611d44565b90505f6105018484611ec5565b90507f00000000000000000000000000000000000000000000000000000000000000008183610530919061288f565b1115610571576040517fa2d2e1b20000000000000000000000000000000000000000000000000000000081526004016105689061290c565b60405180910390fd5b8460025f8073ffffffffffffffffffffffffffffffffffffffff1673ffffffffffffffffffffffffffffffffffffffff1681526020019081526020015f205f8873ffffffffffffffffffffffffffffffffffffffff1673ffffffffffffffffffffffffffffffffffffffff1681526020019081526020015f205f8282546105f8919061288f565b9250508190555061060a60015f612014565b7f7b7cd0ddbbea241880e825e1eb51c30752cb96dd7efeb4be691ec55dfa4d8963868660405161063b92919061292a565b60405180910390a1505050505050565b6003602052805f5260405f205f915054906101000a900460ff1681565b60075f9054906101000a900473ffffffffffffffffffffffffffffffffffffffff1681565b5f6305f5e10061069b611d44565b6106a5919061297e565b905090565b7f000000000000000000000000000000000000000000000000000000000000000081565b6106d66120cc565b5f73ffffffffffffffffffffffffffffffffffffffff168373ffffffffffffffffffffffffffffffffffffffff16036107b7575f8173ffffffffffffffffffffffffffffffffffffffff168360405161072e906129db565b5f6040518083038185875af1925050503d805f8114610768576040519150601f19603f3d011682016040523d82523d5f602084013e61076d565b606091505b50509050806107b1576040517f0fc051740000000000000000000000000000000000000000000000000000000081526004016107a890612a39565b60405180910390fd5b50610834565b8273ffffffffffffffffffffffffffffffffffffffff1663a9059cbb82846040518363ffffffff1660e01b81526004016107f292919061292a565b6020604051808303815f875af115801561080e573d5f803e3d5ffd5b505050506040513d601f19601f820116820180604052508101906108329190612a81565b505b505050565b6004602052805f5260405f205f915090505481565b610856612153565b805f817f000000000000000000000000000000000000000000000000000000000000000010156108bb576040517f0fc051740000000000000000000000000000000000000000000000000000000081526004016108b290612b1c565b60405180910390fd5b8160025f8373ffffffffffffffffffffffffffffffffffffffff1673ffffffffffffffffffffffffffffffffffffffff1681526020019081526020015f205f3373ffffffffffffffffffffffffffffffffffffffff1673ffffffffffffffffffffffffffffffffffffffff1681526020019081526020015f20541015610976576040517fe7fe37fb00000000000000000000000000000000000000000000000000000000815260040161096d90612b84565b60405180910390fd5b8260025f8073ffffffffffffffffffffffffffffffffffffffff1673ffffffffffffffffffffffffffffffffffffffff1681526020019081526020015f205f3373ffffffffffffffffffffffffffffffffffffffff1673ffffffffffffffffffffffffffffffffffffffff1681526020019081526020015f205f8282546109fd9190612ba2565b92505081905550610a0e5f80612014565b5f803373ffffffffffffffffffffffffffffffffffffffff1685604051610a34906129db565b5f6040518083038185875af1925050503d805f8114610a6e576040519150601f19603f3d011682016040523d82523d5f602084013e610a73565b606091505b509150915081610aba57806040517f0fc05174000000000000000000000000000000000000000000000000000000008152600401610ab19190612c35565b60405180910390fd5b7f1ff21e81cff87fccbac096ad565f52cb1b358db04a736a6a137cceb4a287a7023386604051610aeb92919061292a565b60405180910390a150505050610aff612199565b50565b60065f9054906101000a900473ffffffffffffffffffffffffffffffffffffffff1681565b610b2f6120cc565b8160065f6101000a81548173ffffffffffffffffffffffffffffffffffffffff021916908373ffffffffffffffffffffffffffffffffffffffff1602179055507f9cfb764bdd6bf50d8528794e705bc04b200f852af31f00601d8c249e66b386a182604051610b9e9190612849565b60405180910390a18060075f6101000a81548173ffffffffffffffffffffffffffffffffffffffff021916908373ffffffffffffffffffffffffffffffffffffffff1602179055507f9cfb764bdd6bf50d8528794e705bc04b200f852af31f00601d8c249e66b386a181604051610c159190612849565b60405180910390a15050565b7f000000000000000000000000000000000000000000000000000000000000000081565b610c4d6120cc565b610c565f6121a2565b565b5f805f9054906101000a900473ffffffffffffffffffffffffffffffffffffffff16905090565b610c87612153565b7f000000000000000000000000000000000000000000000000000000000000000060035f8273ffffffffffffffffffffffffffffffffffffffff1673ffffffffffffffffffffffffffffffffffffffff1681526020019081526020015f205f9054906101000a900460ff16610d3357806040517fe584a63f000000000000000000000000000000000000000000000000000000008152600401610d2a9190612849565b60405180910390fd5b817f0000000000000000000000000000000000000000000000000000000000000000817f00000000000000000000000000000000000000000000000000000000000000001015610db8576040517f0fc05174000000000000000000000000000000000000000000000000000000008152600401610daf90612b1c565b60405180910390fd5b8160025f8373ffffffffffffffffffffffffffffffffffffffff1673ffffffffffffffffffffffffffffffffffffffff1681526020019081526020015f205f3373ffffffffffffffffffffffffffffffffffffffff1673ffffffffffffffffffffffffffffffffffffffff1681526020019081526020015f20541015610e73576040517fe7fe37fb000000000000000000000000000000000000000000000000000000008152600401610e6a90612b84565b60405180910390fd5b8360025f7f000000000000000000000000000000000000000000000000000000000000000073ffffffffffffffffffffffffffffffffffffffff1673ffffffffffffffffffffffffffffffffffffffff1681526020019081526020015f205f3373ffffffffffffffffffffffffffffffffffffffff1673ffffffffffffffffffffffffffffffffffffffff1681526020019081526020015f205f828254610f1a9190612ba2565b92505081905550610f4b5f7f0000000000000000000000000000000000000000000000000000000000000000612014565b7f1ff21e81cff87fccbac096ad565f52cb1b358db04a736a6a137cceb4a287a7023385604051610f7c92919061292a565b60405180910390a17f000000000000000000000000000000000000000000000000000000000000000073ffffffffffffffffffffffffffffffffffffffff1663a9059cbb33866040518363ffffffff1660e01b8152600401610fdf92919061292a565b6020604051808303815f875af1158015610ffb573d5f803e3d5ffd5b505050506040513d601f19601f8201168201806040525081019061101f9190612a81565b5050505061102b612199565b50565b611036612153565b7f000000000000000000000000000000000000000000000000000000000000000060035f8273ffffffffffffffffffffffffffffffffffffffff1673ffffffffffffffffffffffffffffffffffffffff1681526020019081526020015f205f9054906101000a900460ff166110e257806040517fe584a63f0000000000000000000000000000000000000000000000000000000081526004016110d99190612849565b60405180910390fd5b7f0000000000000000000000000000000000000000000000000000000000000000825f73ffffffffffffffffffffffffffffffffffffffff168273ffffffffffffffffffffffffffffffffffffffff16146111f9575f829050818173ffffffffffffffffffffffffffffffffffffffff1663dd62ed3e33306040518363ffffffff1660e01b8152600401611177929190612c55565b602060405180830381865afa158015611192573d5f803e3d5ffd5b505050506040513d601f19601f820116820180604052508101906111b69190612c90565b10156111f7576040517f336ea1420000000000000000000000000000000000000000000000000000000081526004016111ee90612d2b565b60405180910390fd5b505b837f00000000000000000000000000000000000000000000000000000000000000005f611224611d44565b90505f6112318484611ec5565b90507f00000000000000000000000000000000000000000000000000000000000000008183611260919061288f565b11156112a1576040517fa2d2e1b20000000000000000000000000000000000000000000000000000000081526004016112989061290c565b60405180910390fd5b7f000000000000000000000000000000000000000000000000000000000000000073ffffffffffffffffffffffffffffffffffffffff166323b872dd33308b6040518463ffffffff1660e01b81526004016112fe93929190612d49565b6020604051808303815f875af115801561131a573d5f803e3d5ffd5b505050506040513d601f19601f8201168201806040525081019061133e9190612a81565b508760025f7f000000000000000000000000000000000000000000000000000000000000000073ffffffffffffffffffffffffffffffffffffffff1673ffffffffffffffffffffffffffffffffffffffff1681526020019081526020015f205f3373ffffffffffffffffffffffffffffffffffffffff1673ffffffffffffffffffffffffffffffffffffffff1681526020019081526020015f205f8282546113e6919061288f565b9250508190555061141860017f0000000000000000000000000000000000000000000000000000000000000000612014565b7f7b7cd0ddbbea241880e825e1eb51c30752cb96dd7efeb4be691ec55dfa4d8963338960405161144992919061292a565b60405180910390a150505050505050611460612199565b50565b6005602052805f5260405f205f915090505481565b611480612153565b61148a33346104e9565b611492612199565b565b61149c612153565b7f000000000000000000000000000000000000000000000000000000000000000060035f8273ffffffffffffffffffffffffffffffffffffffff1673ffffffffffffffffffffffffffffffffffffffff1681526020019081526020015f205f9054906101000a900460ff1661154857806040517fe584a63f00000000000000000000000000000000000000000000000000000000815260040161153f9190612849565b60405180910390fd5b817f0000000000000000000000000000000000000000000000000000000000000000817f000000000000000000000000000000000000000000000000000000000000000010156115cd576040517f0fc051740000000000000000000000000000000000000000000000000000000081526004016115c490612b1c565b60405180910390fd5b8160025f8373ffffffffffffffffffffffffffffffffffffffff1673ffffffffffffffffffffffffffffffffffffffff1681526020019081526020015f205f3373ffffffffffffffffffffffffffffffffffffffff1673ffffffffffffffffffffffffffffffffffffffff1681526020019081526020015f20541015611688576040517fe7fe37fb00000000000000000000000000000000000000000000000000000000815260040161167f90612b84565b60405180910390fd5b8360025f7f000000000000000000000000000000000000000000000000000000000000000073ffffffffffffffffffffffffffffffffffffffff1673ffffffffffffffffffffffffffffffffffffffff1681526020019081526020015f205f3373ffffffffffffffffffffffffffffffffffffffff1673ffffffffffffffffffffffffffffffffffffffff1681526020019081526020015f205f82825461172f9190612ba2565b925050819055506117605f7f0000000000000000000000000000000000000000000000000000000000000000612014565b7f1ff21e81cff87fccbac096ad565f52cb1b358db04a736a6a137cceb4a287a702338560405161179192919061292a565b60405180910390a17f000000000000000000000000000000000000000000000000000000000000000073ffffffffffffffffffffffffffffffffffffffff1663a9059cbb33866040518363ffffffff1660e01b81526004016117f492919061292a565b6020604051808303815f875af1158015611810573d5f803e3d5ffd5b505050506040513d601f19601f820116820180604052508101906118349190612a81565b50505050611840612199565b50565b61184b6120cc565b5f73ffffffffffffffffffffffffffffffffffffffff168173ffffffffffffffffffffffffffffffffffffffff16036118bb575f6040517f1e4fbdf70000000000000000000000000000000000000000000000000000000081526004016118b29190612849565b60405180910390fd5b6118c4816121a2565b50565b7f000000000000000000000000000000000000000000000000000000000000000081565b6118f3612153565b7f000000000000000000000000000000000000000000000000000000000000000060035f8273ffffffffffffffffffffffffffffffffffffffff1673ffffffffffffffffffffffffffffffffffffffff1681526020019081526020015f205f9054906101000a900460ff1661199f57806040517fe584a63f0000000000000000000000000000000000000000000000000000000081526004016119969190612849565b60405180910390fd5b7f0000000000000000000000000000000000000000000000000000000000000000825f73ffffffffffffffffffffffffffffffffffffffff168273ffffffffffffffffffffffffffffffffffffffff1614611ab6575f829050818173ffffffffffffffffffffffffffffffffffffffff1663dd62ed3e33306040518363ffffffff1660e01b8152600401611a34929190612c55565b602060405180830381865afa158015611a4f573d5f803e3d5ffd5b505050506040513d601f19601f82011682018060405250810190611a739190612c90565b1015611ab4576040517f336ea142000000000000000000000000000000000000000000000000000000008152600401611aab90612d2b565b60405180910390fd5b505b837f00000000000000000000000000000000000000000000000000000000000000005f611ae1611d44565b90505f611aee8484611ec5565b90507f00000000000000000000000000000000000000000000000000000000000000008183611b1d919061288f565b1115611b5e576040517fa2d2e1b2000000000000000000000000000000000000000000000000000000008152600401611b559061290c565b60405180910390fd5b7f000000000000000000000000000000000000000000000000000000000000000073ffffffffffffffffffffffffffffffffffffffff166323b872dd33308b6040518463ffffffff1660e01b8152600401611bbb93929190612d49565b6020604051808303815f875af1158015611bd7573d5f803e3d5ffd5b505050506040513d601f19601f82011682018060405250810190611bfb9190612a81565b508760025f7f000000000000000000000000000000000000000000000000000000000000000073ffffffffffffffffffffffffffffffffffffffff1673ffffffffffffffffffffffffffffffffffffffff1681526020019081526020015f205f3373ffffffffffffffffffffffffffffffffffffffff1673ffffffffffffffffffffffffffffffffffffffff1681526020019081526020015f205f828254611ca3919061288f565b92505081905550611cd560017f0000000000000000000000000000000000000000000000000000000000000000612014565b7f7b7cd0ddbbea241880e825e1eb51c30752cb96dd7efeb4be691ec55dfa4d89633389604051611d0692919061292a565b60405180910390a150505050505050611d1d612199565b50565b7f000000000000000000000000000000000000000000000000000000000000000081565b5f804790505f7f000000000000000000000000000000000000000000000000000000000000000073ffffffffffffffffffffffffffffffffffffffff166370a08231306040518263ffffffff1660e01b8152600401611da39190612849565b602060405180830381865afa158015611dbe573d5f803e3d5ffd5b505050506040513d601f19601f82011682018060405250810190611de29190612c90565b90505f7f000000000000000000000000000000000000000000000000000000000000000073ffffffffffffffffffffffffffffffffffffffff166370a08231306040518263ffffffff1660e01b8152600401611e3e9190612849565b602060405180830381865afa158015611e59573d5f803e3d5ffd5b505050506040513d601f19601f82011682018060405250810190611e7d9190612c90565b90505f611e8984612263565b90505f611e9584612291565b90505f611ea1846122a6565b9050808284611eb0919061288f565b611eba919061288f565b965050505050505090565b5f8073ffffffffffffffffffffffffffffffffffffffff168273ffffffffffffffffffffffffffffffffffffffff1603611f0957611f0283612263565b905061200e565b7f000000000000000000000000000000000000000000000000000000000000000073ffffffffffffffffffffffffffffffffffffffff168273ffffffffffffffffffffffffffffffffffffffff1603611f6c57611f6583612291565b905061200d565b7f000000000000000000000000000000000000000000000000000000000000000073ffffffffffffffffffffffffffffffffffffffff168273ffffffffffffffffffffffffffffffffffffffff1603611fcf57611fc8836122a6565b905061200c565b816040517fe584a63f0000000000000000000000000000000000000000000000000000000081526004016120039190612849565b60405180910390fd5b5b5b92915050565b811561207357600160045f8373ffffffffffffffffffffffffffffffffffffffff1673ffffffffffffffffffffffffffffffffffffffff1681526020019081526020015f205f828254612067919061288f565b925050819055506120c8565b600160055f8373ffffffffffffffffffffffffffffffffffffffff1673ffffffffffffffffffffffffffffffffffffffff1681526020019081526020015f205f8282546120c0919061288f565b925050819055505b5050565b6120d46122d0565b73ffffffffffffffffffffffffffffffffffffffff166120f2610c58565b73ffffffffffffffffffffffffffffffffffffffff1614612151576121156122d0565b6040517f118cdaa70000000000000000000000000000000000000000000000000000000081526004016121489190612849565b60405180910390fd5b565b60026001540361218f576040517f3ee5aeb500000000000000000000000000000000000000000000000000000000815260040160405180910390fd5b6002600181905550565b60018081905550565b5f805f9054906101000a900473ffffffffffffffffffffffffffffffffffffffff169050815f806101000a81548173ffffffffffffffffffffffffffffffffffffffff021916908373ffffffffffffffffffffffffffffffffffffffff1602179055508173ffffffffffffffffffffffffffffffffffffffff168173ffffffffffffffffffffffffffffffffffffffff167f8be0079c531659141344cd1fd0a4f28419497f9722a3daafe3b4186f6b6457e060405160405180910390a35050565b5f670de0b6b3a76400006122756122d7565b836122809190612d7e565b61228a919061297e565b9050919050565b5f60648261229f9190612d7e565b9050919050565b5f6305f5e1006122b46123fb565b836122bf9190612d7e565b6122c9919061297e565b9050919050565b5f33905090565b5f805f60075f9054906101000a900473ffffffffffffffffffffffffffffffffffffffff1673ffffffffffffffffffffffffffffffffffffffff1663feaf968c6040518163ffffffff1660e01b815260040160a060405180830381865afa158015612344573d5f803e3d5ffd5b505050506040513d601f19601f820116820180604052508101906123689190612e31565b509350509250505f82036123a8576040517f155a843000000000000000000000000000000000000000000000000000000000815260040160405180910390fd5b610e1061ffff1681426123bb9190612ba2565b11156123f3576040517f65d4644700000000000000000000000000000000000000000000000000000000815260040160405180910390fd5b819250505090565b5f805f60065f9054906101000a900473ffffffffffffffffffffffffffffffffffffffff1673ffffffffffffffffffffffffffffffffffffffff1663feaf968c6040518163ffffffff1660e01b815260040160a060405180830381865afa158015612468573d5f803e3d5ffd5b505050506040513d601f19601f8201168201806040525081019061248c9190612e31565b509350509250505f82036124cc576040517f155a843000000000000000000000000000000000000000000000000000000000815260040160405180910390fd5b610e1061ffff1681426124df9190612ba2565b1115612517576040517f65d4644700000000000000000000000000000000000000000000000000000000815260040160405180910390fd5b819250505090565b5f82825260208201905092915050565b7f4f7065726174696f6e20646f6573206e6f7420657869737473206f72206461745f8201527f612077617320696e636f72726563740000000000000000000000000000000000602082015250565b5f612589602f8361251f565b91506125948261252f565b604082019050919050565b5f6020820190508181035f8301526125b68161257d565b9050919050565b5f80fd5b5f73ffffffffffffffffffffffffffffffffffffffff82169050919050565b5f6125ea826125c1565b9050919050565b6125fa816125e0565b8114612604575f80fd5b50565b5f81359050612615816125f1565b92915050565b5f602082840312156126305761262f6125bd565b5b5f61263d84828501612607565b91505092915050565b5f8115159050919050565b61265a81612646565b82525050565b5f6020820190506126735f830184612651565b92915050565b5f819050919050565b5f61269c612697612692846125c1565b612679565b6125c1565b9050919050565b5f6126ad82612682565b9050919050565b5f6126be826126a3565b9050919050565b6126ce816126b4565b82525050565b5f6020820190506126e75f8301846126c5565b92915050565b5f819050919050565b6126ff816126ed565b82525050565b5f6020820190506127185f8301846126f6565b92915050565b612727816126ed565b8114612731575f80fd5b50565b5f813590506127428161271e565b92915050565b5f805f6060848603121561275f5761275e6125bd565b5b5f61276c86828701612607565b935050602061277d86828701612734565b925050604061278e86828701612607565b9150509250925092565b5f602082840312156127ad576127ac6125bd565b5b5f6127ba84828501612734565b91505092915050565b5f80604083850312156127d9576127d86125bd565b5b5f6127e685828601612607565b92505060206127f785828601612607565b9150509250929050565b5f61280b826126a3565b9050919050565b61281b81612801565b82525050565b5f6020820190506128345f830184612812565b92915050565b612843816125e0565b82525050565b5f60208201905061285c5f83018461283a565b92915050565b7f4e487b71000000000000000000000000000000000000000000000000000000005f52601160045260245ffd5b5f612899826126ed565b91506128a4836126ed565b92508282019050808211156128bc576128bb612862565b5b92915050565b7f546f74616c204b69707542616e6b277320666f756e64732065786365656465645f82015250565b5f6128f660208361251f565b9150612901826128c2565b602082019050919050565b5f6020820190508181035f830152612923816128ea565b9050919050565b5f60408201905061293d5f83018561283a565b61294a60208301846126f6565b9392505050565b7f4e487b71000000000000000000000000000000000000000000000000000000005f52601260045260245ffd5b5f612988826126ed565b9150612993836126ed565b9250826129a3576129a2612951565b5b828204905092915050565b5f81905092915050565b50565b5f6129c65f836129ae565b91506129d1826129b8565b5f82019050919050565b5f6129e5826129bb565b9150819050919050565b7f455448207472616e73666572206661696c6564000000000000000000000000005f82015250565b5f612a2360138361251f565b9150612a2e826129ef565b602082019050919050565b5f6020820190508181035f830152612a5081612a17565b9050919050565b612a6081612646565b8114612a6a575f80fd5b50565b5f81519050612a7b81612a57565b92915050565b5f60208284031215612a9657612a956125bd565b5b5f612aa384828501612a6d565b91505092915050565b7f416d6f756e74206578636565647320746865206d6178696d756d2077697468645f8201527f726177616c000000000000000000000000000000000000000000000000000000602082015250565b5f612b0660258361251f565b9150612b1182612aac565b604082019050919050565b5f6020820190508181035f830152612b3381612afa565b9050919050565b7f4e6f7420656e6f75676820666f756e64730000000000000000000000000000005f82015250565b5f612b6e60118361251f565b9150612b7982612b3a565b602082019050919050565b5f6020820190508181035f830152612b9b81612b62565b9050919050565b5f612bac826126ed565b9150612bb7836126ed565b9250828203905081811115612bcf57612bce612862565b5b92915050565b5f81519050919050565b8281835e5f83830152505050565b5f601f19601f8301169050919050565b5f612c0782612bd5565b612c11818561251f565b9350612c21818560208601612bdf565b612c2a81612bed565b840191505092915050565b5f6020820190508181035f830152612c4d8184612bfd565b905092915050565b5f604082019050612c685f83018561283a565b612c75602083018461283a565b9392505050565b5f81519050612c8a8161271e565b92915050565b5f60208284031215612ca557612ca46125bd565b5b5f612cb284828501612c7c565b91505092915050565b7f45524332303a20496e73756666696369656e7420616c6c6f77616e636520666f5f8201527f72207472616e7366657246726f6d000000000000000000000000000000000000602082015250565b5f612d15602e8361251f565b9150612d2082612cbb565b604082019050919050565b5f6020820190508181035f830152612d4281612d09565b9050919050565b5f606082019050612d5c5f83018661283a565b612d69602083018561283a565b612d7660408301846126f6565b949350505050565b5f612d88826126ed565b9150612d93836126ed565b9250828202612da1816126ed565b91508282048414831517612db857612db7612862565b5b5092915050565b5f69ffffffffffffffffffff82169050919050565b612ddd81612dbf565b8114612de7575f80fd5b50565b5f81519050612df881612dd4565b92915050565b5f819050919050565b612e1081612dfe565b8114612e1a575f80fd5b50565b5f81519050612e2b81612e07565b92915050565b5f805f805f60a08688031215612e4a57612e496125bd565b5b5f612e5788828901612dea565b9550506020612e6888828901612e1d565b9450506040612e7988828901612c7c565b9350506060612e8a88828901612c7c565b9250506080612e9b88828901612dea565b915050929550929590935056fea26469706673582212204f987c5cbee2075645e358adfe74236432c0cf3257c27ad7fae3be4bcd8a994a64736f6c634300081a0033",
					"opcodes": "PUSH2 0x100 PUSH1 0x40 MSTORE CALLVALUE DUP1 ISZERO PUSH2 0x10 JUMPI PUSH0 DUP1 REVERT JUMPDEST POP PUSH1 0x40 MLOAD PUSH2 0x3596 CODESIZE SUB DUP1 PUSH2 0x3596 DUP4 CODECOPY DUP2 DUP2 ADD PUSH1 0x40 MSTORE DUP2 ADD SWAP1 PUSH2 0x32 SWAP2 SWAP1 PUSH2 0x472 JUMP JUMPDEST DUP7 PUSH0 PUSH20 0xFFFFFFFFFFFFFFFFFFFFFFFFFFFFFFFFFFFFFFFF AND DUP2 PUSH20 0xFFFFFFFFFFFFFFFFFFFFFFFFFFFFFFFFFFFFFFFF AND SUB PUSH2 0xA3 JUMPI PUSH0 PUSH1 0x40 MLOAD PUSH32 0x1E4FBDF700000000000000000000000000000000000000000000000000000000 DUP2 MSTORE PUSH1 0x4 ADD PUSH2 0x9A SWAP2 SWAP1 PUSH2 0x51E JUMP JUMPDEST PUSH1 0x40 MLOAD DUP1 SWAP2 SUB SWAP1 REVERT JUMPDEST PUSH2 0xB2 DUP2 PUSH2 0x320 PUSH1 0x20 SHL PUSH1 0x20 SHR JUMP JUMPDEST POP PUSH1 0x1 DUP1 DUP2 SWAP1 SSTORE POP PUSH1 0xA DUP3 LT DUP1 PUSH2 0xC9 JUMPI POP PUSH1 0x1 DUP2 LT JUMPDEST ISZERO PUSH2 0xFF JUMPI PUSH1 0x40 MLOAD PUSH31 0x1D65100000000000000000000000000000000000000000000000000000000 DUP2 MSTORE PUSH1 0x4 ADD PUSH1 0x40 MLOAD DUP1 SWAP2 SUB SWAP1 REVERT JUMPDEST PUSH4 0x5F5E100 DUP3 PUSH2 0x10F SWAP2 SWAP1 PUSH2 0x564 JUMP JUMPDEST PUSH1 0x80 DUP2 DUP2 MSTORE POP POP PUSH4 0x5F5E100 DUP2 PUSH2 0x126 SWAP2 SWAP1 PUSH2 0x564 JUMP JUMPDEST PUSH1 0xA0 DUP2 DUP2 MSTORE POP POP PUSH1 0x1 PUSH1 0x3 PUSH0 DUP1 PUSH20 0xFFFFFFFFFFFFFFFFFFFFFFFFFFFFFFFFFFFFFFFF AND PUSH20 0xFFFFFFFFFFFFFFFFFFFFFFFFFFFFFFFFFFFFFFFF AND DUP2 MSTORE PUSH1 0x20 ADD SWAP1 DUP2 MSTORE PUSH1 0x20 ADD PUSH0 KECCAK256 PUSH0 PUSH2 0x100 EXP DUP2 SLOAD DUP2 PUSH1 0xFF MUL NOT AND SWAP1 DUP4 ISZERO ISZERO MUL OR SWAP1 SSTORE POP PUSH1 0x1 PUSH1 0x3 PUSH0 DUP6 PUSH20 0xFFFFFFFFFFFFFFFFFFFFFFFFFFFFFFFFFFFFFFFF AND PUSH20 0xFFFFFFFFFFFFFFFFFFFFFFFFFFFFFFFFFFFFFFFF AND DUP2 MSTORE PUSH1 0x20 ADD SWAP1 DUP2 MSTORE PUSH1 0x20 ADD PUSH0 KECCAK256 PUSH0 PUSH2 0x100 EXP DUP2 SLOAD DUP2 PUSH1 0xFF MUL NOT AND SWAP1 DUP4 ISZERO ISZERO MUL OR SWAP1 SSTORE POP DUP3 PUSH20 0xFFFFFFFFFFFFFFFFFFFFFFFFFFFFFFFFFFFFFFFF AND PUSH1 0xC0 DUP2 PUSH20 0xFFFFFFFFFFFFFFFFFFFFFFFFFFFFFFFFFFFFFFFF AND DUP2 MSTORE POP POP PUSH1 0x1 PUSH1 0x3 PUSH0 DUP7 PUSH20 0xFFFFFFFFFFFFFFFFFFFFFFFFFFFFFFFFFFFFFFFF AND PUSH20 0xFFFFFFFFFFFFFFFFFFFFFFFFFFFFFFFFFFFFFFFF AND DUP2 MSTORE PUSH1 0x20 ADD SWAP1 DUP2 MSTORE PUSH1 0x20 ADD PUSH0 KECCAK256 PUSH0 PUSH2 0x100 EXP DUP2 SLOAD DUP2 PUSH1 0xFF MUL NOT AND SWAP1 DUP4 ISZERO ISZERO MUL OR SWAP1 SSTORE POP DUP4 PUSH20 0xFFFFFFFFFFFFFFFFFFFFFFFFFFFFFFFFFFFFFFFF AND PUSH1 0xE0 DUP2 PUSH20 0xFFFFFFFFFFFFFFFFFFFFFFFFFFFFFFFFFFFFFFFF AND DUP2 MSTORE POP POP DUP5 PUSH1 0x6 PUSH0 PUSH2 0x100 EXP DUP2 SLOAD DUP2 PUSH20 0xFFFFFFFFFFFFFFFFFFFFFFFFFFFFFFFFFFFFFFFF MUL NOT AND SWAP1 DUP4 PUSH20 0xFFFFFFFFFFFFFFFFFFFFFFFFFFFFFFFFFFFFFFFF AND MUL OR SWAP1 SSTORE POP DUP6 PUSH1 0x7 PUSH0 PUSH2 0x100 EXP DUP2 SLOAD DUP2 PUSH20 0xFFFFFFFFFFFFFFFFFFFFFFFFFFFFFFFFFFFFFFFF MUL NOT AND SWAP1 DUP4 PUSH20 0xFFFFFFFFFFFFFFFFFFFFFFFFFFFFFFFFFFFFFFFF AND MUL OR SWAP1 SSTORE POP POP POP POP POP POP POP POP PUSH2 0x5A5 JUMP JUMPDEST PUSH0 DUP1 PUSH0 SWAP1 SLOAD SWAP1 PUSH2 0x100 EXP SWAP1 DIV PUSH20 0xFFFFFFFFFFFFFFFFFFFFFFFFFFFFFFFFFFFFFFFF AND SWAP1 POP DUP2 PUSH0 DUP1 PUSH2 0x100 EXP DUP2 SLOAD DUP2 PUSH20 0xFFFFFFFFFFFFFFFFFFFFFFFFFFFFFFFFFFFFFFFF MUL NOT AND SWAP1 DUP4 PUSH20 0xFFFFFFFFFFFFFFFFFFFFFFFFFFFFFFFFFFFFFFFF AND MUL OR SWAP1 SSTORE POP DUP2 PUSH20 0xFFFFFFFFFFFFFFFFFFFFFFFFFFFFFFFFFFFFFFFF AND DUP2 PUSH20 0xFFFFFFFFFFFFFFFFFFFFFFFFFFFFFFFFFFFFFFFF AND PUSH32 0x8BE0079C531659141344CD1FD0A4F28419497F9722A3DAAFE3B4186F6B6457E0 PUSH1 0x40 MLOAD PUSH1 0x40 MLOAD DUP1 SWAP2 SUB SWAP1 LOG3 POP POP JUMP JUMPDEST PUSH0 DUP1 REVERT JUMPDEST PUSH0 PUSH20 0xFFFFFFFFFFFFFFFFFFFFFFFFFFFFFFFFFFFFFFFF DUP3 AND SWAP1 POP SWAP2 SWAP1 POP JUMP JUMPDEST PUSH0 PUSH2 0x40E DUP3 PUSH2 0x3E5 JUMP JUMPDEST SWAP1 POP SWAP2 SWAP1 POP JUMP JUMPDEST PUSH2 0x41E DUP2 PUSH2 0x404 JUMP JUMPDEST DUP2 EQ PUSH2 0x428 JUMPI PUSH0 DUP1 REVERT JUMPDEST POP JUMP JUMPDEST PUSH0 DUP2 MLOAD SWAP1 POP PUSH2 0x439 DUP2 PUSH2 0x415 JUMP JUMPDEST SWAP3 SWAP2 POP POP JUMP JUMPDEST PUSH0 DUP2 SWAP1 POP SWAP2 SWAP1 POP JUMP JUMPDEST PUSH2 0x451 DUP2 PUSH2 0x43F JUMP JUMPDEST DUP2 EQ PUSH2 0x45B JUMPI PUSH0 DUP1 REVERT JUMPDEST POP JUMP JUMPDEST PUSH0 DUP2 MLOAD SWAP1 POP PUSH2 0x46C DUP2 PUSH2 0x448 JUMP JUMPDEST SWAP3 SWAP2 POP POP JUMP JUMPDEST PUSH0 DUP1 PUSH0 DUP1 PUSH0 DUP1 PUSH0 PUSH1 0xE0 DUP9 DUP11 SUB SLT ISZERO PUSH2 0x48D JUMPI PUSH2 0x48C PUSH2 0x3E1 JUMP JUMPDEST JUMPDEST PUSH0 PUSH2 0x49A DUP11 DUP3 DUP12 ADD PUSH2 0x42B JUMP JUMPDEST SWAP8 POP POP PUSH1 0x20 PUSH2 0x4AB DUP11 DUP3 DUP12 ADD PUSH2 0x42B JUMP JUMPDEST SWAP7 POP POP PUSH1 0x40 PUSH2 0x4BC DUP11 DUP3 DUP12 ADD PUSH2 0x42B JUMP JUMPDEST SWAP6 POP POP PUSH1 0x60 PUSH2 0x4CD DUP11 DUP3 DUP12 ADD PUSH2 0x42B JUMP JUMPDEST SWAP5 POP POP PUSH1 0x80 PUSH2 0x4DE DUP11 DUP3 DUP12 ADD PUSH2 0x42B JUMP JUMPDEST SWAP4 POP POP PUSH1 0xA0 PUSH2 0x4EF DUP11 DUP3 DUP12 ADD PUSH2 0x45E JUMP JUMPDEST SWAP3 POP POP PUSH1 0xC0 PUSH2 0x500 DUP11 DUP3 DUP12 ADD PUSH2 0x45E JUMP JUMPDEST SWAP2 POP POP SWAP3 SWAP6 SWAP9 SWAP2 SWAP5 SWAP8 POP SWAP3 SWAP6 POP JUMP JUMPDEST PUSH2 0x518 DUP2 PUSH2 0x404 JUMP JUMPDEST DUP3 MSTORE POP POP JUMP JUMPDEST PUSH0 PUSH1 0x20 DUP3 ADD SWAP1 POP PUSH2 0x531 PUSH0 DUP4 ADD DUP5 PUSH2 0x50F JUMP JUMPDEST SWAP3 SWAP2 POP POP JUMP JUMPDEST PUSH32 0x4E487B7100000000000000000000000000000000000000000000000000000000 PUSH0 MSTORE PUSH1 0x11 PUSH1 0x4 MSTORE PUSH1 0x24 PUSH0 REVERT JUMPDEST PUSH0 PUSH2 0x56E DUP3 PUSH2 0x43F JUMP JUMPDEST SWAP2 POP PUSH2 0x579 DUP4 PUSH2 0x43F JUMP JUMPDEST SWAP3 POP DUP3 DUP3 MUL PUSH2 0x587 DUP2 PUSH2 0x43F JUMP JUMPDEST SWAP2 POP DUP3 DUP3 DIV DUP5 EQ DUP4 ISZERO OR PUSH2 0x59E JUMPI PUSH2 0x59D PUSH2 0x537 JUMP JUMPDEST JUMPDEST POP SWAP3 SWAP2 POP POP JUMP JUMPDEST PUSH1 0x80 MLOAD PUSH1 0xA0 MLOAD PUSH1 0xC0 MLOAD PUSH1 0xE0 MLOAD PUSH2 0x2EDE PUSH2 0x6B8 PUSH0 CODECOPY PUSH0 DUP2 DUP2 PUSH2 0xC23 ADD MSTORE DUP2 DUP2 PUSH2 0xC89 ADD MSTORE DUP2 DUP2 PUSH2 0xD36 ADD MSTORE DUP2 DUP2 PUSH2 0xE79 ADD MSTORE DUP2 DUP2 PUSH2 0xF27 ADD MSTORE DUP2 DUP2 PUSH2 0xF86 ADD MSTORE DUP2 DUP2 PUSH2 0x1038 ADD MSTORE DUP2 DUP2 PUSH2 0x10E4 ADD MSTORE DUP2 DUP2 PUSH2 0x11FC ADD MSTORE DUP2 DUP2 PUSH2 0x12A3 ADD MSTORE DUP2 DUP2 PUSH2 0x1345 ADD MSTORE DUP2 DUP2 PUSH2 0x13F4 ADD MSTORE DUP2 DUP2 PUSH2 0x1DE7 ADD MSTORE PUSH2 0x1F6E ADD MSTORE PUSH0 DUP2 DUP2 PUSH2 0x149E ADD MSTORE DUP2 DUP2 PUSH2 0x154B ADD MSTORE DUP2 DUP2 PUSH2 0x168E ADD MSTORE DUP2 DUP2 PUSH2 0x173C ADD MSTORE DUP2 DUP2 PUSH2 0x179B ADD MSTORE DUP2 DUP2 PUSH2 0x18F5 ADD MSTORE DUP2 DUP2 PUSH2 0x19A1 ADD MSTORE DUP2 DUP2 PUSH2 0x1AB9 ADD MSTORE DUP2 DUP2 PUSH2 0x1B60 ADD MSTORE DUP2 DUP2 PUSH2 0x1C02 ADD MSTORE DUP2 DUP2 PUSH2 0x1CB1 ADD MSTORE DUP2 DUP2 PUSH2 0x1D22 ADD MSTORE DUP2 DUP2 PUSH2 0x1D4C ADD MSTORE PUSH2 0x1F0B ADD MSTORE PUSH0 DUP2 DUP2 PUSH2 0x6AC ADD MSTORE DUP2 DUP2 PUSH2 0x85B ADD MSTORE DUP2 DUP2 PUSH2 0xD58 ADD MSTORE PUSH2 0x156D ADD MSTORE PUSH0 DUP2 DUP2 PUSH2 0x505 ADD MSTORE DUP2 DUP2 PUSH2 0x1235 ADD MSTORE DUP2 DUP2 PUSH2 0x18C9 ADD MSTORE PUSH2 0x1AF2 ADD MSTORE PUSH2 0x2EDE PUSH0 RETURN INVALID PUSH1 0x80 PUSH1 0x40 MSTORE PUSH1 0x4 CALLDATASIZE LT PUSH2 0x12D JUMPI PUSH0 CALLDATALOAD PUSH1 0xE0 SHR DUP1 PUSH4 0x715018A6 GT PUSH2 0xAA JUMPI DUP1 PUSH4 0xD0E30DB0 GT PUSH2 0x6E JUMPI DUP1 PUSH4 0xD0E30DB0 EQ PUSH2 0x413 JUMPI DUP1 PUSH4 0xDB81F99B EQ PUSH2 0x41D JUMPI DUP1 PUSH4 0xF2FDE38B EQ PUSH2 0x445 JUMPI DUP1 PUSH4 0xF6687AF7 EQ PUSH2 0x46D JUMPI DUP1 PUSH4 0xF688BCFB EQ PUSH2 0x497 JUMPI DUP1 PUSH4 0xFF40E1D0 EQ PUSH2 0x4BF JUMPI PUSH2 0x13E JUMP JUMPDEST DUP1 PUSH4 0x715018A6 EQ PUSH2 0x347 JUMPI DUP1 PUSH4 0x8DA5CB5B EQ PUSH2 0x35D JUMPI DUP1 PUSH4 0x90B4588B EQ PUSH2 0x387 JUMPI DUP1 PUSH4 0xA6B6D798 EQ PUSH2 0x3AF JUMPI DUP1 PUSH4 0xBCC1760F EQ PUSH2 0x3D7 JUMPI PUSH2 0x13E JUMP JUMPDEST DUP1 PUSH4 0x260AD389 GT PUSH2 0xF1 JUMPI DUP1 PUSH4 0x260AD389 EQ PUSH2 0x267 JUMPI DUP1 PUSH4 0x2E1A7D4D EQ PUSH2 0x2A3 JUMPI DUP1 PUSH4 0x535F2D0D EQ PUSH2 0x2CB JUMPI DUP1 PUSH4 0x56B33537 EQ PUSH2 0x2F5 JUMPI DUP1 PUSH4 0x66BE4362 EQ PUSH2 0x31D JUMPI PUSH2 0x13E JUMP JUMPDEST DUP1 PUSH4 0x29751BE EQ PUSH2 0x185 JUMPI DUP1 PUSH4 0x2D75EFC EQ PUSH2 0x1C1 JUMPI DUP1 PUSH4 0x6F69ACC EQ PUSH2 0x1EB JUMPI DUP1 PUSH4 0x89781A9 EQ PUSH2 0x215 JUMPI DUP1 PUSH4 0x20409250 EQ PUSH2 0x23F JUMPI PUSH2 0x13E JUMP JUMPDEST CALLDATASIZE PUSH2 0x13E JUMPI PUSH2 0x13C CALLER CALLVALUE PUSH2 0x4E9 JUMP JUMPDEST STOP JUMPDEST CALLVALUE DUP1 ISZERO PUSH2 0x149 JUMPI PUSH0 DUP1 REVERT JUMPDEST POP PUSH1 0x40 MLOAD PUSH32 0x336EA14200000000000000000000000000000000000000000000000000000000 DUP2 MSTORE PUSH1 0x4 ADD PUSH2 0x17C SWAP1 PUSH2 0x259F JUMP JUMPDEST PUSH1 0x40 MLOAD DUP1 SWAP2 SUB SWAP1 REVERT JUMPDEST CALLVALUE DUP1 ISZERO PUSH2 0x190 JUMPI PUSH0 DUP1 REVERT JUMPDEST POP PUSH2 0x1AB PUSH1 0x4 DUP1 CALLDATASIZE SUB DUP2 ADD SWAP1 PUSH2 0x1A6 SWAP2 SWAP1 PUSH2 0x261B JUMP JUMPDEST PUSH2 0x64B JUMP JUMPDEST PUSH1 0x40 MLOAD PUSH2 0x1B8 SWAP2 SWAP1 PUSH2 0x2660 JUMP JUMPDEST PUSH1 0x40 MLOAD DUP1 SWAP2 SUB SWAP1 RETURN JUMPDEST CALLVALUE DUP1 ISZERO PUSH2 0x1CC JUMPI PUSH0 DUP1 REVERT JUMPDEST POP PUSH2 0x1D5 PUSH2 0x668 JUMP JUMPDEST PUSH1 0x40 MLOAD PUSH2 0x1E2 SWAP2 SWAP1 PUSH2 0x26D4 JUMP JUMPDEST PUSH1 0x40 MLOAD DUP1 SWAP2 SUB SWAP1 RETURN JUMPDEST CALLVALUE DUP1 ISZERO PUSH2 0x1F6 JUMPI PUSH0 DUP1 REVERT JUMPDEST POP PUSH2 0x1FF PUSH2 0x68D JUMP JUMPDEST PUSH1 0x40 MLOAD PUSH2 0x20C SWAP2 SWAP1 PUSH2 0x2705 JUMP JUMPDEST PUSH1 0x40 MLOAD DUP1 SWAP2 SUB SWAP1 RETURN JUMPDEST CALLVALUE DUP1 ISZERO PUSH2 0x220 JUMPI PUSH0 DUP1 REVERT JUMPDEST POP PUSH2 0x229 PUSH2 0x6AA JUMP JUMPDEST PUSH1 0x40 MLOAD PUSH2 0x236 SWAP2 SWAP1 PUSH2 0x2705 JUMP JUMPDEST PUSH1 0x40 MLOAD DUP1 SWAP2 SUB SWAP1 RETURN JUMPDEST CALLVALUE DUP1 ISZERO PUSH2 0x24A JUMPI PUSH0 DUP1 REVERT JUMPDEST POP PUSH2 0x265 PUSH1 0x4 DUP1 CALLDATASIZE SUB DUP2 ADD SWAP1 PUSH2 0x260 SWAP2 SWAP1 PUSH2 0x2748 JUMP JUMPDEST PUSH2 0x6CE JUMP JUMPDEST STOP JUMPDEST CALLVALUE DUP1 ISZERO PUSH2 0x272 JUMPI PUSH0 DUP1 REVERT JUMPDEST POP PUSH2 0x28D PUSH1 0x4 DUP1 CALLDATASIZE SUB DUP2 ADD SWAP1 PUSH2 0x288 SWAP2 SWAP1 PUSH2 0x261B JUMP JUMPDEST PUSH2 0x839 JUMP JUMPDEST PUSH1 0x40 MLOAD PUSH2 0x29A SWAP2 SWAP1 PUSH2 0x2705 JUMP JUMPDEST PUSH1 0x40 MLOAD DUP1 SWAP2 SUB SWAP1 RETURN JUMPDEST CALLVALUE DUP1 ISZERO PUSH2 0x2AE JUMPI PUSH0 DUP1 REVERT JUMPDEST POP PUSH2 0x2C9 PUSH1 0x4 DUP1 CALLDATASIZE SUB DUP2 ADD SWAP1 PUSH2 0x2C4 SWAP2 SWAP1 PUSH2 0x2798 JUMP JUMPDEST PUSH2 0x84E JUMP JUMPDEST STOP JUMPDEST CALLVALUE DUP1 ISZERO PUSH2 0x2D6 JUMPI PUSH0 DUP1 REVERT JUMPDEST POP PUSH2 0x2DF PUSH2 0xB02 JUMP JUMPDEST PUSH1 0x40 MLOAD PUSH2 0x2EC SWAP2 SWAP1 PUSH2 0x26D4 JUMP JUMPDEST PUSH1 0x40 MLOAD DUP1 SWAP2 SUB SWAP1 RETURN JUMPDEST CALLVALUE DUP1 ISZERO PUSH2 0x300 JUMPI PUSH0 DUP1 REVERT JUMPDEST POP PUSH2 0x31B PUSH1 0x4 DUP1 CALLDATASIZE SUB DUP2 ADD SWAP1 PUSH2 0x316 SWAP2 SWAP1 PUSH2 0x27C3 JUMP JUMPDEST PUSH2 0xB27 JUMP JUMPDEST STOP JUMPDEST CALLVALUE DUP1 ISZERO PUSH2 0x328 JUMPI PUSH0 DUP1 REVERT JUMPDEST POP PUSH2 0x331 PUSH2 0xC21 JUMP JUMPDEST PUSH1 0x40 MLOAD PUSH2 0x33E SWAP2 SWAP1 PUSH2 0x2821 JUMP JUMPDEST PUSH1 0x40 MLOAD DUP1 SWAP2 SUB SWAP1 RETURN JUMPDEST CALLVALUE DUP1 ISZERO PUSH2 0x352 JUMPI PUSH0 DUP1 REVERT JUMPDEST POP PUSH2 0x35B PUSH2 0xC45 JUMP JUMPDEST STOP JUMPDEST CALLVALUE DUP1 ISZERO PUSH2 0x368 JUMPI PUSH0 DUP1 REVERT JUMPDEST POP PUSH2 0x371 PUSH2 0xC58 JUMP JUMPDEST PUSH1 0x40 MLOAD PUSH2 0x37E SWAP2 SWAP1 PUSH2 0x2849 JUMP JUMPDEST PUSH1 0x40 MLOAD DUP1 SWAP2 SUB SWAP1 RETURN JUMPDEST CALLVALUE DUP1 ISZERO PUSH2 0x392 JUMPI PUSH0 DUP1 REVERT JUMPDEST POP PUSH2 0x3AD PUSH1 0x4 DUP1 CALLDATASIZE SUB DUP2 ADD SWAP1 PUSH2 0x3A8 SWAP2 SWAP1 PUSH2 0x2798 JUMP JUMPDEST PUSH2 0xC7F JUMP JUMPDEST STOP JUMPDEST CALLVALUE DUP1 ISZERO PUSH2 0x3BA JUMPI PUSH0 DUP1 REVERT JUMPDEST POP PUSH2 0x3D5 PUSH1 0x4 DUP1 CALLDATASIZE SUB DUP2 ADD SWAP1 PUSH2 0x3D0 SWAP2 SWAP1 PUSH2 0x2798 JUMP JUMPDEST PUSH2 0x102E JUMP JUMPDEST STOP JUMPDEST CALLVALUE DUP1 ISZERO PUSH2 0x3E2 JUMPI PUSH0 DUP1 REVERT JUMPDEST POP PUSH2 0x3FD PUSH1 0x4 DUP1 CALLDATASIZE SUB DUP2 ADD SWAP1 PUSH2 0x3F8 SWAP2 SWAP1 PUSH2 0x261B JUMP JUMPDEST PUSH2 0x1463 JUMP JUMPDEST PUSH1 0x40 MLOAD PUSH2 0x40A SWAP2 SWAP1 PUSH2 0x2705 JUMP JUMPDEST PUSH1 0x40 MLOAD DUP1 SWAP2 SUB SWAP1 RETURN JUMPDEST PUSH2 0x41B PUSH2 0x1478 JUMP JUMPDEST STOP JUMPDEST CALLVALUE DUP1 ISZERO PUSH2 0x428 JUMPI PUSH0 DUP1 REVERT JUMPDEST POP PUSH2 0x443 PUSH1 0x4 DUP1 CALLDATASIZE SUB DUP2 ADD SWAP1 PUSH2 0x43E SWAP2 SWAP1 PUSH2 0x2798 JUMP JUMPDEST PUSH2 0x1494 JUMP JUMPDEST STOP JUMPDEST CALLVALUE DUP1 ISZERO PUSH2 0x450 JUMPI PUSH0 DUP1 REVERT JUMPDEST POP PUSH2 0x46B PUSH1 0x4 DUP1 CALLDATASIZE SUB DUP2 ADD SWAP1 PUSH2 0x466 SWAP2 SWAP1 PUSH2 0x261B JUMP JUMPDEST PUSH2 0x1843 JUMP JUMPDEST STOP JUMPDEST CALLVALUE DUP1 ISZERO PUSH2 0x478 JUMPI PUSH0 DUP1 REVERT JUMPDEST POP PUSH2 0x481 PUSH2 0x18C7 JUMP JUMPDEST PUSH1 0x40 MLOAD PUSH2 0x48E SWAP2 SWAP1 PUSH2 0x2705 JUMP JUMPDEST PUSH1 0x40 MLOAD DUP1 SWAP2 SUB SWAP1 RETURN JUMPDEST CALLVALUE DUP1 ISZERO PUSH2 0x4A2 JUMPI PUSH0 DUP1 REVERT JUMPDEST POP PUSH2 0x4BD PUSH1 0x4 DUP1 CALLDATASIZE SUB DUP2 ADD SWAP1 PUSH2 0x4B8 SWAP2 SWAP1 PUSH2 0x2798 JUMP JUMPDEST PUSH2 0x18EB JUMP JUMPDEST STOP JUMPDEST CALLVALUE DUP1 ISZERO PUSH2 0x4CA JUMPI PUSH0 DUP1 REVERT JUMPDEST POP PUSH2 0x4D3 PUSH2 0x1D20 JUMP JUMPDEST PUSH1 0x40 MLOAD PUSH2 0x4E0 SWAP2 SWAP1 PUSH2 0x2821 JUMP JUMPDEST PUSH1 0x40 MLOAD DUP1 SWAP2 SUB SWAP1 RETURN JUMPDEST DUP1 PUSH0 DUP1 PUSH2 0x4F4 PUSH2 0x1D44 JUMP JUMPDEST SWAP1 POP PUSH0 PUSH2 0x501 DUP5 DUP5 PUSH2 0x1EC5 JUMP JUMPDEST SWAP1 POP PUSH32 0x0 DUP2 DUP4 PUSH2 0x530 SWAP2 SWAP1 PUSH2 0x288F JUMP JUMPDEST GT ISZERO PUSH2 0x571 JUMPI PUSH1 0x40 MLOAD PUSH32 0xA2D2E1B200000000000000000000000000000000000000000000000000000000 DUP2 MSTORE PUSH1 0x4 ADD PUSH2 0x568 SWAP1 PUSH2 0x290C JUMP JUMPDEST PUSH1 0x40 MLOAD DUP1 SWAP2 SUB SWAP1 REVERT JUMPDEST DUP5 PUSH1 0x2 PUSH0 DUP1 PUSH20 0xFFFFFFFFFFFFFFFFFFFFFFFFFFFFFFFFFFFFFFFF AND PUSH20 0xFFFFFFFFFFFFFFFFFFFFFFFFFFFFFFFFFFFFFFFF AND DUP2 MSTORE PUSH1 0x20 ADD SWAP1 DUP2 MSTORE PUSH1 0x20 ADD PUSH0 KECCAK256 PUSH0 DUP9 PUSH20 0xFFFFFFFFFFFFFFFFFFFFFFFFFFFFFFFFFFFFFFFF AND PUSH20 0xFFFFFFFFFFFFFFFFFFFFFFFFFFFFFFFFFFFFFFFF AND DUP2 MSTORE PUSH1 0x20 ADD SWAP1 DUP2 MSTORE PUSH1 0x20 ADD PUSH0 KECCAK256 PUSH0 DUP3 DUP3 SLOAD PUSH2 0x5F8 SWAP2 SWAP1 PUSH2 0x288F JUMP JUMPDEST SWAP3 POP POP DUP2 SWAP1 SSTORE POP PUSH2 0x60A PUSH1 0x1 PUSH0 PUSH2 0x2014 JUMP JUMPDEST PUSH32 0x7B7CD0DDBBEA241880E825E1EB51C30752CB96DD7EFEB4BE691EC55DFA4D8963 DUP7 DUP7 PUSH1 0x40 MLOAD PUSH2 0x63B SWAP3 SWAP2 SWAP1 PUSH2 0x292A JUMP JUMPDEST PUSH1 0x40 MLOAD DUP1 SWAP2 SUB SWAP1 LOG1 POP POP POP POP POP POP JUMP JUMPDEST PUSH1 0x3 PUSH1 0x20 MSTORE DUP1 PUSH0 MSTORE PUSH1 0x40 PUSH0 KECCAK256 PUSH0 SWAP2 POP SLOAD SWAP1 PUSH2 0x100 EXP SWAP1 DIV PUSH1 0xFF AND DUP2 JUMP JUMPDEST PUSH1 0x7 PUSH0 SWAP1 SLOAD SWAP1 PUSH2 0x100 EXP SWAP1 DIV PUSH20 0xFFFFFFFFFFFFFFFFFFFFFFFFFFFFFFFFFFFFFFFF AND DUP2 JUMP JUMPDEST PUSH0 PUSH4 0x5F5E100 PUSH2 0x69B PUSH2 0x1D44 JUMP JUMPDEST PUSH2 0x6A5 SWAP2 SWAP1 PUSH2 0x297E JUMP JUMPDEST SWAP1 POP SWAP1 JUMP JUMPDEST PUSH32 0x0 DUP2 JUMP JUMPDEST PUSH2 0x6D6 PUSH2 0x20CC JUMP JUMPDEST PUSH0 PUSH20 0xFFFFFFFFFFFFFFFFFFFFFFFFFFFFFFFFFFFFFFFF AND DUP4 PUSH20 0xFFFFFFFFFFFFFFFFFFFFFFFFFFFFFFFFFFFFFFFF AND SUB PUSH2 0x7B7 JUMPI PUSH0 DUP2 PUSH20 0xFFFFFFFFFFFFFFFFFFFFFFFFFFFFFFFFFFFFFFFF AND DUP4 PUSH1 0x40 MLOAD PUSH2 0x72E SWAP1 PUSH2 0x29DB JUMP JUMPDEST PUSH0 PUSH1 0x40 MLOAD DUP1 DUP4 SUB DUP2 DUP6 DUP8 GAS CALL SWAP3 POP POP POP RETURNDATASIZE DUP1 PUSH0 DUP2 EQ PUSH2 0x768 JUMPI PUSH1 0x40 MLOAD SWAP2 POP PUSH1 0x1F NOT PUSH1 0x3F RETURNDATASIZE ADD AND DUP3 ADD PUSH1 0x40 MSTORE RETURNDATASIZE DUP3 MSTORE RETURNDATASIZE PUSH0 PUSH1 0x20 DUP5 ADD RETURNDATACOPY PUSH2 0x76D JUMP JUMPDEST PUSH1 0x60 SWAP2 POP JUMPDEST POP POP SWAP1 POP DUP1 PUSH2 0x7B1 JUMPI PUSH1 0x40 MLOAD PUSH32 0xFC0517400000000000000000000000000000000000000000000000000000000 DUP2 MSTORE PUSH1 0x4 ADD PUSH2 0x7A8 SWAP1 PUSH2 0x2A39 JUMP JUMPDEST PUSH1 0x40 MLOAD DUP1 SWAP2 SUB SWAP1 REVERT JUMPDEST POP PUSH2 0x834 JUMP JUMPDEST DUP3 PUSH20 0xFFFFFFFFFFFFFFFFFFFFFFFFFFFFFFFFFFFFFFFF AND PUSH4 0xA9059CBB DUP3 DUP5 PUSH1 0x40 MLOAD DUP4 PUSH4 0xFFFFFFFF AND PUSH1 0xE0 SHL DUP2 MSTORE PUSH1 0x4 ADD PUSH2 0x7F2 SWAP3 SWAP2 SWAP1 PUSH2 0x292A JUMP JUMPDEST PUSH1 0x20 PUSH1 0x40 MLOAD DUP1 DUP4 SUB DUP2 PUSH0 DUP8 GAS CALL ISZERO DUP1 ISZERO PUSH2 0x80E JUMPI RETURNDATASIZE PUSH0 DUP1 RETURNDATACOPY RETURNDATASIZE PUSH0 REVERT JUMPDEST POP POP POP POP PUSH1 0x40 MLOAD RETURNDATASIZE PUSH1 0x1F NOT PUSH1 0x1F DUP3 ADD AND DUP3 ADD DUP1 PUSH1 0x40 MSTORE POP DUP2 ADD SWAP1 PUSH2 0x832 SWAP2 SWAP1 PUSH2 0x2A81 JUMP JUMPDEST POP JUMPDEST POP POP POP JUMP JUMPDEST PUSH1 0x4 PUSH1 0x20 MSTORE DUP1 PUSH0 MSTORE PUSH1 0x40 PUSH0 KECCAK256 PUSH0 SWAP2 POP SWAP1 POP SLOAD DUP2 JUMP JUMPDEST PUSH2 0x856 PUSH2 0x2153 JUMP JUMPDEST DUP1 PUSH0 DUP2 PUSH32 0x0 LT ISZERO PUSH2 0x8BB JUMPI PUSH1 0x40 MLOAD PUSH32 0xFC0517400000000000000000000000000000000000000000000000000000000 DUP2 MSTORE PUSH1 0x4 ADD PUSH2 0x8B2 SWAP1 PUSH2 0x2B1C JUMP JUMPDEST PUSH1 0x40 MLOAD DUP1 SWAP2 SUB SWAP1 REVERT JUMPDEST DUP2 PUSH1 0x2 PUSH0 DUP4 PUSH20 0xFFFFFFFFFFFFFFFFFFFFFFFFFFFFFFFFFFFFFFFF AND PUSH20 0xFFFFFFFFFFFFFFFFFFFFFFFFFFFFFFFFFFFFFFFF AND DUP2 MSTORE PUSH1 0x20 ADD SWAP1 DUP2 MSTORE PUSH1 0x20 ADD PUSH0 KECCAK256 PUSH0 CALLER PUSH20 0xFFFFFFFFFFFFFFFFFFFFFFFFFFFFFFFFFFFFFFFF AND PUSH20 0xFFFFFFFFFFFFFFFFFFFFFFFFFFFFFFFFFFFFFFFF AND DUP2 MSTORE PUSH1 0x20 ADD SWAP1 DUP2 MSTORE PUSH1 0x20 ADD PUSH0 KECCAK256 SLOAD LT ISZERO PUSH2 0x976 JUMPI PUSH1 0x40 MLOAD PUSH32 0xE7FE37FB00000000000000000000000000000000000000000000000000000000 DUP2 MSTORE PUSH1 0x4 ADD PUSH2 0x96D SWAP1 PUSH2 0x2B84 JUMP JUMPDEST PUSH1 0x40 MLOAD DUP1 SWAP2 SUB SWAP1 REVERT JUMPDEST DUP3 PUSH1 0x2 PUSH0 DUP1 PUSH20 0xFFFFFFFFFFFFFFFFFFFFFFFFFFFFFFFFFFFFFFFF AND PUSH20 0xFFFFFFFFFFFFFFFFFFFFFFFFFFFFFFFFFFFFFFFF AND DUP2 MSTORE PUSH1 0x20 ADD SWAP1 DUP2 MSTORE PUSH1 0x20 ADD PUSH0 KECCAK256 PUSH0 CALLER PUSH20 0xFFFFFFFFFFFFFFFFFFFFFFFFFFFFFFFFFFFFFFFF AND PUSH20 0xFFFFFFFFFFFFFFFFFFFFFFFFFFFFFFFFFFFFFFFF AND DUP2 MSTORE PUSH1 0x20 ADD SWAP1 DUP2 MSTORE PUSH1 0x20 ADD PUSH0 KECCAK256 PUSH0 DUP3 DUP3 SLOAD PUSH2 0x9FD SWAP2 SWAP1 PUSH2 0x2BA2 JUMP JUMPDEST SWAP3 POP POP DUP2 SWAP1 SSTORE POP PUSH2 0xA0E PUSH0 DUP1 PUSH2 0x2014 JUMP JUMPDEST PUSH0 DUP1 CALLER PUSH20 0xFFFFFFFFFFFFFFFFFFFFFFFFFFFFFFFFFFFFFFFF AND DUP6 PUSH1 0x40 MLOAD PUSH2 0xA34 SWAP1 PUSH2 0x29DB JUMP JUMPDEST PUSH0 PUSH1 0x40 MLOAD DUP1 DUP4 SUB DUP2 DUP6 DUP8 GAS CALL SWAP3 POP POP POP RETURNDATASIZE DUP1 PUSH0 DUP2 EQ PUSH2 0xA6E JUMPI PUSH1 0x40 MLOAD SWAP2 POP PUSH1 0x1F NOT PUSH1 0x3F RETURNDATASIZE ADD AND DUP3 ADD PUSH1 0x40 MSTORE RETURNDATASIZE DUP3 MSTORE RETURNDATASIZE PUSH0 PUSH1 0x20 DUP5 ADD RETURNDATACOPY PUSH2 0xA73 JUMP JUMPDEST PUSH1 0x60 SWAP2 POP JUMPDEST POP SWAP2 POP SWAP2 POP DUP2 PUSH2 0xABA JUMPI DUP1 PUSH1 0x40 MLOAD PUSH32 0xFC0517400000000000000000000000000000000000000000000000000000000 DUP2 MSTORE PUSH1 0x4 ADD PUSH2 0xAB1 SWAP2 SWAP1 PUSH2 0x2C35 JUMP JUMPDEST PUSH1 0x40 MLOAD DUP1 SWAP2 SUB SWAP1 REVERT JUMPDEST PUSH32 0x1FF21E81CFF87FCCBAC096AD565F52CB1B358DB04A736A6A137CCEB4A287A702 CALLER DUP7 PUSH1 0x40 MLOAD PUSH2 0xAEB SWAP3 SWAP2 SWAP1 PUSH2 0x292A JUMP JUMPDEST PUSH1 0x40 MLOAD DUP1 SWAP2 SUB SWAP1 LOG1 POP POP POP POP PUSH2 0xAFF PUSH2 0x2199 JUMP JUMPDEST POP JUMP JUMPDEST PUSH1 0x6 PUSH0 SWAP1 SLOAD SWAP1 PUSH2 0x100 EXP SWAP1 DIV PUSH20 0xFFFFFFFFFFFFFFFFFFFFFFFFFFFFFFFFFFFFFFFF AND DUP2 JUMP JUMPDEST PUSH2 0xB2F PUSH2 0x20CC JUMP JUMPDEST DUP2 PUSH1 0x6 PUSH0 PUSH2 0x100 EXP DUP2 SLOAD DUP2 PUSH20 0xFFFFFFFFFFFFFFFFFFFFFFFFFFFFFFFFFFFFFFFF MUL NOT AND SWAP1 DUP4 PUSH20 0xFFFFFFFFFFFFFFFFFFFFFFFFFFFFFFFFFFFFFFFF AND MUL OR SWAP1 SSTORE POP PUSH32 0x9CFB764BDD6BF50D8528794E705BC04B200F852AF31F00601D8C249E66B386A1 DUP3 PUSH1 0x40 MLOAD PUSH2 0xB9E SWAP2 SWAP1 PUSH2 0x2849 JUMP JUMPDEST PUSH1 0x40 MLOAD DUP1 SWAP2 SUB SWAP1 LOG1 DUP1 PUSH1 0x7 PUSH0 PUSH2 0x100 EXP DUP2 SLOAD DUP2 PUSH20 0xFFFFFFFFFFFFFFFFFFFFFFFFFFFFFFFFFFFFFFFF MUL NOT AND SWAP1 DUP4 PUSH20 0xFFFFFFFFFFFFFFFFFFFFFFFFFFFFFFFFFFFFFFFF AND MUL OR SWAP1 SSTORE POP PUSH32 0x9CFB764BDD6BF50D8528794E705BC04B200F852AF31F00601D8C249E66B386A1 DUP2 PUSH1 0x40 MLOAD PUSH2 0xC15 SWAP2 SWAP1 PUSH2 0x2849 JUMP JUMPDEST PUSH1 0x40 MLOAD DUP1 SWAP2 SUB SWAP1 LOG1 POP POP JUMP JUMPDEST PUSH32 0x0 DUP2 JUMP JUMPDEST PUSH2 0xC4D PUSH2 0x20CC JUMP JUMPDEST PUSH2 0xC56 PUSH0 PUSH2 0x21A2 JUMP JUMPDEST JUMP JUMPDEST PUSH0 DUP1 PUSH0 SWAP1 SLOAD SWAP1 PUSH2 0x100 EXP SWAP1 DIV PUSH20 0xFFFFFFFFFFFFFFFFFFFFFFFFFFFFFFFFFFFFFFFF AND SWAP1 POP SWAP1 JUMP JUMPDEST PUSH2 0xC87 PUSH2 0x2153 JUMP JUMPDEST PUSH32 0x0 PUSH1 0x3 PUSH0 DUP3 PUSH20 0xFFFFFFFFFFFFFFFFFFFFFFFFFFFFFFFFFFFFFFFF AND PUSH20 0xFFFFFFFFFFFFFFFFFFFFFFFFFFFFFFFFFFFFFFFF AND DUP2 MSTORE PUSH1 0x20 ADD SWAP1 DUP2 MSTORE PUSH1 0x20 ADD PUSH0 KECCAK256 PUSH0 SWAP1 SLOAD SWAP1 PUSH2 0x100 EXP SWAP1 DIV PUSH1 0xFF AND PUSH2 0xD33 JUMPI DUP1 PUSH1 0x40 MLOAD PUSH32 0xE584A63F00000000000000000000000000000000000000000000000000000000 DUP2 MSTORE PUSH1 0x4 ADD PUSH2 0xD2A SWAP2 SWAP1 PUSH2 0x2849 JUMP JUMPDEST PUSH1 0x40 MLOAD DUP1 SWAP2 SUB SWAP1 REVERT JUMPDEST DUP2 PUSH32 0x0 DUP2 PUSH32 0x0 LT ISZERO PUSH2 0xDB8 JUMPI PUSH1 0x40 MLOAD PUSH32 0xFC0517400000000000000000000000000000000000000000000000000000000 DUP2 MSTORE PUSH1 0x4 ADD PUSH2 0xDAF SWAP1 PUSH2 0x2B1C JUMP JUMPDEST PUSH1 0x40 MLOAD DUP1 SWAP2 SUB SWAP1 REVERT JUMPDEST DUP2 PUSH1 0x2 PUSH0 DUP4 PUSH20 0xFFFFFFFFFFFFFFFFFFFFFFFFFFFFFFFFFFFFFFFF AND PUSH20 0xFFFFFFFFFFFFFFFFFFFFFFFFFFFFFFFFFFFFFFFF AND DUP2 MSTORE PUSH1 0x20 ADD SWAP1 DUP2 MSTORE PUSH1 0x20 ADD PUSH0 KECCAK256 PUSH0 CALLER PUSH20 0xFFFFFFFFFFFFFFFFFFFFFFFFFFFFFFFFFFFFFFFF AND PUSH20 0xFFFFFFFFFFFFFFFFFFFFFFFFFFFFFFFFFFFFFFFF AND DUP2 MSTORE PUSH1 0x20 ADD SWAP1 DUP2 MSTORE PUSH1 0x20 ADD PUSH0 KECCAK256 SLOAD LT ISZERO PUSH2 0xE73 JUMPI PUSH1 0x40 MLOAD PUSH32 0xE7FE37FB00000000000000000000000000000000000000000000000000000000 DUP2 MSTORE PUSH1 0x4 ADD PUSH2 0xE6A SWAP1 PUSH2 0x2B84 JUMP JUMPDEST PUSH1 0x40 MLOAD DUP1 SWAP2 SUB SWAP1 REVERT JUMPDEST DUP4 PUSH1 0x2 PUSH0 PUSH32 0x0 PUSH20 0xFFFFFFFFFFFFFFFFFFFFFFFFFFFFFFFFFFFFFFFF AND PUSH20 0xFFFFFFFFFFFFFFFFFFFFFFFFFFFFFFFFFFFFFFFF AND DUP2 MSTORE PUSH1 0x20 ADD SWAP1 DUP2 MSTORE PUSH1 0x20 ADD PUSH0 KECCAK256 PUSH0 CALLER PUSH20 0xFFFFFFFFFFFFFFFFFFFFFFFFFFFFFFFFFFFFFFFF AND PUSH20 0xFFFFFFFFFFFFFFFFFFFFFFFFFFFFFFFFFFFFFFFF AND DUP2 MSTORE PUSH1 0x20 ADD SWAP1 DUP2 MSTORE PUSH1 0x20 ADD PUSH0 KECCAK256 PUSH0 DUP3 DUP3 SLOAD PUSH2 0xF1A SWAP2 SWAP1 PUSH2 0x2BA2 JUMP JUMPDEST SWAP3 POP POP DUP2 SWAP1 SSTORE POP PUSH2 0xF4B PUSH0 PUSH32 0x0 PUSH2 0x2014 JUMP JUMPDEST PUSH32 0x1FF21E81CFF87FCCBAC096AD565F52CB1B358DB04A736A6A137CCEB4A287A702 CALLER DUP6 PUSH1 0x40 MLOAD PUSH2 0xF7C SWAP3 SWAP2 SWAP1 PUSH2 0x292A JUMP JUMPDEST PUSH1 0x40 MLOAD DUP1 SWAP2 SUB SWAP1 LOG1 PUSH32 0x0 PUSH20 0xFFFFFFFFFFFFFFFFFFFFFFFFFFFFFFFFFFFFFFFF AND PUSH4 0xA9059CBB CALLER DUP7 PUSH1 0x40 MLOAD DUP4 PUSH4 0xFFFFFFFF AND PUSH1 0xE0 SHL DUP2 MSTORE PUSH1 0x4 ADD PUSH2 0xFDF SWAP3 SWAP2 SWAP1 PUSH2 0x292A JUMP JUMPDEST PUSH1 0x20 PUSH1 0x40 MLOAD DUP1 DUP4 SUB DUP2 PUSH0 DUP8 GAS CALL ISZERO DUP1 ISZERO PUSH2 0xFFB JUMPI RETURNDATASIZE PUSH0 DUP1 RETURNDATACOPY RETURNDATASIZE PUSH0 REVERT JUMPDEST POP POP POP POP PUSH1 0x40 MLOAD RETURNDATASIZE PUSH1 0x1F NOT PUSH1 0x1F DUP3 ADD AND DUP3 ADD DUP1 PUSH1 0x40 MSTORE POP DUP2 ADD SWAP1 PUSH2 0x101F SWAP2 SWAP1 PUSH2 0x2A81 JUMP JUMPDEST POP POP POP POP PUSH2 0x102B PUSH2 0x2199 JUMP JUMPDEST POP JUMP JUMPDEST PUSH2 0x1036 PUSH2 0x2153 JUMP JUMPDEST PUSH32 0x0 PUSH1 0x3 PUSH0 DUP3 PUSH20 0xFFFFFFFFFFFFFFFFFFFFFFFFFFFFFFFFFFFFFFFF AND PUSH20 0xFFFFFFFFFFFFFFFFFFFFFFFFFFFFFFFFFFFFFFFF AND DUP2 MSTORE PUSH1 0x20 ADD SWAP1 DUP2 MSTORE PUSH1 0x20 ADD PUSH0 KECCAK256 PUSH0 SWAP1 SLOAD SWAP1 PUSH2 0x100 EXP SWAP1 DIV PUSH1 0xFF AND PUSH2 0x10E2 JUMPI DUP1 PUSH1 0x40 MLOAD PUSH32 0xE584A63F00000000000000000000000000000000000000000000000000000000 DUP2 MSTORE PUSH1 0x4 ADD PUSH2 0x10D9 SWAP2 SWAP1 PUSH2 0x2849 JUMP JUMPDEST PUSH1 0x40 MLOAD DUP1 SWAP2 SUB SWAP1 REVERT JUMPDEST PUSH32 0x0 DUP3 PUSH0 PUSH20 0xFFFFFFFFFFFFFFFFFFFFFFFFFFFFFFFFFFFFFFFF AND DUP3 PUSH20 0xFFFFFFFFFFFFFFFFFFFFFFFFFFFFFFFFFFFFFFFF AND EQ PUSH2 0x11F9 JUMPI PUSH0 DUP3 SWAP1 POP DUP2 DUP2 PUSH20 0xFFFFFFFFFFFFFFFFFFFFFFFFFFFFFFFFFFFFFFFF AND PUSH4 0xDD62ED3E CALLER ADDRESS PUSH1 0x40 MLOAD DUP4 PUSH4 0xFFFFFFFF AND PUSH1 0xE0 SHL DUP2 MSTORE PUSH1 0x4 ADD PUSH2 0x1177 SWAP3 SWAP2 SWAP1 PUSH2 0x2C55 JUMP JUMPDEST PUSH1 0x20 PUSH1 0x40 MLOAD DUP1 DUP4 SUB DUP2 DUP7 GAS STATICCALL ISZERO DUP1 ISZERO PUSH2 0x1192 JUMPI RETURNDATASIZE PUSH0 DUP1 RETURNDATACOPY RETURNDATASIZE PUSH0 REVERT JUMPDEST POP POP POP POP PUSH1 0x40 MLOAD RETURNDATASIZE PUSH1 0x1F NOT PUSH1 0x1F DUP3 ADD AND DUP3 ADD DUP1 PUSH1 0x40 MSTORE POP DUP2 ADD SWAP1 PUSH2 0x11B6 SWAP2 SWAP1 PUSH2 0x2C90 JUMP JUMPDEST LT ISZERO PUSH2 0x11F7 JUMPI PUSH1 0x40 MLOAD PUSH32 0x336EA14200000000000000000000000000000000000000000000000000000000 DUP2 MSTORE PUSH1 0x4 ADD PUSH2 0x11EE SWAP1 PUSH2 0x2D2B JUMP JUMPDEST PUSH1 0x40 MLOAD DUP1 SWAP2 SUB SWAP1 REVERT JUMPDEST POP JUMPDEST DUP4 PUSH32 0x0 PUSH0 PUSH2 0x1224 PUSH2 0x1D44 JUMP JUMPDEST SWAP1 POP PUSH0 PUSH2 0x1231 DUP5 DUP5 PUSH2 0x1EC5 JUMP JUMPDEST SWAP1 POP PUSH32 0x0 DUP2 DUP4 PUSH2 0x1260 SWAP2 SWAP1 PUSH2 0x288F JUMP JUMPDEST GT ISZERO PUSH2 0x12A1 JUMPI PUSH1 0x40 MLOAD PUSH32 0xA2D2E1B200000000000000000000000000000000000000000000000000000000 DUP2 MSTORE PUSH1 0x4 ADD PUSH2 0x1298 SWAP1 PUSH2 0x290C JUMP JUMPDEST PUSH1 0x40 MLOAD DUP1 SWAP2 SUB SWAP1 REVERT JUMPDEST PUSH32 0x0 PUSH20 0xFFFFFFFFFFFFFFFFFFFFFFFFFFFFFFFFFFFFFFFF AND PUSH4 0x23B872DD CALLER ADDRESS DUP12 PUSH1 0x40 MLOAD DUP5 PUSH4 0xFFFFFFFF AND PUSH1 0xE0 SHL DUP2 MSTORE PUSH1 0x4 ADD PUSH2 0x12FE SWAP4 SWAP3 SWAP2 SWAP1 PUSH2 0x2D49 JUMP JUMPDEST PUSH1 0x20 PUSH1 0x40 MLOAD DUP1 DUP4 SUB DUP2 PUSH0 DUP8 GAS CALL ISZERO DUP1 ISZERO PUSH2 0x131A JUMPI RETURNDATASIZE PUSH0 DUP1 RETURNDATACOPY RETURNDATASIZE PUSH0 REVERT JUMPDEST POP POP POP POP PUSH1 0x40 MLOAD RETURNDATASIZE PUSH1 0x1F NOT PUSH1 0x1F DUP3 ADD AND DUP3 ADD DUP1 PUSH1 0x40 MSTORE POP DUP2 ADD SWAP1 PUSH2 0x133E SWAP2 SWAP1 PUSH2 0x2A81 JUMP JUMPDEST POP DUP8 PUSH1 0x2 PUSH0 PUSH32 0x0 PUSH20 0xFFFFFFFFFFFFFFFFFFFFFFFFFFFFFFFFFFFFFFFF AND PUSH20 0xFFFFFFFFFFFFFFFFFFFFFFFFFFFFFFFFFFFFFFFF AND DUP2 MSTORE PUSH1 0x20 ADD SWAP1 DUP2 MSTORE PUSH1 0x20 ADD PUSH0 KECCAK256 PUSH0 CALLER PUSH20 0xFFFFFFFFFFFFFFFFFFFFFFFFFFFFFFFFFFFFFFFF AND PUSH20 0xFFFFFFFFFFFFFFFFFFFFFFFFFFFFFFFFFFFFFFFF AND DUP2 MSTORE PUSH1 0x20 ADD SWAP1 DUP2 MSTORE PUSH1 0x20 ADD PUSH0 KECCAK256 PUSH0 DUP3 DUP3 SLOAD PUSH2 0x13E6 SWAP2 SWAP1 PUSH2 0x288F JUMP JUMPDEST SWAP3 POP POP DUP2 SWAP1 SSTORE POP PUSH2 0x1418 PUSH1 0x1 PUSH32 0x0 PUSH2 0x2014 JUMP JUMPDEST PUSH32 0x7B7CD0DDBBEA241880E825E1EB51C30752CB96DD7EFEB4BE691EC55DFA4D8963 CALLER DUP10 PUSH1 0x40 MLOAD PUSH2 0x1449 SWAP3 SWAP2 SWAP1 PUSH2 0x292A JUMP JUMPDEST PUSH1 0x40 MLOAD DUP1 SWAP2 SUB SWAP1 LOG1 POP POP POP POP POP POP POP PUSH2 0x1460 PUSH2 0x2199 JUMP JUMPDEST POP JUMP JUMPDEST PUSH1 0x5 PUSH1 0x20 MSTORE DUP1 PUSH0 MSTORE PUSH1 0x40 PUSH0 KECCAK256 PUSH0 SWAP2 POP SWAP1 POP SLOAD DUP2 JUMP JUMPDEST PUSH2 0x1480 PUSH2 0x2153 JUMP JUMPDEST PUSH2 0x148A CALLER CALLVALUE PUSH2 0x4E9 JUMP JUMPDEST PUSH2 0x1492 PUSH2 0x2199 JUMP JUMPDEST JUMP JUMPDEST PUSH2 0x149C PUSH2 0x2153 JUMP JUMPDEST PUSH32 0x0 PUSH1 0x3 PUSH0 DUP3 PUSH20 0xFFFFFFFFFFFFFFFFFFFFFFFFFFFFFFFFFFFFFFFF AND PUSH20 0xFFFFFFFFFFFFFFFFFFFFFFFFFFFFFFFFFFFFFFFF AND DUP2 MSTORE PUSH1 0x20 ADD SWAP1 DUP2 MSTORE PUSH1 0x20 ADD PUSH0 KECCAK256 PUSH0 SWAP1 SLOAD SWAP1 PUSH2 0x100 EXP SWAP1 DIV PUSH1 0xFF AND PUSH2 0x1548 JUMPI DUP1 PUSH1 0x40 MLOAD PUSH32 0xE584A63F00000000000000000000000000000000000000000000000000000000 DUP2 MSTORE PUSH1 0x4 ADD PUSH2 0x153F SWAP2 SWAP1 PUSH2 0x2849 JUMP JUMPDEST PUSH1 0x40 MLOAD DUP1 SWAP2 SUB SWAP1 REVERT JUMPDEST DUP2 PUSH32 0x0 DUP2 PUSH32 0x0 LT ISZERO PUSH2 0x15CD JUMPI PUSH1 0x40 MLOAD PUSH32 0xFC0517400000000000000000000000000000000000000000000000000000000 DUP2 MSTORE PUSH1 0x4 ADD PUSH2 0x15C4 SWAP1 PUSH2 0x2B1C JUMP JUMPDEST PUSH1 0x40 MLOAD DUP1 SWAP2 SUB SWAP1 REVERT JUMPDEST DUP2 PUSH1 0x2 PUSH0 DUP4 PUSH20 0xFFFFFFFFFFFFFFFFFFFFFFFFFFFFFFFFFFFFFFFF AND PUSH20 0xFFFFFFFFFFFFFFFFFFFFFFFFFFFFFFFFFFFFFFFF AND DUP2 MSTORE PUSH1 0x20 ADD SWAP1 DUP2 MSTORE PUSH1 0x20 ADD PUSH0 KECCAK256 PUSH0 CALLER PUSH20 0xFFFFFFFFFFFFFFFFFFFFFFFFFFFFFFFFFFFFFFFF AND PUSH20 0xFFFFFFFFFFFFFFFFFFFFFFFFFFFFFFFFFFFFFFFF AND DUP2 MSTORE PUSH1 0x20 ADD SWAP1 DUP2 MSTORE PUSH1 0x20 ADD PUSH0 KECCAK256 SLOAD LT ISZERO PUSH2 0x1688 JUMPI PUSH1 0x40 MLOAD PUSH32 0xE7FE37FB00000000000000000000000000000000000000000000000000000000 DUP2 MSTORE PUSH1 0x4 ADD PUSH2 0x167F SWAP1 PUSH2 0x2B84 JUMP JUMPDEST PUSH1 0x40 MLOAD DUP1 SWAP2 SUB SWAP1 REVERT JUMPDEST DUP4 PUSH1 0x2 PUSH0 PUSH32 0x0 PUSH20 0xFFFFFFFFFFFFFFFFFFFFFFFFFFFFFFFFFFFFFFFF AND PUSH20 0xFFFFFFFFFFFFFFFFFFFFFFFFFFFFFFFFFFFFFFFF AND DUP2 MSTORE PUSH1 0x20 ADD SWAP1 DUP2 MSTORE PUSH1 0x20 ADD PUSH0 KECCAK256 PUSH0 CALLER PUSH20 0xFFFFFFFFFFFFFFFFFFFFFFFFFFFFFFFFFFFFFFFF AND PUSH20 0xFFFFFFFFFFFFFFFFFFFFFFFFFFFFFFFFFFFFFFFF AND DUP2 MSTORE PUSH1 0x20 ADD SWAP1 DUP2 MSTORE PUSH1 0x20 ADD PUSH0 KECCAK256 PUSH0 DUP3 DUP3 SLOAD PUSH2 0x172F SWAP2 SWAP1 PUSH2 0x2BA2 JUMP JUMPDEST SWAP3 POP POP DUP2 SWAP1 SSTORE POP PUSH2 0x1760 PUSH0 PUSH32 0x0 PUSH2 0x2014 JUMP JUMPDEST PUSH32 0x1FF21E81CFF87FCCBAC096AD565F52CB1B358DB04A736A6A137CCEB4A287A702 CALLER DUP6 PUSH1 0x40 MLOAD PUSH2 0x1791 SWAP3 SWAP2 SWAP1 PUSH2 0x292A JUMP JUMPDEST PUSH1 0x40 MLOAD DUP1 SWAP2 SUB SWAP1 LOG1 PUSH32 0x0 PUSH20 0xFFFFFFFFFFFFFFFFFFFFFFFFFFFFFFFFFFFFFFFF AND PUSH4 0xA9059CBB CALLER DUP7 PUSH1 0x40 MLOAD DUP4 PUSH4 0xFFFFFFFF AND PUSH1 0xE0 SHL DUP2 MSTORE PUSH1 0x4 ADD PUSH2 0x17F4 SWAP3 SWAP2 SWAP1 PUSH2 0x292A JUMP JUMPDEST PUSH1 0x20 PUSH1 0x40 MLOAD DUP1 DUP4 SUB DUP2 PUSH0 DUP8 GAS CALL ISZERO DUP1 ISZERO PUSH2 0x1810 JUMPI RETURNDATASIZE PUSH0 DUP1 RETURNDATACOPY RETURNDATASIZE PUSH0 REVERT JUMPDEST POP POP POP POP PUSH1 0x40 MLOAD RETURNDATASIZE PUSH1 0x1F NOT PUSH1 0x1F DUP3 ADD AND DUP3 ADD DUP1 PUSH1 0x40 MSTORE POP DUP2 ADD SWAP1 PUSH2 0x1834 SWAP2 SWAP1 PUSH2 0x2A81 JUMP JUMPDEST POP POP POP POP PUSH2 0x1840 PUSH2 0x2199 JUMP JUMPDEST POP JUMP JUMPDEST PUSH2 0x184B PUSH2 0x20CC JUMP JUMPDEST PUSH0 PUSH20 0xFFFFFFFFFFFFFFFFFFFFFFFFFFFFFFFFFFFFFFFF AND DUP2 PUSH20 0xFFFFFFFFFFFFFFFFFFFFFFFFFFFFFFFFFFFFFFFF AND SUB PUSH2 0x18BB JUMPI PUSH0 PUSH1 0x40 MLOAD PUSH32 0x1E4FBDF700000000000000000000000000000000000000000000000000000000 DUP2 MSTORE PUSH1 0x4 ADD PUSH2 0x18B2 SWAP2 SWAP1 PUSH2 0x2849 JUMP JUMPDEST PUSH1 0x40 MLOAD DUP1 SWAP2 SUB SWAP1 REVERT JUMPDEST PUSH2 0x18C4 DUP2 PUSH2 0x21A2 JUMP JUMPDEST POP JUMP JUMPDEST PUSH32 0x0 DUP2 JUMP JUMPDEST PUSH2 0x18F3 PUSH2 0x2153 JUMP JUMPDEST PUSH32 0x0 PUSH1 0x3 PUSH0 DUP3 PUSH20 0xFFFFFFFFFFFFFFFFFFFFFFFFFFFFFFFFFFFFFFFF AND PUSH20 0xFFFFFFFFFFFFFFFFFFFFFFFFFFFFFFFFFFFFFFFF AND DUP2 MSTORE PUSH1 0x20 ADD SWAP1 DUP2 MSTORE PUSH1 0x20 ADD PUSH0 KECCAK256 PUSH0 SWAP1 SLOAD SWAP1 PUSH2 0x100 EXP SWAP1 DIV PUSH1 0xFF AND PUSH2 0x199F JUMPI DUP1 PUSH1 0x40 MLOAD PUSH32 0xE584A63F00000000000000000000000000000000000000000000000000000000 DUP2 MSTORE PUSH1 0x4 ADD PUSH2 0x1996 SWAP2 SWAP1 PUSH2 0x2849 JUMP JUMPDEST PUSH1 0x40 MLOAD DUP1 SWAP2 SUB SWAP1 REVERT JUMPDEST PUSH32 0x0 DUP3 PUSH0 PUSH20 0xFFFFFFFFFFFFFFFFFFFFFFFFFFFFFFFFFFFFFFFF AND DUP3 PUSH20 0xFFFFFFFFFFFFFFFFFFFFFFFFFFFFFFFFFFFFFFFF AND EQ PUSH2 0x1AB6 JUMPI PUSH0 DUP3 SWAP1 POP DUP2 DUP2 PUSH20 0xFFFFFFFFFFFFFFFFFFFFFFFFFFFFFFFFFFFFFFFF AND PUSH4 0xDD62ED3E CALLER ADDRESS PUSH1 0x40 MLOAD DUP4 PUSH4 0xFFFFFFFF AND PUSH1 0xE0 SHL DUP2 MSTORE PUSH1 0x4 ADD PUSH2 0x1A34 SWAP3 SWAP2 SWAP1 PUSH2 0x2C55 JUMP JUMPDEST PUSH1 0x20 PUSH1 0x40 MLOAD DUP1 DUP4 SUB DUP2 DUP7 GAS STATICCALL ISZERO DUP1 ISZERO PUSH2 0x1A4F JUMPI RETURNDATASIZE PUSH0 DUP1 RETURNDATACOPY RETURNDATASIZE PUSH0 REVERT JUMPDEST POP POP POP POP PUSH1 0x40 MLOAD RETURNDATASIZE PUSH1 0x1F NOT PUSH1 0x1F DUP3 ADD AND DUP3 ADD DUP1 PUSH1 0x40 MSTORE POP DUP2 ADD SWAP1 PUSH2 0x1A73 SWAP2 SWAP1 PUSH2 0x2C90 JUMP JUMPDEST LT ISZERO PUSH2 0x1AB4 JUMPI PUSH1 0x40 MLOAD PUSH32 0x336EA14200000000000000000000000000000000000000000000000000000000 DUP2 MSTORE PUSH1 0x4 ADD PUSH2 0x1AAB SWAP1 PUSH2 0x2D2B JUMP JUMPDEST PUSH1 0x40 MLOAD DUP1 SWAP2 SUB SWAP1 REVERT JUMPDEST POP JUMPDEST DUP4 PUSH32 0x0 PUSH0 PUSH2 0x1AE1 PUSH2 0x1D44 JUMP JUMPDEST SWAP1 POP PUSH0 PUSH2 0x1AEE DUP5 DUP5 PUSH2 0x1EC5 JUMP JUMPDEST SWAP1 POP PUSH32 0x0 DUP2 DUP4 PUSH2 0x1B1D SWAP2 SWAP1 PUSH2 0x288F JUMP JUMPDEST GT ISZERO PUSH2 0x1B5E JUMPI PUSH1 0x40 MLOAD PUSH32 0xA2D2E1B200000000000000000000000000000000000000000000000000000000 DUP2 MSTORE PUSH1 0x4 ADD PUSH2 0x1B55 SWAP1 PUSH2 0x290C JUMP JUMPDEST PUSH1 0x40 MLOAD DUP1 SWAP2 SUB SWAP1 REVERT JUMPDEST PUSH32 0x0 PUSH20 0xFFFFFFFFFFFFFFFFFFFFFFFFFFFFFFFFFFFFFFFF AND PUSH4 0x23B872DD CALLER ADDRESS DUP12 PUSH1 0x40 MLOAD DUP5 PUSH4 0xFFFFFFFF AND PUSH1 0xE0 SHL DUP2 MSTORE PUSH1 0x4 ADD PUSH2 0x1BBB SWAP4 SWAP3 SWAP2 SWAP1 PUSH2 0x2D49 JUMP JUMPDEST PUSH1 0x20 PUSH1 0x40 MLOAD DUP1 DUP4 SUB DUP2 PUSH0 DUP8 GAS CALL ISZERO DUP1 ISZERO PUSH2 0x1BD7 JUMPI RETURNDATASIZE PUSH0 DUP1 RETURNDATACOPY RETURNDATASIZE PUSH0 REVERT JUMPDEST POP POP POP POP PUSH1 0x40 MLOAD RETURNDATASIZE PUSH1 0x1F NOT PUSH1 0x1F DUP3 ADD AND DUP3 ADD DUP1 PUSH1 0x40 MSTORE POP DUP2 ADD SWAP1 PUSH2 0x1BFB SWAP2 SWAP1 PUSH2 0x2A81 JUMP JUMPDEST POP DUP8 PUSH1 0x2 PUSH0 PUSH32 0x0 PUSH20 0xFFFFFFFFFFFFFFFFFFFFFFFFFFFFFFFFFFFFFFFF AND PUSH20 0xFFFFFFFFFFFFFFFFFFFFFFFFFFFFFFFFFFFFFFFF AND DUP2 MSTORE PUSH1 0x20 ADD SWAP1 DUP2 MSTORE PUSH1 0x20 ADD PUSH0 KECCAK256 PUSH0 CALLER PUSH20 0xFFFFFFFFFFFFFFFFFFFFFFFFFFFFFFFFFFFFFFFF AND PUSH20 0xFFFFFFFFFFFFFFFFFFFFFFFFFFFFFFFFFFFFFFFF AND DUP2 MSTORE PUSH1 0x20 ADD SWAP1 DUP2 MSTORE PUSH1 0x20 ADD PUSH0 KECCAK256 PUSH0 DUP3 DUP3 SLOAD PUSH2 0x1CA3 SWAP2 SWAP1 PUSH2 0x288F JUMP JUMPDEST SWAP3 POP POP DUP2 SWAP1 SSTORE POP PUSH2 0x1CD5 PUSH1 0x1 PUSH32 0x0 PUSH2 0x2014 JUMP JUMPDEST PUSH32 0x7B7CD0DDBBEA241880E825E1EB51C30752CB96DD7EFEB4BE691EC55DFA4D8963 CALLER DUP10 PUSH1 0x40 MLOAD PUSH2 0x1D06 SWAP3 SWAP2 SWAP1 PUSH2 0x292A JUMP JUMPDEST PUSH1 0x40 MLOAD DUP1 SWAP2 SUB SWAP1 LOG1 POP POP POP POP POP POP POP PUSH2 0x1D1D PUSH2 0x2199 JUMP JUMPDEST POP JUMP JUMPDEST PUSH32 0x0 DUP2 JUMP JUMPDEST PUSH0 DUP1 SELFBALANCE SWAP1 POP PUSH0 PUSH32 0x0 PUSH20 0xFFFFFFFFFFFFFFFFFFFFFFFFFFFFFFFFFFFFFFFF AND PUSH4 0x70A08231 ADDRESS PUSH1 0x40 MLOAD DUP3 PUSH4 0xFFFFFFFF AND PUSH1 0xE0 SHL DUP2 MSTORE PUSH1 0x4 ADD PUSH2 0x1DA3 SWAP2 SWAP1 PUSH2 0x2849 JUMP JUMPDEST PUSH1 0x20 PUSH1 0x40 MLOAD DUP1 DUP4 SUB DUP2 DUP7 GAS STATICCALL ISZERO DUP1 ISZERO PUSH2 0x1DBE JUMPI RETURNDATASIZE PUSH0 DUP1 RETURNDATACOPY RETURNDATASIZE PUSH0 REVERT JUMPDEST POP POP POP POP PUSH1 0x40 MLOAD RETURNDATASIZE PUSH1 0x1F NOT PUSH1 0x1F DUP3 ADD AND DUP3 ADD DUP1 PUSH1 0x40 MSTORE POP DUP2 ADD SWAP1 PUSH2 0x1DE2 SWAP2 SWAP1 PUSH2 0x2C90 JUMP JUMPDEST SWAP1 POP PUSH0 PUSH32 0x0 PUSH20 0xFFFFFFFFFFFFFFFFFFFFFFFFFFFFFFFFFFFFFFFF AND PUSH4 0x70A08231 ADDRESS PUSH1 0x40 MLOAD DUP3 PUSH4 0xFFFFFFFF AND PUSH1 0xE0 SHL DUP2 MSTORE PUSH1 0x4 ADD PUSH2 0x1E3E SWAP2 SWAP1 PUSH2 0x2849 JUMP JUMPDEST PUSH1 0x20 PUSH1 0x40 MLOAD DUP1 DUP4 SUB DUP2 DUP7 GAS STATICCALL ISZERO DUP1 ISZERO PUSH2 0x1E59 JUMPI RETURNDATASIZE PUSH0 DUP1 RETURNDATACOPY RETURNDATASIZE PUSH0 REVERT JUMPDEST POP POP POP POP PUSH1 0x40 MLOAD RETURNDATASIZE PUSH1 0x1F NOT PUSH1 0x1F DUP3 ADD AND DUP3 ADD DUP1 PUSH1 0x40 MSTORE POP DUP2 ADD SWAP1 PUSH2 0x1E7D SWAP2 SWAP1 PUSH2 0x2C90 JUMP JUMPDEST SWAP1 POP PUSH0 PUSH2 0x1E89 DUP5 PUSH2 0x2263 JUMP JUMPDEST SWAP1 POP PUSH0 PUSH2 0x1E95 DUP5 PUSH2 0x2291 JUMP JUMPDEST SWAP1 POP PUSH0 PUSH2 0x1EA1 DUP5 PUSH2 0x22A6 JUMP JUMPDEST SWAP1 POP DUP1 DUP3 DUP5 PUSH2 0x1EB0 SWAP2 SWAP1 PUSH2 0x288F JUMP JUMPDEST PUSH2 0x1EBA SWAP2 SWAP1 PUSH2 0x288F JUMP JUMPDEST SWAP7 POP POP POP POP POP POP POP SWAP1 JUMP JUMPDEST PUSH0 DUP1 PUSH20 0xFFFFFFFFFFFFFFFFFFFFFFFFFFFFFFFFFFFFFFFF AND DUP3 PUSH20 0xFFFFFFFFFFFFFFFFFFFFFFFFFFFFFFFFFFFFFFFF AND SUB PUSH2 0x1F09 JUMPI PUSH2 0x1F02 DUP4 PUSH2 0x2263 JUMP JUMPDEST SWAP1 POP PUSH2 0x200E JUMP JUMPDEST PUSH32 0x0 PUSH20 0xFFFFFFFFFFFFFFFFFFFFFFFFFFFFFFFFFFFFFFFF AND DUP3 PUSH20 0xFFFFFFFFFFFFFFFFFFFFFFFFFFFFFFFFFFFFFFFF AND SUB PUSH2 0x1F6C JUMPI PUSH2 0x1F65 DUP4 PUSH2 0x2291 JUMP JUMPDEST SWAP1 POP PUSH2 0x200D JUMP JUMPDEST PUSH32 0x0 PUSH20 0xFFFFFFFFFFFFFFFFFFFFFFFFFFFFFFFFFFFFFFFF AND DUP3 PUSH20 0xFFFFFFFFFFFFFFFFFFFFFFFFFFFFFFFFFFFFFFFF AND SUB PUSH2 0x1FCF JUMPI PUSH2 0x1FC8 DUP4 PUSH2 0x22A6 JUMP JUMPDEST SWAP1 POP PUSH2 0x200C JUMP JUMPDEST DUP2 PUSH1 0x40 MLOAD PUSH32 0xE584A63F00000000000000000000000000000000000000000000000000000000 DUP2 MSTORE PUSH1 0x4 ADD PUSH2 0x2003 SWAP2 SWAP1 PUSH2 0x2849 JUMP JUMPDEST PUSH1 0x40 MLOAD DUP1 SWAP2 SUB SWAP1 REVERT JUMPDEST JUMPDEST JUMPDEST SWAP3 SWAP2 POP POP JUMP JUMPDEST DUP2 ISZERO PUSH2 0x2073 JUMPI PUSH1 0x1 PUSH1 0x4 PUSH0 DUP4 PUSH20 0xFFFFFFFFFFFFFFFFFFFFFFFFFFFFFFFFFFFFFFFF AND PUSH20 0xFFFFFFFFFFFFFFFFFFFFFFFFFFFFFFFFFFFFFFFF AND DUP2 MSTORE PUSH1 0x20 ADD SWAP1 DUP2 MSTORE PUSH1 0x20 ADD PUSH0 KECCAK256 PUSH0 DUP3 DUP3 SLOAD PUSH2 0x2067 SWAP2 SWAP1 PUSH2 0x288F JUMP JUMPDEST SWAP3 POP POP DUP2 SWAP1 SSTORE POP PUSH2 0x20C8 JUMP JUMPDEST PUSH1 0x1 PUSH1 0x5 PUSH0 DUP4 PUSH20 0xFFFFFFFFFFFFFFFFFFFFFFFFFFFFFFFFFFFFFFFF AND PUSH20 0xFFFFFFFFFFFFFFFFFFFFFFFFFFFFFFFFFFFFFFFF AND DUP2 MSTORE PUSH1 0x20 ADD SWAP1 DUP2 MSTORE PUSH1 0x20 ADD PUSH0 KECCAK256 PUSH0 DUP3 DUP3 SLOAD PUSH2 0x20C0 SWAP2 SWAP1 PUSH2 0x288F JUMP JUMPDEST SWAP3 POP POP DUP2 SWAP1 SSTORE POP JUMPDEST POP POP JUMP JUMPDEST PUSH2 0x20D4 PUSH2 0x22D0 JUMP JUMPDEST PUSH20 0xFFFFFFFFFFFFFFFFFFFFFFFFFFFFFFFFFFFFFFFF AND PUSH2 0x20F2 PUSH2 0xC58 JUMP JUMPDEST PUSH20 0xFFFFFFFFFFFFFFFFFFFFFFFFFFFFFFFFFFFFFFFF AND EQ PUSH2 0x2151 JUMPI PUSH2 0x2115 PUSH2 0x22D0 JUMP JUMPDEST PUSH1 0x40 MLOAD PUSH32 0x118CDAA700000000000000000000000000000000000000000000000000000000 DUP2 MSTORE PUSH1 0x4 ADD PUSH2 0x2148 SWAP2 SWAP1 PUSH2 0x2849 JUMP JUMPDEST PUSH1 0x40 MLOAD DUP1 SWAP2 SUB SWAP1 REVERT JUMPDEST JUMP JUMPDEST PUSH1 0x2 PUSH1 0x1 SLOAD SUB PUSH2 0x218F JUMPI PUSH1 0x40 MLOAD PUSH32 0x3EE5AEB500000000000000000000000000000000000000000000000000000000 DUP2 MSTORE PUSH1 0x4 ADD PUSH1 0x40 MLOAD DUP1 SWAP2 SUB SWAP1 REVERT JUMPDEST PUSH1 0x2 PUSH1 0x1 DUP2 SWAP1 SSTORE POP JUMP JUMPDEST PUSH1 0x1 DUP1 DUP2 SWAP1 SSTORE POP JUMP JUMPDEST PUSH0 DUP1 PUSH0 SWAP1 SLOAD SWAP1 PUSH2 0x100 EXP SWAP1 DIV PUSH20 0xFFFFFFFFFFFFFFFFFFFFFFFFFFFFFFFFFFFFFFFF AND SWAP1 POP DUP2 PUSH0 DUP1 PUSH2 0x100 EXP DUP2 SLOAD DUP2 PUSH20 0xFFFFFFFFFFFFFFFFFFFFFFFFFFFFFFFFFFFFFFFF MUL NOT AND SWAP1 DUP4 PUSH20 0xFFFFFFFFFFFFFFFFFFFFFFFFFFFFFFFFFFFFFFFF AND MUL OR SWAP1 SSTORE POP DUP2 PUSH20 0xFFFFFFFFFFFFFFFFFFFFFFFFFFFFFFFFFFFFFFFF AND DUP2 PUSH20 0xFFFFFFFFFFFFFFFFFFFFFFFFFFFFFFFFFFFFFFFF AND PUSH32 0x8BE0079C531659141344CD1FD0A4F28419497F9722A3DAAFE3B4186F6B6457E0 PUSH1 0x40 MLOAD PUSH1 0x40 MLOAD DUP1 SWAP2 SUB SWAP1 LOG3 POP POP JUMP JUMPDEST PUSH0 PUSH8 0xDE0B6B3A7640000 PUSH2 0x2275 PUSH2 0x22D7 JUMP JUMPDEST DUP4 PUSH2 0x2280 SWAP2 SWAP1 PUSH2 0x2D7E JUMP JUMPDEST PUSH2 0x228A SWAP2 SWAP1 PUSH2 0x297E JUMP JUMPDEST SWAP1 POP SWAP2 SWAP1 POP JUMP JUMPDEST PUSH0 PUSH1 0x64 DUP3 PUSH2 0x229F SWAP2 SWAP1 PUSH2 0x2D7E JUMP JUMPDEST SWAP1 POP SWAP2 SWAP1 POP JUMP JUMPDEST PUSH0 PUSH4 0x5F5E100 PUSH2 0x22B4 PUSH2 0x23FB JUMP JUMPDEST DUP4 PUSH2 0x22BF SWAP2 SWAP1 PUSH2 0x2D7E JUMP JUMPDEST PUSH2 0x22C9 SWAP2 SWAP1 PUSH2 0x297E JUMP JUMPDEST SWAP1 POP SWAP2 SWAP1 POP JUMP JUMPDEST PUSH0 CALLER SWAP1 POP SWAP1 JUMP JUMPDEST PUSH0 DUP1 PUSH0 PUSH1 0x7 PUSH0 SWAP1 SLOAD SWAP1 PUSH2 0x100 EXP SWAP1 DIV PUSH20 0xFFFFFFFFFFFFFFFFFFFFFFFFFFFFFFFFFFFFFFFF AND PUSH20 0xFFFFFFFFFFFFFFFFFFFFFFFFFFFFFFFFFFFFFFFF AND PUSH4 0xFEAF968C PUSH1 0x40 MLOAD DUP2 PUSH4 0xFFFFFFFF AND PUSH1 0xE0 SHL DUP2 MSTORE PUSH1 0x4 ADD PUSH1 0xA0 PUSH1 0x40 MLOAD DUP1 DUP4 SUB DUP2 DUP7 GAS STATICCALL ISZERO DUP1 ISZERO PUSH2 0x2344 JUMPI RETURNDATASIZE PUSH0 DUP1 RETURNDATACOPY RETURNDATASIZE PUSH0 REVERT JUMPDEST POP POP POP POP PUSH1 0x40 MLOAD RETURNDATASIZE PUSH1 0x1F NOT PUSH1 0x1F DUP3 ADD AND DUP3 ADD DUP1 PUSH1 0x40 MSTORE POP DUP2 ADD SWAP1 PUSH2 0x2368 SWAP2 SWAP1 PUSH2 0x2E31 JUMP JUMPDEST POP SWAP4 POP POP SWAP3 POP POP PUSH0 DUP3 SUB PUSH2 0x23A8 JUMPI PUSH1 0x40 MLOAD PUSH32 0x155A843000000000000000000000000000000000000000000000000000000000 DUP2 MSTORE PUSH1 0x4 ADD PUSH1 0x40 MLOAD DUP1 SWAP2 SUB SWAP1 REVERT JUMPDEST PUSH2 0xE10 PUSH2 0xFFFF AND DUP2 TIMESTAMP PUSH2 0x23BB SWAP2 SWAP1 PUSH2 0x2BA2 JUMP JUMPDEST GT ISZERO PUSH2 0x23F3 JUMPI PUSH1 0x40 MLOAD PUSH32 0x65D4644700000000000000000000000000000000000000000000000000000000 DUP2 MSTORE PUSH1 0x4 ADD PUSH1 0x40 MLOAD DUP1 SWAP2 SUB SWAP1 REVERT JUMPDEST DUP2 SWAP3 POP POP POP SWAP1 JUMP JUMPDEST PUSH0 DUP1 PUSH0 PUSH1 0x6 PUSH0 SWAP1 SLOAD SWAP1 PUSH2 0x100 EXP SWAP1 DIV PUSH20 0xFFFFFFFFFFFFFFFFFFFFFFFFFFFFFFFFFFFFFFFF AND PUSH20 0xFFFFFFFFFFFFFFFFFFFFFFFFFFFFFFFFFFFFFFFF AND PUSH4 0xFEAF968C PUSH1 0x40 MLOAD DUP2 PUSH4 0xFFFFFFFF AND PUSH1 0xE0 SHL DUP2 MSTORE PUSH1 0x4 ADD PUSH1 0xA0 PUSH1 0x40 MLOAD DUP1 DUP4 SUB DUP2 DUP7 GAS STATICCALL ISZERO DUP1 ISZERO PUSH2 0x2468 JUMPI RETURNDATASIZE PUSH0 DUP1 RETURNDATACOPY RETURNDATASIZE PUSH0 REVERT JUMPDEST POP POP POP POP PUSH1 0x40 MLOAD RETURNDATASIZE PUSH1 0x1F NOT PUSH1 0x1F DUP3 ADD AND DUP3 ADD DUP1 PUSH1 0x40 MSTORE POP DUP2 ADD SWAP1 PUSH2 0x248C SWAP2 SWAP1 PUSH2 0x2E31 JUMP JUMPDEST POP SWAP4 POP POP SWAP3 POP POP PUSH0 DUP3 SUB PUSH2 0x24CC JUMPI PUSH1 0x40 MLOAD PUSH32 0x155A843000000000000000000000000000000000000000000000000000000000 DUP2 MSTORE PUSH1 0x4 ADD PUSH1 0x40 MLOAD DUP1 SWAP2 SUB SWAP1 REVERT JUMPDEST PUSH2 0xE10 PUSH2 0xFFFF AND DUP2 TIMESTAMP PUSH2 0x24DF SWAP2 SWAP1 PUSH2 0x2BA2 JUMP JUMPDEST GT ISZERO PUSH2 0x2517 JUMPI PUSH1 0x40 MLOAD PUSH32 0x65D4644700000000000000000000000000000000000000000000000000000000 DUP2 MSTORE PUSH1 0x4 ADD PUSH1 0x40 MLOAD DUP1 SWAP2 SUB SWAP1 REVERT JUMPDEST DUP2 SWAP3 POP POP POP SWAP1 JUMP JUMPDEST PUSH0 DUP3 DUP3 MSTORE PUSH1 0x20 DUP3 ADD SWAP1 POP SWAP3 SWAP2 POP POP JUMP JUMPDEST PUSH32 0x4F7065726174696F6E20646F6573206E6F7420657869737473206F7220646174 PUSH0 DUP3 ADD MSTORE PUSH32 0x612077617320696E636F72726563740000000000000000000000000000000000 PUSH1 0x20 DUP3 ADD MSTORE POP JUMP JUMPDEST PUSH0 PUSH2 0x2589 PUSH1 0x2F DUP4 PUSH2 0x251F JUMP JUMPDEST SWAP2 POP PUSH2 0x2594 DUP3 PUSH2 0x252F JUMP JUMPDEST PUSH1 0x40 DUP3 ADD SWAP1 POP SWAP2 SWAP1 POP JUMP JUMPDEST PUSH0 PUSH1 0x20 DUP3 ADD SWAP1 POP DUP2 DUP2 SUB PUSH0 DUP4 ADD MSTORE PUSH2 0x25B6 DUP2 PUSH2 0x257D JUMP JUMPDEST SWAP1 POP SWAP2 SWAP1 POP JUMP JUMPDEST PUSH0 DUP1 REVERT JUMPDEST PUSH0 PUSH20 0xFFFFFFFFFFFFFFFFFFFFFFFFFFFFFFFFFFFFFFFF DUP3 AND SWAP1 POP SWAP2 SWAP1 POP JUMP JUMPDEST PUSH0 PUSH2 0x25EA DUP3 PUSH2 0x25C1 JUMP JUMPDEST SWAP1 POP SWAP2 SWAP1 POP JUMP JUMPDEST PUSH2 0x25FA DUP2 PUSH2 0x25E0 JUMP JUMPDEST DUP2 EQ PUSH2 0x2604 JUMPI PUSH0 DUP1 REVERT JUMPDEST POP JUMP JUMPDEST PUSH0 DUP2 CALLDATALOAD SWAP1 POP PUSH2 0x2615 DUP2 PUSH2 0x25F1 JUMP JUMPDEST SWAP3 SWAP2 POP POP JUMP JUMPDEST PUSH0 PUSH1 0x20 DUP3 DUP5 SUB SLT ISZERO PUSH2 0x2630 JUMPI PUSH2 0x262F PUSH2 0x25BD JUMP JUMPDEST JUMPDEST PUSH0 PUSH2 0x263D DUP5 DUP3 DUP6 ADD PUSH2 0x2607 JUMP JUMPDEST SWAP2 POP POP SWAP3 SWAP2 POP POP JUMP JUMPDEST PUSH0 DUP2 ISZERO ISZERO SWAP1 POP SWAP2 SWAP1 POP JUMP JUMPDEST PUSH2 0x265A DUP2 PUSH2 0x2646 JUMP JUMPDEST DUP3 MSTORE POP POP JUMP JUMPDEST PUSH0 PUSH1 0x20 DUP3 ADD SWAP1 POP PUSH2 0x2673 PUSH0 DUP4 ADD DUP5 PUSH2 0x2651 JUMP JUMPDEST SWAP3 SWAP2 POP POP JUMP JUMPDEST PUSH0 DUP2 SWAP1 POP SWAP2 SWAP1 POP JUMP JUMPDEST PUSH0 PUSH2 0x269C PUSH2 0x2697 PUSH2 0x2692 DUP5 PUSH2 0x25C1 JUMP JUMPDEST PUSH2 0x2679 JUMP JUMPDEST PUSH2 0x25C1 JUMP JUMPDEST SWAP1 POP SWAP2 SWAP1 POP JUMP JUMPDEST PUSH0 PUSH2 0x26AD DUP3 PUSH2 0x2682 JUMP JUMPDEST SWAP1 POP SWAP2 SWAP1 POP JUMP JUMPDEST PUSH0 PUSH2 0x26BE DUP3 PUSH2 0x26A3 JUMP JUMPDEST SWAP1 POP SWAP2 SWAP1 POP JUMP JUMPDEST PUSH2 0x26CE DUP2 PUSH2 0x26B4 JUMP JUMPDEST DUP3 MSTORE POP POP JUMP JUMPDEST PUSH0 PUSH1 0x20 DUP3 ADD SWAP1 POP PUSH2 0x26E7 PUSH0 DUP4 ADD DUP5 PUSH2 0x26C5 JUMP JUMPDEST SWAP3 SWAP2 POP POP JUMP JUMPDEST PUSH0 DUP2 SWAP1 POP SWAP2 SWAP1 POP JUMP JUMPDEST PUSH2 0x26FF DUP2 PUSH2 0x26ED JUMP JUMPDEST DUP3 MSTORE POP POP JUMP JUMPDEST PUSH0 PUSH1 0x20 DUP3 ADD SWAP1 POP PUSH2 0x2718 PUSH0 DUP4 ADD DUP5 PUSH2 0x26F6 JUMP JUMPDEST SWAP3 SWAP2 POP POP JUMP JUMPDEST PUSH2 0x2727 DUP2 PUSH2 0x26ED JUMP JUMPDEST DUP2 EQ PUSH2 0x2731 JUMPI PUSH0 DUP1 REVERT JUMPDEST POP JUMP JUMPDEST PUSH0 DUP2 CALLDATALOAD SWAP1 POP PUSH2 0x2742 DUP2 PUSH2 0x271E JUMP JUMPDEST SWAP3 SWAP2 POP POP JUMP JUMPDEST PUSH0 DUP1 PUSH0 PUSH1 0x60 DUP5 DUP7 SUB SLT ISZERO PUSH2 0x275F JUMPI PUSH2 0x275E PUSH2 0x25BD JUMP JUMPDEST JUMPDEST PUSH0 PUSH2 0x276C DUP7 DUP3 DUP8 ADD PUSH2 0x2607 JUMP JUMPDEST SWAP4 POP POP PUSH1 0x20 PUSH2 0x277D DUP7 DUP3 DUP8 ADD PUSH2 0x2734 JUMP JUMPDEST SWAP3 POP POP PUSH1 0x40 PUSH2 0x278E DUP7 DUP3 DUP8 ADD PUSH2 0x2607 JUMP JUMPDEST SWAP2 POP POP SWAP3 POP SWAP3 POP SWAP3 JUMP JUMPDEST PUSH0 PUSH1 0x20 DUP3 DUP5 SUB SLT ISZERO PUSH2 0x27AD JUMPI PUSH2 0x27AC PUSH2 0x25BD JUMP JUMPDEST JUMPDEST PUSH0 PUSH2 0x27BA DUP5 DUP3 DUP6 ADD PUSH2 0x2734 JUMP JUMPDEST SWAP2 POP POP SWAP3 SWAP2 POP POP JUMP JUMPDEST PUSH0 DUP1 PUSH1 0x40 DUP4 DUP6 SUB SLT ISZERO PUSH2 0x27D9 JUMPI PUSH2 0x27D8 PUSH2 0x25BD JUMP JUMPDEST JUMPDEST PUSH0 PUSH2 0x27E6 DUP6 DUP3 DUP7 ADD PUSH2 0x2607 JUMP JUMPDEST SWAP3 POP POP PUSH1 0x20 PUSH2 0x27F7 DUP6 DUP3 DUP7 ADD PUSH2 0x2607 JUMP JUMPDEST SWAP2 POP POP SWAP3 POP SWAP3 SWAP1 POP JUMP JUMPDEST PUSH0 PUSH2 0x280B DUP3 PUSH2 0x26A3 JUMP JUMPDEST SWAP1 POP SWAP2 SWAP1 POP JUMP JUMPDEST PUSH2 0x281B DUP2 PUSH2 0x2801 JUMP JUMPDEST DUP3 MSTORE POP POP JUMP JUMPDEST PUSH0 PUSH1 0x20 DUP3 ADD SWAP1 POP PUSH2 0x2834 PUSH0 DUP4 ADD DUP5 PUSH2 0x2812 JUMP JUMPDEST SWAP3 SWAP2 POP POP JUMP JUMPDEST PUSH2 0x2843 DUP2 PUSH2 0x25E0 JUMP JUMPDEST DUP3 MSTORE POP POP JUMP JUMPDEST PUSH0 PUSH1 0x20 DUP3 ADD SWAP1 POP PUSH2 0x285C PUSH0 DUP4 ADD DUP5 PUSH2 0x283A JUMP JUMPDEST SWAP3 SWAP2 POP POP JUMP JUMPDEST PUSH32 0x4E487B7100000000000000000000000000000000000000000000000000000000 PUSH0 MSTORE PUSH1 0x11 PUSH1 0x4 MSTORE PUSH1 0x24 PUSH0 REVERT JUMPDEST PUSH0 PUSH2 0x2899 DUP3 PUSH2 0x26ED JUMP JUMPDEST SWAP2 POP PUSH2 0x28A4 DUP4 PUSH2 0x26ED JUMP JUMPDEST SWAP3 POP DUP3 DUP3 ADD SWAP1 POP DUP1 DUP3 GT ISZERO PUSH2 0x28BC JUMPI PUSH2 0x28BB PUSH2 0x2862 JUMP JUMPDEST JUMPDEST SWAP3 SWAP2 POP POP JUMP JUMPDEST PUSH32 0x546F74616C204B69707542616E6B277320666F756E6473206578636565646564 PUSH0 DUP3 ADD MSTORE POP JUMP JUMPDEST PUSH0 PUSH2 0x28F6 PUSH1 0x20 DUP4 PUSH2 0x251F JUMP JUMPDEST SWAP2 POP PUSH2 0x2901 DUP3 PUSH2 0x28C2 JUMP JUMPDEST PUSH1 0x20 DUP3 ADD SWAP1 POP SWAP2 SWAP1 POP JUMP JUMPDEST PUSH0 PUSH1 0x20 DUP3 ADD SWAP1 POP DUP2 DUP2 SUB PUSH0 DUP4 ADD MSTORE PUSH2 0x2923 DUP2 PUSH2 0x28EA JUMP JUMPDEST SWAP1 POP SWAP2 SWAP1 POP JUMP JUMPDEST PUSH0 PUSH1 0x40 DUP3 ADD SWAP1 POP PUSH2 0x293D PUSH0 DUP4 ADD DUP6 PUSH2 0x283A JUMP JUMPDEST PUSH2 0x294A PUSH1 0x20 DUP4 ADD DUP5 PUSH2 0x26F6 JUMP JUMPDEST SWAP4 SWAP3 POP POP POP JUMP JUMPDEST PUSH32 0x4E487B7100000000000000000000000000000000000000000000000000000000 PUSH0 MSTORE PUSH1 0x12 PUSH1 0x4 MSTORE PUSH1 0x24 PUSH0 REVERT JUMPDEST PUSH0 PUSH2 0x2988 DUP3 PUSH2 0x26ED JUMP JUMPDEST SWAP2 POP PUSH2 0x2993 DUP4 PUSH2 0x26ED JUMP JUMPDEST SWAP3 POP DUP3 PUSH2 0x29A3 JUMPI PUSH2 0x29A2 PUSH2 0x2951 JUMP JUMPDEST JUMPDEST DUP3 DUP3 DIV SWAP1 POP SWAP3 SWAP2 POP POP JUMP JUMPDEST PUSH0 DUP2 SWAP1 POP SWAP3 SWAP2 POP POP JUMP JUMPDEST POP JUMP JUMPDEST PUSH0 PUSH2 0x29C6 PUSH0 DUP4 PUSH2 0x29AE JUMP JUMPDEST SWAP2 POP PUSH2 0x29D1 DUP3 PUSH2 0x29B8 JUMP JUMPDEST PUSH0 DUP3 ADD SWAP1 POP SWAP2 SWAP1 POP JUMP JUMPDEST PUSH0 PUSH2 0x29E5 DUP3 PUSH2 0x29BB JUMP JUMPDEST SWAP2 POP DUP2 SWAP1 POP SWAP2 SWAP1 POP JUMP JUMPDEST PUSH32 0x455448207472616E73666572206661696C656400000000000000000000000000 PUSH0 DUP3 ADD MSTORE POP JUMP JUMPDEST PUSH0 PUSH2 0x2A23 PUSH1 0x13 DUP4 PUSH2 0x251F JUMP JUMPDEST SWAP2 POP PUSH2 0x2A2E DUP3 PUSH2 0x29EF JUMP JUMPDEST PUSH1 0x20 DUP3 ADD SWAP1 POP SWAP2 SWAP1 POP JUMP JUMPDEST PUSH0 PUSH1 0x20 DUP3 ADD SWAP1 POP DUP2 DUP2 SUB PUSH0 DUP4 ADD MSTORE PUSH2 0x2A50 DUP2 PUSH2 0x2A17 JUMP JUMPDEST SWAP1 POP SWAP2 SWAP1 POP JUMP JUMPDEST PUSH2 0x2A60 DUP2 PUSH2 0x2646 JUMP JUMPDEST DUP2 EQ PUSH2 0x2A6A JUMPI PUSH0 DUP1 REVERT JUMPDEST POP JUMP JUMPDEST PUSH0 DUP2 MLOAD SWAP1 POP PUSH2 0x2A7B DUP2 PUSH2 0x2A57 JUMP JUMPDEST SWAP3 SWAP2 POP POP JUMP JUMPDEST PUSH0 PUSH1 0x20 DUP3 DUP5 SUB SLT ISZERO PUSH2 0x2A96 JUMPI PUSH2 0x2A95 PUSH2 0x25BD JUMP JUMPDEST JUMPDEST PUSH0 PUSH2 0x2AA3 DUP5 DUP3 DUP6 ADD PUSH2 0x2A6D JUMP JUMPDEST SWAP2 POP POP SWAP3 SWAP2 POP POP JUMP JUMPDEST PUSH32 0x416D6F756E74206578636565647320746865206D6178696D756D207769746864 PUSH0 DUP3 ADD MSTORE PUSH32 0x726177616C000000000000000000000000000000000000000000000000000000 PUSH1 0x20 DUP3 ADD MSTORE POP JUMP JUMPDEST PUSH0 PUSH2 0x2B06 PUSH1 0x25 DUP4 PUSH2 0x251F JUMP JUMPDEST SWAP2 POP PUSH2 0x2B11 DUP3 PUSH2 0x2AAC JUMP JUMPDEST PUSH1 0x40 DUP3 ADD SWAP1 POP SWAP2 SWAP1 POP JUMP JUMPDEST PUSH0 PUSH1 0x20 DUP3 ADD SWAP1 POP DUP2 DUP2 SUB PUSH0 DUP4 ADD MSTORE PUSH2 0x2B33 DUP2 PUSH2 0x2AFA JUMP JUMPDEST SWAP1 POP SWAP2 SWAP1 POP JUMP JUMPDEST PUSH32 0x4E6F7420656E6F75676820666F756E6473000000000000000000000000000000 PUSH0 DUP3 ADD MSTORE POP JUMP JUMPDEST PUSH0 PUSH2 0x2B6E PUSH1 0x11 DUP4 PUSH2 0x251F JUMP JUMPDEST SWAP2 POP PUSH2 0x2B79 DUP3 PUSH2 0x2B3A JUMP JUMPDEST PUSH1 0x20 DUP3 ADD SWAP1 POP SWAP2 SWAP1 POP JUMP JUMPDEST PUSH0 PUSH1 0x20 DUP3 ADD SWAP1 POP DUP2 DUP2 SUB PUSH0 DUP4 ADD MSTORE PUSH2 0x2B9B DUP2 PUSH2 0x2B62 JUMP JUMPDEST SWAP1 POP SWAP2 SWAP1 POP JUMP JUMPDEST PUSH0 PUSH2 0x2BAC DUP3 PUSH2 0x26ED JUMP JUMPDEST SWAP2 POP PUSH2 0x2BB7 DUP4 PUSH2 0x26ED JUMP JUMPDEST SWAP3 POP DUP3 DUP3 SUB SWAP1 POP DUP2 DUP2 GT ISZERO PUSH2 0x2BCF JUMPI PUSH2 0x2BCE PUSH2 0x2862 JUMP JUMPDEST JUMPDEST SWAP3 SWAP2 POP POP JUMP JUMPDEST PUSH0 DUP2 MLOAD SWAP1 POP SWAP2 SWAP1 POP JUMP JUMPDEST DUP3 DUP2 DUP4 MCOPY PUSH0 DUP4 DUP4 ADD MSTORE POP POP POP JUMP JUMPDEST PUSH0 PUSH1 0x1F NOT PUSH1 0x1F DUP4 ADD AND SWAP1 POP SWAP2 SWAP1 POP JUMP JUMPDEST PUSH0 PUSH2 0x2C07 DUP3 PUSH2 0x2BD5 JUMP JUMPDEST PUSH2 0x2C11 DUP2 DUP6 PUSH2 0x251F JUMP JUMPDEST SWAP4 POP PUSH2 0x2C21 DUP2 DUP6 PUSH1 0x20 DUP7 ADD PUSH2 0x2BDF JUMP JUMPDEST PUSH2 0x2C2A DUP2 PUSH2 0x2BED JUMP JUMPDEST DUP5 ADD SWAP2 POP POP SWAP3 SWAP2 POP POP JUMP JUMPDEST PUSH0 PUSH1 0x20 DUP3 ADD SWAP1 POP DUP2 DUP2 SUB PUSH0 DUP4 ADD MSTORE PUSH2 0x2C4D DUP2 DUP5 PUSH2 0x2BFD JUMP JUMPDEST SWAP1 POP SWAP3 SWAP2 POP POP JUMP JUMPDEST PUSH0 PUSH1 0x40 DUP3 ADD SWAP1 POP PUSH2 0x2C68 PUSH0 DUP4 ADD DUP6 PUSH2 0x283A JUMP JUMPDEST PUSH2 0x2C75 PUSH1 0x20 DUP4 ADD DUP5 PUSH2 0x283A JUMP JUMPDEST SWAP4 SWAP3 POP POP POP JUMP JUMPDEST PUSH0 DUP2 MLOAD SWAP1 POP PUSH2 0x2C8A DUP2 PUSH2 0x271E JUMP JUMPDEST SWAP3 SWAP2 POP POP JUMP JUMPDEST PUSH0 PUSH1 0x20 DUP3 DUP5 SUB SLT ISZERO PUSH2 0x2CA5 JUMPI PUSH2 0x2CA4 PUSH2 0x25BD JUMP JUMPDEST JUMPDEST PUSH0 PUSH2 0x2CB2 DUP5 DUP3 DUP6 ADD PUSH2 0x2C7C JUMP JUMPDEST SWAP2 POP POP SWAP3 SWAP2 POP POP JUMP JUMPDEST PUSH32 0x45524332303A20496E73756666696369656E7420616C6C6F77616E636520666F PUSH0 DUP3 ADD MSTORE PUSH32 0x72207472616E7366657246726F6D000000000000000000000000000000000000 PUSH1 0x20 DUP3 ADD MSTORE POP JUMP JUMPDEST PUSH0 PUSH2 0x2D15 PUSH1 0x2E DUP4 PUSH2 0x251F JUMP JUMPDEST SWAP2 POP PUSH2 0x2D20 DUP3 PUSH2 0x2CBB JUMP JUMPDEST PUSH1 0x40 DUP3 ADD SWAP1 POP SWAP2 SWAP1 POP JUMP JUMPDEST PUSH0 PUSH1 0x20 DUP3 ADD SWAP1 POP DUP2 DUP2 SUB PUSH0 DUP4 ADD MSTORE PUSH2 0x2D42 DUP2 PUSH2 0x2D09 JUMP JUMPDEST SWAP1 POP SWAP2 SWAP1 POP JUMP JUMPDEST PUSH0 PUSH1 0x60 DUP3 ADD SWAP1 POP PUSH2 0x2D5C PUSH0 DUP4 ADD DUP7 PUSH2 0x283A JUMP JUMPDEST PUSH2 0x2D69 PUSH1 0x20 DUP4 ADD DUP6 PUSH2 0x283A JUMP JUMPDEST PUSH2 0x2D76 PUSH1 0x40 DUP4 ADD DUP5 PUSH2 0x26F6 JUMP JUMPDEST SWAP5 SWAP4 POP POP POP POP JUMP JUMPDEST PUSH0 PUSH2 0x2D88 DUP3 PUSH2 0x26ED JUMP JUMPDEST SWAP2 POP PUSH2 0x2D93 DUP4 PUSH2 0x26ED JUMP JUMPDEST SWAP3 POP DUP3 DUP3 MUL PUSH2 0x2DA1 DUP2 PUSH2 0x26ED JUMP JUMPDEST SWAP2 POP DUP3 DUP3 DIV DUP5 EQ DUP4 ISZERO OR PUSH2 0x2DB8 JUMPI PUSH2 0x2DB7 PUSH2 0x2862 JUMP JUMPDEST JUMPDEST POP SWAP3 SWAP2 POP POP JUMP JUMPDEST PUSH0 PUSH10 0xFFFFFFFFFFFFFFFFFFFF DUP3 AND SWAP1 POP SWAP2 SWAP1 POP JUMP JUMPDEST PUSH2 0x2DDD DUP2 PUSH2 0x2DBF JUMP JUMPDEST DUP2 EQ PUSH2 0x2DE7 JUMPI PUSH0 DUP1 REVERT JUMPDEST POP JUMP JUMPDEST PUSH0 DUP2 MLOAD SWAP1 POP PUSH2 0x2DF8 DUP2 PUSH2 0x2DD4 JUMP JUMPDEST SWAP3 SWAP2 POP POP JUMP JUMPDEST PUSH0 DUP2 SWAP1 POP SWAP2 SWAP1 POP JUMP JUMPDEST PUSH2 0x2E10 DUP2 PUSH2 0x2DFE JUMP JUMPDEST DUP2 EQ PUSH2 0x2E1A JUMPI PUSH0 DUP1 REVERT JUMPDEST POP JUMP JUMPDEST PUSH0 DUP2 MLOAD SWAP1 POP PUSH2 0x2E2B DUP2 PUSH2 0x2E07 JUMP JUMPDEST SWAP3 SWAP2 POP POP JUMP JUMPDEST PUSH0 DUP1 PUSH0 DUP1 PUSH0 PUSH1 0xA0 DUP7 DUP9 SUB SLT ISZERO PUSH2 0x2E4A JUMPI PUSH2 0x2E49 PUSH2 0x25BD JUMP JUMPDEST JUMPDEST PUSH0 PUSH2 0x2E57 DUP9 DUP3 DUP10 ADD PUSH2 0x2DEA JUMP JUMPDEST SWAP6 POP POP PUSH1 0x20 PUSH2 0x2E68 DUP9 DUP3 DUP10 ADD PUSH2 0x2E1D JUMP JUMPDEST SWAP5 POP POP PUSH1 0x40 PUSH2 0x2E79 DUP9 DUP3 DUP10 ADD PUSH2 0x2C7C JUMP JUMPDEST SWAP4 POP POP PUSH1 0x60 PUSH2 0x2E8A DUP9 DUP3 DUP10 ADD PUSH2 0x2C7C JUMP JUMPDEST SWAP3 POP POP PUSH1 0x80 PUSH2 0x2E9B DUP9 DUP3 DUP10 ADD PUSH2 0x2DEA JUMP JUMPDEST SWAP2 POP POP SWAP3 SWAP6 POP SWAP3 SWAP6 SWAP1 SWAP4 POP JUMP INVALID LOG2 PUSH5 0x6970667358 0x22 SLT KECCAK256 0x4F SWAP9 PUSH29 0x5CBEE2075645E358ADFE74236432C0CF3257C27AD7FAE3BE4BCD8A994A PUSH5 0x736F6C6343 STOP ADDMOD BYTE STOP CALLER "
				},
				"gasEstimates": {
					"creation": {
						"codeDepositCost": "2399600",
						"executionCost": "infinite",
						"totalCost": "infinite"
					},
					"external": {
						"": "554",
						"consultKipuBankFounds()": "infinite",
						"deposit()": "infinite",
						"depositBTC(uint256)": "infinite",
						"depositUSDC(uint256)": "infinite",
						"emergencyWithdrawal(address,uint256,address)": "infinite",
						"i_bankCap()": "infinite",
						"i_btc()": "infinite",
						"i_maxWithdrawal()": "infinite",
						"i_usdc()": "infinite",
						"owner()": "2560",
						"renounceOwnership()": "infinite",
						"s_btcFeed()": "infinite",
						"s_ethFeed()": "infinite",
						"s_supportedTokens(address)": "2857",
						"s_totalDepositsByToken(address)": "2825",
						"s_totalWithdrawalsByToken(address)": "2913",
						"setFeeds(address,address)": "infinite",
						"transferOwnership(address)": "infinite",
						"withdraw(uint256)": "infinite",
						"withdrawBTC(uint256)": "infinite",
						"withdrawUSDC(uint256)": "infinite"
					},
					"internal": {
						"_actualizeOperations(bool,address)": "infinite",
						"_chainlinkFeedBTC()": "infinite",
						"_chainlinkFeedETH()": "infinite",
						"_consultFounds()": "infinite",
						"_convertBtcToUSD(uint256)": "infinite",
						"_convertEthToUSD(uint256)": "infinite",
						"_convertToUSD(uint256,address)": "infinite",
						"_convertUsdcToUSD(uint256)": "infinite",
						"_depositEther(address,uint256)": "infinite"
					}
				},
				"methodIdentifiers": {
					"consultKipuBankFounds()": "06f69acc",
					"deposit()": "d0e30db0",
					"depositBTC(uint256)": "a6b6d798",
					"depositUSDC(uint256)": "f688bcfb",
					"emergencyWithdrawal(address,uint256,address)": "20409250",
					"i_bankCap()": "f6687af7",
					"i_btc()": "66be4362",
					"i_maxWithdrawal()": "089781a9",
					"i_usdc()": "ff40e1d0",
					"owner()": "8da5cb5b",
					"renounceOwnership()": "715018a6",
					"s_btcFeed()": "535f2d0d",
					"s_ethFeed()": "02d75efc",
					"s_supportedTokens(address)": "029751be",
					"s_totalDepositsByToken(address)": "260ad389",
					"s_totalWithdrawalsByToken(address)": "bcc1760f",
					"setFeeds(address,address)": "56b33537",
					"transferOwnership(address)": "f2fde38b",
					"withdraw(uint256)": "2e1a7d4d",
					"withdrawBTC(uint256)": "90b4588b",
					"withdrawUSDC(uint256)": "db81f99b"
				}
			},
			"storageLayout": {
				"storage": [
					{
						"astId": 54,
						"contract": "contracts/KipuBankV2.sol:KipuBankV2",
						"label": "_owner",
						"offset": 0,
						"slot": "0",
						"type": "t_address"
					},
					{
						"astId": 312,
						"contract": "contracts/KipuBankV2.sol:KipuBankV2",
						"label": "_status",
						"offset": 0,
						"slot": "1",
						"type": "t_uint256"
					},
					{
						"astId": 391,
						"contract": "contracts/KipuBankV2.sol:KipuBankV2",
						"label": "s_balances",
						"offset": 0,
						"slot": "2",
						"type": "t_mapping(t_address,t_mapping(t_address,t_uint256))"
					},
					{
						"astId": 395,
						"contract": "contracts/KipuBankV2.sol:KipuBankV2",
						"label": "s_supportedTokens",
						"offset": 0,
						"slot": "3",
						"type": "t_mapping(t_address,t_bool)"
					},
					{
						"astId": 400,
						"contract": "contracts/KipuBankV2.sol:KipuBankV2",
						"label": "s_totalDepositsByToken",
						"offset": 0,
						"slot": "4",
						"type": "t_mapping(t_address,t_uint256)"
					},
					{
						"astId": 405,
						"contract": "contracts/KipuBankV2.sol:KipuBankV2",
						"label": "s_totalWithdrawalsByToken",
						"offset": 0,
						"slot": "5",
						"type": "t_mapping(t_address,t_uint256)"
					},
					{
						"astId": 408,
						"contract": "contracts/KipuBankV2.sol:KipuBankV2",
						"label": "s_btcFeed",
						"offset": 0,
						"slot": "6",
						"type": "t_contract(AggregatorV3Interface)45"
					},
					{
						"astId": 411,
						"contract": "contracts/KipuBankV2.sol:KipuBankV2",
						"label": "s_ethFeed",
						"offset": 0,
						"slot": "7",
						"type": "t_contract(AggregatorV3Interface)45"
					}
				],
				"types": {
					"t_address": {
						"encoding": "inplace",
						"label": "address",
						"numberOfBytes": "20"
					},
					"t_bool": {
						"encoding": "inplace",
						"label": "bool",
						"numberOfBytes": "1"
					},
					"t_contract(AggregatorV3Interface)45": {
						"encoding": "inplace",
						"label": "contract AggregatorV3Interface",
						"numberOfBytes": "20"
					},
					"t_mapping(t_address,t_bool)": {
						"encoding": "mapping",
						"key": "t_address",
						"label": "mapping(address => bool)",
						"numberOfBytes": "32",
						"value": "t_bool"
					},
					"t_mapping(t_address,t_mapping(t_address,t_uint256))": {
						"encoding": "mapping",
						"key": "t_address",
						"label": "mapping(address => mapping(address => uint256))",
						"numberOfBytes": "32",
						"value": "t_mapping(t_address,t_uint256)"
					},
					"t_mapping(t_address,t_uint256)": {
						"encoding": "mapping",
						"key": "t_address",
						"label": "mapping(address => uint256)",
						"numberOfBytes": "32",
						"value": "t_uint256"
					},
					"t_uint256": {
						"encoding": "inplace",
						"label": "uint256",
						"numberOfBytes": "32"
					}
				}
			},
			"userdoc": {
				"kind": "user",
				"methods": {
					"i_bankCap()": {
						"notice": "Maximum Ether capacity that the bank can hold."
					},
					"i_maxWithdrawal()": {
						"notice": "Maximum allowed withdrawal amount per transaction."
					},
					"s_totalDepositsByToken(address)": {
						"notice": "Total number of deposits made in the bank."
					},
					"s_totalWithdrawalsByToken(address)": {
						"notice": "Total number of withdrawals made in the bank."
					}
				},
				"version": 1
			}
		}
	}
}